{
  "_format": "hh-sol-artifact-1",
  "contractName": "TimelockController",
  "sourceName": "@openzeppelin/contracts/governance/TimelockController.sol",
  "abi": [
    {
      "inputs": [
        {
          "internalType": "uint256",
          "name": "minDelay",
          "type": "uint256"
        },
        {
          "internalType": "address[]",
          "name": "proposers",
          "type": "address[]"
        },
        {
          "internalType": "address[]",
          "name": "executors",
          "type": "address[]"
        },
        {
          "internalType": "address",
          "name": "admin",
          "type": "address"
        }
      ],
      "stateMutability": "nonpayable",
      "type": "constructor"
    },
    {
      "inputs": [],
      "name": "AccessControlBadConfirmation",
      "type": "error"
    },
    {
      "inputs": [
        {
          "internalType": "address",
          "name": "account",
          "type": "address"
        },
        {
          "internalType": "bytes32",
          "name": "neededRole",
          "type": "bytes32"
        }
      ],
      "name": "AccessControlUnauthorizedAccount",
      "type": "error"
    },
    {
      "inputs": [],
      "name": "FailedCall",
      "type": "error"
    },
    {
      "inputs": [
        {
          "internalType": "uint256",
          "name": "delay",
          "type": "uint256"
        },
        {
          "internalType": "uint256",
          "name": "minDelay",
          "type": "uint256"
        }
      ],
      "name": "TimelockInsufficientDelay",
      "type": "error"
    },
    {
      "inputs": [
        {
          "internalType": "uint256",
          "name": "targets",
          "type": "uint256"
        },
        {
          "internalType": "uint256",
          "name": "payloads",
          "type": "uint256"
        },
        {
          "internalType": "uint256",
          "name": "values",
          "type": "uint256"
        }
      ],
      "name": "TimelockInvalidOperationLength",
      "type": "error"
    },
    {
      "inputs": [
        {
          "internalType": "address",
          "name": "caller",
          "type": "address"
        }
      ],
      "name": "TimelockUnauthorizedCaller",
      "type": "error"
    },
    {
      "inputs": [
        {
          "internalType": "bytes32",
          "name": "predecessorId",
          "type": "bytes32"
        }
      ],
      "name": "TimelockUnexecutedPredecessor",
      "type": "error"
    },
    {
      "inputs": [
        {
          "internalType": "bytes32",
          "name": "operationId",
          "type": "bytes32"
        },
        {
          "internalType": "bytes32",
          "name": "expectedStates",
          "type": "bytes32"
        }
      ],
      "name": "TimelockUnexpectedOperationState",
      "type": "error"
    },
    {
      "anonymous": false,
      "inputs": [
        {
          "indexed": true,
          "internalType": "bytes32",
          "name": "id",
          "type": "bytes32"
        },
        {
          "indexed": true,
          "internalType": "uint256",
          "name": "index",
          "type": "uint256"
        },
        {
          "indexed": false,
          "internalType": "address",
          "name": "target",
          "type": "address"
        },
        {
          "indexed": false,
          "internalType": "uint256",
          "name": "value",
          "type": "uint256"
        },
        {
          "indexed": false,
          "internalType": "bytes",
          "name": "data",
          "type": "bytes"
        }
      ],
      "name": "CallExecuted",
      "type": "event"
    },
    {
      "anonymous": false,
      "inputs": [
        {
          "indexed": true,
          "internalType": "bytes32",
          "name": "id",
          "type": "bytes32"
        },
        {
          "indexed": false,
          "internalType": "bytes32",
          "name": "salt",
          "type": "bytes32"
        }
      ],
      "name": "CallSalt",
      "type": "event"
    },
    {
      "anonymous": false,
      "inputs": [
        {
          "indexed": true,
          "internalType": "bytes32",
          "name": "id",
          "type": "bytes32"
        },
        {
          "indexed": true,
          "internalType": "uint256",
          "name": "index",
          "type": "uint256"
        },
        {
          "indexed": false,
          "internalType": "address",
          "name": "target",
          "type": "address"
        },
        {
          "indexed": false,
          "internalType": "uint256",
          "name": "value",
          "type": "uint256"
        },
        {
          "indexed": false,
          "internalType": "bytes",
          "name": "data",
          "type": "bytes"
        },
        {
          "indexed": false,
          "internalType": "bytes32",
          "name": "predecessor",
          "type": "bytes32"
        },
        {
          "indexed": false,
          "internalType": "uint256",
          "name": "delay",
          "type": "uint256"
        }
      ],
      "name": "CallScheduled",
      "type": "event"
    },
    {
      "anonymous": false,
      "inputs": [
        {
          "indexed": true,
          "internalType": "bytes32",
          "name": "id",
          "type": "bytes32"
        }
      ],
      "name": "Cancelled",
      "type": "event"
    },
    {
      "anonymous": false,
      "inputs": [
        {
          "indexed": false,
          "internalType": "uint256",
          "name": "oldDuration",
          "type": "uint256"
        },
        {
          "indexed": false,
          "internalType": "uint256",
          "name": "newDuration",
          "type": "uint256"
        }
      ],
      "name": "MinDelayChange",
      "type": "event"
    },
    {
      "anonymous": false,
      "inputs": [
        {
          "indexed": true,
          "internalType": "bytes32",
          "name": "role",
          "type": "bytes32"
        },
        {
          "indexed": true,
          "internalType": "bytes32",
          "name": "previousAdminRole",
          "type": "bytes32"
        },
        {
          "indexed": true,
          "internalType": "bytes32",
          "name": "newAdminRole",
          "type": "bytes32"
        }
      ],
      "name": "RoleAdminChanged",
      "type": "event"
    },
    {
      "anonymous": false,
      "inputs": [
        {
          "indexed": true,
          "internalType": "bytes32",
          "name": "role",
          "type": "bytes32"
        },
        {
          "indexed": true,
          "internalType": "address",
          "name": "account",
          "type": "address"
        },
        {
          "indexed": true,
          "internalType": "address",
          "name": "sender",
          "type": "address"
        }
      ],
      "name": "RoleGranted",
      "type": "event"
    },
    {
      "anonymous": false,
      "inputs": [
        {
          "indexed": true,
          "internalType": "bytes32",
          "name": "role",
          "type": "bytes32"
        },
        {
          "indexed": true,
          "internalType": "address",
          "name": "account",
          "type": "address"
        },
        {
          "indexed": true,
          "internalType": "address",
          "name": "sender",
          "type": "address"
        }
      ],
      "name": "RoleRevoked",
      "type": "event"
    },
    {
      "inputs": [],
      "name": "CANCELLER_ROLE",
      "outputs": [
        {
          "internalType": "bytes32",
          "name": "",
          "type": "bytes32"
        }
      ],
      "stateMutability": "view",
      "type": "function"
    },
    {
      "inputs": [],
      "name": "DEFAULT_ADMIN_ROLE",
      "outputs": [
        {
          "internalType": "bytes32",
          "name": "",
          "type": "bytes32"
        }
      ],
      "stateMutability": "view",
      "type": "function"
    },
    {
      "inputs": [],
      "name": "EXECUTOR_ROLE",
      "outputs": [
        {
          "internalType": "bytes32",
          "name": "",
          "type": "bytes32"
        }
      ],
      "stateMutability": "view",
      "type": "function"
    },
    {
      "inputs": [],
      "name": "PROPOSER_ROLE",
      "outputs": [
        {
          "internalType": "bytes32",
          "name": "",
          "type": "bytes32"
        }
      ],
      "stateMutability": "view",
      "type": "function"
    },
    {
      "inputs": [
        {
          "internalType": "bytes32",
          "name": "id",
          "type": "bytes32"
        }
      ],
      "name": "cancel",
      "outputs": [],
      "stateMutability": "nonpayable",
      "type": "function"
    },
    {
      "inputs": [
        {
          "internalType": "address",
          "name": "target",
          "type": "address"
        },
        {
          "internalType": "uint256",
          "name": "value",
          "type": "uint256"
        },
        {
          "internalType": "bytes",
          "name": "payload",
          "type": "bytes"
        },
        {
          "internalType": "bytes32",
          "name": "predecessor",
          "type": "bytes32"
        },
        {
          "internalType": "bytes32",
          "name": "salt",
          "type": "bytes32"
        }
      ],
      "name": "execute",
      "outputs": [],
      "stateMutability": "payable",
      "type": "function"
    },
    {
      "inputs": [
        {
          "internalType": "address[]",
          "name": "targets",
          "type": "address[]"
        },
        {
          "internalType": "uint256[]",
          "name": "values",
          "type": "uint256[]"
        },
        {
          "internalType": "bytes[]",
          "name": "payloads",
          "type": "bytes[]"
        },
        {
          "internalType": "bytes32",
          "name": "predecessor",
          "type": "bytes32"
        },
        {
          "internalType": "bytes32",
          "name": "salt",
          "type": "bytes32"
        }
      ],
      "name": "executeBatch",
      "outputs": [],
      "stateMutability": "payable",
      "type": "function"
    },
    {
      "inputs": [],
      "name": "getMinDelay",
      "outputs": [
        {
          "internalType": "uint256",
          "name": "",
          "type": "uint256"
        }
      ],
      "stateMutability": "view",
      "type": "function"
    },
    {
      "inputs": [
        {
          "internalType": "bytes32",
          "name": "id",
          "type": "bytes32"
        }
      ],
      "name": "getOperationState",
      "outputs": [
        {
          "internalType": "enum TimelockController.OperationState",
          "name": "",
          "type": "uint8"
        }
      ],
      "stateMutability": "view",
      "type": "function"
    },
    {
      "inputs": [
        {
          "internalType": "bytes32",
          "name": "role",
          "type": "bytes32"
        }
      ],
      "name": "getRoleAdmin",
      "outputs": [
        {
          "internalType": "bytes32",
          "name": "",
          "type": "bytes32"
        }
      ],
      "stateMutability": "view",
      "type": "function"
    },
    {
      "inputs": [
        {
          "internalType": "bytes32",
          "name": "id",
          "type": "bytes32"
        }
      ],
      "name": "getTimestamp",
      "outputs": [
        {
          "internalType": "uint256",
          "name": "",
          "type": "uint256"
        }
      ],
      "stateMutability": "view",
      "type": "function"
    },
    {
      "inputs": [
        {
          "internalType": "bytes32",
          "name": "role",
          "type": "bytes32"
        },
        {
          "internalType": "address",
          "name": "account",
          "type": "address"
        }
      ],
      "name": "grantRole",
      "outputs": [],
      "stateMutability": "nonpayable",
      "type": "function"
    },
    {
      "inputs": [
        {
          "internalType": "bytes32",
          "name": "role",
          "type": "bytes32"
        },
        {
          "internalType": "address",
          "name": "account",
          "type": "address"
        }
      ],
      "name": "hasRole",
      "outputs": [
        {
          "internalType": "bool",
          "name": "",
          "type": "bool"
        }
      ],
      "stateMutability": "view",
      "type": "function"
    },
    {
      "inputs": [
        {
          "internalType": "address",
          "name": "target",
          "type": "address"
        },
        {
          "internalType": "uint256",
          "name": "value",
          "type": "uint256"
        },
        {
          "internalType": "bytes",
          "name": "data",
          "type": "bytes"
        },
        {
          "internalType": "bytes32",
          "name": "predecessor",
          "type": "bytes32"
        },
        {
          "internalType": "bytes32",
          "name": "salt",
          "type": "bytes32"
        }
      ],
      "name": "hashOperation",
      "outputs": [
        {
          "internalType": "bytes32",
          "name": "",
          "type": "bytes32"
        }
      ],
      "stateMutability": "pure",
      "type": "function"
    },
    {
      "inputs": [
        {
          "internalType": "address[]",
          "name": "targets",
          "type": "address[]"
        },
        {
          "internalType": "uint256[]",
          "name": "values",
          "type": "uint256[]"
        },
        {
          "internalType": "bytes[]",
          "name": "payloads",
          "type": "bytes[]"
        },
        {
          "internalType": "bytes32",
          "name": "predecessor",
          "type": "bytes32"
        },
        {
          "internalType": "bytes32",
          "name": "salt",
          "type": "bytes32"
        }
      ],
      "name": "hashOperationBatch",
      "outputs": [
        {
          "internalType": "bytes32",
          "name": "",
          "type": "bytes32"
        }
      ],
      "stateMutability": "pure",
      "type": "function"
    },
    {
      "inputs": [
        {
          "internalType": "bytes32",
          "name": "id",
          "type": "bytes32"
        }
      ],
      "name": "isOperation",
      "outputs": [
        {
          "internalType": "bool",
          "name": "",
          "type": "bool"
        }
      ],
      "stateMutability": "view",
      "type": "function"
    },
    {
      "inputs": [
        {
          "internalType": "bytes32",
          "name": "id",
          "type": "bytes32"
        }
      ],
      "name": "isOperationDone",
      "outputs": [
        {
          "internalType": "bool",
          "name": "",
          "type": "bool"
        }
      ],
      "stateMutability": "view",
      "type": "function"
    },
    {
      "inputs": [
        {
          "internalType": "bytes32",
          "name": "id",
          "type": "bytes32"
        }
      ],
      "name": "isOperationPending",
      "outputs": [
        {
          "internalType": "bool",
          "name": "",
          "type": "bool"
        }
      ],
      "stateMutability": "view",
      "type": "function"
    },
    {
      "inputs": [
        {
          "internalType": "bytes32",
          "name": "id",
          "type": "bytes32"
        }
      ],
      "name": "isOperationReady",
      "outputs": [
        {
          "internalType": "bool",
          "name": "",
          "type": "bool"
        }
      ],
      "stateMutability": "view",
      "type": "function"
    },
    {
      "inputs": [
        {
          "internalType": "address",
          "name": "",
          "type": "address"
        },
        {
          "internalType": "address",
          "name": "",
          "type": "address"
        },
        {
          "internalType": "uint256[]",
          "name": "",
          "type": "uint256[]"
        },
        {
          "internalType": "uint256[]",
          "name": "",
          "type": "uint256[]"
        },
        {
          "internalType": "bytes",
          "name": "",
          "type": "bytes"
        }
      ],
      "name": "onERC1155BatchReceived",
      "outputs": [
        {
          "internalType": "bytes4",
          "name": "",
          "type": "bytes4"
        }
      ],
      "stateMutability": "nonpayable",
      "type": "function"
    },
    {
      "inputs": [
        {
          "internalType": "address",
          "name": "",
          "type": "address"
        },
        {
          "internalType": "address",
          "name": "",
          "type": "address"
        },
        {
          "internalType": "uint256",
          "name": "",
          "type": "uint256"
        },
        {
          "internalType": "uint256",
          "name": "",
          "type": "uint256"
        },
        {
          "internalType": "bytes",
          "name": "",
          "type": "bytes"
        }
      ],
      "name": "onERC1155Received",
      "outputs": [
        {
          "internalType": "bytes4",
          "name": "",
          "type": "bytes4"
        }
      ],
      "stateMutability": "nonpayable",
      "type": "function"
    },
    {
      "inputs": [
        {
          "internalType": "address",
          "name": "",
          "type": "address"
        },
        {
          "internalType": "address",
          "name": "",
          "type": "address"
        },
        {
          "internalType": "uint256",
          "name": "",
          "type": "uint256"
        },
        {
          "internalType": "bytes",
          "name": "",
          "type": "bytes"
        }
      ],
      "name": "onERC721Received",
      "outputs": [
        {
          "internalType": "bytes4",
          "name": "",
          "type": "bytes4"
        }
      ],
      "stateMutability": "nonpayable",
      "type": "function"
    },
    {
      "inputs": [
        {
          "internalType": "bytes32",
          "name": "role",
          "type": "bytes32"
        },
        {
          "internalType": "address",
          "name": "callerConfirmation",
          "type": "address"
        }
      ],
      "name": "renounceRole",
      "outputs": [],
      "stateMutability": "nonpayable",
      "type": "function"
    },
    {
      "inputs": [
        {
          "internalType": "bytes32",
          "name": "role",
          "type": "bytes32"
        },
        {
          "internalType": "address",
          "name": "account",
          "type": "address"
        }
      ],
      "name": "revokeRole",
      "outputs": [],
      "stateMutability": "nonpayable",
      "type": "function"
    },
    {
      "inputs": [
        {
          "internalType": "address",
          "name": "target",
          "type": "address"
        },
        {
          "internalType": "uint256",
          "name": "value",
          "type": "uint256"
        },
        {
          "internalType": "bytes",
          "name": "data",
          "type": "bytes"
        },
        {
          "internalType": "bytes32",
          "name": "predecessor",
          "type": "bytes32"
        },
        {
          "internalType": "bytes32",
          "name": "salt",
          "type": "bytes32"
        },
        {
          "internalType": "uint256",
          "name": "delay",
          "type": "uint256"
        }
      ],
      "name": "schedule",
      "outputs": [],
      "stateMutability": "nonpayable",
      "type": "function"
    },
    {
      "inputs": [
        {
          "internalType": "address[]",
          "name": "targets",
          "type": "address[]"
        },
        {
          "internalType": "uint256[]",
          "name": "values",
          "type": "uint256[]"
        },
        {
          "internalType": "bytes[]",
          "name": "payloads",
          "type": "bytes[]"
        },
        {
          "internalType": "bytes32",
          "name": "predecessor",
          "type": "bytes32"
        },
        {
          "internalType": "bytes32",
          "name": "salt",
          "type": "bytes32"
        },
        {
          "internalType": "uint256",
          "name": "delay",
          "type": "uint256"
        }
      ],
      "name": "scheduleBatch",
      "outputs": [],
      "stateMutability": "nonpayable",
      "type": "function"
    },
    {
      "inputs": [
        {
          "internalType": "bytes4",
          "name": "interfaceId",
          "type": "bytes4"
        }
      ],
      "name": "supportsInterface",
      "outputs": [
        {
          "internalType": "bool",
          "name": "",
          "type": "bool"
        }
      ],
      "stateMutability": "view",
      "type": "function"
    },
    {
      "inputs": [
        {
          "internalType": "uint256",
          "name": "newDelay",
          "type": "uint256"
        }
      ],
      "name": "updateDelay",
      "outputs": [],
      "stateMutability": "nonpayable",
      "type": "function"
    },
    {
      "stateMutability": "payable",
      "type": "receive"
    }
  ],
  "bytecode": "0x608060405234620001725762001985803803806200001d8162000176565b9283398101906080818303126200017257805160208201516001600160401b039081811162000172578462000054918501620001c5565b9360408401519182116200017257620000766060916200007e938601620001c5565b9301620001b0565b906200008a3062000261565b506001600160a01b03918083166200015f575b505f5b8451811015620000e85780620000c684620000be6001948962000238565b5116620002d1565b50620000e084620000d8838962000238565b511662000371565b5001620000a0565b5092505f5b82518110156200011b578062000113836200010b6001948762000238565b51166200040b565b5001620000ed565b7f11c24f4ead16507c69ac467fbd5e4eed5fb5c699626d2cc6d66421df253886d5604085806002558151905f82526020820152a160405161149f9081620004a68239f35b6200016a9062000261565b505f6200009d565b5f80fd5b6040519190601f01601f191682016001600160401b038111838210176200019c57604052565b634e487b7160e01b5f52604160045260245ffd5b51906001600160a01b03821682036200017257565b81601f8201121562000172578051916020916001600160401b0384116200019c578360051b908380620001fa81850162000176565b80978152019282010192831162000172578301905b8282106200021e575050505090565b8380916200022c84620001b0565b8152019101906200020f565b80518210156200024d5760209160051b010190565b634e487b7160e01b5f52603260045260245ffd5b6001600160a01b03165f8181525f8051602062001965833981519152602052604090205460ff16620002cc575f8181525f805160206200196583398151915260205260408120805460ff191660011790553391905f80516020620019458339815191528180a4600190565b505f90565b6001600160a01b03165f8181527f3412d5605ac6cd444957cedb533e5dacad6378b4bc819ebe3652188a665066d560205260409020547fb09aa5aeb3702cfd50b6b62bc4532604938f21248a27a1d5ca736082b6819cc1919060ff166200036b57815f525f60205260405f20815f5260205260405f20600160ff1982541617905533915f80516020620019458339815191525f80a4600190565b50505f90565b6001600160a01b03165f8181527fc3ad33e20b0c56a223ad5104fff154aa010f8715b9c981fd38fdc60a4d1a52fb60205260409020547ffd643c72710c63c0180259aba6b2d05451e3591a24e58b62239378085726f783919060ff166200036b57815f525f60205260405f20815f5260205260405f20600160ff1982541617905533915f80516020620019458339815191525f80a4600190565b6001600160a01b03165f8181527fdae2aa361dfd1ca020a396615627d436107c35eff9fe7738a3512819782d706960205260409020547fd8aa0f3194971a2a116679f7c2090f6939c8d4e01a2a8d7e41d55e5351469e63919060ff166200036b57815f525f60205260405f20815f5260205260405f20600160ff1982541617905533915f80516020620019458339815191525f80a460019056fe60406080815260048036101561001e575b5050361561001c575f80fd5b005b5f3560e01c90816301d5062a14610ab557816301ffc9a714610a4457816307bd026514610a1d578163134008d31461097457816313bc9f2014610956578163150b7a0214610904578163248a9ca3146108db5781632ab0f529146108bd5781632f2ff15d1461089557816331d507501461087757816336568abe14610833578163584b153e1461080c57816364d62353146107a35781637958004c146107615781638065657f146107405781638f2a0bb0146105b75781638f61f4f51461057d57816391d148541461053a578163a217fddf14610520578163b08e51c0146104e6578163b1c5f427146104bb578163bc197c8114610438578163c4d252f51461036c578163d45c443514610345578163d547741f1461030a578163e38335e5146101d1578163f23a6e611461017f575063f27a0c921461015e5780610010565b3461017b575f36600319011261017b576020906002549051908152f35b5f80fd5b823461017b5760a036600319011261017b57610199610b60565b506101a2610b76565b506084356001600160401b03811161017b576020926101c391369101610c57565b505163f23a6e6160e01b8152f35b90506101dc36610ccd565b9098949591939296975f8051602061144a8339815191525f525f602052855f205f805260205260ff865f205416156102fc575b8383148015906102f2575b6102c45750610232610239918a868a878b888f610f9d565b988961125b565b5f5b81811061024b5761001c89611314565b80808a7fc2617efa69bab66782fa219543714338489c4e9e178271560a91b82c3f612b588a8a6102bb6102a38f988c61029c828e6102968f60019f610291918591610f24565b610f48565b97610f24565b3595610f5c565b906102b0828287876112c1565b8d5194859485610dec565b0390a30161023b565b85516001624fcdef60e01b031981529081019283526020830185905260408301849052918291506060010390fd5b508483141561021a565b610305336111de565b61020f565b823461017b578060031936011261017b5761001c9135610340600161032d610b76565b93835f525f6020525f200154339061122f565b6113ae565b823461017b57602036600319011261017b57602091355f5260018252805f20549051908152f35b823461017b57602036600319011261017b578135917ffd643c72710c63c0180259aba6b2d05451e3591a24e58b62239378085726f783805f525f602052825f20335f5260205260ff835f2054161561041d57506103c883610e6e565b1561040157505f9082825260016020528120557fbaa1eb22f2a492ba1a5fea61b8df4d27c6c8b5f3971e63bb58fa14ff72eedb705f80a2005b826044925191635ead8eb560e01b835282015260066024820152fd5b604492519163e2517d3f60e01b835233908301526024820152fd5b823461017b5760a036600319011261017b57610452610b60565b5061045b610b76565b506001600160401b0360443581811161017b5761047b9036908501610d2e565b5060643581811161017b576104939036908501610d2e565b5060843590811161017b576020926104ad91369101610c57565b505163bc197c8160e01b8152f35b823461017b576020906104df6104d036610ccd565b96959095949194939293610f9d565b9051908152f35b823461017b575f36600319011261017b57602090517ffd643c72710c63c0180259aba6b2d05451e3591a24e58b62239378085726f7838152f35b823461017b575f36600319011261017b57602090515f8152f35b823461017b578060031936011261017b57602091610556610b76565b90355f525f8352815f209060018060a01b03165f52825260ff815f20541690519015158152f35b823461017b575f36600319011261017b57602090517fb09aa5aeb3702cfd50b6b62bc4532604938f21248a27a1d5ca736082b6819cc18152f35b823461017b5760c036600319011261017b576001600160401b0390823582811161017b576105e89036908501610c9d565b9360243584811161017b576106009036908301610c9d565b9460443590811161017b576106189036908401610c9d565b60649391933590608435978960a435946106313361115c565b828214801590610736575b610709575089848489858a610651968e610f9d565b9961065c858c6110d9565b8a5f5b8a83821061069d578c80925061067157005b7f20fda5fd27a1ea7bf5b9567f143ac5470bb059374a27e8f67cb44f946f6d03879160209151908152a2005b6001927f4cf4410cc57040e44862ef0f45f3dd5a5e02db8eb8add648d4b0e236f1d07dca8b8b6106fe8f8c88978f92898f8f8f6106ec916106e66102918680946106f399610f24565b9a610f24565b3598610f5c565b915196879687610db4565b0390a3018b9061065f565b89516001624fcdef60e01b0319815290810191825260208201849052604082018390529081906060010390fd5b508382141561063c565b823461017b576020906104df61075536610bb9565b94939093929192610ecf565b823461017b57602036600319011261017b5761077d8235610e97565b9051908281101561079057602092508152f35b602183634e487b7160e01b5f525260245ffd5b823461017b57602036600319011261017b578135913033036107f657507f11c24f4ead16507c69ac467fbd5e4eed5fb5c699626d2cc6d66421df253886d5906002548151908152836020820152a1600255005b602491519063e2850c5960e01b82523390820152fd5b823461017b57602036600319011261017b5761082a60209235610e6e565b90519015158152f35b823461017b578060031936011261017b5761084c610b76565b90336001600160a01b03831603610868575061001c91356113ae565b5163334bd91960e11b81529050fd5b823461017b57602036600319011261017b5761082a60209235610e57565b823461017b578060031936011261017b5761001c91356108b8600161032d610b76565b611332565b823461017b57602036600319011261017b5761082a60209235610e3f565b823461017b57602036600319011261017b57602091355f525f82526001815f2001549051908152f35b823461017b57608036600319011261017b5761091e610b60565b50610927610b76565b506064356001600160401b03811161017b5760209261094891369101610c57565b5051630a85bd0160e11b8152f35b823461017b57602036600319011261017b5761082a60209235610e13565b61001c6109f15f610a077fc2617efa69bab66782fa219543714338489c4e9e178271560a91b82c3f612b586109e8886109ac36610bb9565b5f8051602061144a8339815191528b9a9697939598929a528a602052828b208b805260205260ff838c20541615610a0f575b8985858a8a610ecf565b998a988961125b565b6109fd838388886112c1565b5194859485610dec565b0390a3611314565b610a18336111de565b6109de565b823461017b575f36600319011261017b57602090515f8051602061144a8339815191528152f35b90503461017b57602036600319011261017b573563ffffffff60e01b811680910361017b57602091630271189760e51b8214918215610a87575b50519015158152f35b909150637965db0b60e01b8114908115610aa4575b50905f610a7e565b6301ffc9a760e01b1490505f610a9c565b823461017b5760c036600319011261017b57610acf610b60565b9060243592604435936001600160401b03851161017b57610b155f927f4cf4410cc57040e44862ef0f45f3dd5a5e02db8eb8add648d4b0e236f1d07dca96369101610b8c565b95909160643595610b566084359760a43590610b303361115c565b610b3e8a828d8a8989610ecf565b9a8b97610b4b848a6110d9565b8a5196879687610db4565b0390a38161067157005b600435906001600160a01b038216820361017b57565b602435906001600160a01b038216820361017b57565b9181601f8401121561017b578235916001600160401b03831161017b576020838186019501011161017b57565b60a060031982011261017b576004356001600160a01b038116810361017b579160243591604435906001600160401b03821161017b57610bfb91600401610b8c565b90916064359060843590565b90601f801991011681019081106001600160401b03821117610c2857604052565b634e487b7160e01b5f52604160045260245ffd5b6001600160401b038111610c2857601f01601f191660200190565b81601f8201121561017b57803590610c6e82610c3c565b92610c7c6040519485610c07565b8284526020838301011161017b57815f926020809301838601378301015290565b9181601f8401121561017b578235916001600160401b03831161017b576020808501948460051b01011161017b57565b9060a060031983011261017b576001600160401b0360043581811161017b5783610cf991600401610c9d565b9390939260243583811161017b5782610d1491600401610c9d565b9390939260443591821161017b57610bfb91600401610c9d565b81601f8201121561017b578035916020916001600160401b038411610c28578360051b9060405194610d6285840187610c07565b8552838086019282010192831161017b578301905b828210610d85575050505090565b81358152908301908301610d77565b908060209392818452848401375f828201840152601f01601f1916010190565b929093610de2926080959897969860018060a01b03168552602085015260a0604085015260a0840191610d94565b9460608201520152565b610e10949260609260018060a01b0316825260208201528160408201520191610d94565b90565b610e1c90610e97565b6004811015610e2b5760021490565b634e487b7160e01b5f52602160045260245ffd5b610e4890610e97565b6004811015610e2b5760031490565b610e6090610e97565b6004811015610e2b57151590565b610e7790610e97565b6004811015610e2b5760018114908115610e8f575090565b600291501490565b5f52600160205260405f205480155f14610eb057505f90565b60018103610ebe5750600390565b421015610eca57600190565b600290565b94610f05610f1e94959293604051968795602087019960018060a01b03168a52604087015260a0606087015260c0860191610d94565b91608084015260a083015203601f198101835282610c07565b51902090565b9190811015610f345760051b0190565b634e487b7160e01b5f52603260045260245ffd5b356001600160a01b038116810361017b5790565b9190811015610f345760051b81013590601e198136030182121561017b5701908135916001600160401b03831161017b57602001823603811361017b579190565b969294909695919560405196602091828901998060c08b0160a08d525260e08a0191905f5b8181106110b157505050601f19898203810160408b0152888252976001600160fb1b03811161017b579089969495939897929160051b80928a830137019380888601878703606089015252604085019460408260051b82010195835f925b84841061104857505050505050610f1e9550608084015260a083015203908101835282610c07565b9193969850919398999496603f198282030184528935601e198436030181121561017b5783018681019190356001600160401b03811161017b57803603831361017b5761109a88928392600195610d94565b9b0194019401918b98969394919a9997959a611020565b90919283359060018060a01b03821680920361017b5790815285019285019190600101610fc2565b906110e382610e57565b61113c5760025480821061111e575042019081421161110a575f52600160205260405f2055565b634e487b7160e01b5f52601160045260245ffd5b6044925060405191635433660960e01b835260048301526024820152fd5b604051635ead8eb560e01b81526004810183905260016024820152604490fd5b6001600160a01b03165f8181527f3412d5605ac6cd444957cedb533e5dacad6378b4bc819ebe3652188a665066d560205260409020547fb09aa5aeb3702cfd50b6b62bc4532604938f21248a27a1d5ca736082b6819cc19060ff16156111c0575050565b604492506040519163e2517d3f60e01b835260048301526024820152fd5b6001600160a01b03165f8181527fdae2aa361dfd1ca020a396615627d436107c35eff9fe7738a3512819782d706960205260409020545f8051602061144a8339815191529060ff16156111c0575050565b805f525f60205260405f209160018060a01b031691825f5260205260ff60405f205416156111c0575050565b61126481610e13565b156112a2575080151580611292575b61127a5750565b6024906040519063121534c360e31b82526004820152fd5b5061129c81610e3f565b15611273565b60449060405190635ead8eb560e01b8252600482015260046024820152fd5b611309935f93928493826040519384928337810185815203925af13d1561130c573d906112ed82610c3c565b916112fb6040519384610c07565b82523d5f602084013e611420565b50565b606090611420565b61131d81610e13565b156112a2575f526001602052600160405f2055565b90815f525f60205260405f209060018060a01b031690815f5260205260ff60405f205416155f146113a857815f525f60205260405f20815f5260205260405f20600160ff1982541617905533917f2f8788117e7eff1d82e926ec794901d17c78024a50270940304540a733656f0d5f80a4600190565b50505f90565b90815f525f60205260405f209060018060a01b031690815f5260205260ff60405f2054165f146113a857815f525f60205260405f20815f5260205260405f2060ff19815416905533917ff6391f5c32d9c69d2a47ea670b442974b53935d1edc7fd64eb21e047a839171b5f80a4600190565b156114285790565b80511561143757602081519101fd5b60405163d6bda27560e01b8152600490fdfed8aa0f3194971a2a116679f7c2090f6939c8d4e01a2a8d7e41d55e5351469e63a26469706673582212201c0a4b34bf9d93bc077b9c3803ce0a03b1549418737d6cd16400422bc6b11ea064736f6c634300081800332f8788117e7eff1d82e926ec794901d17c78024a50270940304540a733656f0dad3228b676f7d3cd4284a5443f17f1962b36e491b30a40b2405849e597ba5fb5",
  "linkReferences": {},
  "deployedLinkReferences": {}
}