{"contracts/Marketplace.sol":{"TrustFolioMarketplace":{"abi":[{"inputs":[{"internalType":"address","name":"_inftContract","type":"address"},{"internalType":"address","name":"_treasury","type":"address"}],"stateMutability":"nonpayable","type":"constructor"},{"inputs":[{"internalType":"uint256","name":"sent","type":"uint256"},{"internalType":"uint256","name":"required","type":"uint256"}],"name":"InsufficientPayment","type":"error"},{"inputs":[],"name":"InvalidDuration","type":"error"},{"inputs":[],"name":"InvalidPrice","type":"error"},{"inputs":[{"internalType":"uint256","name":"listingId","type":"uint256"}],"name":"ListingNotActive","type":"error"},{"inputs":[{"internalType":"address","name":"caller","type":"address"},{"internalType":"address","name":"buyer","type":"address"}],"name":"NotBuyer","type":"error"},{"inputs":[{"internalType":"address","name":"caller","type":"address"},{"internalType":"address","name":"seller","type":"address"}],"name":"NotSeller","type":"error"},{"inputs":[],"name":"NotTokenOwner","type":"error"},{"inputs":[{"internalType":"uint256","name":"offerId","type":"uint256"}],"name":"OfferExpired","type":"error"},{"inputs":[{"internalType":"uint256","name":"offerId","type":"uint256"}],"name":"OfferNotActive","type":"error"},{"inputs":[{"internalType":"address","name":"owner","type":"address"}],"name":"OwnableInvalidOwner","type":"error"},{"inputs":[{"internalType":"address","name":"account","type":"address"}],"name":"OwnableUnauthorizedAccount","type":"error"},{"inputs":[],"name":"ReentrancyGuardReentrantCall","type":"error"},{"inputs":[{"internalType":"uint256","name":"tokenId","type":"uint256"},{"internalType":"uint256","name":"existingListingId","type":"uint256"}],"name":"TokenAlreadyListed","type":"error"},{"inputs":[],"name":"TransferFailed","type":"error"},{"anonymous":false,"inputs":[{"indexed":true,"internalType":"uint256","name":"listingId","type":"uint256"},{"indexed":true,"internalType":"uint256","name":"tokenId","type":"uint256"},{"indexed":true,"internalType":"address","name":"seller","type":"address"},{"indexed":false,"internalType":"uint256","name":"price","type":"uint256"}],"name":"Listed","type":"event"},{"anonymous":false,"inputs":[{"indexed":true,"internalType":"uint256","name":"listingId","type":"uint256"},{"indexed":true,"internalType":"uint256","name":"tokenId","type":"uint256"}],"name":"ListingCancelled","type":"event"},{"anonymous":false,"inputs":[{"indexed":true,"internalType":"uint256","name":"offerId","type":"uint256"},{"indexed":true,"internalType":"uint256","name":"tokenId","type":"uint256"},{"indexed":false,"internalType":"address","name":"seller","type":"address"},{"indexed":true,"internalType":"address","name":"buyer","type":"address"},{"indexed":false,"internalType":"uint256","name":"amount","type":"uint256"},{"indexed":false,"internalType":"uint256","name":"fee","type":"uint256"}],"name":"OfferAccepted","type":"event"},{"anonymous":false,"inputs":[{"indexed":true,"internalType":"uint256","name":"offerId","type":"uint256"}],"name":"OfferCancelled","type":"event"},{"anonymous":false,"inputs":[{"indexed":true,"internalType":"uint256","name":"offerId","type":"uint256"},{"indexed":true,"internalType":"uint256","name":"tokenId","type":"uint256"},{"indexed":true,"internalType":"address","name":"buyer","type":"address"},{"indexed":false,"internalType":"uint256","name":"amount","type":"uint256"},{"indexed":false,"internalType":"uint256","name":"expiresAt","type":"uint256"}],"name":"OfferMade","type":"event"},{"anonymous":false,"inputs":[{"indexed":true,"internalType":"address","name":"previousOwner","type":"address"},{"indexed":true,"internalType":"address","name":"newOwner","type":"address"}],"name":"OwnershipTransferred","type":"event"},{"anonymous":false,"inputs":[{"indexed":true,"internalType":"uint256","name":"listingId","type":"uint256"},{"indexed":true,"internalType":"uint256","name":"tokenId","type":"uint256"},{"indexed":false,"internalType":"address","name":"seller","type":"address"},{"indexed":true,"internalType":"address","name":"buyer","type":"address"},{"indexed":false,"internalType":"uint256","name":"price","type":"uint256"},{"indexed":false,"internalType":"uint256","name":"fee","type":"uint256"}],"name":"Sale","type":"event"},{"anonymous":false,"inputs":[{"indexed":true,"internalType":"address","name":"newTreasury","type":"address"}],"name":"TreasuryUpdated","type":"event"},{"inputs":[],"name":"BPS","outputs":[{"internalType":"uint256","name":"","type":"uint256"}],"stateMutability":"view","type":"function"},{"inputs":[],"name":"FEE_BPS","outputs":[{"internalType":"uint256","name":"","type":"uint256"}],"stateMutability":"view","type":"function"},{"inputs":[],"name":"MAX_OFFER_DURATION","outputs":[{"internalType":"uint256","name":"","type":"uint256"}],"stateMutability":"view","type":"function"},{"inputs":[{"internalType":"uint256","name":"offerId","type":"uint256"}],"name":"acceptOffer","outputs":[],"stateMutability":"nonpayable","type":"function"},{"inputs":[],"name":"activeListingCount","outputs":[{"internalType":"uint256","name":"","type":"uint256"}],"stateMutability":"view","type":"function"},{"inputs":[{"internalType":"uint256","name":"listingId","type":"uint256"}],"name":"buyListing","outputs":[],"stateMutability":"payable","type":"function"},{"inputs":[{"internalType":"uint256","name":"listingId","type":"uint256"}],"name":"cancelListing","outputs":[],"stateMutability":"nonpayable","type":"function"},{"inputs":[{"internalType":"uint256","name":"offerId","type":"uint256"}],"name":"cancelOffer","outputs":[],"stateMutability":"nonpayable","type":"function"},{"inputs":[{"internalType":"uint256","name":"tokenId","type":"uint256"},{"internalType":"uint256","name":"price","type":"uint256"}],"name":"createListing","outputs":[{"internalType":"uint256","name":"","type":"uint256"}],"stateMutability":"nonpayable","type":"function"},{"inputs":[],"name":"getActiveListings","outputs":[{"components":[{"internalType":"uint256","name":"listingId","type":"uint256"},{"internalType":"uint256","name":"tokenId","type":"uint256"},{"internalType":"address","name":"seller","type":"address"},{"internalType":"uint256","name":"price","type":"uint256"},{"internalType":"uint256","name":"listedAt","type":"uint256"},{"internalType":"bool","name":"active","type":"bool"}],"internalType":"struct TrustFolioMarketplace.Listing[]","name":"","type":"tuple[]"}],"stateMutability":"view","type":"function"},{"inputs":[{"internalType":"uint256","name":"listingId","type":"uint256"}],"name":"getListing","outputs":[{"components":[{"internalType":"uint256","name":"listingId","type":"uint256"},{"internalType":"uint256","name":"tokenId","type":"uint256"},{"internalType":"address","name":"seller","type":"address"},{"internalType":"uint256","name":"price","type":"uint256"},{"internalType":"uint256","name":"listedAt","type":"uint256"},{"internalType":"bool","name":"active","type":"bool"}],"internalType":"struct TrustFolioMarketplace.Listing","name":"","type":"tuple"}],"stateMutability":"view","type":"function"},{"inputs":[{"internalType":"uint256","name":"offerId","type":"uint256"}],"name":"getOffer","outputs":[{"components":[{"internalType":"uint256","name":"offerId","type":"uint256"},{"internalType":"uint256","name":"tokenId","type":"uint256"},{"internalType":"address","name":"buyer","type":"address"},{"internalType":"uint256","name":"amount","type":"uint256"},{"internalType":"uint256","name":"expiresAt","type":"uint256"},{"internalType":"bool","name":"active","type":"bool"}],"internalType":"struct TrustFolioMarketplace.Offer","name":"","type":"tuple"}],"stateMutability":"view","type":"function"},{"inputs":[{"internalType":"uint256","name":"tokenId","type":"uint256"}],"name":"getTokenOffers","outputs":[{"components":[{"internalType":"uint256","name":"offerId","type":"uint256"},{"internalType":"uint256","name":"tokenId","type":"uint256"},{"internalType":"address","name":"buyer","type":"address"},{"internalType":"uint256","name":"amount","type":"uint256"},{"internalType":"uint256","name":"expiresAt","type":"uint256"},{"internalType":"bool","name":"active","type":"bool"}],"internalType":"struct TrustFolioMarketplace.Offer[]","name":"","type":"tuple[]"}],"stateMutability":"view","type":"function"},{"inputs":[],"name":"inftContract","outputs":[{"internalType":"contract IERC721","name":"","type":"address"}],"stateMutability":"view","type":"function"},{"inputs":[{"internalType":"uint256","name":"","type":"uint256"}],"name":"listings","outputs":[{"internalType":"uint256","name":"listingId","type":"uint256"},{"internalType":"uint256","name":"tokenId","type":"uint256"},{"internalType":"address","name":"seller","type":"address"},{"internalType":"uint256","name":"price","type":"uint256"},{"internalType":"uint256","name":"listedAt","type":"uint256"},{"internalType":"bool","name":"active","type":"bool"}],"stateMutability":"view","type":"function"},{"inputs":[{"internalType":"uint256","name":"tokenId","type":"uint256"},{"internalType":"uint256","name":"durationSeconds","type":"uint256"}],"name":"makeOffer","outputs":[{"internalType":"uint256","name":"","type":"uint256"}],"stateMutability":"payable","type":"function"},{"inputs":[{"internalType":"uint256","name":"","type":"uint256"}],"name":"offers","outputs":[{"internalType":"uint256","name":"offerId","type":"uint256"},{"internalType":"uint256","name":"tokenId","type":"uint256"},{"internalType":"address","name":"buyer","type":"address"},{"internalType":"uint256","name":"amount","type":"uint256"},{"internalType":"uint256","name":"expiresAt","type":"uint256"},{"internalType":"bool","name":"active","type":"bool"}],"stateMutability":"view","type":"function"},{"inputs":[],"name":"owner","outputs":[{"internalType":"address","name":"","type":"address"}],"stateMutability":"view","type":"function"},{"inputs":[],"name":"renounceOwnership","outputs":[],"stateMutability":"nonpayable","type":"function"},{"inputs":[{"internalType":"address","name":"newTreasury","type":"address"}],"name":"setTreasury","outputs":[],"stateMutability":"nonpayable","type":"function"},{"inputs":[{"internalType":"uint256","name":"","type":"uint256"},{"internalType":"uint256","name":"","type":"uint256"}],"name":"tokenOffers","outputs":[{"internalType":"uint256","name":"","type":"uint256"}],"stateMutability":"view","type":"function"},{"inputs":[{"internalType":"uint256","name":"","type":"uint256"}],"name":"tokenToActiveListing","outputs":[{"internalType":"uint256","name":"","type":"uint256"}],"stateMutability":"view","type":"function"},{"inputs":[],"name":"totalFees","outputs":[{"internalType":"uint256","name":"","type":"uint256"}],"stateMutability":"view","type":"function"},{"inputs":[],"name":"totalSales","outputs":[{"internalType":"uint256","name":"","type":"uint256"}],"stateMutability":"view","type":"function"},{"inputs":[],"name":"totalVolume","outputs":[{"internalType":"uint256","name":"","type":"uint256"}],"stateMutability":"view","type":"function"},{"inputs":[{"internalType":"address","name":"newOwner","type":"address"}],"name":"transferOwnership","outputs":[],"stateMutability":"nonpayable","type":"function"},{"inputs":[],"name":"treasury","outputs":[{"internalType":"address","name":"","type":"address"}],"stateMutability":"view","type":"function"}],"evm":{"bytecode":{"linkReferences":{},"object":"60a03461012e57601f620019c338819003918201601f19168301916001600160401b0383118484101761013257808492604094855283398101031261012e57610053602061004c83610146565b9201610146565b903315610116575f549160018060a01b03908160018060a01b03199333858716175f5560405195823391167f8be0079c531659141344cd1fd0a4f28419497f9722a3daafe3b4186f6b6457e05f80a360017f9b779b17422d0df92223018b32b4d1fa46e071723d6817e2486d003becc55f0055600180556001600255166080521690600354161760035561186890816200015b82396080518181816104c6015281816106130152818161080201528181610d7c01528181610fcf01526111050152f35b604051631e4fbdf760e01b81525f6004820152602490fd5b5f80fd5b634e487b7160e01b5f52604160045260245ffd5b51906001600160a01b038216820361012e5756fe6080604081815260049081361015610015575f80fd5b5f925f3560e01c90816301388d37146112eb5750806305b7cdd3146111c8578063107a274a1461119557806313114a9d14611177578063192b2e3014611150578063249d39e914611134578063300303e9146110f1578063305a67a814610f4d5780634579268a14610f0d5780634681a7c614610eee5780634884f45914610cb75780635f81a57c14610c9857806361d027b314610c6f5780636605ff6614610c50578063715018a614610bf757806387c35bc014610af05780638a72ea6a14610a795780638da5cb5b14610a51578063944985f514610a10578063a79123a9146107c4578063bf333f2c146107a8578063c815729d146103c0578063d6d4fcea146103a2578063de74e57b1461032c578063ef706adf1461024c578063f0f44260146101e15763f2fde38b1461014a575f80fd5b346101dd5760203660031901126101dd576001600160a01b038235818116939192908490036101d95761017b6117e7565b83156101c35750505f54826bffffffffffffffffffffffff60a01b8216175f55167f8be0079c531659141344cd1fd0a4f28419497f9722a3daafe3b4186f6b6457e05f80a380f35b51631e4fbdf760e01b8152908101849052602490fd5b8480fd5b8280fd5b50503461024857602036600319011261024857356001600160a01b038116908190036102485761020f6117e7565b600380546001600160a01b031916821790557f7dae230f18360d76a040c81f050aa14eb9d6dc7901b20fc5d855e2a20fe814d18280a280f35b5080fd5b5090346101dd5760203660031901126101dd5780359161026a6116ad565b828452600560205280842091600583019182549160ff8316156103175760028501546001600160a01b0316913383036102ec5750505060ff19169055600301546102b4903361177e565b7fc28b4aed030bfacc245c0501326e1beb8c0ef0d60e4edc21067fdeb52da2a7aa8280a260015f805160206118138339815191525580f35b51635eeea42160e01b8152339181019182526001600160a01b03909216602082015281906040010390fd5b856024925191630e3dde1b60e11b8352820152fd5b50823461039f57602036600319011261039f57823581526020838152908290208054600182015460028301546003840154968401546005909401549551928352938201526001600160a01b0390921660408301526060820193909352608081019290925260ff16151560a082015260c090f35b80fd5b8382346102485781600319360112610248576020905162278d008152f35b50346101dd576020806003193601126107a4578235906103de6116ad565b8185526005815282852092600584019081549160ff83161561078d578686015442116107765760ff198093169055600385019586549060fa820282810460fa148315171561076357906127108a92049461044461043b8786611681565b94600954611614565b60095561045386600b54611614565b600b55610461600a546115f2565b600a55600189019687549182855260068252868520549283151580610745575b156105f7575082916006916104b0948752858252600589882001908154169055895486525283868120556116dc565b600288015486546001600160a01b0391821692917f000000000000000000000000000000000000000000000000000000000000000016803b156101d95786516323b872dd60e01b8152309381019384526001600160a01b0390941660208401526040830191909152839183919082908490829060600103925af180156105ed576105d5575b50507fdaf07891f5285c11e75387020299910ed108c13f1b6a0650baeb919d53b50c45936105676105a2925b3361177e565b836105b9575b5460029096015496549151338152602081019290925260408201929092526001600160a01b0395909516949081906060820190565b0390a460015f805160206118138339815191525580f35b6003546105d09085906001600160a01b031661177e565b61056d565b6105de9061150c565b6105e957875f610535565b8780fd5b84513d84823e3d90fd5b87516331a9108f60e11b81528581018290526001600160a01b037f00000000000000000000000000000000000000000000000000000000000000008116975091945090928e925080826024818a5afa92831561073a579261070d575b505081339116036106fd57908b93929160028b01541692803b156101d95786516323b872dd60e01b8152339381019384526001600160a01b0390941660208401526040830191909152839183919082908490829060600103925af180156105ed576106e9575b50507fdaf07891f5285c11e75387020299910ed108c13f1b6a0650baeb919d53b50c45936105676105a292610561565b6106f29061150c565b6105e957875f6106b9565b85516359dc379f60e01b81528390fd5b61072c9250803d10610733575b6107248183611520565b81019061168e565b5f80610653565b503d61071a565b8951903d90823e3d90fd5b50838652848352878620600201546001600160a01b03163314610481565b634e487b7160e01b8a526011825260248afd5b81516348e57f5f60e01b8152808801869052602490fd5b8151630e3dde1b60e11b8152808801869052602490fd5b8380fd5b8382346102485781600319360112610248576020905160fa8152f35b50346101dd576107d336611468565b906107dc6116ad565b8115610a025782516331a9108f60e11b8152848101829052602094906001600160a01b037f0000000000000000000000000000000000000000000000000000000000000000811691908782602481865afa9182156109f85789926109d9575b50339116036109ca578287526006865284872054806109ae5750803b156109aa5784516323b872dd60e01b815233838201908152306020820152604081018590529091889183919082908490829060600103925af180156109a057610988575b508394956001549586916108ae836115f2565b6001556108ed82516108bf816114dc565b848152868b8201523384820152876060820152426080820152600160a0820152848352858b52838320611621565b84815260068952205560085490600160401b82101561097557508461091b826001610933940160085561147e565b90919082549060031b91821b915f19901b1916179055565b8251918252837fcf4ebbb01b0166b4c3bb06d2edd4860d56a19f40c14454fdeb07220bf1752924863394a460015f805160206118138339815191525551908152f35b604190634e487b7160e01b5f525260245ffd5b610992879161150c565b61099c575f61089b565b8580fd5b85513d89823e3d90fd5b8680fd5b9050604492855192633621852f60e11b84528301526024820152fd5b5083516359dc379f60e01b8152fd5b6109f1919250883d8a11610733576107248183611520565b905f61083b565b87513d8b823e3d90fd5b50505162bfc92160e01b8152fd5b83823461024857610a2036611468565b92908152600760205281812090815484101561039f5750602092610a43916114c7565b91905490519160031b1c8152f35b838234610248578160031936011261024857905490516001600160a01b039091168152602090f35b50823461039f57602036600319011261039f5782358152600560208181529183902080546001820154600283015460038401549784015493909401549551918252938101939093526001600160a01b0390911660408301526060820193909352608081019290925260ff16151560a082015260c090f35b508290346102485781600319360112610248576008548391610b1182611542565b91610b1e82519384611520565b808352610b2a81611542565b60209490601f1901865b818110610bd8575050855b828110610b8f575050508051928080850192818652845180945285019301945b828110610b6c5784840385f35b9091928260c082610b806001948a51611428565b01960191019492919094610b5f565b80610ba0600192989795969861147e565b90549060031b1c8752828552610bb786882061159e565b610bc1828a61158a565b52610bcc818961158a565b50019593929495610b3f565b958094959796610be661155a565b82828b010152019694939596610b34565b833461039f578060031936011261039f57610c106117e7565b5f80546001600160a01b0319811682556001600160a01b03167f8be0079c531659141344cd1fd0a4f28419497f9722a3daafe3b4186f6b6457e08280a380f35b838234610248578160031936011261024857602090600a549051908152f35b83823461024857816003193601126102485760035490516001600160a01b039091168152602090f35b8382346102485781600319360112610248576020906009549051908152f35b509060203660031901126101dd578035610ccf6116ad565b8084528160205282842092600584019384549460ff861615610ed85760038201958654803410610eba575060ff1916905560018101918254875260066020528681812055610d1c846116dc565b85549460fa860286810460fa1487151715610ea757612710900492610d4d610d448589611681565b97600954611614565b600955610d5c84600b54611614565b600b55610d6a600a546115f2565b600a5584546001600160a01b03928a917f000000000000000000000000000000000000000000000000000000000000000085169190823b156107a45786516323b872dd60e01b815230928101928352336020840152604083019190915291839183919082908490829060600103925af18015610e9d57610e81575b5050907f32e54fa7fbb8a9fb8d83e72518a738f5b67739eea06d7a2b39c229bf80e4dbf894610e1e60026105a2940198838a541661177e565b84610e6e575b8854803411610e5b575b505496541696549151928392339884604091949392606082019560018060a01b0316825260208201520152565b610561610e689134611681565b5f610e2e565b610e7c85836003541661177e565b610e24565b610e8d9093929361150c565b610e995790885f610de5565b8880fd5b85513d84823e3d90fd5b634e487b7160e01b895260118252602489fd5b845163b99e2ab760e01b815234818901526024810191909152604490fd5b50505162de2a4f60e61b81529182015260249150fd5b8382346102485781600319360112610248576020906008549051908152f35b5090346101dd5760203660031901126101dd57610f428260c094610f4b93610f3361155a565b5035815260056020522061159e565b91518092611428565bf35b503461109e57602036600319011261109e57813591610f6a6116ad565b825f5280602052815f2091600583019182549360ff8516156110dc576002810180546001600160a01b039691959190871633811415806110cf575b6110a2575060ff1916905560010180545f90815260066020528381205593610fcc866116dc565b807f00000000000000000000000000000000000000000000000000000000000000001693541692845490803b1561109e5783516323b872dd60e01b8152309381019384526001600160a01b03909516602084015260408301919091525f9184919082908490829060600103925af19081156110955750611082575b5054907fafd0a85a3f09cebbc7d9fcde08e8a7d0ebb0aa7d768a030915c3816a053d3c7a8380a360015f805160206118138339815191525580f35b61108d91935061150c565b5f915f611047565b513d5f823e3d90fd5b5f80fd5b8551637de5a52160e11b8152338187019081526001600160a01b0390921660208301529081906040010390fd5b5033885f54161415610fa5565b5084602492519162de2a4f60e61b8352820152fd5b503461109e575f36600319011261109e57517f00000000000000000000000000000000000000000000000000000000000000006001600160a01b03168152602090f35b503461109e575f36600319011261109e57602090516127108152f35b503461109e57602036600319011261109e57602091355f5260068252805f20549051908152f35b503461109e575f36600319011261109e57602090600b549051908152f35b503461109e57602036600319011261109e5760c0916111b261155a565b5080355f52602052610f4b610f42825f2061159e565b506111d236611468565b91906111dc6116ad565b34156112dc57821580156112d0575b6112c057611208600254936111ff856115f2565b60025542611614565b906112488351611217816114dc565b8581528260208201523385820152346060820152836080820152600160a0820152855f526005602052845f20611621565b805f526007602052825f20805495600160401b87101561097557508461091b8761127993600160209a0181556114c7565b82519134835285830152837f23b0047c5c1f392c454f858542ddfb8143e48945b1a00e247308d5eb97164bc4843394a460015f805160206118138339815191525551908152f35b8151637616640160e01b81528490fd5b5062278d0083116111eb565b815162bfc92160e01b81528490fd5b9190503461109e576020928360031936011261109e57355f5260078352805f2082815491828252858201905f52855f20925f5b878282106114125750505061133592500383611520565b81519261135961134485611542565b9461135184519687611520565b808652611542565b601f1901815f5b8281106113fc575050505f5b83518110156113b057806113826001928661158a565b515f5260058352611394845f2061159e565b61139e828861158a565b526113a9818761158a565b500161136c565b50929091508151918380840191818552835180935284019201935f5b8281106113d95784840385f35b9091928260c0826113ed6001948a51611428565b019601910194929190946113cc565b61140461155a565b828289010152018290611360565b855484526001958601958895509301920161131e565b60a080918051845260208101516020850152600180831b036040820151166040850152606081015160608501526080810151608085015201511515910152565b604090600319011261109e576004359060243590565b6008548110156114b35760085f527ff3f7a9fe364faab93b216da50a3214154f22a0a2b415b23a84c8169e8b636ee301905f90565b634e487b7160e01b5f52603260045260245ffd5b80548210156114b3575f5260205f2001905f90565b60c0810190811067ffffffffffffffff8211176114f857604052565b634e487b7160e01b5f52604160045260245ffd5b67ffffffffffffffff81116114f857604052565b90601f8019910116810190811067ffffffffffffffff8211176114f857604052565b67ffffffffffffffff81116114f85760051b60200190565b60405190611567826114dc565b5f60a0838281528260208201528260408201528260608201528260808201520152565b80518210156114b35760209160051b010190565b906040516115ab816114dc565b825481526001830154602082015260028301546001600160a01b03166040820152600383015460608201526004830154608082015260059092015460ff16151560a0830152565b5f1981146116005760010190565b634e487b7160e01b5f52601160045260245ffd5b9190820180921161160057565b600560a091835181556020840151600182015560028101600180851b036040860151166bffffffffffffffffffffffff851b825416179055606084015160038201556080840151600482015501910151151560ff80198354169116179055565b9190820391821161160057565b9081602091031261109e57516001600160a01b038116810361109e5790565b5f8051602061181383398151915260028154146116ca5760029055565b604051633ee5aeb560e01b8152600490fd5b600890600854915f5b8381106116f3575b50505050565b826116fd8261147e565b919054600392831b1c1461171457506001016116e5565b939192505f1991828101919082116116005761091b6117356117419361147e565b905490871b1c9161147e565b8154801561176a578101926117558461147e565b81939154921b1b19169055555f8080806116ed565b634e487b7160e01b5f52603160045260245ffd5b5f918291829182916001600160a01b03165af13d156117e2573d67ffffffffffffffff81116114f857604051906117bf601f8201601f191660200183611520565b81525f60203d92013e5b156117d057565b6040516312171d8360e31b8152600490fd5b6117c9565b5f546001600160a01b031633036117fa57565b60405163118cdaa760e01b8152336004820152602490fdfe9b779b17422d0df92223018b32b4d1fa46e071723d6817e2486d003becc55f00a26469706673582212206a10586b1310d71b01b2738522ef840f3631da925ae470af74f4b499ad22d40d64736f6c63430008180033","opcodes":"PUSH1 0xA0 CALLVALUE PUSH2 0x12E JUMPI PUSH1 0x1F PUSH3 0x19C3 CODESIZE DUP2 SWAP1 SUB SWAP2 DUP3 ADD PUSH1 0x1F NOT AND DUP4 ADD SWAP2 PUSH1 0x1 PUSH1 0x1 PUSH1 0x40 SHL SUB DUP4 GT DUP5 DUP5 LT OR PUSH2 0x132 JUMPI DUP1 DUP5 SWAP3 PUSH1 0x40 SWAP5 DUP6 MSTORE DUP4 CODECOPY DUP2 ADD SUB SLT PUSH2 0x12E JUMPI PUSH2 0x53 PUSH1 0x20 PUSH2 0x4C DUP4 PUSH2 0x146 JUMP JUMPDEST SWAP3 ADD PUSH2 0x146 JUMP JUMPDEST SWAP1 CALLER ISZERO PUSH2 0x116 JUMPI PUSH0 SLOAD SWAP2 PUSH1 0x1 DUP1 PUSH1 0xA0 SHL SUB SWAP1 DUP2 PUSH1 0x1 DUP1 PUSH1 0xA0 SHL SUB NOT SWAP4 CALLER DUP6 DUP8 AND OR PUSH0 SSTORE PUSH1 0x40 MLOAD SWAP6 DUP3 CALLER SWAP2 AND PUSH32 0x8BE0079C531659141344CD1FD0A4F28419497F9722A3DAAFE3B4186F6B6457E0 PUSH0 DUP1 LOG3 PUSH1 0x1 PUSH32 0x9B779B17422D0DF92223018B32B4D1FA46E071723D6817E2486D003BECC55F00 SSTORE PUSH1 0x1 DUP1 SSTORE PUSH1 0x1 PUSH1 0x2 SSTORE AND PUSH1 0x80 MSTORE AND SWAP1 PUSH1 0x3 SLOAD AND OR PUSH1 0x3 SSTORE PUSH2 0x1868 SWAP1 DUP2 PUSH3 0x15B DUP3 CODECOPY PUSH1 0x80 MLOAD DUP2 DUP2 DUP2 PUSH2 0x4C6 ADD MSTORE DUP2 DUP2 PUSH2 0x613 ADD MSTORE DUP2 DUP2 PUSH2 0x802 ADD MSTORE DUP2 DUP2 PUSH2 0xD7C ADD MSTORE DUP2 DUP2 PUSH2 0xFCF ADD MSTORE PUSH2 0x1105 ADD MSTORE RETURN JUMPDEST PUSH1 0x40 MLOAD PUSH4 0x1E4FBDF7 PUSH1 0xE0 SHL DUP2 MSTORE PUSH0 PUSH1 0x4 DUP3 ADD MSTORE PUSH1 0x24 SWAP1 REVERT JUMPDEST PUSH0 DUP1 REVERT JUMPDEST PUSH4 0x4E487B71 PUSH1 0xE0 SHL PUSH0 MSTORE PUSH1 0x41 PUSH1 0x4 MSTORE PUSH1 0x24 PUSH0 REVERT JUMPDEST MLOAD SWAP1 PUSH1 0x1 PUSH1 0x1 PUSH1 0xA0 SHL SUB DUP3 AND DUP3 SUB PUSH2 0x12E JUMPI JUMP INVALID PUSH1 0x80 PUSH1 0x40 DUP2 DUP2 MSTORE PUSH1 0x4 SWAP1 DUP2 CALLDATASIZE LT ISZERO PUSH2 0x15 JUMPI PUSH0 DUP1 REVERT JUMPDEST PUSH0 SWAP3 PUSH0 CALLDATALOAD PUSH1 0xE0 SHR SWAP1 DUP2 PUSH4 0x1388D37 EQ PUSH2 0x12EB JUMPI POP DUP1 PUSH4 0x5B7CDD3 EQ PUSH2 0x11C8 JUMPI DUP1 PUSH4 0x107A274A EQ PUSH2 0x1195 JUMPI DUP1 PUSH4 0x13114A9D EQ PUSH2 0x1177 JUMPI DUP1 PUSH4 0x192B2E30 EQ PUSH2 0x1150 JUMPI DUP1 PUSH4 0x249D39E9 EQ PUSH2 0x1134 JUMPI DUP1 PUSH4 0x300303E9 EQ PUSH2 0x10F1 JUMPI DUP1 PUSH4 0x305A67A8 EQ PUSH2 0xF4D JUMPI DUP1 PUSH4 0x4579268A EQ PUSH2 0xF0D JUMPI DUP1 PUSH4 0x4681A7C6 EQ PUSH2 0xEEE JUMPI DUP1 PUSH4 0x4884F459 EQ PUSH2 0xCB7 JUMPI DUP1 PUSH4 0x5F81A57C EQ PUSH2 0xC98 JUMPI DUP1 PUSH4 0x61D027B3 EQ PUSH2 0xC6F JUMPI DUP1 PUSH4 0x6605FF66 EQ PUSH2 0xC50 JUMPI DUP1 PUSH4 0x715018A6 EQ PUSH2 0xBF7 JUMPI DUP1 PUSH4 0x87C35BC0 EQ PUSH2 0xAF0 JUMPI DUP1 PUSH4 0x8A72EA6A EQ PUSH2 0xA79 JUMPI DUP1 PUSH4 0x8DA5CB5B EQ PUSH2 0xA51 JUMPI DUP1 PUSH4 0x944985F5 EQ PUSH2 0xA10 JUMPI DUP1 PUSH4 0xA79123A9 EQ PUSH2 0x7C4 JUMPI DUP1 PUSH4 0xBF333F2C EQ PUSH2 0x7A8 JUMPI DUP1 PUSH4 0xC815729D EQ PUSH2 0x3C0 JUMPI DUP1 PUSH4 0xD6D4FCEA EQ PUSH2 0x3A2 JUMPI DUP1 PUSH4 0xDE74E57B EQ PUSH2 0x32C JUMPI DUP1 PUSH4 0xEF706ADF EQ PUSH2 0x24C JUMPI DUP1 PUSH4 0xF0F44260 EQ PUSH2 0x1E1 JUMPI PUSH4 0xF2FDE38B EQ PUSH2 0x14A JUMPI PUSH0 DUP1 REVERT JUMPDEST CALLVALUE PUSH2 0x1DD JUMPI PUSH1 0x20 CALLDATASIZE PUSH1 0x3 NOT ADD SLT PUSH2 0x1DD JUMPI PUSH1 0x1 PUSH1 0x1 PUSH1 0xA0 SHL SUB DUP3 CALLDATALOAD DUP2 DUP2 AND SWAP4 SWAP2 SWAP3 SWAP1 DUP5 SWAP1 SUB PUSH2 0x1D9 JUMPI PUSH2 0x17B PUSH2 0x17E7 JUMP JUMPDEST DUP4 ISZERO PUSH2 0x1C3 JUMPI POP POP PUSH0 SLOAD DUP3 PUSH12 0xFFFFFFFFFFFFFFFFFFFFFFFF PUSH1 0xA0 SHL DUP3 AND OR PUSH0 SSTORE AND PUSH32 0x8BE0079C531659141344CD1FD0A4F28419497F9722A3DAAFE3B4186F6B6457E0 PUSH0 DUP1 LOG3 DUP1 RETURN JUMPDEST MLOAD PUSH4 0x1E4FBDF7 PUSH1 0xE0 SHL DUP2 MSTORE SWAP1 DUP2 ADD DUP5 SWAP1 MSTORE PUSH1 0x24 SWAP1 REVERT JUMPDEST DUP5 DUP1 REVERT JUMPDEST DUP3 DUP1 REVERT JUMPDEST POP POP CALLVALUE PUSH2 0x248 JUMPI PUSH1 0x20 CALLDATASIZE PUSH1 0x3 NOT ADD SLT PUSH2 0x248 JUMPI CALLDATALOAD PUSH1 0x1 PUSH1 0x1 PUSH1 0xA0 SHL SUB DUP2 AND SWAP1 DUP2 SWAP1 SUB PUSH2 0x248 JUMPI PUSH2 0x20F PUSH2 0x17E7 JUMP JUMPDEST PUSH1 0x3 DUP1 SLOAD PUSH1 0x1 PUSH1 0x1 PUSH1 0xA0 SHL SUB NOT AND DUP3 OR SWAP1 SSTORE PUSH32 0x7DAE230F18360D76A040C81F050AA14EB9D6DC7901B20FC5D855E2A20FE814D1 DUP3 DUP1 LOG2 DUP1 RETURN JUMPDEST POP DUP1 REVERT JUMPDEST POP SWAP1 CALLVALUE PUSH2 0x1DD JUMPI PUSH1 0x20 CALLDATASIZE PUSH1 0x3 NOT ADD SLT PUSH2 0x1DD JUMPI DUP1 CALLDATALOAD SWAP2 PUSH2 0x26A PUSH2 0x16AD JUMP JUMPDEST DUP3 DUP5 MSTORE PUSH1 0x5 PUSH1 0x20 MSTORE DUP1 DUP5 KECCAK256 SWAP2 PUSH1 0x5 DUP4 ADD SWAP2 DUP3 SLOAD SWAP2 PUSH1 0xFF DUP4 AND ISZERO PUSH2 0x317 JUMPI PUSH1 0x2 DUP6 ADD SLOAD PUSH1 0x1 PUSH1 0x1 PUSH1 0xA0 SHL SUB AND SWAP2 CALLER DUP4 SUB PUSH2 0x2EC JUMPI POP POP POP PUSH1 0xFF NOT AND SWAP1 SSTORE PUSH1 0x3 ADD SLOAD PUSH2 0x2B4 SWAP1 CALLER PUSH2 0x177E JUMP JUMPDEST PUSH32 0xC28B4AED030BFACC245C0501326E1BEB8C0EF0D60E4EDC21067FDEB52DA2A7AA DUP3 DUP1 LOG2 PUSH1 0x1 PUSH0 DUP1 MLOAD PUSH1 0x20 PUSH2 0x1813 DUP4 CODECOPY DUP2 MLOAD SWAP2 MSTORE SSTORE DUP1 RETURN JUMPDEST MLOAD PUSH4 0x5EEEA421 PUSH1 0xE0 SHL DUP2 MSTORE CALLER SWAP2 DUP2 ADD SWAP2 DUP3 MSTORE PUSH1 0x1 PUSH1 0x1 PUSH1 0xA0 SHL SUB SWAP1 SWAP3 AND PUSH1 0x20 DUP3 ADD MSTORE DUP2 SWAP1 PUSH1 0x40 ADD SUB SWAP1 REVERT JUMPDEST DUP6 PUSH1 0x24 SWAP3 MLOAD SWAP2 PUSH4 0xE3DDE1B PUSH1 0xE1 SHL DUP4 MSTORE DUP3 ADD MSTORE REVERT JUMPDEST POP DUP3 CALLVALUE PUSH2 0x39F JUMPI PUSH1 0x20 CALLDATASIZE PUSH1 0x3 NOT ADD SLT PUSH2 0x39F JUMPI DUP3 CALLDATALOAD DUP2 MSTORE PUSH1 0x20 DUP4 DUP2 MSTORE SWAP1 DUP3 SWAP1 KECCAK256 DUP1 SLOAD PUSH1 0x1 DUP3 ADD SLOAD PUSH1 0x2 DUP4 ADD SLOAD PUSH1 0x3 DUP5 ADD SLOAD SWAP7 DUP5 ADD SLOAD PUSH1 0x5 SWAP1 SWAP5 ADD SLOAD SWAP6 MLOAD SWAP3 DUP4 MSTORE SWAP4 DUP3 ADD MSTORE PUSH1 0x1 PUSH1 0x1 PUSH1 0xA0 SHL SUB SWAP1 SWAP3 AND PUSH1 0x40 DUP4 ADD MSTORE PUSH1 0x60 DUP3 ADD SWAP4 SWAP1 SWAP4 MSTORE PUSH1 0x80 DUP2 ADD SWAP3 SWAP1 SWAP3 MSTORE PUSH1 0xFF AND ISZERO ISZERO PUSH1 0xA0 DUP3 ADD MSTORE PUSH1 0xC0 SWAP1 RETURN JUMPDEST DUP1 REVERT JUMPDEST DUP4 DUP3 CALLVALUE PUSH2 0x248 JUMPI DUP2 PUSH1 0x3 NOT CALLDATASIZE ADD SLT PUSH2 0x248 JUMPI PUSH1 0x20 SWAP1 MLOAD PUSH3 0x278D00 DUP2 MSTORE RETURN JUMPDEST POP CALLVALUE PUSH2 0x1DD JUMPI PUSH1 0x20 DUP1 PUSH1 0x3 NOT CALLDATASIZE ADD SLT PUSH2 0x7A4 JUMPI DUP3 CALLDATALOAD SWAP1 PUSH2 0x3DE PUSH2 0x16AD JUMP JUMPDEST DUP2 DUP6 MSTORE PUSH1 0x5 DUP2 MSTORE DUP3 DUP6 KECCAK256 SWAP3 PUSH1 0x5 DUP5 ADD SWAP1 DUP2 SLOAD SWAP2 PUSH1 0xFF DUP4 AND ISZERO PUSH2 0x78D JUMPI DUP7 DUP7 ADD SLOAD TIMESTAMP GT PUSH2 0x776 JUMPI PUSH1 0xFF NOT DUP1 SWAP4 AND SWAP1 SSTORE PUSH1 0x3 DUP6 ADD SWAP6 DUP7 SLOAD SWAP1 PUSH1 0xFA DUP3 MUL DUP3 DUP2 DIV PUSH1 0xFA EQ DUP4 ISZERO OR ISZERO PUSH2 0x763 JUMPI SWAP1 PUSH2 0x2710 DUP11 SWAP3 DIV SWAP5 PUSH2 0x444 PUSH2 0x43B DUP8 DUP7 PUSH2 0x1681 JUMP JUMPDEST SWAP5 PUSH1 0x9 SLOAD PUSH2 0x1614 JUMP JUMPDEST PUSH1 0x9 SSTORE PUSH2 0x453 DUP7 PUSH1 0xB SLOAD PUSH2 0x1614 JUMP JUMPDEST PUSH1 0xB SSTORE PUSH2 0x461 PUSH1 0xA SLOAD PUSH2 0x15F2 JUMP JUMPDEST PUSH1 0xA SSTORE PUSH1 0x1 DUP10 ADD SWAP7 DUP8 SLOAD SWAP2 DUP3 DUP6 MSTORE PUSH1 0x6 DUP3 MSTORE DUP7 DUP6 KECCAK256 SLOAD SWAP3 DUP4 ISZERO ISZERO DUP1 PUSH2 0x745 JUMPI JUMPDEST ISZERO PUSH2 0x5F7 JUMPI POP DUP3 SWAP2 PUSH1 0x6 SWAP2 PUSH2 0x4B0 SWAP5 DUP8 MSTORE DUP6 DUP3 MSTORE PUSH1 0x5 DUP10 DUP9 KECCAK256 ADD SWAP1 DUP2 SLOAD AND SWAP1 SSTORE DUP10 SLOAD DUP7 MSTORE MSTORE DUP4 DUP7 DUP2 KECCAK256 SSTORE PUSH2 0x16DC JUMP JUMPDEST PUSH1 0x2 DUP9 ADD SLOAD DUP7 SLOAD PUSH1 0x1 PUSH1 0x1 PUSH1 0xA0 SHL SUB SWAP2 DUP3 AND SWAP3 SWAP2 PUSH32 0x0 AND DUP1 EXTCODESIZE ISZERO PUSH2 0x1D9 JUMPI DUP7 MLOAD PUSH4 0x23B872DD PUSH1 0xE0 SHL DUP2 MSTORE ADDRESS SWAP4 DUP2 ADD SWAP4 DUP5 MSTORE PUSH1 0x1 PUSH1 0x1 PUSH1 0xA0 SHL SUB SWAP1 SWAP5 AND PUSH1 0x20 DUP5 ADD MSTORE PUSH1 0x40 DUP4 ADD SWAP2 SWAP1 SWAP2 MSTORE DUP4 SWAP2 DUP4 SWAP2 SWAP1 DUP3 SWAP1 DUP5 SWAP1 DUP3 SWAP1 PUSH1 0x60 ADD SUB SWAP3 GAS CALL DUP1 ISZERO PUSH2 0x5ED JUMPI PUSH2 0x5D5 JUMPI JUMPDEST POP POP PUSH32 0xDAF07891F5285C11E75387020299910ED108C13F1B6A0650BAEB919D53B50C45 SWAP4 PUSH2 0x567 PUSH2 0x5A2 SWAP3 JUMPDEST CALLER PUSH2 0x177E JUMP JUMPDEST DUP4 PUSH2 0x5B9 JUMPI JUMPDEST SLOAD PUSH1 0x2 SWAP1 SWAP7 ADD SLOAD SWAP7 SLOAD SWAP2 MLOAD CALLER DUP2 MSTORE PUSH1 0x20 DUP2 ADD SWAP3 SWAP1 SWAP3 MSTORE PUSH1 0x40 DUP3 ADD SWAP3 SWAP1 SWAP3 MSTORE PUSH1 0x1 PUSH1 0x1 PUSH1 0xA0 SHL SUB SWAP6 SWAP1 SWAP6 AND SWAP5 SWAP1 DUP2 SWAP1 PUSH1 0x60 DUP3 ADD SWAP1 JUMP JUMPDEST SUB SWAP1 LOG4 PUSH1 0x1 PUSH0 DUP1 MLOAD PUSH1 0x20 PUSH2 0x1813 DUP4 CODECOPY DUP2 MLOAD SWAP2 MSTORE SSTORE DUP1 RETURN JUMPDEST PUSH1 0x3 SLOAD PUSH2 0x5D0 SWAP1 DUP6 SWAP1 PUSH1 0x1 PUSH1 0x1 PUSH1 0xA0 SHL SUB AND PUSH2 0x177E JUMP JUMPDEST PUSH2 0x56D JUMP JUMPDEST PUSH2 0x5DE SWAP1 PUSH2 0x150C JUMP JUMPDEST PUSH2 0x5E9 JUMPI DUP8 PUSH0 PUSH2 0x535 JUMP JUMPDEST DUP8 DUP1 REVERT JUMPDEST DUP5 MLOAD RETURNDATASIZE DUP5 DUP3 RETURNDATACOPY RETURNDATASIZE SWAP1 REVERT JUMPDEST DUP8 MLOAD PUSH4 0x31A9108F PUSH1 0xE1 SHL DUP2 MSTORE DUP6 DUP2 ADD DUP3 SWAP1 MSTORE PUSH1 0x1 PUSH1 0x1 PUSH1 0xA0 SHL SUB PUSH32 0x0 DUP2 AND SWAP8 POP SWAP2 SWAP5 POP SWAP1 SWAP3 DUP15 SWAP3 POP DUP1 DUP3 PUSH1 0x24 DUP2 DUP11 GAS STATICCALL SWAP3 DUP4 ISZERO PUSH2 0x73A JUMPI SWAP3 PUSH2 0x70D JUMPI JUMPDEST POP POP DUP2 CALLER SWAP2 AND SUB PUSH2 0x6FD JUMPI SWAP1 DUP12 SWAP4 SWAP3 SWAP2 PUSH1 0x2 DUP12 ADD SLOAD AND SWAP3 DUP1 EXTCODESIZE ISZERO PUSH2 0x1D9 JUMPI DUP7 MLOAD PUSH4 0x23B872DD PUSH1 0xE0 SHL DUP2 MSTORE CALLER SWAP4 DUP2 ADD SWAP4 DUP5 MSTORE PUSH1 0x1 PUSH1 0x1 PUSH1 0xA0 SHL SUB SWAP1 SWAP5 AND PUSH1 0x20 DUP5 ADD MSTORE PUSH1 0x40 DUP4 ADD SWAP2 SWAP1 SWAP2 MSTORE DUP4 SWAP2 DUP4 SWAP2 SWAP1 DUP3 SWAP1 DUP5 SWAP1 DUP3 SWAP1 PUSH1 0x60 ADD SUB SWAP3 GAS CALL DUP1 ISZERO PUSH2 0x5ED JUMPI PUSH2 0x6E9 JUMPI JUMPDEST POP POP PUSH32 0xDAF07891F5285C11E75387020299910ED108C13F1B6A0650BAEB919D53B50C45 SWAP4 PUSH2 0x567 PUSH2 0x5A2 SWAP3 PUSH2 0x561 JUMP JUMPDEST PUSH2 0x6F2 SWAP1 PUSH2 0x150C JUMP JUMPDEST PUSH2 0x5E9 JUMPI DUP8 PUSH0 PUSH2 0x6B9 JUMP JUMPDEST DUP6 MLOAD PUSH4 0x59DC379F PUSH1 0xE0 SHL DUP2 MSTORE DUP4 SWAP1 REVERT JUMPDEST PUSH2 0x72C SWAP3 POP DUP1 RETURNDATASIZE LT PUSH2 0x733 JUMPI JUMPDEST PUSH2 0x724 DUP2 DUP4 PUSH2 0x1520 JUMP JUMPDEST DUP2 ADD SWAP1 PUSH2 0x168E JUMP JUMPDEST PUSH0 DUP1 PUSH2 0x653 JUMP JUMPDEST POP RETURNDATASIZE PUSH2 0x71A JUMP JUMPDEST DUP10 MLOAD SWAP1 RETURNDATASIZE SWAP1 DUP3 RETURNDATACOPY RETURNDATASIZE SWAP1 REVERT JUMPDEST POP DUP4 DUP7 MSTORE DUP5 DUP4 MSTORE DUP8 DUP7 KECCAK256 PUSH1 0x2 ADD SLOAD PUSH1 0x1 PUSH1 0x1 PUSH1 0xA0 SHL SUB AND CALLER EQ PUSH2 0x481 JUMP JUMPDEST PUSH4 0x4E487B71 PUSH1 0xE0 SHL DUP11 MSTORE PUSH1 0x11 DUP3 MSTORE PUSH1 0x24 DUP11 REVERT JUMPDEST DUP2 MLOAD PUSH4 0x48E57F5F PUSH1 0xE0 SHL DUP2 MSTORE DUP1 DUP9 ADD DUP7 SWAP1 MSTORE PUSH1 0x24 SWAP1 REVERT JUMPDEST DUP2 MLOAD PUSH4 0xE3DDE1B PUSH1 0xE1 SHL DUP2 MSTORE DUP1 DUP9 ADD DUP7 SWAP1 MSTORE PUSH1 0x24 SWAP1 REVERT JUMPDEST DUP4 DUP1 REVERT JUMPDEST DUP4 DUP3 CALLVALUE PUSH2 0x248 JUMPI DUP2 PUSH1 0x3 NOT CALLDATASIZE ADD SLT PUSH2 0x248 JUMPI PUSH1 0x20 SWAP1 MLOAD PUSH1 0xFA DUP2 MSTORE RETURN JUMPDEST POP CALLVALUE PUSH2 0x1DD JUMPI PUSH2 0x7D3 CALLDATASIZE PUSH2 0x1468 JUMP JUMPDEST SWAP1 PUSH2 0x7DC PUSH2 0x16AD JUMP JUMPDEST DUP2 ISZERO PUSH2 0xA02 JUMPI DUP3 MLOAD PUSH4 0x31A9108F PUSH1 0xE1 SHL DUP2 MSTORE DUP5 DUP2 ADD DUP3 SWAP1 MSTORE PUSH1 0x20 SWAP5 SWAP1 PUSH1 0x1 PUSH1 0x1 PUSH1 0xA0 SHL SUB PUSH32 0x0 DUP2 AND SWAP2 SWAP1 DUP8 DUP3 PUSH1 0x24 DUP2 DUP7 GAS STATICCALL SWAP2 DUP3 ISZERO PUSH2 0x9F8 JUMPI DUP10 SWAP3 PUSH2 0x9D9 JUMPI JUMPDEST POP CALLER SWAP2 AND SUB PUSH2 0x9CA JUMPI DUP3 DUP8 MSTORE PUSH1 0x6 DUP7 MSTORE DUP5 DUP8 KECCAK256 SLOAD DUP1 PUSH2 0x9AE JUMPI POP DUP1 EXTCODESIZE ISZERO PUSH2 0x9AA JUMPI DUP5 MLOAD PUSH4 0x23B872DD PUSH1 0xE0 SHL DUP2 MSTORE CALLER DUP4 DUP3 ADD SWAP1 DUP2 MSTORE ADDRESS PUSH1 0x20 DUP3 ADD MSTORE PUSH1 0x40 DUP2 ADD DUP6 SWAP1 MSTORE SWAP1 SWAP2 DUP9 SWAP2 DUP4 SWAP2 SWAP1 DUP3 SWAP1 DUP5 SWAP1 DUP3 SWAP1 PUSH1 0x60 ADD SUB SWAP3 GAS CALL DUP1 ISZERO PUSH2 0x9A0 JUMPI PUSH2 0x988 JUMPI JUMPDEST POP DUP4 SWAP5 SWAP6 PUSH1 0x1 SLOAD SWAP6 DUP7 SWAP2 PUSH2 0x8AE DUP4 PUSH2 0x15F2 JUMP JUMPDEST PUSH1 0x1 SSTORE PUSH2 0x8ED DUP3 MLOAD PUSH2 0x8BF DUP2 PUSH2 0x14DC JUMP JUMPDEST DUP5 DUP2 MSTORE DUP7 DUP12 DUP3 ADD MSTORE CALLER DUP5 DUP3 ADD MSTORE DUP8 PUSH1 0x60 DUP3 ADD MSTORE TIMESTAMP PUSH1 0x80 DUP3 ADD MSTORE PUSH1 0x1 PUSH1 0xA0 DUP3 ADD MSTORE DUP5 DUP4 MSTORE DUP6 DUP12 MSTORE DUP4 DUP4 KECCAK256 PUSH2 0x1621 JUMP JUMPDEST DUP5 DUP2 MSTORE PUSH1 0x6 DUP10 MSTORE KECCAK256 SSTORE PUSH1 0x8 SLOAD SWAP1 PUSH1 0x1 PUSH1 0x40 SHL DUP3 LT ISZERO PUSH2 0x975 JUMPI POP DUP5 PUSH2 0x91B DUP3 PUSH1 0x1 PUSH2 0x933 SWAP5 ADD PUSH1 0x8 SSTORE PUSH2 0x147E JUMP JUMPDEST SWAP1 SWAP2 SWAP1 DUP3 SLOAD SWAP1 PUSH1 0x3 SHL SWAP2 DUP3 SHL SWAP2 PUSH0 NOT SWAP1 SHL NOT AND OR SWAP1 SSTORE JUMP JUMPDEST DUP3 MLOAD SWAP2 DUP3 MSTORE DUP4 PUSH32 0xCF4EBBB01B0166B4C3BB06D2EDD4860D56A19F40C14454FDEB07220BF1752924 DUP7 CALLER SWAP5 LOG4 PUSH1 0x1 PUSH0 DUP1 MLOAD PUSH1 0x20 PUSH2 0x1813 DUP4 CODECOPY DUP2 MLOAD SWAP2 MSTORE SSTORE MLOAD SWAP1 DUP2 MSTORE RETURN JUMPDEST PUSH1 0x41 SWAP1 PUSH4 0x4E487B71 PUSH1 0xE0 SHL PUSH0 MSTORE MSTORE PUSH1 0x24 PUSH0 REVERT JUMPDEST PUSH2 0x992 DUP8 SWAP2 PUSH2 0x150C JUMP JUMPDEST PUSH2 0x99C JUMPI PUSH0 PUSH2 0x89B JUMP JUMPDEST DUP6 DUP1 REVERT JUMPDEST DUP6 MLOAD RETURNDATASIZE DUP10 DUP3 RETURNDATACOPY RETURNDATASIZE SWAP1 REVERT JUMPDEST DUP7 DUP1 REVERT JUMPDEST SWAP1 POP PUSH1 0x44 SWAP3 DUP6 MLOAD SWAP3 PUSH4 0x3621852F PUSH1 0xE1 SHL DUP5 MSTORE DUP4 ADD MSTORE PUSH1 0x24 DUP3 ADD MSTORE REVERT JUMPDEST POP DUP4 MLOAD PUSH4 0x59DC379F PUSH1 0xE0 SHL DUP2 MSTORE REVERT JUMPDEST PUSH2 0x9F1 SWAP2 SWAP3 POP DUP9 RETURNDATASIZE DUP11 GT PUSH2 0x733 JUMPI PUSH2 0x724 DUP2 DUP4 PUSH2 0x1520 JUMP JUMPDEST SWAP1 PUSH0 PUSH2 0x83B JUMP JUMPDEST DUP8 MLOAD RETURNDATASIZE DUP12 DUP3 RETURNDATACOPY RETURNDATASIZE SWAP1 REVERT JUMPDEST POP POP MLOAD PUSH3 0xBFC921 PUSH1 0xE0 SHL DUP2 MSTORE REVERT JUMPDEST DUP4 DUP3 CALLVALUE PUSH2 0x248 JUMPI PUSH2 0xA20 CALLDATASIZE PUSH2 0x1468 JUMP JUMPDEST SWAP3 SWAP1 DUP2 MSTORE PUSH1 0x7 PUSH1 0x20 MSTORE DUP2 DUP2 KECCAK256 SWAP1 DUP2 SLOAD DUP5 LT ISZERO PUSH2 0x39F JUMPI POP PUSH1 0x20 SWAP3 PUSH2 0xA43 SWAP2 PUSH2 0x14C7 JUMP JUMPDEST SWAP2 SWAP1 SLOAD SWAP1 MLOAD SWAP2 PUSH1 0x3 SHL SHR DUP2 MSTORE RETURN JUMPDEST DUP4 DUP3 CALLVALUE PUSH2 0x248 JUMPI DUP2 PUSH1 0x3 NOT CALLDATASIZE ADD SLT PUSH2 0x248 JUMPI SWAP1 SLOAD SWAP1 MLOAD PUSH1 0x1 PUSH1 0x1 PUSH1 0xA0 SHL SUB SWAP1 SWAP2 AND DUP2 MSTORE PUSH1 0x20 SWAP1 RETURN JUMPDEST POP DUP3 CALLVALUE PUSH2 0x39F JUMPI PUSH1 0x20 CALLDATASIZE PUSH1 0x3 NOT ADD SLT PUSH2 0x39F JUMPI DUP3 CALLDATALOAD DUP2 MSTORE PUSH1 0x5 PUSH1 0x20 DUP2 DUP2 MSTORE SWAP2 DUP4 SWAP1 KECCAK256 DUP1 SLOAD PUSH1 0x1 DUP3 ADD SLOAD PUSH1 0x2 DUP4 ADD SLOAD PUSH1 0x3 DUP5 ADD SLOAD SWAP8 DUP5 ADD SLOAD SWAP4 SWAP1 SWAP5 ADD SLOAD SWAP6 MLOAD SWAP2 DUP3 MSTORE SWAP4 DUP2 ADD SWAP4 SWAP1 SWAP4 MSTORE PUSH1 0x1 PUSH1 0x1 PUSH1 0xA0 SHL SUB SWAP1 SWAP2 AND PUSH1 0x40 DUP4 ADD MSTORE PUSH1 0x60 DUP3 ADD SWAP4 SWAP1 SWAP4 MSTORE PUSH1 0x80 DUP2 ADD SWAP3 SWAP1 SWAP3 MSTORE PUSH1 0xFF AND ISZERO ISZERO PUSH1 0xA0 DUP3 ADD MSTORE PUSH1 0xC0 SWAP1 RETURN JUMPDEST POP DUP3 SWAP1 CALLVALUE PUSH2 0x248 JUMPI DUP2 PUSH1 0x3 NOT CALLDATASIZE ADD SLT PUSH2 0x248 JUMPI PUSH1 0x8 SLOAD DUP4 SWAP2 PUSH2 0xB11 DUP3 PUSH2 0x1542 JUMP JUMPDEST SWAP2 PUSH2 0xB1E DUP3 MLOAD SWAP4 DUP5 PUSH2 0x1520 JUMP JUMPDEST DUP1 DUP4 MSTORE PUSH2 0xB2A DUP2 PUSH2 0x1542 JUMP JUMPDEST PUSH1 0x20 SWAP5 SWAP1 PUSH1 0x1F NOT ADD DUP7 JUMPDEST DUP2 DUP2 LT PUSH2 0xBD8 JUMPI POP POP DUP6 JUMPDEST DUP3 DUP2 LT PUSH2 0xB8F JUMPI POP POP POP DUP1 MLOAD SWAP3 DUP1 DUP1 DUP6 ADD SWAP3 DUP2 DUP7 MSTORE DUP5 MLOAD DUP1 SWAP5 MSTORE DUP6 ADD SWAP4 ADD SWAP5 JUMPDEST DUP3 DUP2 LT PUSH2 0xB6C JUMPI DUP5 DUP5 SUB DUP6 RETURN JUMPDEST SWAP1 SWAP2 SWAP3 DUP3 PUSH1 0xC0 DUP3 PUSH2 0xB80 PUSH1 0x1 SWAP5 DUP11 MLOAD PUSH2 0x1428 JUMP JUMPDEST ADD SWAP7 ADD SWAP2 ADD SWAP5 SWAP3 SWAP2 SWAP1 SWAP5 PUSH2 0xB5F JUMP JUMPDEST DUP1 PUSH2 0xBA0 PUSH1 0x1 SWAP3 SWAP9 SWAP8 SWAP6 SWAP7 SWAP9 PUSH2 0x147E JUMP JUMPDEST SWAP1 SLOAD SWAP1 PUSH1 0x3 SHL SHR DUP8 MSTORE DUP3 DUP6 MSTORE PUSH2 0xBB7 DUP7 DUP9 KECCAK256 PUSH2 0x159E JUMP JUMPDEST PUSH2 0xBC1 DUP3 DUP11 PUSH2 0x158A JUMP JUMPDEST MSTORE PUSH2 0xBCC DUP2 DUP10 PUSH2 0x158A JUMP JUMPDEST POP ADD SWAP6 SWAP4 SWAP3 SWAP5 SWAP6 PUSH2 0xB3F JUMP JUMPDEST SWAP6 DUP1 SWAP5 SWAP6 SWAP8 SWAP7 PUSH2 0xBE6 PUSH2 0x155A JUMP JUMPDEST DUP3 DUP3 DUP12 ADD ADD MSTORE ADD SWAP7 SWAP5 SWAP4 SWAP6 SWAP7 PUSH2 0xB34 JUMP JUMPDEST DUP4 CALLVALUE PUSH2 0x39F JUMPI DUP1 PUSH1 0x3 NOT CALLDATASIZE ADD SLT PUSH2 0x39F JUMPI PUSH2 0xC10 PUSH2 0x17E7 JUMP JUMPDEST PUSH0 DUP1 SLOAD PUSH1 0x1 PUSH1 0x1 PUSH1 0xA0 SHL SUB NOT DUP2 AND DUP3 SSTORE PUSH1 0x1 PUSH1 0x1 PUSH1 0xA0 SHL SUB AND PUSH32 0x8BE0079C531659141344CD1FD0A4F28419497F9722A3DAAFE3B4186F6B6457E0 DUP3 DUP1 LOG3 DUP1 RETURN JUMPDEST DUP4 DUP3 CALLVALUE PUSH2 0x248 JUMPI DUP2 PUSH1 0x3 NOT CALLDATASIZE ADD SLT PUSH2 0x248 JUMPI PUSH1 0x20 SWAP1 PUSH1 0xA SLOAD SWAP1 MLOAD SWAP1 DUP2 MSTORE RETURN JUMPDEST DUP4 DUP3 CALLVALUE PUSH2 0x248 JUMPI DUP2 PUSH1 0x3 NOT CALLDATASIZE ADD SLT PUSH2 0x248 JUMPI PUSH1 0x3 SLOAD SWAP1 MLOAD PUSH1 0x1 PUSH1 0x1 PUSH1 0xA0 SHL SUB SWAP1 SWAP2 AND DUP2 MSTORE PUSH1 0x20 SWAP1 RETURN JUMPDEST DUP4 DUP3 CALLVALUE PUSH2 0x248 JUMPI DUP2 PUSH1 0x3 NOT CALLDATASIZE ADD SLT PUSH2 0x248 JUMPI PUSH1 0x20 SWAP1 PUSH1 0x9 SLOAD SWAP1 MLOAD SWAP1 DUP2 MSTORE RETURN JUMPDEST POP SWAP1 PUSH1 0x20 CALLDATASIZE PUSH1 0x3 NOT ADD SLT PUSH2 0x1DD JUMPI DUP1 CALLDATALOAD PUSH2 0xCCF PUSH2 0x16AD JUMP JUMPDEST DUP1 DUP5 MSTORE DUP2 PUSH1 0x20 MSTORE DUP3 DUP5 KECCAK256 SWAP3 PUSH1 0x5 DUP5 ADD SWAP4 DUP5 SLOAD SWAP5 PUSH1 0xFF DUP7 AND ISZERO PUSH2 0xED8 JUMPI PUSH1 0x3 DUP3 ADD SWAP6 DUP7 SLOAD DUP1 CALLVALUE LT PUSH2 0xEBA JUMPI POP PUSH1 0xFF NOT AND SWAP1 SSTORE PUSH1 0x1 DUP2 ADD SWAP2 DUP3 SLOAD DUP8 MSTORE PUSH1 0x6 PUSH1 0x20 MSTORE DUP7 DUP2 DUP2 KECCAK256 SSTORE PUSH2 0xD1C DUP5 PUSH2 0x16DC JUMP JUMPDEST DUP6 SLOAD SWAP5 PUSH1 0xFA DUP7 MUL DUP7 DUP2 DIV PUSH1 0xFA EQ DUP8 ISZERO OR ISZERO PUSH2 0xEA7 JUMPI PUSH2 0x2710 SWAP1 DIV SWAP3 PUSH2 0xD4D PUSH2 0xD44 DUP6 DUP10 PUSH2 0x1681 JUMP JUMPDEST SWAP8 PUSH1 0x9 SLOAD PUSH2 0x1614 JUMP JUMPDEST PUSH1 0x9 SSTORE PUSH2 0xD5C DUP5 PUSH1 0xB SLOAD PUSH2 0x1614 JUMP JUMPDEST PUSH1 0xB SSTORE PUSH2 0xD6A PUSH1 0xA SLOAD PUSH2 0x15F2 JUMP JUMPDEST PUSH1 0xA SSTORE DUP5 SLOAD PUSH1 0x1 PUSH1 0x1 PUSH1 0xA0 SHL SUB SWAP3 DUP11 SWAP2 PUSH32 0x0 DUP6 AND SWAP2 SWAP1 DUP3 EXTCODESIZE ISZERO PUSH2 0x7A4 JUMPI DUP7 MLOAD PUSH4 0x23B872DD PUSH1 0xE0 SHL DUP2 MSTORE ADDRESS SWAP3 DUP2 ADD SWAP3 DUP4 MSTORE CALLER PUSH1 0x20 DUP5 ADD MSTORE PUSH1 0x40 DUP4 ADD SWAP2 SWAP1 SWAP2 MSTORE SWAP2 DUP4 SWAP2 DUP4 SWAP2 SWAP1 DUP3 SWAP1 DUP5 SWAP1 DUP3 SWAP1 PUSH1 0x60 ADD SUB SWAP3 GAS CALL DUP1 ISZERO PUSH2 0xE9D JUMPI PUSH2 0xE81 JUMPI JUMPDEST POP POP SWAP1 PUSH32 0x32E54FA7FBB8A9FB8D83E72518A738F5B67739EEA06D7A2B39C229BF80E4DBF8 SWAP5 PUSH2 0xE1E PUSH1 0x2 PUSH2 0x5A2 SWAP5 ADD SWAP9 DUP4 DUP11 SLOAD AND PUSH2 0x177E JUMP JUMPDEST DUP5 PUSH2 0xE6E JUMPI JUMPDEST DUP9 SLOAD DUP1 CALLVALUE GT PUSH2 0xE5B JUMPI JUMPDEST POP SLOAD SWAP7 SLOAD AND SWAP7 SLOAD SWAP2 MLOAD SWAP3 DUP4 SWAP3 CALLER SWAP9 DUP5 PUSH1 0x40 SWAP2 SWAP5 SWAP4 SWAP3 PUSH1 0x60 DUP3 ADD SWAP6 PUSH1 0x1 DUP1 PUSH1 0xA0 SHL SUB AND DUP3 MSTORE PUSH1 0x20 DUP3 ADD MSTORE ADD MSTORE JUMP JUMPDEST PUSH2 0x561 PUSH2 0xE68 SWAP2 CALLVALUE PUSH2 0x1681 JUMP JUMPDEST PUSH0 PUSH2 0xE2E JUMP JUMPDEST PUSH2 0xE7C DUP6 DUP4 PUSH1 0x3 SLOAD AND PUSH2 0x177E JUMP JUMPDEST PUSH2 0xE24 JUMP JUMPDEST PUSH2 0xE8D SWAP1 SWAP4 SWAP3 SWAP4 PUSH2 0x150C JUMP JUMPDEST PUSH2 0xE99 JUMPI SWAP1 DUP9 PUSH0 PUSH2 0xDE5 JUMP JUMPDEST DUP9 DUP1 REVERT JUMPDEST DUP6 MLOAD RETURNDATASIZE DUP5 DUP3 RETURNDATACOPY RETURNDATASIZE SWAP1 REVERT JUMPDEST PUSH4 0x4E487B71 PUSH1 0xE0 SHL DUP10 MSTORE PUSH1 0x11 DUP3 MSTORE PUSH1 0x24 DUP10 REVERT JUMPDEST DUP5 MLOAD PUSH4 0xB99E2AB7 PUSH1 0xE0 SHL DUP2 MSTORE CALLVALUE DUP2 DUP10 ADD MSTORE PUSH1 0x24 DUP2 ADD SWAP2 SWAP1 SWAP2 MSTORE PUSH1 0x44 SWAP1 REVERT JUMPDEST POP POP MLOAD PUSH3 0xDE2A4F PUSH1 0xE6 SHL DUP2 MSTORE SWAP2 DUP3 ADD MSTORE PUSH1 0x24 SWAP2 POP REVERT JUMPDEST DUP4 DUP3 CALLVALUE PUSH2 0x248 JUMPI DUP2 PUSH1 0x3 NOT CALLDATASIZE ADD SLT PUSH2 0x248 JUMPI PUSH1 0x20 SWAP1 PUSH1 0x8 SLOAD SWAP1 MLOAD SWAP1 DUP2 MSTORE RETURN JUMPDEST POP SWAP1 CALLVALUE PUSH2 0x1DD JUMPI PUSH1 0x20 CALLDATASIZE PUSH1 0x3 NOT ADD SLT PUSH2 0x1DD JUMPI PUSH2 0xF42 DUP3 PUSH1 0xC0 SWAP5 PUSH2 0xF4B SWAP4 PUSH2 0xF33 PUSH2 0x155A JUMP JUMPDEST POP CALLDATALOAD DUP2 MSTORE PUSH1 0x5 PUSH1 0x20 MSTORE KECCAK256 PUSH2 0x159E JUMP JUMPDEST SWAP2 MLOAD DUP1 SWAP3 PUSH2 0x1428 JUMP JUMPDEST RETURN JUMPDEST POP CALLVALUE PUSH2 0x109E JUMPI PUSH1 0x20 CALLDATASIZE PUSH1 0x3 NOT ADD SLT PUSH2 0x109E JUMPI DUP2 CALLDATALOAD SWAP2 PUSH2 0xF6A PUSH2 0x16AD JUMP JUMPDEST DUP3 PUSH0 MSTORE DUP1 PUSH1 0x20 MSTORE DUP2 PUSH0 KECCAK256 SWAP2 PUSH1 0x5 DUP4 ADD SWAP2 DUP3 SLOAD SWAP4 PUSH1 0xFF DUP6 AND ISZERO PUSH2 0x10DC JUMPI PUSH1 0x2 DUP2 ADD DUP1 SLOAD PUSH1 0x1 PUSH1 0x1 PUSH1 0xA0 SHL SUB SWAP7 SWAP2 SWAP6 SWAP2 SWAP1 DUP8 AND CALLER DUP2 EQ ISZERO DUP1 PUSH2 0x10CF JUMPI JUMPDEST PUSH2 0x10A2 JUMPI POP PUSH1 0xFF NOT AND SWAP1 SSTORE PUSH1 0x1 ADD DUP1 SLOAD PUSH0 SWAP1 DUP2 MSTORE PUSH1 0x6 PUSH1 0x20 MSTORE DUP4 DUP2 KECCAK256 SSTORE SWAP4 PUSH2 0xFCC DUP7 PUSH2 0x16DC JUMP JUMPDEST DUP1 PUSH32 0x0 AND SWAP4 SLOAD AND SWAP3 DUP5 SLOAD SWAP1 DUP1 EXTCODESIZE ISZERO PUSH2 0x109E JUMPI DUP4 MLOAD PUSH4 0x23B872DD PUSH1 0xE0 SHL DUP2 MSTORE ADDRESS SWAP4 DUP2 ADD SWAP4 DUP5 MSTORE PUSH1 0x1 PUSH1 0x1 PUSH1 0xA0 SHL SUB SWAP1 SWAP6 AND PUSH1 0x20 DUP5 ADD MSTORE PUSH1 0x40 DUP4 ADD SWAP2 SWAP1 SWAP2 MSTORE PUSH0 SWAP2 DUP5 SWAP2 SWAP1 DUP3 SWAP1 DUP5 SWAP1 DUP3 SWAP1 PUSH1 0x60 ADD SUB SWAP3 GAS CALL SWAP1 DUP2 ISZERO PUSH2 0x1095 JUMPI POP PUSH2 0x1082 JUMPI JUMPDEST POP SLOAD SWAP1 PUSH32 0xAFD0A85A3F09CEBBC7D9FCDE08E8A7D0EBB0AA7D768A030915C3816A053D3C7A DUP4 DUP1 LOG3 PUSH1 0x1 PUSH0 DUP1 MLOAD PUSH1 0x20 PUSH2 0x1813 DUP4 CODECOPY DUP2 MLOAD SWAP2 MSTORE SSTORE DUP1 RETURN JUMPDEST PUSH2 0x108D SWAP2 SWAP4 POP PUSH2 0x150C JUMP JUMPDEST PUSH0 SWAP2 PUSH0 PUSH2 0x1047 JUMP JUMPDEST MLOAD RETURNDATASIZE PUSH0 DUP3 RETURNDATACOPY RETURNDATASIZE SWAP1 REVERT JUMPDEST PUSH0 DUP1 REVERT JUMPDEST DUP6 MLOAD PUSH4 0x7DE5A521 PUSH1 0xE1 SHL DUP2 MSTORE CALLER DUP2 DUP8 ADD SWAP1 DUP2 MSTORE PUSH1 0x1 PUSH1 0x1 PUSH1 0xA0 SHL SUB SWAP1 SWAP3 AND PUSH1 0x20 DUP4 ADD MSTORE SWAP1 DUP2 SWAP1 PUSH1 0x40 ADD SUB SWAP1 REVERT JUMPDEST POP CALLER DUP9 PUSH0 SLOAD AND EQ ISZERO PUSH2 0xFA5 JUMP JUMPDEST POP DUP5 PUSH1 0x24 SWAP3 MLOAD SWAP2 PUSH3 0xDE2A4F PUSH1 0xE6 SHL DUP4 MSTORE DUP3 ADD MSTORE REVERT JUMPDEST POP CALLVALUE PUSH2 0x109E JUMPI PUSH0 CALLDATASIZE PUSH1 0x3 NOT ADD SLT PUSH2 0x109E JUMPI MLOAD PUSH32 0x0 PUSH1 0x1 PUSH1 0x1 PUSH1 0xA0 SHL SUB AND DUP2 MSTORE PUSH1 0x20 SWAP1 RETURN JUMPDEST POP CALLVALUE PUSH2 0x109E JUMPI PUSH0 CALLDATASIZE PUSH1 0x3 NOT ADD SLT PUSH2 0x109E JUMPI PUSH1 0x20 SWAP1 MLOAD PUSH2 0x2710 DUP2 MSTORE RETURN JUMPDEST POP CALLVALUE PUSH2 0x109E JUMPI PUSH1 0x20 CALLDATASIZE PUSH1 0x3 NOT ADD SLT PUSH2 0x109E JUMPI PUSH1 0x20 SWAP2 CALLDATALOAD PUSH0 MSTORE PUSH1 0x6 DUP3 MSTORE DUP1 PUSH0 KECCAK256 SLOAD SWAP1 MLOAD SWAP1 DUP2 MSTORE RETURN JUMPDEST POP CALLVALUE PUSH2 0x109E JUMPI PUSH0 CALLDATASIZE PUSH1 0x3 NOT ADD SLT PUSH2 0x109E JUMPI PUSH1 0x20 SWAP1 PUSH1 0xB SLOAD SWAP1 MLOAD SWAP1 DUP2 MSTORE RETURN JUMPDEST POP CALLVALUE PUSH2 0x109E JUMPI PUSH1 0x20 CALLDATASIZE PUSH1 0x3 NOT ADD SLT PUSH2 0x109E JUMPI PUSH1 0xC0 SWAP2 PUSH2 0x11B2 PUSH2 0x155A JUMP JUMPDEST POP DUP1 CALLDATALOAD PUSH0 MSTORE PUSH1 0x20 MSTORE PUSH2 0xF4B PUSH2 0xF42 DUP3 PUSH0 KECCAK256 PUSH2 0x159E JUMP JUMPDEST POP PUSH2 0x11D2 CALLDATASIZE PUSH2 0x1468 JUMP JUMPDEST SWAP2 SWAP1 PUSH2 0x11DC PUSH2 0x16AD JUMP JUMPDEST CALLVALUE ISZERO PUSH2 0x12DC JUMPI DUP3 ISZERO DUP1 ISZERO PUSH2 0x12D0 JUMPI JUMPDEST PUSH2 0x12C0 JUMPI PUSH2 0x1208 PUSH1 0x2 SLOAD SWAP4 PUSH2 0x11FF DUP6 PUSH2 0x15F2 JUMP JUMPDEST PUSH1 0x2 SSTORE TIMESTAMP PUSH2 0x1614 JUMP JUMPDEST SWAP1 PUSH2 0x1248 DUP4 MLOAD PUSH2 0x1217 DUP2 PUSH2 0x14DC JUMP JUMPDEST DUP6 DUP2 MSTORE DUP3 PUSH1 0x20 DUP3 ADD MSTORE CALLER DUP6 DUP3 ADD MSTORE CALLVALUE PUSH1 0x60 DUP3 ADD MSTORE DUP4 PUSH1 0x80 DUP3 ADD MSTORE PUSH1 0x1 PUSH1 0xA0 DUP3 ADD MSTORE DUP6 PUSH0 MSTORE PUSH1 0x5 PUSH1 0x20 MSTORE DUP5 PUSH0 KECCAK256 PUSH2 0x1621 JUMP JUMPDEST DUP1 PUSH0 MSTORE PUSH1 0x7 PUSH1 0x20 MSTORE DUP3 PUSH0 KECCAK256 DUP1 SLOAD SWAP6 PUSH1 0x1 PUSH1 0x40 SHL DUP8 LT ISZERO PUSH2 0x975 JUMPI POP DUP5 PUSH2 0x91B DUP8 PUSH2 0x1279 SWAP4 PUSH1 0x1 PUSH1 0x20 SWAP11 ADD DUP2 SSTORE PUSH2 0x14C7 JUMP JUMPDEST DUP3 MLOAD SWAP2 CALLVALUE DUP4 MSTORE DUP6 DUP4 ADD MSTORE DUP4 PUSH32 0x23B0047C5C1F392C454F858542DDFB8143E48945B1A00E247308D5EB97164BC4 DUP5 CALLER SWAP5 LOG4 PUSH1 0x1 PUSH0 DUP1 MLOAD PUSH1 0x20 PUSH2 0x1813 DUP4 CODECOPY DUP2 MLOAD SWAP2 MSTORE SSTORE MLOAD SWAP1 DUP2 MSTORE RETURN JUMPDEST DUP2 MLOAD PUSH4 0x76166401 PUSH1 0xE0 SHL DUP2 MSTORE DUP5 SWAP1 REVERT JUMPDEST POP PUSH3 0x278D00 DUP4 GT PUSH2 0x11EB JUMP JUMPDEST DUP2 MLOAD PUSH3 0xBFC921 PUSH1 0xE0 SHL DUP2 MSTORE DUP5 SWAP1 REVERT JUMPDEST SWAP2 SWAP1 POP CALLVALUE PUSH2 0x109E JUMPI PUSH1 0x20 SWAP3 DUP4 PUSH1 0x3 NOT CALLDATASIZE ADD SLT PUSH2 0x109E JUMPI CALLDATALOAD PUSH0 MSTORE PUSH1 0x7 DUP4 MSTORE DUP1 PUSH0 KECCAK256 DUP3 DUP2 SLOAD SWAP2 DUP3 DUP3 MSTORE DUP6 DUP3 ADD SWAP1 PUSH0 MSTORE DUP6 PUSH0 KECCAK256 SWAP3 PUSH0 JUMPDEST DUP8 DUP3 DUP3 LT PUSH2 0x1412 JUMPI POP POP POP PUSH2 0x1335 SWAP3 POP SUB DUP4 PUSH2 0x1520 JUMP JUMPDEST DUP2 MLOAD SWAP3 PUSH2 0x1359 PUSH2 0x1344 DUP6 PUSH2 0x1542 JUMP JUMPDEST SWAP5 PUSH2 0x1351 DUP5 MLOAD SWAP7 DUP8 PUSH2 0x1520 JUMP JUMPDEST DUP1 DUP7 MSTORE PUSH2 0x1542 JUMP JUMPDEST PUSH1 0x1F NOT ADD DUP2 PUSH0 JUMPDEST DUP3 DUP2 LT PUSH2 0x13FC JUMPI POP POP POP PUSH0 JUMPDEST DUP4 MLOAD DUP2 LT ISZERO PUSH2 0x13B0 JUMPI DUP1 PUSH2 0x1382 PUSH1 0x1 SWAP3 DUP7 PUSH2 0x158A JUMP JUMPDEST MLOAD PUSH0 MSTORE PUSH1 0x5 DUP4 MSTORE PUSH2 0x1394 DUP5 PUSH0 KECCAK256 PUSH2 0x159E JUMP JUMPDEST PUSH2 0x139E DUP3 DUP9 PUSH2 0x158A JUMP JUMPDEST MSTORE PUSH2 0x13A9 DUP2 DUP8 PUSH2 0x158A JUMP JUMPDEST POP ADD PUSH2 0x136C JUMP JUMPDEST POP SWAP3 SWAP1 SWAP2 POP DUP2 MLOAD SWAP2 DUP4 DUP1 DUP5 ADD SWAP2 DUP2 DUP6 MSTORE DUP4 MLOAD DUP1 SWAP4 MSTORE DUP5 ADD SWAP3 ADD SWAP4 PUSH0 JUMPDEST DUP3 DUP2 LT PUSH2 0x13D9 JUMPI DUP5 DUP5 SUB DUP6 RETURN JUMPDEST SWAP1 SWAP2 SWAP3 DUP3 PUSH1 0xC0 DUP3 PUSH2 0x13ED PUSH1 0x1 SWAP5 DUP11 MLOAD PUSH2 0x1428 JUMP JUMPDEST ADD SWAP7 ADD SWAP2 ADD SWAP5 SWAP3 SWAP2 SWAP1 SWAP5 PUSH2 0x13CC JUMP JUMPDEST PUSH2 0x1404 PUSH2 0x155A JUMP JUMPDEST DUP3 DUP3 DUP10 ADD ADD MSTORE ADD DUP3 SWAP1 PUSH2 0x1360 JUMP JUMPDEST DUP6 SLOAD DUP5 MSTORE PUSH1 0x1 SWAP6 DUP7 ADD SWAP6 DUP9 SWAP6 POP SWAP4 ADD SWAP3 ADD PUSH2 0x131E JUMP JUMPDEST PUSH1 0xA0 DUP1 SWAP2 DUP1 MLOAD DUP5 MSTORE PUSH1 0x20 DUP2 ADD MLOAD PUSH1 0x20 DUP6 ADD MSTORE PUSH1 0x1 DUP1 DUP4 SHL SUB PUSH1 0x40 DUP3 ADD MLOAD AND PUSH1 0x40 DUP6 ADD MSTORE PUSH1 0x60 DUP2 ADD MLOAD PUSH1 0x60 DUP6 ADD MSTORE PUSH1 0x80 DUP2 ADD MLOAD PUSH1 0x80 DUP6 ADD MSTORE ADD MLOAD ISZERO ISZERO SWAP2 ADD MSTORE JUMP JUMPDEST PUSH1 0x40 SWAP1 PUSH1 0x3 NOT ADD SLT PUSH2 0x109E JUMPI PUSH1 0x4 CALLDATALOAD SWAP1 PUSH1 0x24 CALLDATALOAD SWAP1 JUMP JUMPDEST PUSH1 0x8 SLOAD DUP2 LT ISZERO PUSH2 0x14B3 JUMPI PUSH1 0x8 PUSH0 MSTORE PUSH32 0xF3F7A9FE364FAAB93B216DA50A3214154F22A0A2B415B23A84C8169E8B636EE3 ADD SWAP1 PUSH0 SWAP1 JUMP JUMPDEST PUSH4 0x4E487B71 PUSH1 0xE0 SHL PUSH0 MSTORE PUSH1 0x32 PUSH1 0x4 MSTORE PUSH1 0x24 PUSH0 REVERT JUMPDEST DUP1 SLOAD DUP3 LT ISZERO PUSH2 0x14B3 JUMPI PUSH0 MSTORE PUSH1 0x20 PUSH0 KECCAK256 ADD SWAP1 PUSH0 SWAP1 JUMP JUMPDEST PUSH1 0xC0 DUP2 ADD SWAP1 DUP2 LT PUSH8 0xFFFFFFFFFFFFFFFF DUP3 GT OR PUSH2 0x14F8 JUMPI PUSH1 0x40 MSTORE JUMP JUMPDEST PUSH4 0x4E487B71 PUSH1 0xE0 SHL PUSH0 MSTORE PUSH1 0x41 PUSH1 0x4 MSTORE PUSH1 0x24 PUSH0 REVERT JUMPDEST PUSH8 0xFFFFFFFFFFFFFFFF DUP2 GT PUSH2 0x14F8 JUMPI PUSH1 0x40 MSTORE JUMP JUMPDEST SWAP1 PUSH1 0x1F DUP1 NOT SWAP2 ADD AND DUP2 ADD SWAP1 DUP2 LT PUSH8 0xFFFFFFFFFFFFFFFF DUP3 GT OR PUSH2 0x14F8 JUMPI PUSH1 0x40 MSTORE JUMP JUMPDEST PUSH8 0xFFFFFFFFFFFFFFFF DUP2 GT PUSH2 0x14F8 JUMPI PUSH1 0x5 SHL PUSH1 0x20 ADD SWAP1 JUMP JUMPDEST PUSH1 0x40 MLOAD SWAP1 PUSH2 0x1567 DUP3 PUSH2 0x14DC JUMP JUMPDEST PUSH0 PUSH1 0xA0 DUP4 DUP3 DUP2 MSTORE DUP3 PUSH1 0x20 DUP3 ADD MSTORE DUP3 PUSH1 0x40 DUP3 ADD MSTORE DUP3 PUSH1 0x60 DUP3 ADD MSTORE DUP3 PUSH1 0x80 DUP3 ADD MSTORE ADD MSTORE JUMP JUMPDEST DUP1 MLOAD DUP3 LT ISZERO PUSH2 0x14B3 JUMPI PUSH1 0x20 SWAP2 PUSH1 0x5 SHL ADD ADD SWAP1 JUMP JUMPDEST SWAP1 PUSH1 0x40 MLOAD PUSH2 0x15AB DUP2 PUSH2 0x14DC JUMP JUMPDEST DUP3 SLOAD DUP2 MSTORE PUSH1 0x1 DUP4 ADD SLOAD PUSH1 0x20 DUP3 ADD MSTORE PUSH1 0x2 DUP4 ADD SLOAD PUSH1 0x1 PUSH1 0x1 PUSH1 0xA0 SHL SUB AND PUSH1 0x40 DUP3 ADD MSTORE PUSH1 0x3 DUP4 ADD SLOAD PUSH1 0x60 DUP3 ADD MSTORE PUSH1 0x4 DUP4 ADD SLOAD PUSH1 0x80 DUP3 ADD MSTORE PUSH1 0x5 SWAP1 SWAP3 ADD SLOAD PUSH1 0xFF AND ISZERO ISZERO PUSH1 0xA0 DUP4 ADD MSTORE JUMP JUMPDEST PUSH0 NOT DUP2 EQ PUSH2 0x1600 JUMPI PUSH1 0x1 ADD SWAP1 JUMP JUMPDEST PUSH4 0x4E487B71 PUSH1 0xE0 SHL PUSH0 MSTORE PUSH1 0x11 PUSH1 0x4 MSTORE PUSH1 0x24 PUSH0 REVERT JUMPDEST SWAP2 SWAP1 DUP3 ADD DUP1 SWAP3 GT PUSH2 0x1600 JUMPI JUMP JUMPDEST PUSH1 0x5 PUSH1 0xA0 SWAP2 DUP4 MLOAD DUP2 SSTORE PUSH1 0x20 DUP5 ADD MLOAD PUSH1 0x1 DUP3 ADD SSTORE PUSH1 0x2 DUP2 ADD PUSH1 0x1 DUP1 DUP6 SHL SUB PUSH1 0x40 DUP7 ADD MLOAD AND PUSH12 0xFFFFFFFFFFFFFFFFFFFFFFFF DUP6 SHL DUP3 SLOAD AND OR SWAP1 SSTORE PUSH1 0x60 DUP5 ADD MLOAD PUSH1 0x3 DUP3 ADD SSTORE PUSH1 0x80 DUP5 ADD MLOAD PUSH1 0x4 DUP3 ADD SSTORE ADD SWAP2 ADD MLOAD ISZERO ISZERO PUSH1 0xFF DUP1 NOT DUP4 SLOAD AND SWAP2 AND OR SWAP1 SSTORE JUMP JUMPDEST SWAP2 SWAP1 DUP3 SUB SWAP2 DUP3 GT PUSH2 0x1600 JUMPI JUMP JUMPDEST SWAP1 DUP2 PUSH1 0x20 SWAP2 SUB SLT PUSH2 0x109E JUMPI MLOAD PUSH1 0x1 PUSH1 0x1 PUSH1 0xA0 SHL SUB DUP2 AND DUP2 SUB PUSH2 0x109E JUMPI SWAP1 JUMP JUMPDEST PUSH0 DUP1 MLOAD PUSH1 0x20 PUSH2 0x1813 DUP4 CODECOPY DUP2 MLOAD SWAP2 MSTORE PUSH1 0x2 DUP2 SLOAD EQ PUSH2 0x16CA JUMPI PUSH1 0x2 SWAP1 SSTORE JUMP JUMPDEST PUSH1 0x40 MLOAD PUSH4 0x3EE5AEB5 PUSH1 0xE0 SHL DUP2 MSTORE PUSH1 0x4 SWAP1 REVERT JUMPDEST PUSH1 0x8 SWAP1 PUSH1 0x8 SLOAD SWAP2 PUSH0 JUMPDEST DUP4 DUP2 LT PUSH2 0x16F3 JUMPI JUMPDEST POP POP POP POP JUMP JUMPDEST DUP3 PUSH2 0x16FD DUP3 PUSH2 0x147E JUMP JUMPDEST SWAP2 SWAP1 SLOAD PUSH1 0x3 SWAP3 DUP4 SHL SHR EQ PUSH2 0x1714 JUMPI POP PUSH1 0x1 ADD PUSH2 0x16E5 JUMP JUMPDEST SWAP4 SWAP2 SWAP3 POP PUSH0 NOT SWAP2 DUP3 DUP2 ADD SWAP2 SWAP1 DUP3 GT PUSH2 0x1600 JUMPI PUSH2 0x91B PUSH2 0x1735 PUSH2 0x1741 SWAP4 PUSH2 0x147E JUMP JUMPDEST SWAP1 SLOAD SWAP1 DUP8 SHL SHR SWAP2 PUSH2 0x147E JUMP JUMPDEST DUP2 SLOAD DUP1 ISZERO PUSH2 0x176A JUMPI DUP2 ADD SWAP3 PUSH2 0x1755 DUP5 PUSH2 0x147E JUMP JUMPDEST DUP2 SWAP4 SWAP2 SLOAD SWAP3 SHL SHL NOT AND SWAP1 SSTORE SSTORE PUSH0 DUP1 DUP1 DUP1 PUSH2 0x16ED JUMP JUMPDEST PUSH4 0x4E487B71 PUSH1 0xE0 SHL PUSH0 MSTORE PUSH1 0x31 PUSH1 0x4 MSTORE PUSH1 0x24 PUSH0 REVERT JUMPDEST PUSH0 SWAP2 DUP3 SWAP2 DUP3 SWAP2 DUP3 SWAP2 PUSH1 0x1 PUSH1 0x1 PUSH1 0xA0 SHL SUB AND GAS CALL RETURNDATASIZE ISZERO PUSH2 0x17E2 JUMPI RETURNDATASIZE PUSH8 0xFFFFFFFFFFFFFFFF DUP2 GT PUSH2 0x14F8 JUMPI PUSH1 0x40 MLOAD SWAP1 PUSH2 0x17BF PUSH1 0x1F DUP3 ADD PUSH1 0x1F NOT AND PUSH1 0x20 ADD DUP4 PUSH2 0x1520 JUMP JUMPDEST DUP2 MSTORE PUSH0 PUSH1 0x20 RETURNDATASIZE SWAP3 ADD RETURNDATACOPY JUMPDEST ISZERO PUSH2 0x17D0 JUMPI JUMP JUMPDEST PUSH1 0x40 MLOAD PUSH4 0x12171D83 PUSH1 0xE3 SHL DUP2 MSTORE PUSH1 0x4 SWAP1 REVERT JUMPDEST PUSH2 0x17C9 JUMP JUMPDEST PUSH0 SLOAD PUSH1 0x1 PUSH1 0x1 PUSH1 0xA0 SHL SUB AND CALLER SUB PUSH2 0x17FA JUMPI JUMP JUMPDEST PUSH1 0x40 MLOAD PUSH4 0x118CDAA7 PUSH1 0xE0 SHL DUP2 MSTORE CALLER PUSH1 0x4 DUP3 ADD MSTORE PUSH1 0x24 SWAP1 REVERT INVALID SWAP12 PUSH24 0x9B17422D0DF92223018B32B4D1FA46E071723D6817E2486D STOP EXTCODESIZE 0xEC 0xC5 PUSH0 STOP LOG2 PUSH5 0x6970667358 0x22 SLT KECCAK256 PUSH11 0x10586B1310D71B01B27385 0x22 0xEF DUP5 0xF CALLDATASIZE BALANCE 0xDA SWAP3 GAS 0xE4 PUSH17 0xAF74F4B499AD22D40D64736F6C63430008 XOR STOP CALLER "},"methodIdentifiers":{"BPS()":"249d39e9","FEE_BPS()":"bf333f2c","MAX_OFFER_DURATION()":"d6d4fcea","acceptOffer(uint256)":"c815729d","activeListingCount()":"4681a7c6","buyListing(uint256)":"4884f459","cancelListing(uint256)":"305a67a8","cancelOffer(uint256)":"ef706adf","createListing(uint256,uint256)":"a79123a9","getActiveListings()":"87c35bc0","getListing(uint256)":"107a274a","getOffer(uint256)":"4579268a","getTokenOffers(uint256)":"01388d37","inftContract()":"300303e9","listings(uint256)":"de74e57b","makeOffer(uint256,uint256)":"05b7cdd3","offers(uint256)":"8a72ea6a","owner()":"8da5cb5b","renounceOwnership()":"715018a6","setTreasury(address)":"f0f44260","tokenOffers(uint256,uint256)":"944985f5","tokenToActiveListing(uint256)":"192b2e30","totalFees()":"13114a9d","totalSales()":"6605ff66","totalVolume()":"5f81a57c","transferOwnership(address)":"f2fde38b","treasury()":"61d027b3"}}}}}