{"contracts/HiringEscrow.sol":{"TrustFolioHiringEscrow":{"abi":[{"inputs":[{"internalType":"address","name":"_treasury","type":"address"}],"stateMutability":"nonpayable","type":"constructor"},{"inputs":[{"internalType":"uint256","name":"readyAt","type":"uint256"}],"name":"AutoReleaseNotReady","type":"error"},{"inputs":[],"name":"DeadlineMustBeFuture","type":"error"},{"inputs":[{"internalType":"uint256","name":"requestId","type":"uint256"},{"internalType":"enum TrustFolioHiringEscrow.Status","name":"current","type":"uint8"}],"name":"InvalidStatus","type":"error"},{"inputs":[],"name":"InvalidTalentAddress","type":"error"},{"inputs":[],"name":"NotAuthorized","type":"error"},{"inputs":[{"internalType":"address","name":"owner","type":"address"}],"name":"OwnableInvalidOwner","type":"error"},{"inputs":[{"internalType":"address","name":"account","type":"address"}],"name":"OwnableUnauthorizedAccount","type":"error"},{"inputs":[],"name":"PaymentRequired","type":"error"},{"inputs":[],"name":"ReentrancyGuardReentrantCall","type":"error"},{"inputs":[{"internalType":"uint256","name":"requestId","type":"uint256"}],"name":"RequestNotFound","type":"error"},{"inputs":[],"name":"TitleRequired","type":"error"},{"inputs":[],"name":"TransferFailed","type":"error"},{"anonymous":false,"inputs":[{"indexed":true,"internalType":"uint256","name":"requestId","type":"uint256"},{"indexed":false,"internalType":"address","name":"confirmedBy","type":"address"}],"name":"CompletionConfirmed","type":"event"},{"anonymous":false,"inputs":[{"indexed":true,"internalType":"uint256","name":"requestId","type":"uint256"},{"indexed":true,"internalType":"address","name":"raisedBy","type":"address"}],"name":"DisputeRaised","type":"event"},{"anonymous":false,"inputs":[{"indexed":true,"internalType":"uint256","name":"requestId","type":"uint256"},{"indexed":false,"internalType":"bool","name":"releasedToTalent","type":"bool"}],"name":"DisputeResolved","type":"event"},{"anonymous":false,"inputs":[{"indexed":true,"internalType":"address","name":"previousOwner","type":"address"},{"indexed":true,"internalType":"address","name":"newOwner","type":"address"}],"name":"OwnershipTransferred","type":"event"},{"anonymous":false,"inputs":[{"indexed":true,"internalType":"uint256","name":"requestId","type":"uint256"},{"indexed":true,"internalType":"address","name":"talent","type":"address"},{"indexed":false,"internalType":"uint256","name":"amount","type":"uint256"},{"indexed":false,"internalType":"uint256","name":"fee","type":"uint256"}],"name":"PaymentReleased","type":"event"},{"anonymous":false,"inputs":[{"indexed":true,"internalType":"uint256","name":"requestId","type":"uint256"},{"indexed":false,"internalType":"address","name":"talent","type":"address"}],"name":"RequestAccepted","type":"event"},{"anonymous":false,"inputs":[{"indexed":true,"internalType":"uint256","name":"requestId","type":"uint256"},{"indexed":true,"internalType":"address","name":"by","type":"address"}],"name":"RequestCancelled","type":"event"},{"anonymous":false,"inputs":[{"indexed":true,"internalType":"uint256","name":"requestId","type":"uint256"},{"indexed":true,"internalType":"address","name":"employer","type":"address"},{"indexed":true,"internalType":"address","name":"talent","type":"address"},{"indexed":false,"internalType":"uint256","name":"amount","type":"uint256"},{"indexed":false,"internalType":"string","name":"title","type":"string"}],"name":"RequestCreated","type":"event"},{"anonymous":false,"inputs":[{"indexed":true,"internalType":"uint256","name":"requestId","type":"uint256"},{"indexed":false,"internalType":"address","name":"talent","type":"address"}],"name":"RequestDeclined","type":"event"},{"anonymous":false,"inputs":[{"indexed":true,"internalType":"address","name":"newTreasury","type":"address"}],"name":"TreasuryUpdated","type":"event"},{"inputs":[],"name":"AUTO_RELEASE_DELAY","outputs":[{"internalType":"uint256","name":"","type":"uint256"}],"stateMutability":"view","type":"function"},{"inputs":[],"name":"BPS","outputs":[{"internalType":"uint256","name":"","type":"uint256"}],"stateMutability":"view","type":"function"},{"inputs":[],"name":"PLATFORM_FEE_BPS","outputs":[{"internalType":"uint256","name":"","type":"uint256"}],"stateMutability":"view","type":"function"},{"inputs":[{"internalType":"uint256","name":"requestId","type":"uint256"}],"name":"acceptRequest","outputs":[],"stateMutability":"nonpayable","type":"function"},{"inputs":[{"internalType":"uint256","name":"requestId","type":"uint256"}],"name":"autoRelease","outputs":[],"stateMutability":"nonpayable","type":"function"},{"inputs":[{"internalType":"uint256","name":"requestId","type":"uint256"}],"name":"autoReleaseReadyAt","outputs":[{"internalType":"uint256","name":"","type":"uint256"}],"stateMutability":"view","type":"function"},{"inputs":[{"internalType":"uint256","name":"requestId","type":"uint256"}],"name":"cancelRequest","outputs":[],"stateMutability":"nonpayable","type":"function"},{"inputs":[{"internalType":"uint256","name":"requestId","type":"uint256"}],"name":"confirmCompletion","outputs":[],"stateMutability":"nonpayable","type":"function"},{"inputs":[{"internalType":"address","name":"talent","type":"address"},{"internalType":"string","name":"title","type":"string"},{"internalType":"string","name":"description","type":"string"},{"internalType":"uint256","name":"deadline","type":"uint256"}],"name":"createRequest","outputs":[{"internalType":"uint256","name":"","type":"uint256"}],"stateMutability":"payable","type":"function"},{"inputs":[{"internalType":"uint256","name":"requestId","type":"uint256"}],"name":"declineRequest","outputs":[],"stateMutability":"nonpayable","type":"function"},{"inputs":[{"internalType":"address","name":"employer","type":"address"}],"name":"getEmployerRequests","outputs":[{"internalType":"uint256[]","name":"","type":"uint256[]"}],"stateMutability":"view","type":"function"},{"inputs":[{"internalType":"uint256","name":"requestId","type":"uint256"}],"name":"getRequest","outputs":[{"components":[{"internalType":"uint256","name":"requestId","type":"uint256"},{"internalType":"address","name":"employer","type":"address"},{"internalType":"address","name":"talent","type":"address"},{"internalType":"uint256","name":"amount","type":"uint256"},{"internalType":"string","name":"title","type":"string"},{"internalType":"string","name":"description","type":"string"},{"internalType":"uint256","name":"deadline","type":"uint256"},{"internalType":"uint256","name":"createdAt","type":"uint256"},{"internalType":"uint256","name":"acceptedAt","type":"uint256"},{"internalType":"uint256","name":"completedAt","type":"uint256"},{"internalType":"enum TrustFolioHiringEscrow.Status","name":"status","type":"uint8"},{"internalType":"bool","name":"talentConfirmed","type":"bool"},{"internalType":"bool","name":"employerReleased","type":"bool"}],"internalType":"struct TrustFolioHiringEscrow.HiringRequest","name":"","type":"tuple"}],"stateMutability":"view","type":"function"},{"inputs":[{"internalType":"address","name":"talent","type":"address"}],"name":"getTalentRequests","outputs":[{"internalType":"uint256[]","name":"","type":"uint256[]"}],"stateMutability":"view","type":"function"},{"inputs":[],"name":"owner","outputs":[{"internalType":"address","name":"","type":"address"}],"stateMutability":"view","type":"function"},{"inputs":[{"internalType":"uint256","name":"requestId","type":"uint256"}],"name":"raiseDispute","outputs":[],"stateMutability":"nonpayable","type":"function"},{"inputs":[{"internalType":"uint256","name":"requestId","type":"uint256"}],"name":"releasePayment","outputs":[],"stateMutability":"nonpayable","type":"function"},{"inputs":[],"name":"renounceOwnership","outputs":[],"stateMutability":"nonpayable","type":"function"},{"inputs":[{"internalType":"uint256","name":"","type":"uint256"}],"name":"requests","outputs":[{"internalType":"uint256","name":"requestId","type":"uint256"},{"internalType":"address","name":"employer","type":"address"},{"internalType":"address","name":"talent","type":"address"},{"internalType":"uint256","name":"amount","type":"uint256"},{"internalType":"string","name":"title","type":"string"},{"internalType":"string","name":"description","type":"string"},{"internalType":"uint256","name":"deadline","type":"uint256"},{"internalType":"uint256","name":"createdAt","type":"uint256"},{"internalType":"uint256","name":"acceptedAt","type":"uint256"},{"internalType":"uint256","name":"completedAt","type":"uint256"},{"internalType":"enum TrustFolioHiringEscrow.Status","name":"status","type":"uint8"},{"internalType":"bool","name":"talentConfirmed","type":"bool"},{"internalType":"bool","name":"employerReleased","type":"bool"}],"stateMutability":"view","type":"function"},{"inputs":[{"internalType":"uint256","name":"requestId","type":"uint256"},{"internalType":"bool","name":"releaseToTalent","type":"bool"}],"name":"resolveDispute","outputs":[],"stateMutability":"nonpayable","type":"function"},{"inputs":[{"internalType":"address","name":"newTreasury","type":"address"}],"name":"setTreasury","outputs":[],"stateMutability":"nonpayable","type":"function"},{"inputs":[],"name":"totalEscrowVolume","outputs":[{"internalType":"uint256","name":"","type":"uint256"}],"stateMutability":"view","type":"function"},{"inputs":[],"name":"totalFeesCollected","outputs":[{"internalType":"uint256","name":"","type":"uint256"}],"stateMutability":"view","type":"function"},{"inputs":[],"name":"totalRequestsCount","outputs":[{"internalType":"uint256","name":"","type":"uint256"}],"stateMutability":"view","type":"function"},{"inputs":[{"internalType":"address","name":"newOwner","type":"address"}],"name":"transferOwnership","outputs":[],"stateMutability":"nonpayable","type":"function"},{"inputs":[],"name":"treasury","outputs":[{"internalType":"address","name":"","type":"address"}],"stateMutability":"view","type":"function"}],"evm":{"bytecode":{"linkReferences":{},"object":"6080346100ea57601f61193c38819003918201601f19168301916001600160401b038311848410176100ee578084926020946040528339810103126100ea57516001600160a01b0390818116908190036100ea5733156100d2575f5460018060a01b03199033828216175f55604051933391167f8be0079c531659141344cd1fd0a4f28419497f9722a3daafe3b4186f6b6457e05f80a360017f9b779b17422d0df92223018b32b4d1fa46e071723d6817e2486d003becc55f005560018055600554161760055561183990816101038239f35b604051631e4fbdf760e01b81525f6004820152602490fd5b5f80fd5b634e487b7160e01b5f52604160045260245ffdfe6080806040526004361015610012575f80fd5b5f3560e01c90816309499aa61461136c575080632304e9dc1461134f578063249d39e9146113335780633015394c1461128c57806334b25ee214611180578063399b4ddc146110a6578063459b860e14610ff15780634ba1f09814610f2d578063539aa77f14610f1257806360c6d8ae14610ef557806361d027b314610ecd57806369831e0514610eb05780636ae5ebb714610e3a5780636d160cb7146108de578063715018a61461088757806381d12c581461079157806388685cd9146106da5780638da5cb5b146106b357806394aeb613146105e7578063a5c1674e146104ea578063c58343ef146102cf578063ee247ea214610249578063f0f44260146101e3578063f2fde38b146101595763f90c15be1461012f575f80fd5b3461015557602036600319011261015557602061014d600435611617565b604051908152f35b5f80fd5b3461015557602036600319011261015557610172611387565b61017a611709565b6001600160a01b039081169081156101cb575f54826bffffffffffffffffffffffff60a01b8216175f55167f8be0079c531659141344cd1fd0a4f28419497f9722a3daafe3b4186f6b6457e05f80a3005b604051631e4fbdf760e01b81525f6004820152602490fd5b34610155576020366003190112610155576101fc611387565b610204611709565b600580546001600160a01b0319166001600160a01b039290921691821790557f7dae230f18360d76a040c81f050aa14eb9d6dc7901b20fc5d855e2a20fe814d15f80a2005b3461015557602080600319360112610155576001600160a01b0361026b611387565b165f52600360205260405f20906040519081602084549182815201935f5260205f20915f905b8282106102b8576102b4856102a88189038261145b565b6040519182918261139d565b0390f35b835486529485019460019384019390910190610291565b34610155576020366003190112610155575f6101806040516102f08161143e565b82815282602082015282604082015282606082015260606080820152606060a08201528260c08201528260e0820152826101008201528261012082015282610140820152826101608201520152610348600435611680565b600a604051916103578361143e565b8054835260018101546001600160a01b0390811660208501526002820154166040840152600381015460608401526103916004820161147d565b60808401526103a26005820161147d565b60a0840152600681015460c0840152600781015460e0840152600881015461010084015260098101546101208401520154600760ff821610156104d6578060ff809216610140840152818160081c16151561016084015260101c1615156101808201526040518091602082528051602083015260018060a01b03602082015116604083015260018060a01b03604082015116606083015260608101516080830152608081015161018061047c6104666101a0938460a08801526101c087019061151f565b60a0850151868203601f190160c088015261151f565b9260c081015160e086015260e08101516101008601526101008101516101208601526101208101516101408601526104be61014082015161016087019061155d565b61016081015115158286015201511515908301520390f35b634e487b7160e01b5f52602160045260245ffd5b3461015557602036600319011261015557600435610506611651565b61050f81611680565b6001810154336001600160a01b03918216141590816105d6575b506105c457600a01805460ff811660078110156104d6576001811415806105b9575b610592575060ff1916600417905533907f84a477df8a28a4276ca6dee4458a06c3015f30c477d9c949ede4e13ff8a552b45f80a360015f805160206117e483398151915255005b6040516301f6ee9360e21b8152600481018590526044916105b790602483019061155d565bfd5b50600281141561054b565b60405163ea8e4eb560e01b8152600490fd5b905060028201541633141583610529565b3461015557602036600319011261015557600435610603611651565b61060c81611680565b60028101549091906001600160a01b031633036105c457600a8201805460ff81169360078510156104d6576001850361068f57906101029160094291015561ffff19161790557f4e49e2d3c8ae26600fd3fde8c51304185090f46a8a990173913e4067f72bfd3e6020604051338152a260015f805160206117e483398151915255005b6040516301f6ee9360e21b8152600481018590526044906105b7602482018861155d565b34610155575f366003190112610155575f546040516001600160a01b039091168152602090f35b34610155576020366003190112610155576004356106f6611651565b6106ff81611680565b60018101546001600160a01b031633036105c457600a81019182549260ff84169360078510156104d657600185141580610786575b6107625762ff000019166201000017905561074f9250611734565b60015f805160206117e483398151915255005b6040516301f6ee9360e21b8152600481018490526044906105b7602482018861155d565b506002851415610734565b34610155576020366003190112610155576004355f5260026020526040805f20805460ff60018060a01b039283600182015416936002820154169060038101546107dd6004830161147d565b946108426107ed6005850161147d565b610834600686015498600787015494600888015496600a60098a0154990154998e519e8f9e8f906101a09582526020820152015260608d01528060808d01528b019061151f565b9089820360a08b015261151f565b9560c088015260e0870152610100860152610120850152610869610140850183831661155d565b818160081c16151561016085015260101c1615156101808301520390f35b34610155575f3660031901126101555761089f611709565b5f80546001600160a01b0319811682556001600160a01b03167f8be0079c531659141344cd1fd0a4f28419497f9722a3daafe3b4186f6b6457e08280a3005b6080366003190112610155576108f2611387565b60243567ffffffffffffffff8111610155576109129036906004016113d8565b919060443567ffffffffffffffff8111610155576109349036906004016113d8565b93909261093f611651565b3415610e28576001600160a01b038116158015610e16575b610e0457426064351115610df2578115610de0576109c06001549461097b86611577565b6001556040519661098b8861143e565b8688523360208901526001600160a01b03841660408901523460608901526109b43686886115a1565b608089015236916115a1565b60a086015260643560c08601524260e08601525f6101008601525f6101208601525f6101408601525f6101608601525f610180860152835f52600260205260405f20855181556001810160018060a01b03602088015116906bffffffffffffffffffffffff60a01b9182825416179055600282019060018060a01b036040890151169082541617905560608601516003820155608086015180519067ffffffffffffffff8211610d03578190610a796004850154611406565b601f8111610d90575b50602090601f8311600114610d22575f92610d17575b50508160011b915f199060031b1c19161760048201555b60a086015180519067ffffffffffffffff8211610d0357610ad36005840154611406565b601f8111610cbf575b50602090601f8311600114610c5057600a9392915f9183610c45575b50508160011b915f199060031b1c19161760058201555b60c0870151600682015560e087015160078201556101008701516008820155610120870151600982015501946101408101519160078310156104d6578686937ffab7026c201703a6ce65999fa587d7f23b07a13c3f7f6c86456e6195e37f3c16936020995460ff62ff000061018061ff00610160860151151560081b16940151151560101b1693169062ffffff19161717179055335f5260038752610bb78360405f206115d7565b60018060a01b0381165f5260048752610bd38360405f206115d7565b610bdf3460065461156a565b600655610bed600854611577565b600855836040519534875260408988015281604088015260608701375f6060858701015260018060a01b0316936060813395601f80199101168101030190a460015f805160206117e483398151915255604051908152f35b015190508980610af8565b90600584015f5260205f20915f5b601f1985168110610ca75750918391600193600a9695601f19811610610c8f575b505050811b016005820155610b0f565b01515f1960f88460031b161c19169055898080610c7f565b91926020600181928685015181550194019201610c5e565b600584015f5260205f20601f840160051c810160208510610cfc575b601f830160051c82018110610cf1575050610adc565b5f8155600101610cdb565b5080610cdb565b634e487b7160e01b5f52604160045260245ffd5b015190508880610a98565b9250600484015f5260205f20905f935b601f1984168510610d75576001945083601f19811610610d5d575b505050811b016004820155610aaf565b01515f1960f88460031b161c19169055888080610d4d565b81810151835560209485019460019093019290910190610d32565b909150600484015f5260205f20601f840160051c810160208510610dd9575b90849392915b601f830160051c82018110610dcb575050610a82565b5f8155859450600101610db5565b5080610daf565b6040516319d546f160e31b8152600490fd5b60405163b2592c3560e01b8152600490fd5b604051632342221960e21b8152600490fd5b506001600160a01b0381163314610957565b604051638b87dfbb60e01b8152600490fd5b3461015557602080600319360112610155576001600160a01b03610e5c611387565b165f52600460205260405f20906040519081602084549182815201935f5260205f20915f905b828210610e99576102b4856102a88189038261145b565b835486529485019460019384019390910190610e82565b34610155575f366003190112610155576020600854604051908152f35b34610155575f366003190112610155576005546040516001600160a01b039091168152602090f35b34610155575f366003190112610155576020600754604051908152f35b34610155575f36600319011261015557602060405160fa8152f35b3461015557602036600319011261015557600435610f49611651565b610f5281611680565b60028101546001600160a01b031633036105c457600a8101805460ff811660078110156104d65780610fcc575060019060ff19161790556008429101557fa74a28866064b16e695ebbf53f8b0f9aa0bb93885dbbcc373004f1a052cc42486020604051338152a260015f805160206117e483398151915255005b6040516301f6ee9360e21b8152600481018690526044916105b790602483019061155d565b346101555760203660031901126101555760043561100d611651565b61101681611680565b60ff600a8201541660078110156104d65760028103611081575060098101549162093a80830180931161106d578242106110545761074f9250611734565b604051630767376d60e31b815260048101849052602490fd5b634e487b7160e01b5f52601160045260245ffd5b6040516301f6ee9360e21b8152600481018490526044916105b790602483019061155d565b34610155576020366003190112610155576004356110c2611651565b6110cb81611680565b60028101546001600160a01b03929190831633036105c457600a81019283549360ff85169460078610156104d6578561115c5760ff1916600617905560018201546003929092015461111f929091166116b0565b7f06d69eed268bf3a13da04b1db3415c4f35fb04442a029b91d325c90d3ed6adcc6020604051338152a260015f805160206117e483398151915255005b6040516301f6ee9360e21b8152600481018690526044906105b7602482018961155d565b346101555760403660031901126101555760043560243580151590818103610155576111aa611709565b6111b2611651565b6111bb83611680565b91600a83019182549160ff831660078110156104d6576004810361126757507f5a87909bff68caaaaf0b3fd9c74eeccc928832f879315e5c6fb7a73612f26c0c60208792604051908152a21561121657505061074f91611734565b60ff19166005179055600181015460039091015461123c916001600160a01b03166116b0565b30907fe0d7665e06e7db1fc500d66d4e3898d1d4a5533d7efe54b352fcdaa177c227835f80a361074f565b6040516301f6ee9360e21b8152600481018890526044916105b790602483019061155d565b34610155576020366003190112610155576004356112a8611651565b6112b181611680565b60018101549091906001600160a01b03163381036105c457600a83019283549360ff85169460078610156104d6578561115c5760ff19166005179055600301546112fa916116b0565b33907fe0d7665e06e7db1fc500d66d4e3898d1d4a5533d7efe54b352fcdaa177c227835f80a360015f805160206117e483398151915255005b34610155575f3660031901126101555760206040516127108152f35b34610155575f366003190112610155576020600654604051908152f35b34610155575f366003190112610155578062093a8060209252f35b600435906001600160a01b038216820361015557565b60209060206040818301928281528551809452019301915f5b8281106113c4575050505090565b8351855293810193928101926001016113b6565b9181601f840112156101555782359167ffffffffffffffff8311610155576020838186019501011161015557565b90600182811c92168015611434575b602083101461142057565b634e487b7160e01b5f52602260045260245ffd5b91607f1691611415565b6101a0810190811067ffffffffffffffff821117610d0357604052565b90601f8019910116810190811067ffffffffffffffff821117610d0357604052565b9060405191825f825461148f81611406565b908184526020946001916001811690815f146114fd57506001146114bf575b5050506114bd9250038361145b565b565b5f90815285812095935091905b8183106114e55750506114bd93508201015f80806114ae565b855488840185015294850194879450918301916114cc565b925050506114bd94925060ff191682840152151560051b8201015f80806114ae565b91908251928382525f5b848110611549575050825f602080949584010152601f8019910116010190565b602081830181015184830182015201611529565b9060078210156104d65752565b9190820180921161106d57565b5f19811461106d5760010190565b67ffffffffffffffff8111610d0357601f01601f191660200190565b9291926115ad82611585565b916115bb604051938461145b565b829481845281830111610155578281602093845f960137010152565b80549068010000000000000000821015610d035760018201808255821015611603575f5260205f200155565b634e487b7160e01b5f52603260045260245ffd5b61162090611680565b60ff600a8201541660078110156104d65760020361164c576009015462093a80810180911161106d5790565b505f90565b5f805160206117e4833981519152600281541461166e5760029055565b604051633ee5aeb560e01b8152600490fd5b805f52600260205260405f2090815415611698575090565b60249060405190634ec726c760e01b82526004820152fd5b5f918291829182916001600160a01b03165af13d15611704573d6116d381611585565b906116e1604051928361145b565b81525f60203d92013e5b156116f257565b6040516312171d8360e31b8152600490fd5b6116eb565b5f546001600160a01b0316330361171c57565b60405163118cdaa760e01b8152336004820152602490fd5b600a8201600360ff19825416179055600382015460fa810281810460fa148215171561106d5761271090049283820391821161106d577f8cdc8dc08e54a4e57f52077ecf1b4c508758513439cae2aa325dcc85b922fca891600260409261179d8760075461156a565b6007550180546001600160a01b0391906117ba90849084166116b0565b866117d0575b54169482519182526020820152a3565b6117de8783600554166116b0565b6117c056fe9b779b17422d0df92223018b32b4d1fa46e071723d6817e2486d003becc55f00a264697066735822122017d0aac42a8421a8da4f8da6c1db1df010209b9cb5a0e0f591fb358c8b73573f64736f6c63430008180033","opcodes":"PUSH1 0x80 CALLVALUE PUSH2 0xEA JUMPI PUSH1 0x1F PUSH2 0x193C CODESIZE DUP2 SWAP1 SUB SWAP2 DUP3 ADD PUSH1 0x1F NOT AND DUP4 ADD SWAP2 PUSH1 0x1 PUSH1 0x1 PUSH1 0x40 SHL SUB DUP4 GT DUP5 DUP5 LT OR PUSH2 0xEE JUMPI DUP1 DUP5 SWAP3 PUSH1 0x20 SWAP5 PUSH1 0x40 MSTORE DUP4 CODECOPY DUP2 ADD SUB SLT PUSH2 0xEA JUMPI MLOAD PUSH1 0x1 PUSH1 0x1 PUSH1 0xA0 SHL SUB SWAP1 DUP2 DUP2 AND SWAP1 DUP2 SWAP1 SUB PUSH2 0xEA JUMPI CALLER ISZERO PUSH2 0xD2 JUMPI PUSH0 SLOAD PUSH1 0x1 DUP1 PUSH1 0xA0 SHL SUB NOT SWAP1 CALLER DUP3 DUP3 AND OR PUSH0 SSTORE PUSH1 0x40 MLOAD SWAP4 CALLER SWAP2 AND PUSH32 0x8BE0079C531659141344CD1FD0A4F28419497F9722A3DAAFE3B4186F6B6457E0 PUSH0 DUP1 LOG3 PUSH1 0x1 PUSH32 0x9B779B17422D0DF92223018B32B4D1FA46E071723D6817E2486D003BECC55F00 SSTORE PUSH1 0x1 DUP1 SSTORE PUSH1 0x5 SLOAD AND OR PUSH1 0x5 SSTORE PUSH2 0x1839 SWAP1 DUP2 PUSH2 0x103 DUP3 CODECOPY RETURN JUMPDEST PUSH1 0x40 MLOAD PUSH4 0x1E4FBDF7 PUSH1 0xE0 SHL DUP2 MSTORE PUSH0 PUSH1 0x4 DUP3 ADD MSTORE PUSH1 0x24 SWAP1 REVERT JUMPDEST PUSH0 DUP1 REVERT JUMPDEST PUSH4 0x4E487B71 PUSH1 0xE0 SHL PUSH0 MSTORE PUSH1 0x41 PUSH1 0x4 MSTORE PUSH1 0x24 PUSH0 REVERT INVALID PUSH1 0x80 DUP1 PUSH1 0x40 MSTORE PUSH1 0x4 CALLDATASIZE LT ISZERO PUSH2 0x12 JUMPI PUSH0 DUP1 REVERT JUMPDEST PUSH0 CALLDATALOAD PUSH1 0xE0 SHR SWAP1 DUP2 PUSH4 0x9499AA6 EQ PUSH2 0x136C JUMPI POP DUP1 PUSH4 0x2304E9DC EQ PUSH2 0x134F JUMPI DUP1 PUSH4 0x249D39E9 EQ PUSH2 0x1333 JUMPI DUP1 PUSH4 0x3015394C EQ PUSH2 0x128C JUMPI DUP1 PUSH4 0x34B25EE2 EQ PUSH2 0x1180 JUMPI DUP1 PUSH4 0x399B4DDC EQ PUSH2 0x10A6 JUMPI DUP1 PUSH4 0x459B860E EQ PUSH2 0xFF1 JUMPI DUP1 PUSH4 0x4BA1F098 EQ PUSH2 0xF2D JUMPI DUP1 PUSH4 0x539AA77F EQ PUSH2 0xF12 JUMPI DUP1 PUSH4 0x60C6D8AE EQ PUSH2 0xEF5 JUMPI DUP1 PUSH4 0x61D027B3 EQ PUSH2 0xECD JUMPI DUP1 PUSH4 0x69831E05 EQ PUSH2 0xEB0 JUMPI DUP1 PUSH4 0x6AE5EBB7 EQ PUSH2 0xE3A JUMPI DUP1 PUSH4 0x6D160CB7 EQ PUSH2 0x8DE JUMPI DUP1 PUSH4 0x715018A6 EQ PUSH2 0x887 JUMPI DUP1 PUSH4 0x81D12C58 EQ PUSH2 0x791 JUMPI DUP1 PUSH4 0x88685CD9 EQ PUSH2 0x6DA JUMPI DUP1 PUSH4 0x8DA5CB5B EQ PUSH2 0x6B3 JUMPI DUP1 PUSH4 0x94AEB613 EQ PUSH2 0x5E7 JUMPI DUP1 PUSH4 0xA5C1674E EQ PUSH2 0x4EA JUMPI DUP1 PUSH4 0xC58343EF EQ PUSH2 0x2CF JUMPI DUP1 PUSH4 0xEE247EA2 EQ PUSH2 0x249 JUMPI DUP1 PUSH4 0xF0F44260 EQ PUSH2 0x1E3 JUMPI DUP1 PUSH4 0xF2FDE38B EQ PUSH2 0x159 JUMPI PUSH4 0xF90C15BE EQ PUSH2 0x12F JUMPI PUSH0 DUP1 REVERT JUMPDEST CALLVALUE PUSH2 0x155 JUMPI PUSH1 0x20 CALLDATASIZE PUSH1 0x3 NOT ADD SLT PUSH2 0x155 JUMPI PUSH1 0x20 PUSH2 0x14D PUSH1 0x4 CALLDATALOAD PUSH2 0x1617 JUMP JUMPDEST PUSH1 0x40 MLOAD SWAP1 DUP2 MSTORE RETURN JUMPDEST PUSH0 DUP1 REVERT JUMPDEST CALLVALUE PUSH2 0x155 JUMPI PUSH1 0x20 CALLDATASIZE PUSH1 0x3 NOT ADD SLT PUSH2 0x155 JUMPI PUSH2 0x172 PUSH2 0x1387 JUMP JUMPDEST PUSH2 0x17A PUSH2 0x1709 JUMP JUMPDEST PUSH1 0x1 PUSH1 0x1 PUSH1 0xA0 SHL SUB SWAP1 DUP2 AND SWAP1 DUP2 ISZERO PUSH2 0x1CB JUMPI PUSH0 SLOAD DUP3 PUSH12 0xFFFFFFFFFFFFFFFFFFFFFFFF PUSH1 0xA0 SHL DUP3 AND OR PUSH0 SSTORE AND PUSH32 0x8BE0079C531659141344CD1FD0A4F28419497F9722A3DAAFE3B4186F6B6457E0 PUSH0 DUP1 LOG3 STOP JUMPDEST PUSH1 0x40 MLOAD PUSH4 0x1E4FBDF7 PUSH1 0xE0 SHL DUP2 MSTORE PUSH0 PUSH1 0x4 DUP3 ADD MSTORE PUSH1 0x24 SWAP1 REVERT JUMPDEST CALLVALUE PUSH2 0x155 JUMPI PUSH1 0x20 CALLDATASIZE PUSH1 0x3 NOT ADD SLT PUSH2 0x155 JUMPI PUSH2 0x1FC PUSH2 0x1387 JUMP JUMPDEST PUSH2 0x204 PUSH2 0x1709 JUMP JUMPDEST PUSH1 0x5 DUP1 SLOAD PUSH1 0x1 PUSH1 0x1 PUSH1 0xA0 SHL SUB NOT AND PUSH1 0x1 PUSH1 0x1 PUSH1 0xA0 SHL SUB SWAP3 SWAP1 SWAP3 AND SWAP2 DUP3 OR SWAP1 SSTORE PUSH32 0x7DAE230F18360D76A040C81F050AA14EB9D6DC7901B20FC5D855E2A20FE814D1 PUSH0 DUP1 LOG2 STOP JUMPDEST CALLVALUE PUSH2 0x155 JUMPI PUSH1 0x20 DUP1 PUSH1 0x3 NOT CALLDATASIZE ADD SLT PUSH2 0x155 JUMPI PUSH1 0x1 PUSH1 0x1 PUSH1 0xA0 SHL SUB PUSH2 0x26B PUSH2 0x1387 JUMP JUMPDEST AND PUSH0 MSTORE PUSH1 0x3 PUSH1 0x20 MSTORE PUSH1 0x40 PUSH0 KECCAK256 SWAP1 PUSH1 0x40 MLOAD SWAP1 DUP2 PUSH1 0x20 DUP5 SLOAD SWAP2 DUP3 DUP2 MSTORE ADD SWAP4 PUSH0 MSTORE PUSH1 0x20 PUSH0 KECCAK256 SWAP2 PUSH0 SWAP1 JUMPDEST DUP3 DUP3 LT PUSH2 0x2B8 JUMPI PUSH2 0x2B4 DUP6 PUSH2 0x2A8 DUP2 DUP10 SUB DUP3 PUSH2 0x145B JUMP JUMPDEST PUSH1 0x40 MLOAD SWAP2 DUP3 SWAP2 DUP3 PUSH2 0x139D JUMP JUMPDEST SUB SWAP1 RETURN JUMPDEST DUP4 SLOAD DUP7 MSTORE SWAP5 DUP6 ADD SWAP5 PUSH1 0x1 SWAP4 DUP5 ADD SWAP4 SWAP1 SWAP2 ADD SWAP1 PUSH2 0x291 JUMP JUMPDEST CALLVALUE PUSH2 0x155 JUMPI PUSH1 0x20 CALLDATASIZE PUSH1 0x3 NOT ADD SLT PUSH2 0x155 JUMPI PUSH0 PUSH2 0x180 PUSH1 0x40 MLOAD PUSH2 0x2F0 DUP2 PUSH2 0x143E JUMP JUMPDEST DUP3 DUP2 MSTORE DUP3 PUSH1 0x20 DUP3 ADD MSTORE DUP3 PUSH1 0x40 DUP3 ADD MSTORE DUP3 PUSH1 0x60 DUP3 ADD MSTORE PUSH1 0x60 PUSH1 0x80 DUP3 ADD MSTORE PUSH1 0x60 PUSH1 0xA0 DUP3 ADD MSTORE DUP3 PUSH1 0xC0 DUP3 ADD MSTORE DUP3 PUSH1 0xE0 DUP3 ADD MSTORE DUP3 PUSH2 0x100 DUP3 ADD MSTORE DUP3 PUSH2 0x120 DUP3 ADD MSTORE DUP3 PUSH2 0x140 DUP3 ADD MSTORE DUP3 PUSH2 0x160 DUP3 ADD MSTORE ADD MSTORE PUSH2 0x348 PUSH1 0x4 CALLDATALOAD PUSH2 0x1680 JUMP JUMPDEST PUSH1 0xA PUSH1 0x40 MLOAD SWAP2 PUSH2 0x357 DUP4 PUSH2 0x143E JUMP JUMPDEST DUP1 SLOAD DUP4 MSTORE PUSH1 0x1 DUP2 ADD SLOAD PUSH1 0x1 PUSH1 0x1 PUSH1 0xA0 SHL SUB SWAP1 DUP2 AND PUSH1 0x20 DUP6 ADD MSTORE PUSH1 0x2 DUP3 ADD SLOAD AND PUSH1 0x40 DUP5 ADD MSTORE PUSH1 0x3 DUP2 ADD SLOAD PUSH1 0x60 DUP5 ADD MSTORE PUSH2 0x391 PUSH1 0x4 DUP3 ADD PUSH2 0x147D JUMP JUMPDEST PUSH1 0x80 DUP5 ADD MSTORE PUSH2 0x3A2 PUSH1 0x5 DUP3 ADD PUSH2 0x147D JUMP JUMPDEST PUSH1 0xA0 DUP5 ADD MSTORE PUSH1 0x6 DUP2 ADD SLOAD PUSH1 0xC0 DUP5 ADD MSTORE PUSH1 0x7 DUP2 ADD SLOAD PUSH1 0xE0 DUP5 ADD MSTORE PUSH1 0x8 DUP2 ADD SLOAD PUSH2 0x100 DUP5 ADD MSTORE PUSH1 0x9 DUP2 ADD SLOAD PUSH2 0x120 DUP5 ADD MSTORE ADD SLOAD PUSH1 0x7 PUSH1 0xFF DUP3 AND LT ISZERO PUSH2 0x4D6 JUMPI DUP1 PUSH1 0xFF DUP1 SWAP3 AND PUSH2 0x140 DUP5 ADD MSTORE DUP2 DUP2 PUSH1 0x8 SHR AND ISZERO ISZERO PUSH2 0x160 DUP5 ADD MSTORE PUSH1 0x10 SHR AND ISZERO ISZERO PUSH2 0x180 DUP3 ADD MSTORE PUSH1 0x40 MLOAD DUP1 SWAP2 PUSH1 0x20 DUP3 MSTORE DUP1 MLOAD PUSH1 0x20 DUP4 ADD MSTORE PUSH1 0x1 DUP1 PUSH1 0xA0 SHL SUB PUSH1 0x20 DUP3 ADD MLOAD AND PUSH1 0x40 DUP4 ADD MSTORE PUSH1 0x1 DUP1 PUSH1 0xA0 SHL SUB PUSH1 0x40 DUP3 ADD MLOAD AND PUSH1 0x60 DUP4 ADD MSTORE PUSH1 0x60 DUP2 ADD MLOAD PUSH1 0x80 DUP4 ADD MSTORE PUSH1 0x80 DUP2 ADD MLOAD PUSH2 0x180 PUSH2 0x47C PUSH2 0x466 PUSH2 0x1A0 SWAP4 DUP5 PUSH1 0xA0 DUP9 ADD MSTORE PUSH2 0x1C0 DUP8 ADD SWAP1 PUSH2 0x151F JUMP JUMPDEST PUSH1 0xA0 DUP6 ADD MLOAD DUP7 DUP3 SUB PUSH1 0x1F NOT ADD PUSH1 0xC0 DUP9 ADD MSTORE PUSH2 0x151F JUMP JUMPDEST SWAP3 PUSH1 0xC0 DUP2 ADD MLOAD PUSH1 0xE0 DUP7 ADD MSTORE PUSH1 0xE0 DUP2 ADD MLOAD PUSH2 0x100 DUP7 ADD MSTORE PUSH2 0x100 DUP2 ADD MLOAD PUSH2 0x120 DUP7 ADD MSTORE PUSH2 0x120 DUP2 ADD MLOAD PUSH2 0x140 DUP7 ADD MSTORE PUSH2 0x4BE PUSH2 0x140 DUP3 ADD MLOAD PUSH2 0x160 DUP8 ADD SWAP1 PUSH2 0x155D JUMP JUMPDEST PUSH2 0x160 DUP2 ADD MLOAD ISZERO ISZERO DUP3 DUP7 ADD MSTORE ADD MLOAD ISZERO ISZERO SWAP1 DUP4 ADD MSTORE SUB SWAP1 RETURN JUMPDEST PUSH4 0x4E487B71 PUSH1 0xE0 SHL PUSH0 MSTORE PUSH1 0x21 PUSH1 0x4 MSTORE PUSH1 0x24 PUSH0 REVERT JUMPDEST CALLVALUE PUSH2 0x155 JUMPI PUSH1 0x20 CALLDATASIZE PUSH1 0x3 NOT ADD SLT PUSH2 0x155 JUMPI PUSH1 0x4 CALLDATALOAD PUSH2 0x506 PUSH2 0x1651 JUMP JUMPDEST PUSH2 0x50F DUP2 PUSH2 0x1680 JUMP JUMPDEST PUSH1 0x1 DUP2 ADD SLOAD CALLER PUSH1 0x1 PUSH1 0x1 PUSH1 0xA0 SHL SUB SWAP2 DUP3 AND EQ ISZERO SWAP1 DUP2 PUSH2 0x5D6 JUMPI JUMPDEST POP PUSH2 0x5C4 JUMPI PUSH1 0xA ADD DUP1 SLOAD PUSH1 0xFF DUP2 AND PUSH1 0x7 DUP2 LT ISZERO PUSH2 0x4D6 JUMPI PUSH1 0x1 DUP2 EQ ISZERO DUP1 PUSH2 0x5B9 JUMPI JUMPDEST PUSH2 0x592 JUMPI POP PUSH1 0xFF NOT AND PUSH1 0x4 OR SWAP1 SSTORE CALLER SWAP1 PUSH32 0x84A477DF8A28A4276CA6DEE4458A06C3015F30C477D9C949EDE4E13FF8A552B4 PUSH0 DUP1 LOG3 PUSH1 0x1 PUSH0 DUP1 MLOAD PUSH1 0x20 PUSH2 0x17E4 DUP4 CODECOPY DUP2 MLOAD SWAP2 MSTORE SSTORE STOP JUMPDEST PUSH1 0x40 MLOAD PUSH4 0x1F6EE93 PUSH1 0xE2 SHL DUP2 MSTORE PUSH1 0x4 DUP2 ADD DUP6 SWAP1 MSTORE PUSH1 0x44 SWAP2 PUSH2 0x5B7 SWAP1 PUSH1 0x24 DUP4 ADD SWAP1 PUSH2 0x155D JUMP JUMPDEST REVERT JUMPDEST POP PUSH1 0x2 DUP2 EQ ISZERO PUSH2 0x54B JUMP JUMPDEST PUSH1 0x40 MLOAD PUSH4 0xEA8E4EB5 PUSH1 0xE0 SHL DUP2 MSTORE PUSH1 0x4 SWAP1 REVERT JUMPDEST SWAP1 POP PUSH1 0x2 DUP3 ADD SLOAD AND CALLER EQ ISZERO DUP4 PUSH2 0x529 JUMP JUMPDEST CALLVALUE PUSH2 0x155 JUMPI PUSH1 0x20 CALLDATASIZE PUSH1 0x3 NOT ADD SLT PUSH2 0x155 JUMPI PUSH1 0x4 CALLDATALOAD PUSH2 0x603 PUSH2 0x1651 JUMP JUMPDEST PUSH2 0x60C DUP2 PUSH2 0x1680 JUMP JUMPDEST PUSH1 0x2 DUP2 ADD SLOAD SWAP1 SWAP2 SWAP1 PUSH1 0x1 PUSH1 0x1 PUSH1 0xA0 SHL SUB AND CALLER SUB PUSH2 0x5C4 JUMPI PUSH1 0xA DUP3 ADD DUP1 SLOAD PUSH1 0xFF DUP2 AND SWAP4 PUSH1 0x7 DUP6 LT ISZERO PUSH2 0x4D6 JUMPI PUSH1 0x1 DUP6 SUB PUSH2 0x68F JUMPI SWAP1 PUSH2 0x102 SWAP2 PUSH1 0x9 TIMESTAMP SWAP2 ADD SSTORE PUSH2 0xFFFF NOT AND OR SWAP1 SSTORE PUSH32 0x4E49E2D3C8AE26600FD3FDE8C51304185090F46A8A990173913E4067F72BFD3E PUSH1 0x20 PUSH1 0x40 MLOAD CALLER DUP2 MSTORE LOG2 PUSH1 0x1 PUSH0 DUP1 MLOAD PUSH1 0x20 PUSH2 0x17E4 DUP4 CODECOPY DUP2 MLOAD SWAP2 MSTORE SSTORE STOP JUMPDEST PUSH1 0x40 MLOAD PUSH4 0x1F6EE93 PUSH1 0xE2 SHL DUP2 MSTORE PUSH1 0x4 DUP2 ADD DUP6 SWAP1 MSTORE PUSH1 0x44 SWAP1 PUSH2 0x5B7 PUSH1 0x24 DUP3 ADD DUP9 PUSH2 0x155D JUMP JUMPDEST CALLVALUE PUSH2 0x155 JUMPI PUSH0 CALLDATASIZE PUSH1 0x3 NOT ADD SLT PUSH2 0x155 JUMPI PUSH0 SLOAD PUSH1 0x40 MLOAD PUSH1 0x1 PUSH1 0x1 PUSH1 0xA0 SHL SUB SWAP1 SWAP2 AND DUP2 MSTORE PUSH1 0x20 SWAP1 RETURN JUMPDEST CALLVALUE PUSH2 0x155 JUMPI PUSH1 0x20 CALLDATASIZE PUSH1 0x3 NOT ADD SLT PUSH2 0x155 JUMPI PUSH1 0x4 CALLDATALOAD PUSH2 0x6F6 PUSH2 0x1651 JUMP JUMPDEST PUSH2 0x6FF DUP2 PUSH2 0x1680 JUMP JUMPDEST PUSH1 0x1 DUP2 ADD SLOAD PUSH1 0x1 PUSH1 0x1 PUSH1 0xA0 SHL SUB AND CALLER SUB PUSH2 0x5C4 JUMPI PUSH1 0xA DUP2 ADD SWAP2 DUP3 SLOAD SWAP3 PUSH1 0xFF DUP5 AND SWAP4 PUSH1 0x7 DUP6 LT ISZERO PUSH2 0x4D6 JUMPI PUSH1 0x1 DUP6 EQ ISZERO DUP1 PUSH2 0x786 JUMPI JUMPDEST PUSH2 0x762 JUMPI PUSH3 0xFF0000 NOT AND PUSH3 0x10000 OR SWAP1 SSTORE PUSH2 0x74F SWAP3 POP PUSH2 0x1734 JUMP JUMPDEST PUSH1 0x1 PUSH0 DUP1 MLOAD PUSH1 0x20 PUSH2 0x17E4 DUP4 CODECOPY DUP2 MLOAD SWAP2 MSTORE SSTORE STOP JUMPDEST PUSH1 0x40 MLOAD PUSH4 0x1F6EE93 PUSH1 0xE2 SHL DUP2 MSTORE PUSH1 0x4 DUP2 ADD DUP5 SWAP1 MSTORE PUSH1 0x44 SWAP1 PUSH2 0x5B7 PUSH1 0x24 DUP3 ADD DUP9 PUSH2 0x155D JUMP JUMPDEST POP PUSH1 0x2 DUP6 EQ ISZERO PUSH2 0x734 JUMP JUMPDEST CALLVALUE PUSH2 0x155 JUMPI PUSH1 0x20 CALLDATASIZE PUSH1 0x3 NOT ADD SLT PUSH2 0x155 JUMPI PUSH1 0x4 CALLDATALOAD PUSH0 MSTORE PUSH1 0x2 PUSH1 0x20 MSTORE PUSH1 0x40 DUP1 PUSH0 KECCAK256 DUP1 SLOAD PUSH1 0xFF PUSH1 0x1 DUP1 PUSH1 0xA0 SHL SUB SWAP3 DUP4 PUSH1 0x1 DUP3 ADD SLOAD AND SWAP4 PUSH1 0x2 DUP3 ADD SLOAD AND SWAP1 PUSH1 0x3 DUP2 ADD SLOAD PUSH2 0x7DD PUSH1 0x4 DUP4 ADD PUSH2 0x147D JUMP JUMPDEST SWAP5 PUSH2 0x842 PUSH2 0x7ED PUSH1 0x5 DUP6 ADD PUSH2 0x147D JUMP JUMPDEST PUSH2 0x834 PUSH1 0x6 DUP7 ADD SLOAD SWAP9 PUSH1 0x7 DUP8 ADD SLOAD SWAP5 PUSH1 0x8 DUP9 ADD SLOAD SWAP7 PUSH1 0xA PUSH1 0x9 DUP11 ADD SLOAD SWAP10 ADD SLOAD SWAP10 DUP15 MLOAD SWAP15 DUP16 SWAP15 DUP16 SWAP1 PUSH2 0x1A0 SWAP6 DUP3 MSTORE PUSH1 0x20 DUP3 ADD MSTORE ADD MSTORE PUSH1 0x60 DUP14 ADD MSTORE DUP1 PUSH1 0x80 DUP14 ADD MSTORE DUP12 ADD SWAP1 PUSH2 0x151F JUMP JUMPDEST SWAP1 DUP10 DUP3 SUB PUSH1 0xA0 DUP12 ADD MSTORE PUSH2 0x151F JUMP JUMPDEST SWAP6 PUSH1 0xC0 DUP9 ADD MSTORE PUSH1 0xE0 DUP8 ADD MSTORE PUSH2 0x100 DUP7 ADD MSTORE PUSH2 0x120 DUP6 ADD MSTORE PUSH2 0x869 PUSH2 0x140 DUP6 ADD DUP4 DUP4 AND PUSH2 0x155D JUMP JUMPDEST DUP2 DUP2 PUSH1 0x8 SHR AND ISZERO ISZERO PUSH2 0x160 DUP6 ADD MSTORE PUSH1 0x10 SHR AND ISZERO ISZERO PUSH2 0x180 DUP4 ADD MSTORE SUB SWAP1 RETURN JUMPDEST CALLVALUE PUSH2 0x155 JUMPI PUSH0 CALLDATASIZE PUSH1 0x3 NOT ADD SLT PUSH2 0x155 JUMPI PUSH2 0x89F PUSH2 0x1709 JUMP JUMPDEST PUSH0 DUP1 SLOAD PUSH1 0x1 PUSH1 0x1 PUSH1 0xA0 SHL SUB NOT DUP2 AND DUP3 SSTORE PUSH1 0x1 PUSH1 0x1 PUSH1 0xA0 SHL SUB AND PUSH32 0x8BE0079C531659141344CD1FD0A4F28419497F9722A3DAAFE3B4186F6B6457E0 DUP3 DUP1 LOG3 STOP JUMPDEST PUSH1 0x80 CALLDATASIZE PUSH1 0x3 NOT ADD SLT PUSH2 0x155 JUMPI PUSH2 0x8F2 PUSH2 0x1387 JUMP JUMPDEST PUSH1 0x24 CALLDATALOAD PUSH8 0xFFFFFFFFFFFFFFFF DUP2 GT PUSH2 0x155 JUMPI PUSH2 0x912 SWAP1 CALLDATASIZE SWAP1 PUSH1 0x4 ADD PUSH2 0x13D8 JUMP JUMPDEST SWAP2 SWAP1 PUSH1 0x44 CALLDATALOAD PUSH8 0xFFFFFFFFFFFFFFFF DUP2 GT PUSH2 0x155 JUMPI PUSH2 0x934 SWAP1 CALLDATASIZE SWAP1 PUSH1 0x4 ADD PUSH2 0x13D8 JUMP JUMPDEST SWAP4 SWAP1 SWAP3 PUSH2 0x93F PUSH2 0x1651 JUMP JUMPDEST CALLVALUE ISZERO PUSH2 0xE28 JUMPI PUSH1 0x1 PUSH1 0x1 PUSH1 0xA0 SHL SUB DUP2 AND ISZERO DUP1 ISZERO PUSH2 0xE16 JUMPI JUMPDEST PUSH2 0xE04 JUMPI TIMESTAMP PUSH1 0x64 CALLDATALOAD GT ISZERO PUSH2 0xDF2 JUMPI DUP2 ISZERO PUSH2 0xDE0 JUMPI PUSH2 0x9C0 PUSH1 0x1 SLOAD SWAP5 PUSH2 0x97B DUP7 PUSH2 0x1577 JUMP JUMPDEST PUSH1 0x1 SSTORE PUSH1 0x40 MLOAD SWAP7 PUSH2 0x98B DUP9 PUSH2 0x143E JUMP JUMPDEST DUP7 DUP9 MSTORE CALLER PUSH1 0x20 DUP10 ADD MSTORE PUSH1 0x1 PUSH1 0x1 PUSH1 0xA0 SHL SUB DUP5 AND PUSH1 0x40 DUP10 ADD MSTORE CALLVALUE PUSH1 0x60 DUP10 ADD MSTORE PUSH2 0x9B4 CALLDATASIZE DUP7 DUP9 PUSH2 0x15A1 JUMP JUMPDEST PUSH1 0x80 DUP10 ADD MSTORE CALLDATASIZE SWAP2 PUSH2 0x15A1 JUMP JUMPDEST PUSH1 0xA0 DUP7 ADD MSTORE PUSH1 0x64 CALLDATALOAD PUSH1 0xC0 DUP7 ADD MSTORE TIMESTAMP PUSH1 0xE0 DUP7 ADD MSTORE PUSH0 PUSH2 0x100 DUP7 ADD MSTORE PUSH0 PUSH2 0x120 DUP7 ADD MSTORE PUSH0 PUSH2 0x140 DUP7 ADD MSTORE PUSH0 PUSH2 0x160 DUP7 ADD MSTORE PUSH0 PUSH2 0x180 DUP7 ADD MSTORE DUP4 PUSH0 MSTORE PUSH1 0x2 PUSH1 0x20 MSTORE PUSH1 0x40 PUSH0 KECCAK256 DUP6 MLOAD DUP2 SSTORE PUSH1 0x1 DUP2 ADD PUSH1 0x1 DUP1 PUSH1 0xA0 SHL SUB PUSH1 0x20 DUP9 ADD MLOAD AND SWAP1 PUSH12 0xFFFFFFFFFFFFFFFFFFFFFFFF PUSH1 0xA0 SHL SWAP2 DUP3 DUP3 SLOAD AND OR SWAP1 SSTORE PUSH1 0x2 DUP3 ADD SWAP1 PUSH1 0x1 DUP1 PUSH1 0xA0 SHL SUB PUSH1 0x40 DUP10 ADD MLOAD AND SWAP1 DUP3 SLOAD AND OR SWAP1 SSTORE PUSH1 0x60 DUP7 ADD MLOAD PUSH1 0x3 DUP3 ADD SSTORE PUSH1 0x80 DUP7 ADD MLOAD DUP1 MLOAD SWAP1 PUSH8 0xFFFFFFFFFFFFFFFF DUP3 GT PUSH2 0xD03 JUMPI DUP2 SWAP1 PUSH2 0xA79 PUSH1 0x4 DUP6 ADD SLOAD PUSH2 0x1406 JUMP JUMPDEST PUSH1 0x1F DUP2 GT PUSH2 0xD90 JUMPI JUMPDEST POP PUSH1 0x20 SWAP1 PUSH1 0x1F DUP4 GT PUSH1 0x1 EQ PUSH2 0xD22 JUMPI PUSH0 SWAP3 PUSH2 0xD17 JUMPI JUMPDEST POP POP DUP2 PUSH1 0x1 SHL SWAP2 PUSH0 NOT SWAP1 PUSH1 0x3 SHL SHR NOT AND OR PUSH1 0x4 DUP3 ADD SSTORE JUMPDEST PUSH1 0xA0 DUP7 ADD MLOAD DUP1 MLOAD SWAP1 PUSH8 0xFFFFFFFFFFFFFFFF DUP3 GT PUSH2 0xD03 JUMPI PUSH2 0xAD3 PUSH1 0x5 DUP5 ADD SLOAD PUSH2 0x1406 JUMP JUMPDEST PUSH1 0x1F DUP2 GT PUSH2 0xCBF JUMPI JUMPDEST POP PUSH1 0x20 SWAP1 PUSH1 0x1F DUP4 GT PUSH1 0x1 EQ PUSH2 0xC50 JUMPI PUSH1 0xA SWAP4 SWAP3 SWAP2 PUSH0 SWAP2 DUP4 PUSH2 0xC45 JUMPI JUMPDEST POP POP DUP2 PUSH1 0x1 SHL SWAP2 PUSH0 NOT SWAP1 PUSH1 0x3 SHL SHR NOT AND OR PUSH1 0x5 DUP3 ADD SSTORE JUMPDEST PUSH1 0xC0 DUP8 ADD MLOAD PUSH1 0x6 DUP3 ADD SSTORE PUSH1 0xE0 DUP8 ADD MLOAD PUSH1 0x7 DUP3 ADD SSTORE PUSH2 0x100 DUP8 ADD MLOAD PUSH1 0x8 DUP3 ADD SSTORE PUSH2 0x120 DUP8 ADD MLOAD PUSH1 0x9 DUP3 ADD SSTORE ADD SWAP5 PUSH2 0x140 DUP2 ADD MLOAD SWAP2 PUSH1 0x7 DUP4 LT ISZERO PUSH2 0x4D6 JUMPI DUP7 DUP7 SWAP4 PUSH32 0xFAB7026C201703A6CE65999FA587D7F23B07A13C3F7F6C86456E6195E37F3C16 SWAP4 PUSH1 0x20 SWAP10 SLOAD PUSH1 0xFF PUSH3 0xFF0000 PUSH2 0x180 PUSH2 0xFF00 PUSH2 0x160 DUP7 ADD MLOAD ISZERO ISZERO PUSH1 0x8 SHL AND SWAP5 ADD MLOAD ISZERO ISZERO PUSH1 0x10 SHL AND SWAP4 AND SWAP1 PUSH3 0xFFFFFF NOT AND OR OR OR SWAP1 SSTORE CALLER PUSH0 MSTORE PUSH1 0x3 DUP8 MSTORE PUSH2 0xBB7 DUP4 PUSH1 0x40 PUSH0 KECCAK256 PUSH2 0x15D7 JUMP JUMPDEST PUSH1 0x1 DUP1 PUSH1 0xA0 SHL SUB DUP2 AND PUSH0 MSTORE PUSH1 0x4 DUP8 MSTORE PUSH2 0xBD3 DUP4 PUSH1 0x40 PUSH0 KECCAK256 PUSH2 0x15D7 JUMP JUMPDEST PUSH2 0xBDF CALLVALUE PUSH1 0x6 SLOAD PUSH2 0x156A JUMP JUMPDEST PUSH1 0x6 SSTORE PUSH2 0xBED PUSH1 0x8 SLOAD PUSH2 0x1577 JUMP JUMPDEST PUSH1 0x8 SSTORE DUP4 PUSH1 0x40 MLOAD SWAP6 CALLVALUE DUP8 MSTORE PUSH1 0x40 DUP10 DUP9 ADD MSTORE DUP2 PUSH1 0x40 DUP9 ADD MSTORE PUSH1 0x60 DUP8 ADD CALLDATACOPY PUSH0 PUSH1 0x60 DUP6 DUP8 ADD ADD MSTORE PUSH1 0x1 DUP1 PUSH1 0xA0 SHL SUB AND SWAP4 PUSH1 0x60 DUP2 CALLER SWAP6 PUSH1 0x1F DUP1 NOT SWAP2 ADD AND DUP2 ADD SUB ADD SWAP1 LOG4 PUSH1 0x1 PUSH0 DUP1 MLOAD PUSH1 0x20 PUSH2 0x17E4 DUP4 CODECOPY DUP2 MLOAD SWAP2 MSTORE SSTORE PUSH1 0x40 MLOAD SWAP1 DUP2 MSTORE RETURN JUMPDEST ADD MLOAD SWAP1 POP DUP10 DUP1 PUSH2 0xAF8 JUMP JUMPDEST SWAP1 PUSH1 0x5 DUP5 ADD PUSH0 MSTORE PUSH1 0x20 PUSH0 KECCAK256 SWAP2 PUSH0 JUMPDEST PUSH1 0x1F NOT DUP6 AND DUP2 LT PUSH2 0xCA7 JUMPI POP SWAP2 DUP4 SWAP2 PUSH1 0x1 SWAP4 PUSH1 0xA SWAP7 SWAP6 PUSH1 0x1F NOT DUP2 AND LT PUSH2 0xC8F JUMPI JUMPDEST POP POP POP DUP2 SHL ADD PUSH1 0x5 DUP3 ADD SSTORE PUSH2 0xB0F JUMP JUMPDEST ADD MLOAD PUSH0 NOT PUSH1 0xF8 DUP5 PUSH1 0x3 SHL AND SHR NOT AND SWAP1 SSTORE DUP10 DUP1 DUP1 PUSH2 0xC7F JUMP JUMPDEST SWAP2 SWAP3 PUSH1 0x20 PUSH1 0x1 DUP2 SWAP3 DUP7 DUP6 ADD MLOAD DUP2 SSTORE ADD SWAP5 ADD SWAP3 ADD PUSH2 0xC5E JUMP JUMPDEST PUSH1 0x5 DUP5 ADD PUSH0 MSTORE PUSH1 0x20 PUSH0 KECCAK256 PUSH1 0x1F DUP5 ADD PUSH1 0x5 SHR DUP2 ADD PUSH1 0x20 DUP6 LT PUSH2 0xCFC JUMPI JUMPDEST PUSH1 0x1F DUP4 ADD PUSH1 0x5 SHR DUP3 ADD DUP2 LT PUSH2 0xCF1 JUMPI POP POP PUSH2 0xADC JUMP JUMPDEST PUSH0 DUP2 SSTORE PUSH1 0x1 ADD PUSH2 0xCDB JUMP JUMPDEST POP DUP1 PUSH2 0xCDB JUMP JUMPDEST PUSH4 0x4E487B71 PUSH1 0xE0 SHL PUSH0 MSTORE PUSH1 0x41 PUSH1 0x4 MSTORE PUSH1 0x24 PUSH0 REVERT JUMPDEST ADD MLOAD SWAP1 POP DUP9 DUP1 PUSH2 0xA98 JUMP JUMPDEST SWAP3 POP PUSH1 0x4 DUP5 ADD PUSH0 MSTORE PUSH1 0x20 PUSH0 KECCAK256 SWAP1 PUSH0 SWAP4 JUMPDEST PUSH1 0x1F NOT DUP5 AND DUP6 LT PUSH2 0xD75 JUMPI PUSH1 0x1 SWAP5 POP DUP4 PUSH1 0x1F NOT DUP2 AND LT PUSH2 0xD5D JUMPI JUMPDEST POP POP POP DUP2 SHL ADD PUSH1 0x4 DUP3 ADD SSTORE PUSH2 0xAAF JUMP JUMPDEST ADD MLOAD PUSH0 NOT PUSH1 0xF8 DUP5 PUSH1 0x3 SHL AND SHR NOT AND SWAP1 SSTORE DUP9 DUP1 DUP1 PUSH2 0xD4D JUMP JUMPDEST DUP2 DUP2 ADD MLOAD DUP4 SSTORE PUSH1 0x20 SWAP5 DUP6 ADD SWAP5 PUSH1 0x1 SWAP1 SWAP4 ADD SWAP3 SWAP1 SWAP2 ADD SWAP1 PUSH2 0xD32 JUMP JUMPDEST SWAP1 SWAP2 POP PUSH1 0x4 DUP5 ADD PUSH0 MSTORE PUSH1 0x20 PUSH0 KECCAK256 PUSH1 0x1F DUP5 ADD PUSH1 0x5 SHR DUP2 ADD PUSH1 0x20 DUP6 LT PUSH2 0xDD9 JUMPI JUMPDEST SWAP1 DUP5 SWAP4 SWAP3 SWAP2 JUMPDEST PUSH1 0x1F DUP4 ADD PUSH1 0x5 SHR DUP3 ADD DUP2 LT PUSH2 0xDCB JUMPI POP POP PUSH2 0xA82 JUMP JUMPDEST PUSH0 DUP2 SSTORE DUP6 SWAP5 POP PUSH1 0x1 ADD PUSH2 0xDB5 JUMP JUMPDEST POP DUP1 PUSH2 0xDAF JUMP JUMPDEST PUSH1 0x40 MLOAD PUSH4 0x19D546F1 PUSH1 0xE3 SHL DUP2 MSTORE PUSH1 0x4 SWAP1 REVERT JUMPDEST PUSH1 0x40 MLOAD PUSH4 0xB2592C35 PUSH1 0xE0 SHL DUP2 MSTORE PUSH1 0x4 SWAP1 REVERT JUMPDEST PUSH1 0x40 MLOAD PUSH4 0x23422219 PUSH1 0xE2 SHL DUP2 MSTORE PUSH1 0x4 SWAP1 REVERT JUMPDEST POP PUSH1 0x1 PUSH1 0x1 PUSH1 0xA0 SHL SUB DUP2 AND CALLER EQ PUSH2 0x957 JUMP JUMPDEST PUSH1 0x40 MLOAD PUSH4 0x8B87DFBB PUSH1 0xE0 SHL DUP2 MSTORE PUSH1 0x4 SWAP1 REVERT JUMPDEST CALLVALUE PUSH2 0x155 JUMPI PUSH1 0x20 DUP1 PUSH1 0x3 NOT CALLDATASIZE ADD SLT PUSH2 0x155 JUMPI PUSH1 0x1 PUSH1 0x1 PUSH1 0xA0 SHL SUB PUSH2 0xE5C PUSH2 0x1387 JUMP JUMPDEST AND PUSH0 MSTORE PUSH1 0x4 PUSH1 0x20 MSTORE PUSH1 0x40 PUSH0 KECCAK256 SWAP1 PUSH1 0x40 MLOAD SWAP1 DUP2 PUSH1 0x20 DUP5 SLOAD SWAP2 DUP3 DUP2 MSTORE ADD SWAP4 PUSH0 MSTORE PUSH1 0x20 PUSH0 KECCAK256 SWAP2 PUSH0 SWAP1 JUMPDEST DUP3 DUP3 LT PUSH2 0xE99 JUMPI PUSH2 0x2B4 DUP6 PUSH2 0x2A8 DUP2 DUP10 SUB DUP3 PUSH2 0x145B JUMP JUMPDEST DUP4 SLOAD DUP7 MSTORE SWAP5 DUP6 ADD SWAP5 PUSH1 0x1 SWAP4 DUP5 ADD SWAP4 SWAP1 SWAP2 ADD SWAP1 PUSH2 0xE82 JUMP JUMPDEST CALLVALUE PUSH2 0x155 JUMPI PUSH0 CALLDATASIZE PUSH1 0x3 NOT ADD SLT PUSH2 0x155 JUMPI PUSH1 0x20 PUSH1 0x8 SLOAD PUSH1 0x40 MLOAD SWAP1 DUP2 MSTORE RETURN JUMPDEST CALLVALUE PUSH2 0x155 JUMPI PUSH0 CALLDATASIZE PUSH1 0x3 NOT ADD SLT PUSH2 0x155 JUMPI PUSH1 0x5 SLOAD PUSH1 0x40 MLOAD PUSH1 0x1 PUSH1 0x1 PUSH1 0xA0 SHL SUB SWAP1 SWAP2 AND DUP2 MSTORE PUSH1 0x20 SWAP1 RETURN JUMPDEST CALLVALUE PUSH2 0x155 JUMPI PUSH0 CALLDATASIZE PUSH1 0x3 NOT ADD SLT PUSH2 0x155 JUMPI PUSH1 0x20 PUSH1 0x7 SLOAD PUSH1 0x40 MLOAD SWAP1 DUP2 MSTORE RETURN JUMPDEST CALLVALUE PUSH2 0x155 JUMPI PUSH0 CALLDATASIZE PUSH1 0x3 NOT ADD SLT PUSH2 0x155 JUMPI PUSH1 0x20 PUSH1 0x40 MLOAD PUSH1 0xFA DUP2 MSTORE RETURN JUMPDEST CALLVALUE PUSH2 0x155 JUMPI PUSH1 0x20 CALLDATASIZE PUSH1 0x3 NOT ADD SLT PUSH2 0x155 JUMPI PUSH1 0x4 CALLDATALOAD PUSH2 0xF49 PUSH2 0x1651 JUMP JUMPDEST PUSH2 0xF52 DUP2 PUSH2 0x1680 JUMP JUMPDEST PUSH1 0x2 DUP2 ADD SLOAD PUSH1 0x1 PUSH1 0x1 PUSH1 0xA0 SHL SUB AND CALLER SUB PUSH2 0x5C4 JUMPI PUSH1 0xA DUP2 ADD DUP1 SLOAD PUSH1 0xFF DUP2 AND PUSH1 0x7 DUP2 LT ISZERO PUSH2 0x4D6 JUMPI DUP1 PUSH2 0xFCC JUMPI POP PUSH1 0x1 SWAP1 PUSH1 0xFF NOT AND OR SWAP1 SSTORE PUSH1 0x8 TIMESTAMP SWAP2 ADD SSTORE PUSH32 0xA74A28866064B16E695EBBF53F8B0F9AA0BB93885DBBCC373004F1A052CC4248 PUSH1 0x20 PUSH1 0x40 MLOAD CALLER DUP2 MSTORE LOG2 PUSH1 0x1 PUSH0 DUP1 MLOAD PUSH1 0x20 PUSH2 0x17E4 DUP4 CODECOPY DUP2 MLOAD SWAP2 MSTORE SSTORE STOP JUMPDEST PUSH1 0x40 MLOAD PUSH4 0x1F6EE93 PUSH1 0xE2 SHL DUP2 MSTORE PUSH1 0x4 DUP2 ADD DUP7 SWAP1 MSTORE PUSH1 0x44 SWAP2 PUSH2 0x5B7 SWAP1 PUSH1 0x24 DUP4 ADD SWAP1 PUSH2 0x155D JUMP JUMPDEST CALLVALUE PUSH2 0x155 JUMPI PUSH1 0x20 CALLDATASIZE PUSH1 0x3 NOT ADD SLT PUSH2 0x155 JUMPI PUSH1 0x4 CALLDATALOAD PUSH2 0x100D PUSH2 0x1651 JUMP JUMPDEST PUSH2 0x1016 DUP2 PUSH2 0x1680 JUMP JUMPDEST PUSH1 0xFF PUSH1 0xA DUP3 ADD SLOAD AND PUSH1 0x7 DUP2 LT ISZERO PUSH2 0x4D6 JUMPI PUSH1 0x2 DUP2 SUB PUSH2 0x1081 JUMPI POP PUSH1 0x9 DUP2 ADD SLOAD SWAP2 PUSH3 0x93A80 DUP4 ADD DUP1 SWAP4 GT PUSH2 0x106D JUMPI DUP3 TIMESTAMP LT PUSH2 0x1054 JUMPI PUSH2 0x74F SWAP3 POP PUSH2 0x1734 JUMP JUMPDEST PUSH1 0x40 MLOAD PUSH4 0x767376D PUSH1 0xE3 SHL DUP2 MSTORE PUSH1 0x4 DUP2 ADD DUP5 SWAP1 MSTORE PUSH1 0x24 SWAP1 REVERT JUMPDEST PUSH4 0x4E487B71 PUSH1 0xE0 SHL PUSH0 MSTORE PUSH1 0x11 PUSH1 0x4 MSTORE PUSH1 0x24 PUSH0 REVERT JUMPDEST PUSH1 0x40 MLOAD PUSH4 0x1F6EE93 PUSH1 0xE2 SHL DUP2 MSTORE PUSH1 0x4 DUP2 ADD DUP5 SWAP1 MSTORE PUSH1 0x44 SWAP2 PUSH2 0x5B7 SWAP1 PUSH1 0x24 DUP4 ADD SWAP1 PUSH2 0x155D JUMP JUMPDEST CALLVALUE PUSH2 0x155 JUMPI PUSH1 0x20 CALLDATASIZE PUSH1 0x3 NOT ADD SLT PUSH2 0x155 JUMPI PUSH1 0x4 CALLDATALOAD PUSH2 0x10C2 PUSH2 0x1651 JUMP JUMPDEST PUSH2 0x10CB DUP2 PUSH2 0x1680 JUMP JUMPDEST PUSH1 0x2 DUP2 ADD SLOAD PUSH1 0x1 PUSH1 0x1 PUSH1 0xA0 SHL SUB SWAP3 SWAP2 SWAP1 DUP4 AND CALLER SUB PUSH2 0x5C4 JUMPI PUSH1 0xA DUP2 ADD SWAP3 DUP4 SLOAD SWAP4 PUSH1 0xFF DUP6 AND SWAP5 PUSH1 0x7 DUP7 LT ISZERO PUSH2 0x4D6 JUMPI DUP6 PUSH2 0x115C JUMPI PUSH1 0xFF NOT AND PUSH1 0x6 OR SWAP1 SSTORE PUSH1 0x1 DUP3 ADD SLOAD PUSH1 0x3 SWAP3 SWAP1 SWAP3 ADD SLOAD PUSH2 0x111F SWAP3 SWAP1 SWAP2 AND PUSH2 0x16B0 JUMP JUMPDEST PUSH32 0x6D69EED268BF3A13DA04B1DB3415C4F35FB04442A029B91D325C90D3ED6ADCC PUSH1 0x20 PUSH1 0x40 MLOAD CALLER DUP2 MSTORE LOG2 PUSH1 0x1 PUSH0 DUP1 MLOAD PUSH1 0x20 PUSH2 0x17E4 DUP4 CODECOPY DUP2 MLOAD SWAP2 MSTORE SSTORE STOP JUMPDEST PUSH1 0x40 MLOAD PUSH4 0x1F6EE93 PUSH1 0xE2 SHL DUP2 MSTORE PUSH1 0x4 DUP2 ADD DUP7 SWAP1 MSTORE PUSH1 0x44 SWAP1 PUSH2 0x5B7 PUSH1 0x24 DUP3 ADD DUP10 PUSH2 0x155D JUMP JUMPDEST CALLVALUE PUSH2 0x155 JUMPI PUSH1 0x40 CALLDATASIZE PUSH1 0x3 NOT ADD SLT PUSH2 0x155 JUMPI PUSH1 0x4 CALLDATALOAD PUSH1 0x24 CALLDATALOAD DUP1 ISZERO ISZERO SWAP1 DUP2 DUP2 SUB PUSH2 0x155 JUMPI PUSH2 0x11AA PUSH2 0x1709 JUMP JUMPDEST PUSH2 0x11B2 PUSH2 0x1651 JUMP JUMPDEST PUSH2 0x11BB DUP4 PUSH2 0x1680 JUMP JUMPDEST SWAP2 PUSH1 0xA DUP4 ADD SWAP2 DUP3 SLOAD SWAP2 PUSH1 0xFF DUP4 AND PUSH1 0x7 DUP2 LT ISZERO PUSH2 0x4D6 JUMPI PUSH1 0x4 DUP2 SUB PUSH2 0x1267 JUMPI POP PUSH32 0x5A87909BFF68CAAAAF0B3FD9C74EECCC928832F879315E5C6FB7A73612F26C0C PUSH1 0x20 DUP8 SWAP3 PUSH1 0x40 MLOAD SWAP1 DUP2 MSTORE LOG2 ISZERO PUSH2 0x1216 JUMPI POP POP PUSH2 0x74F SWAP2 PUSH2 0x1734 JUMP JUMPDEST PUSH1 0xFF NOT AND PUSH1 0x5 OR SWAP1 SSTORE PUSH1 0x1 DUP2 ADD SLOAD PUSH1 0x3 SWAP1 SWAP2 ADD SLOAD PUSH2 0x123C SWAP2 PUSH1 0x1 PUSH1 0x1 PUSH1 0xA0 SHL SUB AND PUSH2 0x16B0 JUMP JUMPDEST ADDRESS SWAP1 PUSH32 0xE0D7665E06E7DB1FC500D66D4E3898D1D4A5533D7EFE54B352FCDAA177C22783 PUSH0 DUP1 LOG3 PUSH2 0x74F JUMP JUMPDEST PUSH1 0x40 MLOAD PUSH4 0x1F6EE93 PUSH1 0xE2 SHL DUP2 MSTORE PUSH1 0x4 DUP2 ADD DUP9 SWAP1 MSTORE PUSH1 0x44 SWAP2 PUSH2 0x5B7 SWAP1 PUSH1 0x24 DUP4 ADD SWAP1 PUSH2 0x155D JUMP JUMPDEST CALLVALUE PUSH2 0x155 JUMPI PUSH1 0x20 CALLDATASIZE PUSH1 0x3 NOT ADD SLT PUSH2 0x155 JUMPI PUSH1 0x4 CALLDATALOAD PUSH2 0x12A8 PUSH2 0x1651 JUMP JUMPDEST PUSH2 0x12B1 DUP2 PUSH2 0x1680 JUMP JUMPDEST PUSH1 0x1 DUP2 ADD SLOAD SWAP1 SWAP2 SWAP1 PUSH1 0x1 PUSH1 0x1 PUSH1 0xA0 SHL SUB AND CALLER DUP2 SUB PUSH2 0x5C4 JUMPI PUSH1 0xA DUP4 ADD SWAP3 DUP4 SLOAD SWAP4 PUSH1 0xFF DUP6 AND SWAP5 PUSH1 0x7 DUP7 LT ISZERO PUSH2 0x4D6 JUMPI DUP6 PUSH2 0x115C JUMPI PUSH1 0xFF NOT AND PUSH1 0x5 OR SWAP1 SSTORE PUSH1 0x3 ADD SLOAD PUSH2 0x12FA SWAP2 PUSH2 0x16B0 JUMP JUMPDEST CALLER SWAP1 PUSH32 0xE0D7665E06E7DB1FC500D66D4E3898D1D4A5533D7EFE54B352FCDAA177C22783 PUSH0 DUP1 LOG3 PUSH1 0x1 PUSH0 DUP1 MLOAD PUSH1 0x20 PUSH2 0x17E4 DUP4 CODECOPY DUP2 MLOAD SWAP2 MSTORE SSTORE STOP JUMPDEST CALLVALUE PUSH2 0x155 JUMPI PUSH0 CALLDATASIZE PUSH1 0x3 NOT ADD SLT PUSH2 0x155 JUMPI PUSH1 0x20 PUSH1 0x40 MLOAD PUSH2 0x2710 DUP2 MSTORE RETURN JUMPDEST CALLVALUE PUSH2 0x155 JUMPI PUSH0 CALLDATASIZE PUSH1 0x3 NOT ADD SLT PUSH2 0x155 JUMPI PUSH1 0x20 PUSH1 0x6 SLOAD PUSH1 0x40 MLOAD SWAP1 DUP2 MSTORE RETURN JUMPDEST CALLVALUE PUSH2 0x155 JUMPI PUSH0 CALLDATASIZE PUSH1 0x3 NOT ADD SLT PUSH2 0x155 JUMPI DUP1 PUSH3 0x93A80 PUSH1 0x20 SWAP3 MSTORE RETURN JUMPDEST PUSH1 0x4 CALLDATALOAD SWAP1 PUSH1 0x1 PUSH1 0x1 PUSH1 0xA0 SHL SUB DUP3 AND DUP3 SUB PUSH2 0x155 JUMPI JUMP JUMPDEST PUSH1 0x20 SWAP1 PUSH1 0x20 PUSH1 0x40 DUP2 DUP4 ADD SWAP3 DUP3 DUP2 MSTORE DUP6 MLOAD DUP1 SWAP5 MSTORE ADD SWAP4 ADD SWAP2 PUSH0 JUMPDEST DUP3 DUP2 LT PUSH2 0x13C4 JUMPI POP POP POP POP SWAP1 JUMP JUMPDEST DUP4 MLOAD DUP6 MSTORE SWAP4 DUP2 ADD SWAP4 SWAP3 DUP2 ADD SWAP3 PUSH1 0x1 ADD PUSH2 0x13B6 JUMP JUMPDEST SWAP2 DUP2 PUSH1 0x1F DUP5 ADD SLT ISZERO PUSH2 0x155 JUMPI DUP3 CALLDATALOAD SWAP2 PUSH8 0xFFFFFFFFFFFFFFFF DUP4 GT PUSH2 0x155 JUMPI PUSH1 0x20 DUP4 DUP2 DUP7 ADD SWAP6 ADD ADD GT PUSH2 0x155 JUMPI JUMP JUMPDEST SWAP1 PUSH1 0x1 DUP3 DUP2 SHR SWAP3 AND DUP1 ISZERO PUSH2 0x1434 JUMPI JUMPDEST PUSH1 0x20 DUP4 LT EQ PUSH2 0x1420 JUMPI JUMP JUMPDEST PUSH4 0x4E487B71 PUSH1 0xE0 SHL PUSH0 MSTORE PUSH1 0x22 PUSH1 0x4 MSTORE PUSH1 0x24 PUSH0 REVERT JUMPDEST SWAP2 PUSH1 0x7F AND SWAP2 PUSH2 0x1415 JUMP JUMPDEST PUSH2 0x1A0 DUP2 ADD SWAP1 DUP2 LT PUSH8 0xFFFFFFFFFFFFFFFF DUP3 GT OR PUSH2 0xD03 JUMPI PUSH1 0x40 MSTORE JUMP JUMPDEST SWAP1 PUSH1 0x1F DUP1 NOT SWAP2 ADD AND DUP2 ADD SWAP1 DUP2 LT PUSH8 0xFFFFFFFFFFFFFFFF DUP3 GT OR PUSH2 0xD03 JUMPI PUSH1 0x40 MSTORE JUMP JUMPDEST SWAP1 PUSH1 0x40 MLOAD SWAP2 DUP3 PUSH0 DUP3 SLOAD PUSH2 0x148F DUP2 PUSH2 0x1406 JUMP JUMPDEST SWAP1 DUP2 DUP5 MSTORE PUSH1 0x20 SWAP5 PUSH1 0x1 SWAP2 PUSH1 0x1 DUP2 AND SWAP1 DUP2 PUSH0 EQ PUSH2 0x14FD JUMPI POP PUSH1 0x1 EQ PUSH2 0x14BF JUMPI JUMPDEST POP POP POP PUSH2 0x14BD SWAP3 POP SUB DUP4 PUSH2 0x145B JUMP JUMPDEST JUMP JUMPDEST PUSH0 SWAP1 DUP2 MSTORE DUP6 DUP2 KECCAK256 SWAP6 SWAP4 POP SWAP2 SWAP1 JUMPDEST DUP2 DUP4 LT PUSH2 0x14E5 JUMPI POP POP PUSH2 0x14BD SWAP4 POP DUP3 ADD ADD PUSH0 DUP1 DUP1 PUSH2 0x14AE JUMP JUMPDEST DUP6 SLOAD DUP9 DUP5 ADD DUP6 ADD MSTORE SWAP5 DUP6 ADD SWAP5 DUP8 SWAP5 POP SWAP2 DUP4 ADD SWAP2 PUSH2 0x14CC JUMP JUMPDEST SWAP3 POP POP POP PUSH2 0x14BD SWAP5 SWAP3 POP PUSH1 0xFF NOT AND DUP3 DUP5 ADD MSTORE ISZERO ISZERO PUSH1 0x5 SHL DUP3 ADD ADD PUSH0 DUP1 DUP1 PUSH2 0x14AE JUMP JUMPDEST SWAP2 SWAP1 DUP3 MLOAD SWAP3 DUP4 DUP3 MSTORE PUSH0 JUMPDEST DUP5 DUP2 LT PUSH2 0x1549 JUMPI POP POP DUP3 PUSH0 PUSH1 0x20 DUP1 SWAP5 SWAP6 DUP5 ADD ADD MSTORE PUSH1 0x1F DUP1 NOT SWAP2 ADD AND ADD ADD SWAP1 JUMP JUMPDEST PUSH1 0x20 DUP2 DUP4 ADD DUP2 ADD MLOAD DUP5 DUP4 ADD DUP3 ADD MSTORE ADD PUSH2 0x1529 JUMP JUMPDEST SWAP1 PUSH1 0x7 DUP3 LT ISZERO PUSH2 0x4D6 JUMPI MSTORE JUMP JUMPDEST SWAP2 SWAP1 DUP3 ADD DUP1 SWAP3 GT PUSH2 0x106D JUMPI JUMP JUMPDEST PUSH0 NOT DUP2 EQ PUSH2 0x106D JUMPI PUSH1 0x1 ADD SWAP1 JUMP JUMPDEST PUSH8 0xFFFFFFFFFFFFFFFF DUP2 GT PUSH2 0xD03 JUMPI PUSH1 0x1F ADD PUSH1 0x1F NOT AND PUSH1 0x20 ADD SWAP1 JUMP JUMPDEST SWAP3 SWAP2 SWAP3 PUSH2 0x15AD DUP3 PUSH2 0x1585 JUMP JUMPDEST SWAP2 PUSH2 0x15BB PUSH1 0x40 MLOAD SWAP4 DUP5 PUSH2 0x145B JUMP JUMPDEST DUP3 SWAP5 DUP2 DUP5 MSTORE DUP2 DUP4 ADD GT PUSH2 0x155 JUMPI DUP3 DUP2 PUSH1 0x20 SWAP4 DUP5 PUSH0 SWAP7 ADD CALLDATACOPY ADD ADD MSTORE JUMP JUMPDEST DUP1 SLOAD SWAP1 PUSH9 0x10000000000000000 DUP3 LT ISZERO PUSH2 0xD03 JUMPI PUSH1 0x1 DUP3 ADD DUP1 DUP3 SSTORE DUP3 LT ISZERO PUSH2 0x1603 JUMPI PUSH0 MSTORE PUSH1 0x20 PUSH0 KECCAK256 ADD SSTORE JUMP JUMPDEST PUSH4 0x4E487B71 PUSH1 0xE0 SHL PUSH0 MSTORE PUSH1 0x32 PUSH1 0x4 MSTORE PUSH1 0x24 PUSH0 REVERT JUMPDEST PUSH2 0x1620 SWAP1 PUSH2 0x1680 JUMP JUMPDEST PUSH1 0xFF PUSH1 0xA DUP3 ADD SLOAD AND PUSH1 0x7 DUP2 LT ISZERO PUSH2 0x4D6 JUMPI PUSH1 0x2 SUB PUSH2 0x164C JUMPI PUSH1 0x9 ADD SLOAD PUSH3 0x93A80 DUP2 ADD DUP1 SWAP2 GT PUSH2 0x106D JUMPI SWAP1 JUMP JUMPDEST POP PUSH0 SWAP1 JUMP JUMPDEST PUSH0 DUP1 MLOAD PUSH1 0x20 PUSH2 0x17E4 DUP4 CODECOPY DUP2 MLOAD SWAP2 MSTORE PUSH1 0x2 DUP2 SLOAD EQ PUSH2 0x166E JUMPI PUSH1 0x2 SWAP1 SSTORE JUMP JUMPDEST PUSH1 0x40 MLOAD PUSH4 0x3EE5AEB5 PUSH1 0xE0 SHL DUP2 MSTORE PUSH1 0x4 SWAP1 REVERT JUMPDEST DUP1 PUSH0 MSTORE PUSH1 0x2 PUSH1 0x20 MSTORE PUSH1 0x40 PUSH0 KECCAK256 SWAP1 DUP2 SLOAD ISZERO PUSH2 0x1698 JUMPI POP SWAP1 JUMP JUMPDEST PUSH1 0x24 SWAP1 PUSH1 0x40 MLOAD SWAP1 PUSH4 0x4EC726C7 PUSH1 0xE0 SHL DUP3 MSTORE PUSH1 0x4 DUP3 ADD MSTORE REVERT JUMPDEST PUSH0 SWAP2 DUP3 SWAP2 DUP3 SWAP2 DUP3 SWAP2 PUSH1 0x1 PUSH1 0x1 PUSH1 0xA0 SHL SUB AND GAS CALL RETURNDATASIZE ISZERO PUSH2 0x1704 JUMPI RETURNDATASIZE PUSH2 0x16D3 DUP2 PUSH2 0x1585 JUMP JUMPDEST SWAP1 PUSH2 0x16E1 PUSH1 0x40 MLOAD SWAP3 DUP4 PUSH2 0x145B JUMP JUMPDEST DUP2 MSTORE PUSH0 PUSH1 0x20 RETURNDATASIZE SWAP3 ADD RETURNDATACOPY JUMPDEST ISZERO PUSH2 0x16F2 JUMPI JUMP JUMPDEST PUSH1 0x40 MLOAD PUSH4 0x12171D83 PUSH1 0xE3 SHL DUP2 MSTORE PUSH1 0x4 SWAP1 REVERT JUMPDEST PUSH2 0x16EB JUMP JUMPDEST PUSH0 SLOAD PUSH1 0x1 PUSH1 0x1 PUSH1 0xA0 SHL SUB AND CALLER SUB PUSH2 0x171C JUMPI JUMP JUMPDEST PUSH1 0x40 MLOAD PUSH4 0x118CDAA7 PUSH1 0xE0 SHL DUP2 MSTORE CALLER PUSH1 0x4 DUP3 ADD MSTORE PUSH1 0x24 SWAP1 REVERT JUMPDEST PUSH1 0xA DUP3 ADD PUSH1 0x3 PUSH1 0xFF NOT DUP3 SLOAD AND OR SWAP1 SSTORE PUSH1 0x3 DUP3 ADD SLOAD PUSH1 0xFA DUP2 MUL DUP2 DUP2 DIV PUSH1 0xFA EQ DUP3 ISZERO OR ISZERO PUSH2 0x106D JUMPI PUSH2 0x2710 SWAP1 DIV SWAP3 DUP4 DUP3 SUB SWAP2 DUP3 GT PUSH2 0x106D JUMPI PUSH32 0x8CDC8DC08E54A4E57F52077ECF1B4C508758513439CAE2AA325DCC85B922FCA8 SWAP2 PUSH1 0x2 PUSH1 0x40 SWAP3 PUSH2 0x179D DUP8 PUSH1 0x7 SLOAD PUSH2 0x156A JUMP JUMPDEST PUSH1 0x7 SSTORE ADD DUP1 SLOAD PUSH1 0x1 PUSH1 0x1 PUSH1 0xA0 SHL SUB SWAP2 SWAP1 PUSH2 0x17BA SWAP1 DUP5 SWAP1 DUP5 AND PUSH2 0x16B0 JUMP JUMPDEST DUP7 PUSH2 0x17D0 JUMPI JUMPDEST SLOAD AND SWAP5 DUP3 MLOAD SWAP2 DUP3 MSTORE PUSH1 0x20 DUP3 ADD MSTORE LOG3 JUMP JUMPDEST PUSH2 0x17DE DUP8 DUP4 PUSH1 0x5 SLOAD AND PUSH2 0x16B0 JUMP JUMPDEST PUSH2 0x17C0 JUMP INVALID SWAP12 PUSH24 0x9B17422D0DF92223018B32B4D1FA46E071723D6817E2486D STOP EXTCODESIZE 0xEC 0xC5 PUSH0 STOP LOG2 PUSH5 0x6970667358 0x22 SLT KECCAK256 OR 0xD0 0xAA 0xC4 0x2A DUP5 0x21 0xA8 0xDA 0x4F DUP14 0xA6 0xC1 0xDB SAR CREATE LT KECCAK256 SWAP12 SWAP13 0xB5 LOG0 0xE0 CREATE2 SWAP2 0xFB CALLDATALOAD DUP13 DUP12 PUSH20 0x573F64736F6C6343000818003300000000000000 "},"methodIdentifiers":{"AUTO_RELEASE_DELAY()":"09499aa6","BPS()":"249d39e9","PLATFORM_FEE_BPS()":"539aa77f","acceptRequest(uint256)":"4ba1f098","autoRelease(uint256)":"459b860e","autoReleaseReadyAt(uint256)":"f90c15be","cancelRequest(uint256)":"3015394c","confirmCompletion(uint256)":"94aeb613","createRequest(address,string,string,uint256)":"6d160cb7","declineRequest(uint256)":"399b4ddc","getEmployerRequests(address)":"ee247ea2","getRequest(uint256)":"c58343ef","getTalentRequests(address)":"6ae5ebb7","owner()":"8da5cb5b","raiseDispute(uint256)":"a5c1674e","releasePayment(uint256)":"88685cd9","renounceOwnership()":"715018a6","requests(uint256)":"81d12c58","resolveDispute(uint256,bool)":"34b25ee2","setTreasury(address)":"f0f44260","totalEscrowVolume()":"2304e9dc","totalFeesCollected()":"60c6d8ae","totalRequestsCount()":"69831e05","transferOwnership(address)":"f2fde38b","treasury()":"61d027b3"}}}}}