{"contracts/SoulBoundCredential.sol":{"SoulBoundCredential":{"abi":[{"inputs":[],"stateMutability":"nonpayable","type":"constructor"},{"inputs":[{"internalType":"string","name":"fileRootHash","type":"string"},{"internalType":"uint256","name":"existingTokenId","type":"uint256"}],"name":"AlreadyMinted","type":"error"},{"inputs":[{"internalType":"address","name":"sender","type":"address"},{"internalType":"uint256","name":"tokenId","type":"uint256"},{"internalType":"address","name":"owner","type":"address"}],"name":"ERC721IncorrectOwner","type":"error"},{"inputs":[{"internalType":"address","name":"operator","type":"address"},{"internalType":"uint256","name":"tokenId","type":"uint256"}],"name":"ERC721InsufficientApproval","type":"error"},{"inputs":[{"internalType":"address","name":"approver","type":"address"}],"name":"ERC721InvalidApprover","type":"error"},{"inputs":[{"internalType":"address","name":"operator","type":"address"}],"name":"ERC721InvalidOperator","type":"error"},{"inputs":[{"internalType":"address","name":"owner","type":"address"}],"name":"ERC721InvalidOwner","type":"error"},{"inputs":[{"internalType":"address","name":"receiver","type":"address"}],"name":"ERC721InvalidReceiver","type":"error"},{"inputs":[{"internalType":"address","name":"sender","type":"address"}],"name":"ERC721InvalidSender","type":"error"},{"inputs":[{"internalType":"uint256","name":"tokenId","type":"uint256"}],"name":"ERC721NonexistentToken","type":"error"},{"inputs":[{"internalType":"address","name":"owner","type":"address"}],"name":"OwnableInvalidOwner","type":"error"},{"inputs":[{"internalType":"address","name":"account","type":"address"}],"name":"OwnableUnauthorizedAccount","type":"error"},{"inputs":[{"internalType":"uint256","name":"score","type":"uint256"},{"internalType":"uint256","name":"minimum","type":"uint256"}],"name":"ScoreTooLow","type":"error"},{"inputs":[],"name":"SoulBoundNonTransferable","type":"error"},{"inputs":[{"internalType":"uint256","name":"tokenId","type":"uint256"}],"name":"TokenDoesNotExist","type":"error"},{"anonymous":false,"inputs":[{"indexed":true,"internalType":"address","name":"owner","type":"address"},{"indexed":true,"internalType":"address","name":"approved","type":"address"},{"indexed":true,"internalType":"uint256","name":"tokenId","type":"uint256"}],"name":"Approval","type":"event"},{"anonymous":false,"inputs":[{"indexed":true,"internalType":"address","name":"owner","type":"address"},{"indexed":true,"internalType":"address","name":"operator","type":"address"},{"indexed":false,"internalType":"bool","name":"approved","type":"bool"}],"name":"ApprovalForAll","type":"event"},{"anonymous":false,"inputs":[{"indexed":true,"internalType":"uint256","name":"tokenId","type":"uint256"},{"indexed":true,"internalType":"address","name":"recipient","type":"address"},{"indexed":false,"internalType":"string","name":"skillCategory","type":"string"},{"indexed":false,"internalType":"uint256","name":"score","type":"uint256"},{"indexed":false,"internalType":"string","name":"proofRootHash","type":"string"},{"indexed":false,"internalType":"string","name":"fileRootHash","type":"string"}],"name":"CredentialMinted","type":"event"},{"anonymous":false,"inputs":[{"indexed":false,"internalType":"uint256","name":"tokenId","type":"uint256"}],"name":"Locked","type":"event"},{"anonymous":false,"inputs":[{"indexed":true,"internalType":"address","name":"previousOwner","type":"address"},{"indexed":true,"internalType":"address","name":"newOwner","type":"address"}],"name":"OwnershipTransferred","type":"event"},{"anonymous":false,"inputs":[{"indexed":true,"internalType":"address","name":"from","type":"address"},{"indexed":true,"internalType":"address","name":"to","type":"address"},{"indexed":true,"internalType":"uint256","name":"tokenId","type":"uint256"}],"name":"Transfer","type":"event"},{"anonymous":false,"inputs":[{"indexed":false,"internalType":"uint256","name":"tokenId","type":"uint256"}],"name":"Unlocked","type":"event"},{"inputs":[{"internalType":"address","name":"to","type":"address"},{"internalType":"uint256","name":"tokenId","type":"uint256"}],"name":"approve","outputs":[],"stateMutability":"nonpayable","type":"function"},{"inputs":[{"internalType":"address","name":"owner","type":"address"}],"name":"balanceOf","outputs":[{"internalType":"uint256","name":"","type":"uint256"}],"stateMutability":"view","type":"function"},{"inputs":[{"internalType":"uint256","name":"","type":"uint256"}],"name":"credentials","outputs":[{"internalType":"address","name":"recipient","type":"address"},{"internalType":"string","name":"skillCategory","type":"string"},{"internalType":"uint256","name":"score","type":"uint256"},{"internalType":"uint256","name":"originalityScore","type":"uint256"},{"internalType":"uint256","name":"qualityScore","type":"uint256"},{"internalType":"uint256","name":"complexityScore","type":"uint256"},{"internalType":"uint256","name":"authenticityScore","type":"uint256"},{"internalType":"string","name":"proofRootHash","type":"string"},{"internalType":"string","name":"fileRootHash","type":"string"},{"internalType":"uint256","name":"timestamp","type":"uint256"},{"internalType":"string","name":"metadataURI","type":"string"}],"stateMutability":"view","type":"function"},{"inputs":[{"internalType":"uint256","name":"tokenId","type":"uint256"}],"name":"getApproved","outputs":[{"internalType":"address","name":"","type":"address"}],"stateMutability":"view","type":"function"},{"inputs":[{"internalType":"uint256","name":"tokenId","type":"uint256"}],"name":"getCredential","outputs":[{"components":[{"internalType":"address","name":"recipient","type":"address"},{"internalType":"string","name":"skillCategory","type":"string"},{"internalType":"uint256","name":"score","type":"uint256"},{"internalType":"uint256","name":"originalityScore","type":"uint256"},{"internalType":"uint256","name":"qualityScore","type":"uint256"},{"internalType":"uint256","name":"complexityScore","type":"uint256"},{"internalType":"uint256","name":"authenticityScore","type":"uint256"},{"internalType":"string","name":"proofRootHash","type":"string"},{"internalType":"string","name":"fileRootHash","type":"string"},{"internalType":"uint256","name":"timestamp","type":"uint256"},{"internalType":"string","name":"metadataURI","type":"string"}],"internalType":"struct SoulBoundCredential.Credential","name":"","type":"tuple"}],"stateMutability":"view","type":"function"},{"inputs":[{"internalType":"string","name":"fileRootHash","type":"string"}],"name":"getTokenByFileHash","outputs":[{"internalType":"uint256","name":"","type":"uint256"}],"stateMutability":"view","type":"function"},{"inputs":[{"internalType":"address","name":"wallet","type":"address"}],"name":"getWalletTokens","outputs":[{"internalType":"uint256[]","name":"","type":"uint256[]"}],"stateMutability":"view","type":"function"},{"inputs":[{"internalType":"address","name":"owner","type":"address"},{"internalType":"address","name":"operator","type":"address"}],"name":"isApprovedForAll","outputs":[{"internalType":"bool","name":"","type":"bool"}],"stateMutability":"view","type":"function"},{"inputs":[{"internalType":"uint256","name":"","type":"uint256"}],"name":"locked","outputs":[{"internalType":"bool","name":"","type":"bool"}],"stateMutability":"pure","type":"function"},{"inputs":[{"internalType":"address","name":"recipient","type":"address"},{"internalType":"string","name":"skillCategory","type":"string"},{"internalType":"uint256","name":"score","type":"uint256"},{"internalType":"uint256","name":"originalityScore","type":"uint256"},{"internalType":"uint256","name":"qualityScore","type":"uint256"},{"internalType":"uint256","name":"complexityScore","type":"uint256"},{"internalType":"uint256","name":"authenticityScore","type":"uint256"},{"internalType":"string","name":"proofRootHash","type":"string"},{"internalType":"string","name":"fileRootHash","type":"string"},{"internalType":"string","name":"metadataURI","type":"string"}],"name":"mintCredential","outputs":[{"internalType":"uint256","name":"","type":"uint256"}],"stateMutability":"nonpayable","type":"function"},{"inputs":[],"name":"name","outputs":[{"internalType":"string","name":"","type":"string"}],"stateMutability":"view","type":"function"},{"inputs":[],"name":"owner","outputs":[{"internalType":"address","name":"","type":"address"}],"stateMutability":"view","type":"function"},{"inputs":[{"internalType":"uint256","name":"tokenId","type":"uint256"}],"name":"ownerOf","outputs":[{"internalType":"address","name":"","type":"address"}],"stateMutability":"view","type":"function"},{"inputs":[],"name":"renounceOwnership","outputs":[],"stateMutability":"nonpayable","type":"function"},{"inputs":[{"internalType":"address","name":"from","type":"address"},{"internalType":"address","name":"to","type":"address"},{"internalType":"uint256","name":"tokenId","type":"uint256"}],"name":"safeTransferFrom","outputs":[],"stateMutability":"nonpayable","type":"function"},{"inputs":[{"internalType":"address","name":"from","type":"address"},{"internalType":"address","name":"to","type":"address"},{"internalType":"uint256","name":"tokenId","type":"uint256"},{"internalType":"bytes","name":"data","type":"bytes"}],"name":"safeTransferFrom","outputs":[],"stateMutability":"nonpayable","type":"function"},{"inputs":[{"internalType":"address","name":"operator","type":"address"},{"internalType":"bool","name":"approved","type":"bool"}],"name":"setApprovalForAll","outputs":[],"stateMutability":"nonpayable","type":"function"},{"inputs":[{"internalType":"bytes4","name":"interfaceId","type":"bytes4"}],"name":"supportsInterface","outputs":[{"internalType":"bool","name":"","type":"bool"}],"stateMutability":"view","type":"function"},{"inputs":[],"name":"symbol","outputs":[{"internalType":"string","name":"","type":"string"}],"stateMutability":"view","type":"function"},{"inputs":[{"internalType":"uint256","name":"tokenId","type":"uint256"}],"name":"tokenURI","outputs":[{"internalType":"string","name":"","type":"string"}],"stateMutability":"view","type":"function"},{"inputs":[],"name":"totalSupply","outputs":[{"internalType":"uint256","name":"","type":"uint256"}],"stateMutability":"view","type":"function"},{"inputs":[{"internalType":"address","name":"from","type":"address"},{"internalType":"address","name":"to","type":"address"},{"internalType":"uint256","name":"tokenId","type":"uint256"}],"name":"transferFrom","outputs":[],"stateMutability":"nonpayable","type":"function"},{"inputs":[{"internalType":"address","name":"newOwner","type":"address"}],"name":"transferOwnership","outputs":[],"stateMutability":"nonpayable","type":"function"}],"evm":{"bytecode":{"linkReferences":{},"object":"6080346200035b576001600160401b03906040908082018381118282101762000279578252601581526020927f5472757374466f6c696f2043726564656e7469616c00000000000000000000008483015282519383850185811083821117620002795784526006855265151190d4915160d21b8186015282519082821162000279575f54916001948584811c9416801562000350575b838510146200025a578190601f94858111620002fd575b50839085831160011462000299575f926200028d575b50505f19600383901b1c191690851b175f555b8551928311620002795783548481811c911680156200026e575b828210146200025a5782811162000212575b5080918311600114620001ad5750819293945f92620001a1575b50505f19600383901b1c191690821b1781555b33156200018a5760068054336001600160a01b0319821681179092559251926001600160a01b03167f8be0079c531659141344cd1fd0a4f28419497f9722a3daafe3b4186f6b6457e05f80a3600755611c449081620003608239f35b8151631e4fbdf760e01b81525f6004820152602490fd5b015190505f806200011b565b90601f19831695845f52825f20925f905b888210620001fa5750508385969710620001e1575b505050811b0181556200012e565b01515f1960f88460031b161c191690555f8080620001d3565b808785968294968601518155019501930190620001be565b845f52815f208380860160051c82019284871062000250575b0160051c019085905b8281106200024457505062000101565b5f815501859062000234565b925081926200022b565b634e487b7160e01b5f52602260045260245ffd5b90607f1690620000ef565b634e487b7160e01b5f52604160045260245ffd5b015190505f80620000c2565b90879350601f198316915f8052855f20925f5b87828210620002e65750508411620002cd575b505050811b015f55620000d5565b01515f1960f88460031b161c191690555f8080620002bf565b8385015186558b97909501949384019301620002ac565b9091505f8052835f208580850160051c82019286861062000346575b918991869594930160051c01915b82811062000337575050620000ac565b5f815585945089910162000327565b9250819262000319565b93607f169362000095565b5f80fdfe6080806040526004361015610012575f80fd5b5f3560e01c90816301ffc9a7146115f05750806306fdde0314611549578063081812fc1461150d578063095ea7b31461142c57806318160ddd1461140357806323b872dd146113ec57806342842e0e146113bf578063477aeb1b146113635780636352211e1461133357806370a08231146112dd578063715018a61461128257806375db66da146108405780638da5cb5b146108185780638dd18d2d1461063757806395d89b4114610559578063a22cb4651461049a578063b45a3c0e1461047e578063b88d4fde14610411578063c87b56dd1461039f578063e0574e3f146102a4578063e985e9c514610252578063f2fde38b146101cb5763fabc38be14610119575f80fd5b346101c7576020806003193601126101c7576001600160a01b0361013b6116bb565b165f526009815260405f20604051908183825491828152019081925f52845f20905f5b868282106101b357868661017482880383611753565b60405192839281840190828552518091526040840192915f5b82811061019c57505050500390f35b83518552869550938101939281019260010161018d565b83548552909301926001928301920161015e565b5f80fd5b346101c75760203660031901126101c7576101e46116bb565b6101ec611a98565b6001600160a01b0390811690811561023a57600654826001600160601b0360a01b821617600655167f8be0079c531659141344cd1fd0a4f28419497f9722a3daafe3b4186f6b6457e05f80a3005b604051631e4fbdf760e01b81525f6004820152602490fd5b346101c75760403660031901126101c75761026b6116bb565b6102736116d1565b9060018060a01b038091165f52600560205260405f2091165f52602052602060ff60405f2054166040519015158152f35b346101c75760203660031901126101c7576004355f90815260086020526040902080546001600160a01b03166102dc6001830161181b565b916002810154906003810154916004820154906005830154906006840154600785016103079061181b565b926103146008870161181b565b94600987015496600a016103279061181b565b976040519a8b9a610160908c528060208d01528b0161034591611696565b9460408b015260608a0152608089015260a088015260c087015285810360e087015261037091611696565b84810361010086015261038291611696565b9061012084015282810361014084015261039b91611696565b0390f35b346101c75760203660031901126101c75760043580158015610405575b6103ed575f52600860205261039b6103d9600a60405f200161181b565b604051918291602083526020830190611696565b6024906040519063c927e5bf60e01b82526004820152fd5b506007548110156103bc565b346101c75760803660031901126101c75761042a6116bb565b6104326116d1565b90604435606435926001600160401b0384116101c757366023850112156101c75761046a61047c94369060248160040135910161178f565b926104768383836118bd565b33611ac4565b005b346101c75760203660031901126101c757602060405160018152f35b346101c75760403660031901126101c7576104b36116bb565b602435908115158092036101c7573315610541576001600160a01b031690811561052857335f52600560205260405f20825f5260205260405f2060ff1981541660ff83161790556040519081527f17307eab39ab6107e8899845ad3d59bd9653f200f220920489ca2b5937696c3160203392a3005b604051630b61174360e31b815260048101839052602490fd5b60405163a9fbf51f60e01b81525f6004820152602490fd5b346101c7575f3660031901126101c7576040515f6001826001549261057d846117e3565b92838352602094856001821691825f146106175750506001146105bc575b506105a892500383611753565b61039b604051928284938452830190611696565b84915060015f527fb10e2d527612073b26eecdfd717e6a320cf44b4afac2b0732d9fcbe2b7fa0cf6905f915b8583106105ff5750506105a893508201018561059b565b805483890185015287945086939092019181016105e8565b60ff1916858201526105a895151560051b850101925087915061059b9050565b346101c75760203660031901126101c757600435606061014060405161065c8161171c565b5f81528260208201525f60408201525f838201525f60808201525f60a08201525f60c08201528260e0820152826101008201525f61012082015201528015801561080c575b6103ed575f52600860205261039b60405f20610749600a604051926106c58461171c565b80546001600160a01b031684526106de6001820161181b565b6020850152600281015460408501526003810154606085015260048101546080850152600581015460a0850152600681015460c08501526107216007820161181b565b60e08501526107326008820161181b565b61010085015260098101546101208501520161181b565b6101408201526040519182916020835260018060a01b038151166020840152602081015161078561016091826040870152610180860190611696565b906040830151606086015260608301516080860152608083015160a086015260a083015160c086015260c083015160e08601526101406107f16107db60e086015194601f1995868a8303016101008b0152611696565b61010086015185898303016101208a0152611696565b93610120810151828801520151918584030190850152611696565b506007548110156106a1565b346101c7575f3660031901126101c7576006546040516001600160a01b039091168152602090f35b346101c7576101403660031901126101c75761085a6116bb565b6024356001600160401b0381116101c7576108799036906004016117c5565b60e4356001600160401b0381116101c7576108989036906004016117c5565b91610104356001600160401b0381116101c7576108b99036906004016117c5565b90610124356001600160401b0381116101c7576108da9036906004016117c5565b926108e3611a98565b6032604435106112625760405160208185516109028183858a01611675565b8101600a81520301902054806112325750600754935f19851461121e576001850160075560405161093281611738565b5f81526001600160a01b03841615611206575f868152600260205260409020546001600160a01b03166111f4575f868152600260205260409020546001600160a01b0316801515908790826111c1575b6001600160a01b0387165f818152600360209081526040808320805460010190558583526002909152812080546001600160a01b031916831790559091907fddf252ad1be2c89b69c2b068fc378daa952ba7f163c4a11628f55a4df523b3ef9080a46111a957833b611062575b507f032bc66be43dbccb7487781d168eb7bda224628a3b2c3388bdf69b532a3a16116020604051878152a160405190610a278261171c565b60018060a01b038416825282602083015260443560408301526064356060830152608435608083015260a43560a083015260c43560c08301528660e08301528461010083015242610120830152610140820152845f52600860205260405f209060018060a01b038151166001600160601b0360a01b83541617825560208101518051906001600160401b038211610d44578190610ac760018601546117e3565b601f8111611012575b50602090601f8311600114610fa4575f92610f99575b50508160011b915f199060031b1c19161760018301555b60408101516002830155606081015160038301556080810151600483015560a0810151600583015560c0810151600683015560e08101518051906001600160401b038211610d44578190610b5460078601546117e3565b601f8111610f49575b50602090601f8311600114610edb575f92610ed0575b50508160011b915f199060031b1c19161760078301555b6101008101518051906001600160401b038211610d4457610bae60088501546117e3565b601f8111610e8c575b50602090601f8311600114610e1c576101409392915f9183610e11575b50508160011b915f199060031b1c19161760088401555b610120810151600984015501518051906001600160401b038211610d4457610c16600a8401546117e3565b601f8111610dcd575b50602090601f8311600114610d6357600a92915f9183610d58575b50508160011b915f199060031b1c1916179101555b60018060a01b0382165f52600960205260405f209485549168010000000000000000831015610d445760018301808855831015610d3057610d258694610d0c610cf794877fdf4668e45069243cd8820873620fe23651e4e2e711d6aac3ed36666e7dd19d589760209c5f528c5f20015587610cd88c8b8160405193828580945193849201611675565b8101600a81520301902055604051958695608087526080870190611696565b906044358c8701528582036040870152611696565b83810360608501526001600160a01b0390911696611696565b0390a3604051908152f35b634e487b7160e01b5f52603260045260245ffd5b634e487b7160e01b5f52604160045260245ffd5b015190508980610c3a565b90601f19831691600a85015f5260205f20925f5b818110610db55750916001939185600a969410610d9d575b505050811b01910155610c4f565b01515f1960f88460031b161c19169055898080610d8f565b92936020600181928786015181550195019301610d77565b600a84015f5260205f20601f840160051c810160208510610e0a575b601f830160051c82018110610dff575050610c1f565b5f8155600101610de9565b5080610de9565b015190508a80610bd4565b90600885015f5260205f20915f5b601f1985168110610e7457509183916001936101409695601f19811610610e5c575b505050811b016008840155610beb565b01515f1960f88460031b161c191690558a8080610e4c565b91926020600181928685015181550194019201610e2a565b600885015f5260205f20601f840160051c810160208510610ec9575b601f830160051c82018110610ebe575050610bb7565b5f8155600101610ea8565b5080610ea8565b015190508980610b73565b9250600785015f5260205f20905f935b601f1984168510610f2e576001945083601f19811610610f16575b505050811b016007830155610b8a565b01515f1960f88460031b161c19169055898080610f06565b81810151835560209485019460019093019290910190610eeb565b909150600785015f5260205f20601f840160051c810160208510610f92575b90849392915b601f830160051c82018110610f84575050610b5d565b5f8155859450600101610f6e565b5080610f68565b015190508980610ae6565b9250600185015f5260205f20905f935b601f1984168510610ff7576001945083601f19811610610fdf575b505050811b016001830155610afd565b01515f1960f88460031b161c19169055898080610fcf565b81810151835560209485019460019093019290910190610fb4565b909150600185015f5260205f20601f840160051c81016020851061105b575b90849392915b601f830160051c8201811061104d575050610ad0565b5f8155859450600101611037565b5080611031565b60206110a191604098979695985180938192630a85bd0160e11b83523360048401525f6024840152896044840152608060648401526084830190611696565b03815f6001600160a01b038c165af15f9181611164575b5061111f57863d15611117573d906110cf82611774565b916110dd6040519384611753565b82523d5f602084013e5b8151918261111057604051633250574960e11b81526001600160a01b0383166004820152602490fd5b6020915001fd5b6060906110e7565b949593949293926001600160e01b03191663757a42ff60e11b0161114357866109ef565b604051633250574960e11b81526001600160a01b0384166004820152602490fd5b9091506020813d6020116111a1575b8161118060209383611753565b810103126101c757516001600160e01b0319811681036101c75790886110b8565b3d9150611173565b6040516339e3563760e11b81525f6004820152602490fd5b5f82815260046020526040902080546001600160a01b0319169055805f52600360205260405f205f198154019055610982565b60405163b863d7a560e01b8152600490fd5b604051633250574960e11b81525f6004820152602490fd5b634e487b7160e01b5f52601160045260245ffd5b60408051630506e9d760e51b815260048101919091529081906112586044830187611696565b9060248301520390fd5b6040516389a822a360e01b81526044803560048301526032602483015290fd5b346101c7575f3660031901126101c75761129a611a98565b600680546001600160a01b031981169091555f906001600160a01b03167f8be0079c531659141344cd1fd0a4f28419497f9722a3daafe3b4186f6b6457e08280a3005b346101c75760203660031901126101c7576001600160a01b036112fe6116bb565b16801561131b575f526003602052602060405f2054604051908152f35b6040516322718ad960e21b81525f6004820152602490fd5b346101c75760203660031901126101c7576020611351600435611a5e565b6040516001600160a01b039091168152f35b346101c75760203660031901126101c7576004356001600160401b0381116101c7576113ac6020611399819336906004016117c5565b8160405193828580945193849201611675565b8101600a81520301902054604051908152f35b346101c75761047c6113d0366116e7565b90604051926113de84611738565b5f84526104768383836118bd565b346101c75761047c6113fd366116e7565b916118bd565b346101c7575f3660031901126101c7576007545f19810190811161121e57602090604051908152f35b346101c75760403660031901126101c7576114456116bb565b60243561145181611a5e565b331515806114fa575b806114d1575b6114b9576001600160a01b039283169282918491167f8c5be1e5ebec7d5bd14f71427d1e84f3dd0314c0f7b2291e5b200ac8c7c3b9255f80a45f90815260046020526040902080546001600160a01b0319169091179055005b60405163a9fbf51f60e01b8152336004820152602490fd5b5060018060a01b0381165f52600560205260405f20335f5260205260ff60405f20541615611460565b506001600160a01b03811633141561145a565b346101c75760203660031901126101c75760043561152a81611a5e565b505f526004602052602060018060a01b0360405f205416604051908152f35b346101c7575f3660031901126101c7576040515f8054908261156a836117e3565b91828252602093600190856001821691825f1461061757505060011461159757506105a892500383611753565b5f808052859250907f290decd9548b62a8d60345a988386fc84ba6bc95484008f6362f93160ef3e5635b8583106115d85750506105a893508201018561059b565b805483890185015287945086939092019181016115c1565b346101c75760203660031901126101c7576004359063ffffffff60e01b82168092036101c757602091635a2d1e0760e11b8114908115611632575b5015158152f35b6380ac58cd60e01b811491508115611664575b8115611653575b508361162b565b6301ffc9a760e01b1490508361164c565b635b5e139f60e01b81149150611645565b5f5b8381106116865750505f910152565b8181015183820152602001611677565b906020916116af81518092818552858086019101611675565b601f01601f1916010190565b600435906001600160a01b03821682036101c757565b602435906001600160a01b03821682036101c757565b60609060031901126101c7576001600160a01b039060043582811681036101c7579160243590811681036101c7579060443590565b61016081019081106001600160401b03821117610d4457604052565b602081019081106001600160401b03821117610d4457604052565b90601f801991011681019081106001600160401b03821117610d4457604052565b6001600160401b038111610d4457601f01601f191660200190565b92919261179b82611774565b916117a96040519384611753565b8294818452818301116101c7578281602093845f960137010152565b9080601f830112156101c7578160206117e09335910161178f565b90565b90600182811c92168015611811575b60208310146117fd57565b634e487b7160e01b5f52602260045260245ffd5b91607f16916117f2565b9060405191825f825461182d816117e3565b908184526020946001916001811690815f1461189b575060011461185d575b50505061185b92500383611753565b565b5f90815285812095935091905b81831061188357505061185b93508201015f808061184c565b8554888401850152948501948794509183019161186a565b9250505061185b94925060ff191682840152151560051b8201015f808061184c565b6001600160a01b03918216929091831561120657815f526020926002845260409482865f205416611a4d578390815f526002865283875f20541695331515806119bb575b506002908761198a575b825f5260038152885f2060018154019055835f5252865f20816001600160601b0360a01b825416179055857fddf252ad1be2c89b69c2b068fc378daa952ba7f163c4a11628f55a4df523b3ef5f80a416928383036119695750505050565b6064945051926364283d7b60e01b8452600484015260248301526044820152fd5b5f84815260046020526040812080546001600160a01b03191690558881526003825289902080545f1901905561190b565b9192509080611a0c575b156119d3579084915f611901565b8685876119f0576024915190637e27328960e01b82526004820152fd5b604491519063177e802f60e01b82523360048301526024820152fd5b503386148015611a31575b806119c55750845f52600481523384885f205416146119c5565b50855f5260058152865f20335f52815260ff875f205416611a17565b855163b863d7a560e01b8152600490fd5b5f818152600260205260409020546001600160a01b0316908115611a80575090565b60249060405190637e27328960e01b82526004820152fd5b6006546001600160a01b03163303611aac57565b60405163118cdaa760e01b8152336004820152602490fd5b9293909193843b611ad7575b5050505050565b604051630a85bd0160e11b8082526001600160a01b039586166004830152938516602482015260448101919091526080606482015260209594909316939290859082908190611b2a906084830190611696565b03815f885af15f9181611bce575b50611b97575050503d5f14611b8f573d91611b5283611774565b92611b606040519485611753565b83523d5f8285013e5b82519283611b8a57604051633250574960e11b815260048101849052602490fd5b019050fd5b606091611b69565b9193506001600160e01b031990911603611bb657505f80808080611ad0565b60249060405190633250574960e11b82526004820152fd5b9091508581813d8311611c07575b611be68183611753565b810103126101c757516001600160e01b0319811681036101c757905f611b38565b503d611bdc56fea2646970667358221220f661a24d59c6df218dadccb8c77ad48293f669d10855d6e7d8ead1631268611664736f6c63430008180033","opcodes":"PUSH1 0x80 CALLVALUE PUSH3 0x35B JUMPI PUSH1 0x1 PUSH1 0x1 PUSH1 0x40 SHL SUB SWAP1 PUSH1 0x40 SWAP1 DUP1 DUP3 ADD DUP4 DUP2 GT DUP3 DUP3 LT OR PUSH3 0x279 JUMPI DUP3 MSTORE PUSH1 0x15 DUP2 MSTORE PUSH1 0x20 SWAP3 PUSH32 0x5472757374466F6C696F2043726564656E7469616C0000000000000000000000 DUP5 DUP4 ADD MSTORE DUP3 MLOAD SWAP4 DUP4 DUP6 ADD DUP6 DUP2 LT DUP4 DUP3 GT OR PUSH3 0x279 JUMPI DUP5 MSTORE PUSH1 0x6 DUP6 MSTORE PUSH6 0x151190D49151 PUSH1 0xD2 SHL DUP2 DUP7 ADD MSTORE DUP3 MLOAD SWAP1 DUP3 DUP3 GT PUSH3 0x279 JUMPI PUSH0 SLOAD SWAP2 PUSH1 0x1 SWAP5 DUP6 DUP5 DUP2 SHR SWAP5 AND DUP1 ISZERO PUSH3 0x350 JUMPI JUMPDEST DUP4 DUP6 LT EQ PUSH3 0x25A JUMPI DUP2 SWAP1 PUSH1 0x1F SWAP5 DUP6 DUP2 GT PUSH3 0x2FD JUMPI JUMPDEST POP DUP4 SWAP1 DUP6 DUP4 GT PUSH1 0x1 EQ PUSH3 0x299 JUMPI PUSH0 SWAP3 PUSH3 0x28D JUMPI JUMPDEST POP POP PUSH0 NOT PUSH1 0x3 DUP4 SWAP1 SHL SHR NOT AND SWAP1 DUP6 SHL OR PUSH0 SSTORE JUMPDEST DUP6 MLOAD SWAP3 DUP4 GT PUSH3 0x279 JUMPI DUP4 SLOAD DUP5 DUP2 DUP2 SHR SWAP2 AND DUP1 ISZERO PUSH3 0x26E JUMPI JUMPDEST DUP3 DUP3 LT EQ PUSH3 0x25A JUMPI DUP3 DUP2 GT PUSH3 0x212 JUMPI JUMPDEST POP DUP1 SWAP2 DUP4 GT PUSH1 0x1 EQ PUSH3 0x1AD JUMPI POP DUP2 SWAP3 SWAP4 SWAP5 PUSH0 SWAP3 PUSH3 0x1A1 JUMPI JUMPDEST POP POP PUSH0 NOT PUSH1 0x3 DUP4 SWAP1 SHL SHR NOT AND SWAP1 DUP3 SHL OR DUP2 SSTORE JUMPDEST CALLER ISZERO PUSH3 0x18A JUMPI PUSH1 0x6 DUP1 SLOAD CALLER PUSH1 0x1 PUSH1 0x1 PUSH1 0xA0 SHL SUB NOT DUP3 AND DUP2 OR SWAP1 SWAP3 SSTORE SWAP3 MLOAD SWAP3 PUSH1 0x1 PUSH1 0x1 PUSH1 0xA0 SHL SUB AND PUSH32 0x8BE0079C531659141344CD1FD0A4F28419497F9722A3DAAFE3B4186F6B6457E0 PUSH0 DUP1 LOG3 PUSH1 0x7 SSTORE PUSH2 0x1C44 SWAP1 DUP2 PUSH3 0x360 DUP3 CODECOPY RETURN JUMPDEST DUP2 MLOAD PUSH4 0x1E4FBDF7 PUSH1 0xE0 SHL DUP2 MSTORE PUSH0 PUSH1 0x4 DUP3 ADD MSTORE PUSH1 0x24 SWAP1 REVERT JUMPDEST ADD MLOAD SWAP1 POP PUSH0 DUP1 PUSH3 0x11B JUMP JUMPDEST SWAP1 PUSH1 0x1F NOT DUP4 AND SWAP6 DUP5 PUSH0 MSTORE DUP3 PUSH0 KECCAK256 SWAP3 PUSH0 SWAP1 JUMPDEST DUP9 DUP3 LT PUSH3 0x1FA JUMPI POP POP DUP4 DUP6 SWAP7 SWAP8 LT PUSH3 0x1E1 JUMPI JUMPDEST POP POP POP DUP2 SHL ADD DUP2 SSTORE PUSH3 0x12E JUMP JUMPDEST ADD MLOAD PUSH0 NOT PUSH1 0xF8 DUP5 PUSH1 0x3 SHL AND SHR NOT AND SWAP1 SSTORE PUSH0 DUP1 DUP1 PUSH3 0x1D3 JUMP JUMPDEST DUP1 DUP8 DUP6 SWAP7 DUP3 SWAP5 SWAP7 DUP7 ADD MLOAD DUP2 SSTORE ADD SWAP6 ADD SWAP4 ADD SWAP1 PUSH3 0x1BE JUMP JUMPDEST DUP5 PUSH0 MSTORE DUP2 PUSH0 KECCAK256 DUP4 DUP1 DUP7 ADD PUSH1 0x5 SHR DUP3 ADD SWAP3 DUP5 DUP8 LT PUSH3 0x250 JUMPI JUMPDEST ADD PUSH1 0x5 SHR ADD SWAP1 DUP6 SWAP1 JUMPDEST DUP3 DUP2 LT PUSH3 0x244 JUMPI POP POP PUSH3 0x101 JUMP JUMPDEST PUSH0 DUP2 SSTORE ADD DUP6 SWAP1 PUSH3 0x234 JUMP JUMPDEST SWAP3 POP DUP2 SWAP3 PUSH3 0x22B JUMP JUMPDEST PUSH4 0x4E487B71 PUSH1 0xE0 SHL PUSH0 MSTORE PUSH1 0x22 PUSH1 0x4 MSTORE PUSH1 0x24 PUSH0 REVERT JUMPDEST SWAP1 PUSH1 0x7F AND SWAP1 PUSH3 0xEF JUMP JUMPDEST PUSH4 0x4E487B71 PUSH1 0xE0 SHL PUSH0 MSTORE PUSH1 0x41 PUSH1 0x4 MSTORE PUSH1 0x24 PUSH0 REVERT JUMPDEST ADD MLOAD SWAP1 POP PUSH0 DUP1 PUSH3 0xC2 JUMP JUMPDEST SWAP1 DUP8 SWAP4 POP PUSH1 0x1F NOT DUP4 AND SWAP2 PUSH0 DUP1 MSTORE DUP6 PUSH0 KECCAK256 SWAP3 PUSH0 JUMPDEST DUP8 DUP3 DUP3 LT PUSH3 0x2E6 JUMPI POP POP DUP5 GT PUSH3 0x2CD JUMPI JUMPDEST POP POP POP DUP2 SHL ADD PUSH0 SSTORE PUSH3 0xD5 JUMP JUMPDEST ADD MLOAD PUSH0 NOT PUSH1 0xF8 DUP5 PUSH1 0x3 SHL AND SHR NOT AND SWAP1 SSTORE PUSH0 DUP1 DUP1 PUSH3 0x2BF JUMP JUMPDEST DUP4 DUP6 ADD MLOAD DUP7 SSTORE DUP12 SWAP8 SWAP1 SWAP6 ADD SWAP5 SWAP4 DUP5 ADD SWAP4 ADD PUSH3 0x2AC JUMP JUMPDEST SWAP1 SWAP2 POP PUSH0 DUP1 MSTORE DUP4 PUSH0 KECCAK256 DUP6 DUP1 DUP6 ADD PUSH1 0x5 SHR DUP3 ADD SWAP3 DUP7 DUP7 LT PUSH3 0x346 JUMPI JUMPDEST SWAP2 DUP10 SWAP2 DUP7 SWAP6 SWAP5 SWAP4 ADD PUSH1 0x5 SHR ADD SWAP2 JUMPDEST DUP3 DUP2 LT PUSH3 0x337 JUMPI POP POP PUSH3 0xAC JUMP JUMPDEST PUSH0 DUP2 SSTORE DUP6 SWAP5 POP DUP10 SWAP2 ADD PUSH3 0x327 JUMP JUMPDEST SWAP3 POP DUP2 SWAP3 PUSH3 0x319 JUMP JUMPDEST SWAP4 PUSH1 0x7F AND SWAP4 PUSH3 0x95 JUMP JUMPDEST PUSH0 DUP1 REVERT INVALID PUSH1 0x80 DUP1 PUSH1 0x40 MSTORE PUSH1 0x4 CALLDATASIZE LT ISZERO PUSH2 0x12 JUMPI PUSH0 DUP1 REVERT JUMPDEST PUSH0 CALLDATALOAD PUSH1 0xE0 SHR SWAP1 DUP2 PUSH4 0x1FFC9A7 EQ PUSH2 0x15F0 JUMPI POP DUP1 PUSH4 0x6FDDE03 EQ PUSH2 0x1549 JUMPI DUP1 PUSH4 0x81812FC EQ PUSH2 0x150D JUMPI DUP1 PUSH4 0x95EA7B3 EQ PUSH2 0x142C JUMPI DUP1 PUSH4 0x18160DDD EQ PUSH2 0x1403 JUMPI DUP1 PUSH4 0x23B872DD EQ PUSH2 0x13EC JUMPI DUP1 PUSH4 0x42842E0E EQ PUSH2 0x13BF JUMPI DUP1 PUSH4 0x477AEB1B EQ PUSH2 0x1363 JUMPI DUP1 PUSH4 0x6352211E EQ PUSH2 0x1333 JUMPI DUP1 PUSH4 0x70A08231 EQ PUSH2 0x12DD JUMPI DUP1 PUSH4 0x715018A6 EQ PUSH2 0x1282 JUMPI DUP1 PUSH4 0x75DB66DA EQ PUSH2 0x840 JUMPI DUP1 PUSH4 0x8DA5CB5B EQ PUSH2 0x818 JUMPI DUP1 PUSH4 0x8DD18D2D EQ PUSH2 0x637 JUMPI DUP1 PUSH4 0x95D89B41 EQ PUSH2 0x559 JUMPI DUP1 PUSH4 0xA22CB465 EQ PUSH2 0x49A JUMPI DUP1 PUSH4 0xB45A3C0E EQ PUSH2 0x47E JUMPI DUP1 PUSH4 0xB88D4FDE EQ PUSH2 0x411 JUMPI DUP1 PUSH4 0xC87B56DD EQ PUSH2 0x39F JUMPI DUP1 PUSH4 0xE0574E3F EQ PUSH2 0x2A4 JUMPI DUP1 PUSH4 0xE985E9C5 EQ PUSH2 0x252 JUMPI DUP1 PUSH4 0xF2FDE38B EQ PUSH2 0x1CB JUMPI PUSH4 0xFABC38BE EQ PUSH2 0x119 JUMPI PUSH0 DUP1 REVERT JUMPDEST CALLVALUE PUSH2 0x1C7 JUMPI PUSH1 0x20 DUP1 PUSH1 0x3 NOT CALLDATASIZE ADD SLT PUSH2 0x1C7 JUMPI PUSH1 0x1 PUSH1 0x1 PUSH1 0xA0 SHL SUB PUSH2 0x13B PUSH2 0x16BB JUMP JUMPDEST AND PUSH0 MSTORE PUSH1 0x9 DUP2 MSTORE PUSH1 0x40 PUSH0 KECCAK256 PUSH1 0x40 MLOAD SWAP1 DUP2 DUP4 DUP3 SLOAD SWAP2 DUP3 DUP2 MSTORE ADD SWAP1 DUP2 SWAP3 PUSH0 MSTORE DUP5 PUSH0 KECCAK256 SWAP1 PUSH0 JUMPDEST DUP7 DUP3 DUP3 LT PUSH2 0x1B3 JUMPI DUP7 DUP7 PUSH2 0x174 DUP3 DUP9 SUB DUP4 PUSH2 0x1753 JUMP JUMPDEST PUSH1 0x40 MLOAD SWAP3 DUP4 SWAP3 DUP2 DUP5 ADD SWAP1 DUP3 DUP6 MSTORE MLOAD DUP1 SWAP2 MSTORE PUSH1 0x40 DUP5 ADD SWAP3 SWAP2 PUSH0 JUMPDEST DUP3 DUP2 LT PUSH2 0x19C JUMPI POP POP POP POP SUB SWAP1 RETURN JUMPDEST DUP4 MLOAD DUP6 MSTORE DUP7 SWAP6 POP SWAP4 DUP2 ADD SWAP4 SWAP3 DUP2 ADD SWAP3 PUSH1 0x1 ADD PUSH2 0x18D JUMP JUMPDEST DUP4 SLOAD DUP6 MSTORE SWAP1 SWAP4 ADD SWAP3 PUSH1 0x1 SWAP3 DUP4 ADD SWAP3 ADD PUSH2 0x15E JUMP JUMPDEST PUSH0 DUP1 REVERT JUMPDEST CALLVALUE PUSH2 0x1C7 JUMPI PUSH1 0x20 CALLDATASIZE PUSH1 0x3 NOT ADD SLT PUSH2 0x1C7 JUMPI PUSH2 0x1E4 PUSH2 0x16BB JUMP JUMPDEST PUSH2 0x1EC PUSH2 0x1A98 JUMP JUMPDEST PUSH1 0x1 PUSH1 0x1 PUSH1 0xA0 SHL SUB SWAP1 DUP2 AND SWAP1 DUP2 ISZERO PUSH2 0x23A JUMPI PUSH1 0x6 SLOAD DUP3 PUSH1 0x1 PUSH1 0x1 PUSH1 0x60 SHL SUB PUSH1 0xA0 SHL DUP3 AND OR PUSH1 0x6 SSTORE AND PUSH32 0x8BE0079C531659141344CD1FD0A4F28419497F9722A3DAAFE3B4186F6B6457E0 PUSH0 DUP1 LOG3 STOP JUMPDEST PUSH1 0x40 MLOAD PUSH4 0x1E4FBDF7 PUSH1 0xE0 SHL DUP2 MSTORE PUSH0 PUSH1 0x4 DUP3 ADD MSTORE PUSH1 0x24 SWAP1 REVERT JUMPDEST CALLVALUE PUSH2 0x1C7 JUMPI PUSH1 0x40 CALLDATASIZE PUSH1 0x3 NOT ADD SLT PUSH2 0x1C7 JUMPI PUSH2 0x26B PUSH2 0x16BB JUMP JUMPDEST PUSH2 0x273 PUSH2 0x16D1 JUMP JUMPDEST SWAP1 PUSH1 0x1 DUP1 PUSH1 0xA0 SHL SUB DUP1 SWAP2 AND PUSH0 MSTORE PUSH1 0x5 PUSH1 0x20 MSTORE PUSH1 0x40 PUSH0 KECCAK256 SWAP2 AND PUSH0 MSTORE PUSH1 0x20 MSTORE PUSH1 0x20 PUSH1 0xFF PUSH1 0x40 PUSH0 KECCAK256 SLOAD AND PUSH1 0x40 MLOAD SWAP1 ISZERO ISZERO DUP2 MSTORE RETURN JUMPDEST CALLVALUE PUSH2 0x1C7 JUMPI PUSH1 0x20 CALLDATASIZE PUSH1 0x3 NOT ADD SLT PUSH2 0x1C7 JUMPI PUSH1 0x4 CALLDATALOAD PUSH0 SWAP1 DUP2 MSTORE PUSH1 0x8 PUSH1 0x20 MSTORE PUSH1 0x40 SWAP1 KECCAK256 DUP1 SLOAD PUSH1 0x1 PUSH1 0x1 PUSH1 0xA0 SHL SUB AND PUSH2 0x2DC PUSH1 0x1 DUP4 ADD PUSH2 0x181B JUMP JUMPDEST SWAP2 PUSH1 0x2 DUP2 ADD SLOAD SWAP1 PUSH1 0x3 DUP2 ADD SLOAD SWAP2 PUSH1 0x4 DUP3 ADD SLOAD SWAP1 PUSH1 0x5 DUP4 ADD SLOAD SWAP1 PUSH1 0x6 DUP5 ADD SLOAD PUSH1 0x7 DUP6 ADD PUSH2 0x307 SWAP1 PUSH2 0x181B JUMP JUMPDEST SWAP3 PUSH2 0x314 PUSH1 0x8 DUP8 ADD PUSH2 0x181B JUMP JUMPDEST SWAP5 PUSH1 0x9 DUP8 ADD SLOAD SWAP7 PUSH1 0xA ADD PUSH2 0x327 SWAP1 PUSH2 0x181B JUMP JUMPDEST SWAP8 PUSH1 0x40 MLOAD SWAP11 DUP12 SWAP11 PUSH2 0x160 SWAP1 DUP13 MSTORE DUP1 PUSH1 0x20 DUP14 ADD MSTORE DUP12 ADD PUSH2 0x345 SWAP2 PUSH2 0x1696 JUMP JUMPDEST SWAP5 PUSH1 0x40 DUP12 ADD MSTORE PUSH1 0x60 DUP11 ADD MSTORE PUSH1 0x80 DUP10 ADD MSTORE PUSH1 0xA0 DUP9 ADD MSTORE PUSH1 0xC0 DUP8 ADD MSTORE DUP6 DUP2 SUB PUSH1 0xE0 DUP8 ADD MSTORE PUSH2 0x370 SWAP2 PUSH2 0x1696 JUMP JUMPDEST DUP5 DUP2 SUB PUSH2 0x100 DUP7 ADD MSTORE PUSH2 0x382 SWAP2 PUSH2 0x1696 JUMP JUMPDEST SWAP1 PUSH2 0x120 DUP5 ADD MSTORE DUP3 DUP2 SUB PUSH2 0x140 DUP5 ADD MSTORE PUSH2 0x39B SWAP2 PUSH2 0x1696 JUMP JUMPDEST SUB SWAP1 RETURN JUMPDEST CALLVALUE PUSH2 0x1C7 JUMPI PUSH1 0x20 CALLDATASIZE PUSH1 0x3 NOT ADD SLT PUSH2 0x1C7 JUMPI PUSH1 0x4 CALLDATALOAD DUP1 ISZERO DUP1 ISZERO PUSH2 0x405 JUMPI JUMPDEST PUSH2 0x3ED JUMPI PUSH0 MSTORE PUSH1 0x8 PUSH1 0x20 MSTORE PUSH2 0x39B PUSH2 0x3D9 PUSH1 0xA PUSH1 0x40 PUSH0 KECCAK256 ADD PUSH2 0x181B JUMP JUMPDEST PUSH1 0x40 MLOAD SWAP2 DUP3 SWAP2 PUSH1 0x20 DUP4 MSTORE PUSH1 0x20 DUP4 ADD SWAP1 PUSH2 0x1696 JUMP JUMPDEST PUSH1 0x24 SWAP1 PUSH1 0x40 MLOAD SWAP1 PUSH4 0xC927E5BF PUSH1 0xE0 SHL DUP3 MSTORE PUSH1 0x4 DUP3 ADD MSTORE REVERT JUMPDEST POP PUSH1 0x7 SLOAD DUP2 LT ISZERO PUSH2 0x3BC JUMP JUMPDEST CALLVALUE PUSH2 0x1C7 JUMPI PUSH1 0x80 CALLDATASIZE PUSH1 0x3 NOT ADD SLT PUSH2 0x1C7 JUMPI PUSH2 0x42A PUSH2 0x16BB JUMP JUMPDEST PUSH2 0x432 PUSH2 0x16D1 JUMP JUMPDEST SWAP1 PUSH1 0x44 CALLDATALOAD PUSH1 0x64 CALLDATALOAD SWAP3 PUSH1 0x1 PUSH1 0x1 PUSH1 0x40 SHL SUB DUP5 GT PUSH2 0x1C7 JUMPI CALLDATASIZE PUSH1 0x23 DUP6 ADD SLT ISZERO PUSH2 0x1C7 JUMPI PUSH2 0x46A PUSH2 0x47C SWAP5 CALLDATASIZE SWAP1 PUSH1 0x24 DUP2 PUSH1 0x4 ADD CALLDATALOAD SWAP2 ADD PUSH2 0x178F JUMP JUMPDEST SWAP3 PUSH2 0x476 DUP4 DUP4 DUP4 PUSH2 0x18BD JUMP JUMPDEST CALLER PUSH2 0x1AC4 JUMP JUMPDEST STOP JUMPDEST CALLVALUE PUSH2 0x1C7 JUMPI PUSH1 0x20 CALLDATASIZE PUSH1 0x3 NOT ADD SLT PUSH2 0x1C7 JUMPI PUSH1 0x20 PUSH1 0x40 MLOAD PUSH1 0x1 DUP2 MSTORE RETURN JUMPDEST CALLVALUE PUSH2 0x1C7 JUMPI PUSH1 0x40 CALLDATASIZE PUSH1 0x3 NOT ADD SLT PUSH2 0x1C7 JUMPI PUSH2 0x4B3 PUSH2 0x16BB JUMP JUMPDEST PUSH1 0x24 CALLDATALOAD SWAP1 DUP2 ISZERO ISZERO DUP1 SWAP3 SUB PUSH2 0x1C7 JUMPI CALLER ISZERO PUSH2 0x541 JUMPI PUSH1 0x1 PUSH1 0x1 PUSH1 0xA0 SHL SUB AND SWAP1 DUP2 ISZERO PUSH2 0x528 JUMPI CALLER PUSH0 MSTORE PUSH1 0x5 PUSH1 0x20 MSTORE PUSH1 0x40 PUSH0 KECCAK256 DUP3 PUSH0 MSTORE PUSH1 0x20 MSTORE PUSH1 0x40 PUSH0 KECCAK256 PUSH1 0xFF NOT DUP2 SLOAD AND PUSH1 0xFF DUP4 AND OR SWAP1 SSTORE PUSH1 0x40 MLOAD SWAP1 DUP2 MSTORE PUSH32 0x17307EAB39AB6107E8899845AD3D59BD9653F200F220920489CA2B5937696C31 PUSH1 0x20 CALLER SWAP3 LOG3 STOP JUMPDEST PUSH1 0x40 MLOAD PUSH4 0xB611743 PUSH1 0xE3 SHL DUP2 MSTORE PUSH1 0x4 DUP2 ADD DUP4 SWAP1 MSTORE PUSH1 0x24 SWAP1 REVERT JUMPDEST PUSH1 0x40 MLOAD PUSH4 0xA9FBF51F PUSH1 0xE0 SHL DUP2 MSTORE PUSH0 PUSH1 0x4 DUP3 ADD MSTORE PUSH1 0x24 SWAP1 REVERT JUMPDEST CALLVALUE PUSH2 0x1C7 JUMPI PUSH0 CALLDATASIZE PUSH1 0x3 NOT ADD SLT PUSH2 0x1C7 JUMPI PUSH1 0x40 MLOAD PUSH0 PUSH1 0x1 DUP3 PUSH1 0x1 SLOAD SWAP3 PUSH2 0x57D DUP5 PUSH2 0x17E3 JUMP JUMPDEST SWAP3 DUP4 DUP4 MSTORE PUSH1 0x20 SWAP5 DUP6 PUSH1 0x1 DUP3 AND SWAP2 DUP3 PUSH0 EQ PUSH2 0x617 JUMPI POP POP PUSH1 0x1 EQ PUSH2 0x5BC JUMPI JUMPDEST POP PUSH2 0x5A8 SWAP3 POP SUB DUP4 PUSH2 0x1753 JUMP JUMPDEST PUSH2 0x39B PUSH1 0x40 MLOAD SWAP3 DUP3 DUP5 SWAP4 DUP5 MSTORE DUP4 ADD SWAP1 PUSH2 0x1696 JUMP JUMPDEST DUP5 SWAP2 POP PUSH1 0x1 PUSH0 MSTORE PUSH32 0xB10E2D527612073B26EECDFD717E6A320CF44B4AFAC2B0732D9FCBE2B7FA0CF6 SWAP1 PUSH0 SWAP2 JUMPDEST DUP6 DUP4 LT PUSH2 0x5FF JUMPI POP POP PUSH2 0x5A8 SWAP4 POP DUP3 ADD ADD DUP6 PUSH2 0x59B JUMP JUMPDEST DUP1 SLOAD DUP4 DUP10 ADD DUP6 ADD MSTORE DUP8 SWAP5 POP DUP7 SWAP4 SWAP1 SWAP3 ADD SWAP2 DUP2 ADD PUSH2 0x5E8 JUMP JUMPDEST PUSH1 0xFF NOT AND DUP6 DUP3 ADD MSTORE PUSH2 0x5A8 SWAP6 ISZERO ISZERO PUSH1 0x5 SHL DUP6 ADD ADD SWAP3 POP DUP8 SWAP2 POP PUSH2 0x59B SWAP1 POP JUMP JUMPDEST CALLVALUE PUSH2 0x1C7 JUMPI PUSH1 0x20 CALLDATASIZE PUSH1 0x3 NOT ADD SLT PUSH2 0x1C7 JUMPI PUSH1 0x4 CALLDATALOAD PUSH1 0x60 PUSH2 0x140 PUSH1 0x40 MLOAD PUSH2 0x65C DUP2 PUSH2 0x171C JUMP JUMPDEST PUSH0 DUP2 MSTORE DUP3 PUSH1 0x20 DUP3 ADD MSTORE PUSH0 PUSH1 0x40 DUP3 ADD MSTORE PUSH0 DUP4 DUP3 ADD MSTORE PUSH0 PUSH1 0x80 DUP3 ADD MSTORE PUSH0 PUSH1 0xA0 DUP3 ADD MSTORE PUSH0 PUSH1 0xC0 DUP3 ADD MSTORE DUP3 PUSH1 0xE0 DUP3 ADD MSTORE DUP3 PUSH2 0x100 DUP3 ADD MSTORE PUSH0 PUSH2 0x120 DUP3 ADD MSTORE ADD MSTORE DUP1 ISZERO DUP1 ISZERO PUSH2 0x80C JUMPI JUMPDEST PUSH2 0x3ED JUMPI PUSH0 MSTORE PUSH1 0x8 PUSH1 0x20 MSTORE PUSH2 0x39B PUSH1 0x40 PUSH0 KECCAK256 PUSH2 0x749 PUSH1 0xA PUSH1 0x40 MLOAD SWAP3 PUSH2 0x6C5 DUP5 PUSH2 0x171C JUMP JUMPDEST DUP1 SLOAD PUSH1 0x1 PUSH1 0x1 PUSH1 0xA0 SHL SUB AND DUP5 MSTORE PUSH2 0x6DE PUSH1 0x1 DUP3 ADD PUSH2 0x181B JUMP JUMPDEST PUSH1 0x20 DUP6 ADD MSTORE PUSH1 0x2 DUP2 ADD SLOAD PUSH1 0x40 DUP6 ADD MSTORE PUSH1 0x3 DUP2 ADD SLOAD PUSH1 0x60 DUP6 ADD MSTORE PUSH1 0x4 DUP2 ADD SLOAD PUSH1 0x80 DUP6 ADD MSTORE PUSH1 0x5 DUP2 ADD SLOAD PUSH1 0xA0 DUP6 ADD MSTORE PUSH1 0x6 DUP2 ADD SLOAD PUSH1 0xC0 DUP6 ADD MSTORE PUSH2 0x721 PUSH1 0x7 DUP3 ADD PUSH2 0x181B JUMP JUMPDEST PUSH1 0xE0 DUP6 ADD MSTORE PUSH2 0x732 PUSH1 0x8 DUP3 ADD PUSH2 0x181B JUMP JUMPDEST PUSH2 0x100 DUP6 ADD MSTORE PUSH1 0x9 DUP2 ADD SLOAD PUSH2 0x120 DUP6 ADD MSTORE ADD PUSH2 0x181B JUMP JUMPDEST PUSH2 0x140 DUP3 ADD MSTORE PUSH1 0x40 MLOAD SWAP2 DUP3 SWAP2 PUSH1 0x20 DUP4 MSTORE PUSH1 0x1 DUP1 PUSH1 0xA0 SHL SUB DUP2 MLOAD AND PUSH1 0x20 DUP5 ADD MSTORE PUSH1 0x20 DUP2 ADD MLOAD PUSH2 0x785 PUSH2 0x160 SWAP2 DUP3 PUSH1 0x40 DUP8 ADD MSTORE PUSH2 0x180 DUP7 ADD SWAP1 PUSH2 0x1696 JUMP JUMPDEST SWAP1 PUSH1 0x40 DUP4 ADD MLOAD PUSH1 0x60 DUP7 ADD MSTORE PUSH1 0x60 DUP4 ADD MLOAD PUSH1 0x80 DUP7 ADD MSTORE PUSH1 0x80 DUP4 ADD MLOAD PUSH1 0xA0 DUP7 ADD MSTORE PUSH1 0xA0 DUP4 ADD MLOAD PUSH1 0xC0 DUP7 ADD MSTORE PUSH1 0xC0 DUP4 ADD MLOAD PUSH1 0xE0 DUP7 ADD MSTORE PUSH2 0x140 PUSH2 0x7F1 PUSH2 0x7DB PUSH1 0xE0 DUP7 ADD MLOAD SWAP5 PUSH1 0x1F NOT SWAP6 DUP7 DUP11 DUP4 SUB ADD PUSH2 0x100 DUP12 ADD MSTORE PUSH2 0x1696 JUMP JUMPDEST PUSH2 0x100 DUP7 ADD MLOAD DUP6 DUP10 DUP4 SUB ADD PUSH2 0x120 DUP11 ADD MSTORE PUSH2 0x1696 JUMP JUMPDEST SWAP4 PUSH2 0x120 DUP2 ADD MLOAD DUP3 DUP9 ADD MSTORE ADD MLOAD SWAP2 DUP6 DUP5 SUB ADD SWAP1 DUP6 ADD MSTORE PUSH2 0x1696 JUMP JUMPDEST POP PUSH1 0x7 SLOAD DUP2 LT ISZERO PUSH2 0x6A1 JUMP JUMPDEST CALLVALUE PUSH2 0x1C7 JUMPI PUSH0 CALLDATASIZE PUSH1 0x3 NOT ADD SLT PUSH2 0x1C7 JUMPI PUSH1 0x6 SLOAD PUSH1 0x40 MLOAD PUSH1 0x1 PUSH1 0x1 PUSH1 0xA0 SHL SUB SWAP1 SWAP2 AND DUP2 MSTORE PUSH1 0x20 SWAP1 RETURN JUMPDEST CALLVALUE PUSH2 0x1C7 JUMPI PUSH2 0x140 CALLDATASIZE PUSH1 0x3 NOT ADD SLT PUSH2 0x1C7 JUMPI PUSH2 0x85A PUSH2 0x16BB JUMP JUMPDEST PUSH1 0x24 CALLDATALOAD PUSH1 0x1 PUSH1 0x1 PUSH1 0x40 SHL SUB DUP2 GT PUSH2 0x1C7 JUMPI PUSH2 0x879 SWAP1 CALLDATASIZE SWAP1 PUSH1 0x4 ADD PUSH2 0x17C5 JUMP JUMPDEST PUSH1 0xE4 CALLDATALOAD PUSH1 0x1 PUSH1 0x1 PUSH1 0x40 SHL SUB DUP2 GT PUSH2 0x1C7 JUMPI PUSH2 0x898 SWAP1 CALLDATASIZE SWAP1 PUSH1 0x4 ADD PUSH2 0x17C5 JUMP JUMPDEST SWAP2 PUSH2 0x104 CALLDATALOAD PUSH1 0x1 PUSH1 0x1 PUSH1 0x40 SHL SUB DUP2 GT PUSH2 0x1C7 JUMPI PUSH2 0x8B9 SWAP1 CALLDATASIZE SWAP1 PUSH1 0x4 ADD PUSH2 0x17C5 JUMP JUMPDEST SWAP1 PUSH2 0x124 CALLDATALOAD PUSH1 0x1 PUSH1 0x1 PUSH1 0x40 SHL SUB DUP2 GT PUSH2 0x1C7 JUMPI PUSH2 0x8DA SWAP1 CALLDATASIZE SWAP1 PUSH1 0x4 ADD PUSH2 0x17C5 JUMP JUMPDEST SWAP3 PUSH2 0x8E3 PUSH2 0x1A98 JUMP JUMPDEST PUSH1 0x32 PUSH1 0x44 CALLDATALOAD LT PUSH2 0x1262 JUMPI PUSH1 0x40 MLOAD PUSH1 0x20 DUP2 DUP6 MLOAD PUSH2 0x902 DUP2 DUP4 DUP6 DUP11 ADD PUSH2 0x1675 JUMP JUMPDEST DUP2 ADD PUSH1 0xA DUP2 MSTORE SUB ADD SWAP1 KECCAK256 SLOAD DUP1 PUSH2 0x1232 JUMPI POP PUSH1 0x7 SLOAD SWAP4 PUSH0 NOT DUP6 EQ PUSH2 0x121E JUMPI PUSH1 0x1 DUP6 ADD PUSH1 0x7 SSTORE PUSH1 0x40 MLOAD PUSH2 0x932 DUP2 PUSH2 0x1738 JUMP JUMPDEST PUSH0 DUP2 MSTORE PUSH1 0x1 PUSH1 0x1 PUSH1 0xA0 SHL SUB DUP5 AND ISZERO PUSH2 0x1206 JUMPI PUSH0 DUP7 DUP2 MSTORE PUSH1 0x2 PUSH1 0x20 MSTORE PUSH1 0x40 SWAP1 KECCAK256 SLOAD PUSH1 0x1 PUSH1 0x1 PUSH1 0xA0 SHL SUB AND PUSH2 0x11F4 JUMPI PUSH0 DUP7 DUP2 MSTORE PUSH1 0x2 PUSH1 0x20 MSTORE PUSH1 0x40 SWAP1 KECCAK256 SLOAD PUSH1 0x1 PUSH1 0x1 PUSH1 0xA0 SHL SUB AND DUP1 ISZERO ISZERO SWAP1 DUP8 SWAP1 DUP3 PUSH2 0x11C1 JUMPI JUMPDEST PUSH1 0x1 PUSH1 0x1 PUSH1 0xA0 SHL SUB DUP8 AND PUSH0 DUP2 DUP2 MSTORE PUSH1 0x3 PUSH1 0x20 SWAP1 DUP2 MSTORE PUSH1 0x40 DUP1 DUP4 KECCAK256 DUP1 SLOAD PUSH1 0x1 ADD SWAP1 SSTORE DUP6 DUP4 MSTORE PUSH1 0x2 SWAP1 SWAP2 MSTORE DUP2 KECCAK256 DUP1 SLOAD PUSH1 0x1 PUSH1 0x1 PUSH1 0xA0 SHL SUB NOT AND DUP4 OR SWAP1 SSTORE SWAP1 SWAP2 SWAP1 PUSH32 0xDDF252AD1BE2C89B69C2B068FC378DAA952BA7F163C4A11628F55A4DF523B3EF SWAP1 DUP1 LOG4 PUSH2 0x11A9 JUMPI DUP4 EXTCODESIZE PUSH2 0x1062 JUMPI JUMPDEST POP PUSH32 0x32BC66BE43DBCCB7487781D168EB7BDA224628A3B2C3388BDF69B532A3A1611 PUSH1 0x20 PUSH1 0x40 MLOAD DUP8 DUP2 MSTORE LOG1 PUSH1 0x40 MLOAD SWAP1 PUSH2 0xA27 DUP3 PUSH2 0x171C JUMP JUMPDEST PUSH1 0x1 DUP1 PUSH1 0xA0 SHL SUB DUP5 AND DUP3 MSTORE DUP3 PUSH1 0x20 DUP4 ADD MSTORE PUSH1 0x44 CALLDATALOAD PUSH1 0x40 DUP4 ADD MSTORE PUSH1 0x64 CALLDATALOAD PUSH1 0x60 DUP4 ADD MSTORE PUSH1 0x84 CALLDATALOAD PUSH1 0x80 DUP4 ADD MSTORE PUSH1 0xA4 CALLDATALOAD PUSH1 0xA0 DUP4 ADD MSTORE PUSH1 0xC4 CALLDATALOAD PUSH1 0xC0 DUP4 ADD MSTORE DUP7 PUSH1 0xE0 DUP4 ADD MSTORE DUP5 PUSH2 0x100 DUP4 ADD MSTORE TIMESTAMP PUSH2 0x120 DUP4 ADD MSTORE PUSH2 0x140 DUP3 ADD MSTORE DUP5 PUSH0 MSTORE PUSH1 0x8 PUSH1 0x20 MSTORE PUSH1 0x40 PUSH0 KECCAK256 SWAP1 PUSH1 0x1 DUP1 PUSH1 0xA0 SHL SUB DUP2 MLOAD AND PUSH1 0x1 PUSH1 0x1 PUSH1 0x60 SHL SUB PUSH1 0xA0 SHL DUP4 SLOAD AND OR DUP3 SSTORE PUSH1 0x20 DUP2 ADD MLOAD DUP1 MLOAD SWAP1 PUSH1 0x1 PUSH1 0x1 PUSH1 0x40 SHL SUB DUP3 GT PUSH2 0xD44 JUMPI DUP2 SWAP1 PUSH2 0xAC7 PUSH1 0x1 DUP7 ADD SLOAD PUSH2 0x17E3 JUMP JUMPDEST PUSH1 0x1F DUP2 GT PUSH2 0x1012 JUMPI JUMPDEST POP PUSH1 0x20 SWAP1 PUSH1 0x1F DUP4 GT PUSH1 0x1 EQ PUSH2 0xFA4 JUMPI PUSH0 SWAP3 PUSH2 0xF99 JUMPI JUMPDEST POP POP DUP2 PUSH1 0x1 SHL SWAP2 PUSH0 NOT SWAP1 PUSH1 0x3 SHL SHR NOT AND OR PUSH1 0x1 DUP4 ADD SSTORE JUMPDEST PUSH1 0x40 DUP2 ADD MLOAD PUSH1 0x2 DUP4 ADD SSTORE PUSH1 0x60 DUP2 ADD MLOAD PUSH1 0x3 DUP4 ADD SSTORE PUSH1 0x80 DUP2 ADD MLOAD PUSH1 0x4 DUP4 ADD SSTORE PUSH1 0xA0 DUP2 ADD MLOAD PUSH1 0x5 DUP4 ADD SSTORE PUSH1 0xC0 DUP2 ADD MLOAD PUSH1 0x6 DUP4 ADD SSTORE PUSH1 0xE0 DUP2 ADD MLOAD DUP1 MLOAD SWAP1 PUSH1 0x1 PUSH1 0x1 PUSH1 0x40 SHL SUB DUP3 GT PUSH2 0xD44 JUMPI DUP2 SWAP1 PUSH2 0xB54 PUSH1 0x7 DUP7 ADD SLOAD PUSH2 0x17E3 JUMP JUMPDEST PUSH1 0x1F DUP2 GT PUSH2 0xF49 JUMPI JUMPDEST POP PUSH1 0x20 SWAP1 PUSH1 0x1F DUP4 GT PUSH1 0x1 EQ PUSH2 0xEDB JUMPI PUSH0 SWAP3 PUSH2 0xED0 JUMPI JUMPDEST POP POP DUP2 PUSH1 0x1 SHL SWAP2 PUSH0 NOT SWAP1 PUSH1 0x3 SHL SHR NOT AND OR PUSH1 0x7 DUP4 ADD SSTORE JUMPDEST PUSH2 0x100 DUP2 ADD MLOAD DUP1 MLOAD SWAP1 PUSH1 0x1 PUSH1 0x1 PUSH1 0x40 SHL SUB DUP3 GT PUSH2 0xD44 JUMPI PUSH2 0xBAE PUSH1 0x8 DUP6 ADD SLOAD PUSH2 0x17E3 JUMP JUMPDEST PUSH1 0x1F DUP2 GT PUSH2 0xE8C JUMPI JUMPDEST POP PUSH1 0x20 SWAP1 PUSH1 0x1F DUP4 GT PUSH1 0x1 EQ PUSH2 0xE1C JUMPI PUSH2 0x140 SWAP4 SWAP3 SWAP2 PUSH0 SWAP2 DUP4 PUSH2 0xE11 JUMPI JUMPDEST POP POP DUP2 PUSH1 0x1 SHL SWAP2 PUSH0 NOT SWAP1 PUSH1 0x3 SHL SHR NOT AND OR PUSH1 0x8 DUP5 ADD SSTORE JUMPDEST PUSH2 0x120 DUP2 ADD MLOAD PUSH1 0x9 DUP5 ADD SSTORE ADD MLOAD DUP1 MLOAD SWAP1 PUSH1 0x1 PUSH1 0x1 PUSH1 0x40 SHL SUB DUP3 GT PUSH2 0xD44 JUMPI PUSH2 0xC16 PUSH1 0xA DUP5 ADD SLOAD PUSH2 0x17E3 JUMP JUMPDEST PUSH1 0x1F DUP2 GT PUSH2 0xDCD JUMPI JUMPDEST POP PUSH1 0x20 SWAP1 PUSH1 0x1F DUP4 GT PUSH1 0x1 EQ PUSH2 0xD63 JUMPI PUSH1 0xA SWAP3 SWAP2 PUSH0 SWAP2 DUP4 PUSH2 0xD58 JUMPI JUMPDEST POP POP DUP2 PUSH1 0x1 SHL SWAP2 PUSH0 NOT SWAP1 PUSH1 0x3 SHL SHR NOT AND OR SWAP2 ADD SSTORE JUMPDEST PUSH1 0x1 DUP1 PUSH1 0xA0 SHL SUB DUP3 AND PUSH0 MSTORE PUSH1 0x9 PUSH1 0x20 MSTORE PUSH1 0x40 PUSH0 KECCAK256 SWAP5 DUP6 SLOAD SWAP2 PUSH9 0x10000000000000000 DUP4 LT ISZERO PUSH2 0xD44 JUMPI PUSH1 0x1 DUP4 ADD DUP1 DUP9 SSTORE DUP4 LT ISZERO PUSH2 0xD30 JUMPI PUSH2 0xD25 DUP7 SWAP5 PUSH2 0xD0C PUSH2 0xCF7 SWAP5 DUP8 PUSH32 0xDF4668E45069243CD8820873620FE23651E4E2E711D6AAC3ED36666E7DD19D58 SWAP8 PUSH1 0x20 SWAP13 PUSH0 MSTORE DUP13 PUSH0 KECCAK256 ADD SSTORE DUP8 PUSH2 0xCD8 DUP13 DUP12 DUP2 PUSH1 0x40 MLOAD SWAP4 DUP3 DUP6 DUP1 SWAP5 MLOAD SWAP4 DUP5 SWAP3 ADD PUSH2 0x1675 JUMP JUMPDEST DUP2 ADD PUSH1 0xA DUP2 MSTORE SUB ADD SWAP1 KECCAK256 SSTORE PUSH1 0x40 MLOAD SWAP6 DUP7 SWAP6 PUSH1 0x80 DUP8 MSTORE PUSH1 0x80 DUP8 ADD SWAP1 PUSH2 0x1696 JUMP JUMPDEST SWAP1 PUSH1 0x44 CALLDATALOAD DUP13 DUP8 ADD MSTORE DUP6 DUP3 SUB PUSH1 0x40 DUP8 ADD MSTORE PUSH2 0x1696 JUMP JUMPDEST DUP4 DUP2 SUB PUSH1 0x60 DUP6 ADD MSTORE PUSH1 0x1 PUSH1 0x1 PUSH1 0xA0 SHL SUB SWAP1 SWAP2 AND SWAP7 PUSH2 0x1696 JUMP JUMPDEST SUB SWAP1 LOG3 PUSH1 0x40 MLOAD SWAP1 DUP2 MSTORE RETURN JUMPDEST PUSH4 0x4E487B71 PUSH1 0xE0 SHL PUSH0 MSTORE PUSH1 0x32 PUSH1 0x4 MSTORE PUSH1 0x24 PUSH0 REVERT JUMPDEST PUSH4 0x4E487B71 PUSH1 0xE0 SHL PUSH0 MSTORE PUSH1 0x41 PUSH1 0x4 MSTORE PUSH1 0x24 PUSH0 REVERT JUMPDEST ADD MLOAD SWAP1 POP DUP10 DUP1 PUSH2 0xC3A JUMP JUMPDEST SWAP1 PUSH1 0x1F NOT DUP4 AND SWAP2 PUSH1 0xA DUP6 ADD PUSH0 MSTORE PUSH1 0x20 PUSH0 KECCAK256 SWAP3 PUSH0 JUMPDEST DUP2 DUP2 LT PUSH2 0xDB5 JUMPI POP SWAP2 PUSH1 0x1 SWAP4 SWAP2 DUP6 PUSH1 0xA SWAP7 SWAP5 LT PUSH2 0xD9D JUMPI JUMPDEST POP POP POP DUP2 SHL ADD SWAP2 ADD SSTORE PUSH2 0xC4F JUMP JUMPDEST ADD MLOAD PUSH0 NOT PUSH1 0xF8 DUP5 PUSH1 0x3 SHL AND SHR NOT AND SWAP1 SSTORE DUP10 DUP1 DUP1 PUSH2 0xD8F JUMP JUMPDEST SWAP3 SWAP4 PUSH1 0x20 PUSH1 0x1 DUP2 SWAP3 DUP8 DUP7 ADD MLOAD DUP2 SSTORE ADD SWAP6 ADD SWAP4 ADD PUSH2 0xD77 JUMP JUMPDEST PUSH1 0xA DUP5 ADD PUSH0 MSTORE PUSH1 0x20 PUSH0 KECCAK256 PUSH1 0x1F DUP5 ADD PUSH1 0x5 SHR DUP2 ADD PUSH1 0x20 DUP6 LT PUSH2 0xE0A JUMPI JUMPDEST PUSH1 0x1F DUP4 ADD PUSH1 0x5 SHR DUP3 ADD DUP2 LT PUSH2 0xDFF JUMPI POP POP PUSH2 0xC1F JUMP JUMPDEST PUSH0 DUP2 SSTORE PUSH1 0x1 ADD PUSH2 0xDE9 JUMP JUMPDEST POP DUP1 PUSH2 0xDE9 JUMP JUMPDEST ADD MLOAD SWAP1 POP DUP11 DUP1 PUSH2 0xBD4 JUMP JUMPDEST SWAP1 PUSH1 0x8 DUP6 ADD PUSH0 MSTORE PUSH1 0x20 PUSH0 KECCAK256 SWAP2 PUSH0 JUMPDEST PUSH1 0x1F NOT DUP6 AND DUP2 LT PUSH2 0xE74 JUMPI POP SWAP2 DUP4 SWAP2 PUSH1 0x1 SWAP4 PUSH2 0x140 SWAP7 SWAP6 PUSH1 0x1F NOT DUP2 AND LT PUSH2 0xE5C JUMPI JUMPDEST POP POP POP DUP2 SHL ADD PUSH1 0x8 DUP5 ADD SSTORE PUSH2 0xBEB JUMP JUMPDEST ADD MLOAD PUSH0 NOT PUSH1 0xF8 DUP5 PUSH1 0x3 SHL AND SHR NOT AND SWAP1 SSTORE DUP11 DUP1 DUP1 PUSH2 0xE4C JUMP JUMPDEST SWAP2 SWAP3 PUSH1 0x20 PUSH1 0x1 DUP2 SWAP3 DUP7 DUP6 ADD MLOAD DUP2 SSTORE ADD SWAP5 ADD SWAP3 ADD PUSH2 0xE2A JUMP JUMPDEST PUSH1 0x8 DUP6 ADD PUSH0 MSTORE PUSH1 0x20 PUSH0 KECCAK256 PUSH1 0x1F DUP5 ADD PUSH1 0x5 SHR DUP2 ADD PUSH1 0x20 DUP6 LT PUSH2 0xEC9 JUMPI JUMPDEST PUSH1 0x1F DUP4 ADD PUSH1 0x5 SHR DUP3 ADD DUP2 LT PUSH2 0xEBE JUMPI POP POP PUSH2 0xBB7 JUMP JUMPDEST PUSH0 DUP2 SSTORE PUSH1 0x1 ADD PUSH2 0xEA8 JUMP JUMPDEST POP DUP1 PUSH2 0xEA8 JUMP JUMPDEST ADD MLOAD SWAP1 POP DUP10 DUP1 PUSH2 0xB73 JUMP JUMPDEST SWAP3 POP PUSH1 0x7 DUP6 ADD PUSH0 MSTORE PUSH1 0x20 PUSH0 KECCAK256 SWAP1 PUSH0 SWAP4 JUMPDEST PUSH1 0x1F NOT DUP5 AND DUP6 LT PUSH2 0xF2E JUMPI PUSH1 0x1 SWAP5 POP DUP4 PUSH1 0x1F NOT DUP2 AND LT PUSH2 0xF16 JUMPI JUMPDEST POP POP POP DUP2 SHL ADD PUSH1 0x7 DUP4 ADD SSTORE PUSH2 0xB8A JUMP JUMPDEST ADD MLOAD PUSH0 NOT PUSH1 0xF8 DUP5 PUSH1 0x3 SHL AND SHR NOT AND SWAP1 SSTORE DUP10 DUP1 DUP1 PUSH2 0xF06 JUMP JUMPDEST DUP2 DUP2 ADD MLOAD DUP4 SSTORE PUSH1 0x20 SWAP5 DUP6 ADD SWAP5 PUSH1 0x1 SWAP1 SWAP4 ADD SWAP3 SWAP1 SWAP2 ADD SWAP1 PUSH2 0xEEB JUMP JUMPDEST SWAP1 SWAP2 POP PUSH1 0x7 DUP6 ADD PUSH0 MSTORE PUSH1 0x20 PUSH0 KECCAK256 PUSH1 0x1F DUP5 ADD PUSH1 0x5 SHR DUP2 ADD PUSH1 0x20 DUP6 LT PUSH2 0xF92 JUMPI JUMPDEST SWAP1 DUP5 SWAP4 SWAP3 SWAP2 JUMPDEST PUSH1 0x1F DUP4 ADD PUSH1 0x5 SHR DUP3 ADD DUP2 LT PUSH2 0xF84 JUMPI POP POP PUSH2 0xB5D JUMP JUMPDEST PUSH0 DUP2 SSTORE DUP6 SWAP5 POP PUSH1 0x1 ADD PUSH2 0xF6E JUMP JUMPDEST POP DUP1 PUSH2 0xF68 JUMP JUMPDEST ADD MLOAD SWAP1 POP DUP10 DUP1 PUSH2 0xAE6 JUMP JUMPDEST SWAP3 POP PUSH1 0x1 DUP6 ADD PUSH0 MSTORE PUSH1 0x20 PUSH0 KECCAK256 SWAP1 PUSH0 SWAP4 JUMPDEST PUSH1 0x1F NOT DUP5 AND DUP6 LT PUSH2 0xFF7 JUMPI PUSH1 0x1 SWAP5 POP DUP4 PUSH1 0x1F NOT DUP2 AND LT PUSH2 0xFDF JUMPI JUMPDEST POP POP POP DUP2 SHL ADD PUSH1 0x1 DUP4 ADD SSTORE PUSH2 0xAFD JUMP JUMPDEST ADD MLOAD PUSH0 NOT PUSH1 0xF8 DUP5 PUSH1 0x3 SHL AND SHR NOT AND SWAP1 SSTORE DUP10 DUP1 DUP1 PUSH2 0xFCF JUMP JUMPDEST DUP2 DUP2 ADD MLOAD DUP4 SSTORE PUSH1 0x20 SWAP5 DUP6 ADD SWAP5 PUSH1 0x1 SWAP1 SWAP4 ADD SWAP3 SWAP1 SWAP2 ADD SWAP1 PUSH2 0xFB4 JUMP JUMPDEST SWAP1 SWAP2 POP PUSH1 0x1 DUP6 ADD PUSH0 MSTORE PUSH1 0x20 PUSH0 KECCAK256 PUSH1 0x1F DUP5 ADD PUSH1 0x5 SHR DUP2 ADD PUSH1 0x20 DUP6 LT PUSH2 0x105B JUMPI JUMPDEST SWAP1 DUP5 SWAP4 SWAP3 SWAP2 JUMPDEST PUSH1 0x1F DUP4 ADD PUSH1 0x5 SHR DUP3 ADD DUP2 LT PUSH2 0x104D JUMPI POP POP PUSH2 0xAD0 JUMP JUMPDEST PUSH0 DUP2 SSTORE DUP6 SWAP5 POP PUSH1 0x1 ADD PUSH2 0x1037 JUMP JUMPDEST POP DUP1 PUSH2 0x1031 JUMP JUMPDEST PUSH1 0x20 PUSH2 0x10A1 SWAP2 PUSH1 0x40 SWAP9 SWAP8 SWAP7 SWAP6 SWAP9 MLOAD DUP1 SWAP4 DUP2 SWAP3 PUSH4 0xA85BD01 PUSH1 0xE1 SHL DUP4 MSTORE CALLER PUSH1 0x4 DUP5 ADD MSTORE PUSH0 PUSH1 0x24 DUP5 ADD MSTORE DUP10 PUSH1 0x44 DUP5 ADD MSTORE PUSH1 0x80 PUSH1 0x64 DUP5 ADD MSTORE PUSH1 0x84 DUP4 ADD SWAP1 PUSH2 0x1696 JUMP JUMPDEST SUB DUP2 PUSH0 PUSH1 0x1 PUSH1 0x1 PUSH1 0xA0 SHL SUB DUP13 AND GAS CALL PUSH0 SWAP2 DUP2 PUSH2 0x1164 JUMPI JUMPDEST POP PUSH2 0x111F JUMPI DUP7 RETURNDATASIZE ISZERO PUSH2 0x1117 JUMPI RETURNDATASIZE SWAP1 PUSH2 0x10CF DUP3 PUSH2 0x1774 JUMP JUMPDEST SWAP2 PUSH2 0x10DD PUSH1 0x40 MLOAD SWAP4 DUP5 PUSH2 0x1753 JUMP JUMPDEST DUP3 MSTORE RETURNDATASIZE PUSH0 PUSH1 0x20 DUP5 ADD RETURNDATACOPY JUMPDEST DUP2 MLOAD SWAP2 DUP3 PUSH2 0x1110 JUMPI PUSH1 0x40 MLOAD PUSH4 0x32505749 PUSH1 0xE1 SHL DUP2 MSTORE PUSH1 0x1 PUSH1 0x1 PUSH1 0xA0 SHL SUB DUP4 AND PUSH1 0x4 DUP3 ADD MSTORE PUSH1 0x24 SWAP1 REVERT JUMPDEST PUSH1 0x20 SWAP2 POP ADD REVERT JUMPDEST PUSH1 0x60 SWAP1 PUSH2 0x10E7 JUMP JUMPDEST SWAP5 SWAP6 SWAP4 SWAP5 SWAP3 SWAP4 SWAP3 PUSH1 0x1 PUSH1 0x1 PUSH1 0xE0 SHL SUB NOT AND PUSH4 0x757A42FF PUSH1 0xE1 SHL ADD PUSH2 0x1143 JUMPI DUP7 PUSH2 0x9EF JUMP JUMPDEST PUSH1 0x40 MLOAD PUSH4 0x32505749 PUSH1 0xE1 SHL DUP2 MSTORE PUSH1 0x1 PUSH1 0x1 PUSH1 0xA0 SHL SUB DUP5 AND PUSH1 0x4 DUP3 ADD MSTORE PUSH1 0x24 SWAP1 REVERT JUMPDEST SWAP1 SWAP2 POP PUSH1 0x20 DUP2 RETURNDATASIZE PUSH1 0x20 GT PUSH2 0x11A1 JUMPI JUMPDEST DUP2 PUSH2 0x1180 PUSH1 0x20 SWAP4 DUP4 PUSH2 0x1753 JUMP JUMPDEST DUP2 ADD SUB SLT PUSH2 0x1C7 JUMPI MLOAD PUSH1 0x1 PUSH1 0x1 PUSH1 0xE0 SHL SUB NOT DUP2 AND DUP2 SUB PUSH2 0x1C7 JUMPI SWAP1 DUP9 PUSH2 0x10B8 JUMP JUMPDEST RETURNDATASIZE SWAP2 POP PUSH2 0x1173 JUMP JUMPDEST PUSH1 0x40 MLOAD PUSH4 0x39E35637 PUSH1 0xE1 SHL DUP2 MSTORE PUSH0 PUSH1 0x4 DUP3 ADD MSTORE PUSH1 0x24 SWAP1 REVERT JUMPDEST PUSH0 DUP3 DUP2 MSTORE PUSH1 0x4 PUSH1 0x20 MSTORE PUSH1 0x40 SWAP1 KECCAK256 DUP1 SLOAD PUSH1 0x1 PUSH1 0x1 PUSH1 0xA0 SHL SUB NOT AND SWAP1 SSTORE DUP1 PUSH0 MSTORE PUSH1 0x3 PUSH1 0x20 MSTORE PUSH1 0x40 PUSH0 KECCAK256 PUSH0 NOT DUP2 SLOAD ADD SWAP1 SSTORE PUSH2 0x982 JUMP JUMPDEST PUSH1 0x40 MLOAD PUSH4 0xB863D7A5 PUSH1 0xE0 SHL DUP2 MSTORE PUSH1 0x4 SWAP1 REVERT JUMPDEST PUSH1 0x40 MLOAD PUSH4 0x32505749 PUSH1 0xE1 SHL DUP2 MSTORE PUSH0 PUSH1 0x4 DUP3 ADD MSTORE PUSH1 0x24 SWAP1 REVERT JUMPDEST PUSH4 0x4E487B71 PUSH1 0xE0 SHL PUSH0 MSTORE PUSH1 0x11 PUSH1 0x4 MSTORE PUSH1 0x24 PUSH0 REVERT JUMPDEST PUSH1 0x40 DUP1 MLOAD PUSH4 0x506E9D7 PUSH1 0xE5 SHL DUP2 MSTORE PUSH1 0x4 DUP2 ADD SWAP2 SWAP1 SWAP2 MSTORE SWAP1 DUP2 SWAP1 PUSH2 0x1258 PUSH1 0x44 DUP4 ADD DUP8 PUSH2 0x1696 JUMP JUMPDEST SWAP1 PUSH1 0x24 DUP4 ADD MSTORE SUB SWAP1 REVERT JUMPDEST PUSH1 0x40 MLOAD PUSH4 0x89A822A3 PUSH1 0xE0 SHL DUP2 MSTORE PUSH1 0x44 DUP1 CALLDATALOAD PUSH1 0x4 DUP4 ADD MSTORE PUSH1 0x32 PUSH1 0x24 DUP4 ADD MSTORE SWAP1 REVERT JUMPDEST CALLVALUE PUSH2 0x1C7 JUMPI PUSH0 CALLDATASIZE PUSH1 0x3 NOT ADD SLT PUSH2 0x1C7 JUMPI PUSH2 0x129A PUSH2 0x1A98 JUMP JUMPDEST PUSH1 0x6 DUP1 SLOAD PUSH1 0x1 PUSH1 0x1 PUSH1 0xA0 SHL SUB NOT DUP2 AND SWAP1 SWAP2 SSTORE PUSH0 SWAP1 PUSH1 0x1 PUSH1 0x1 PUSH1 0xA0 SHL SUB AND PUSH32 0x8BE0079C531659141344CD1FD0A4F28419497F9722A3DAAFE3B4186F6B6457E0 DUP3 DUP1 LOG3 STOP JUMPDEST CALLVALUE PUSH2 0x1C7 JUMPI PUSH1 0x20 CALLDATASIZE PUSH1 0x3 NOT ADD SLT PUSH2 0x1C7 JUMPI PUSH1 0x1 PUSH1 0x1 PUSH1 0xA0 SHL SUB PUSH2 0x12FE PUSH2 0x16BB JUMP JUMPDEST AND DUP1 ISZERO PUSH2 0x131B JUMPI PUSH0 MSTORE PUSH1 0x3 PUSH1 0x20 MSTORE PUSH1 0x20 PUSH1 0x40 PUSH0 KECCAK256 SLOAD PUSH1 0x40 MLOAD SWAP1 DUP2 MSTORE RETURN JUMPDEST PUSH1 0x40 MLOAD PUSH4 0x22718AD9 PUSH1 0xE2 SHL DUP2 MSTORE PUSH0 PUSH1 0x4 DUP3 ADD MSTORE PUSH1 0x24 SWAP1 REVERT JUMPDEST CALLVALUE PUSH2 0x1C7 JUMPI PUSH1 0x20 CALLDATASIZE PUSH1 0x3 NOT ADD SLT PUSH2 0x1C7 JUMPI PUSH1 0x20 PUSH2 0x1351 PUSH1 0x4 CALLDATALOAD PUSH2 0x1A5E JUMP JUMPDEST PUSH1 0x40 MLOAD PUSH1 0x1 PUSH1 0x1 PUSH1 0xA0 SHL SUB SWAP1 SWAP2 AND DUP2 MSTORE RETURN JUMPDEST CALLVALUE PUSH2 0x1C7 JUMPI PUSH1 0x20 CALLDATASIZE PUSH1 0x3 NOT ADD SLT PUSH2 0x1C7 JUMPI PUSH1 0x4 CALLDATALOAD PUSH1 0x1 PUSH1 0x1 PUSH1 0x40 SHL SUB DUP2 GT PUSH2 0x1C7 JUMPI PUSH2 0x13AC PUSH1 0x20 PUSH2 0x1399 DUP2 SWAP4 CALLDATASIZE SWAP1 PUSH1 0x4 ADD PUSH2 0x17C5 JUMP JUMPDEST DUP2 PUSH1 0x40 MLOAD SWAP4 DUP3 DUP6 DUP1 SWAP5 MLOAD SWAP4 DUP5 SWAP3 ADD PUSH2 0x1675 JUMP JUMPDEST DUP2 ADD PUSH1 0xA DUP2 MSTORE SUB ADD SWAP1 KECCAK256 SLOAD PUSH1 0x40 MLOAD SWAP1 DUP2 MSTORE RETURN JUMPDEST CALLVALUE PUSH2 0x1C7 JUMPI PUSH2 0x47C PUSH2 0x13D0 CALLDATASIZE PUSH2 0x16E7 JUMP JUMPDEST SWAP1 PUSH1 0x40 MLOAD SWAP3 PUSH2 0x13DE DUP5 PUSH2 0x1738 JUMP JUMPDEST PUSH0 DUP5 MSTORE PUSH2 0x476 DUP4 DUP4 DUP4 PUSH2 0x18BD JUMP JUMPDEST CALLVALUE PUSH2 0x1C7 JUMPI PUSH2 0x47C PUSH2 0x13FD CALLDATASIZE PUSH2 0x16E7 JUMP JUMPDEST SWAP2 PUSH2 0x18BD JUMP JUMPDEST CALLVALUE PUSH2 0x1C7 JUMPI PUSH0 CALLDATASIZE PUSH1 0x3 NOT ADD SLT PUSH2 0x1C7 JUMPI PUSH1 0x7 SLOAD PUSH0 NOT DUP2 ADD SWAP1 DUP2 GT PUSH2 0x121E JUMPI PUSH1 0x20 SWAP1 PUSH1 0x40 MLOAD SWAP1 DUP2 MSTORE RETURN JUMPDEST CALLVALUE PUSH2 0x1C7 JUMPI PUSH1 0x40 CALLDATASIZE PUSH1 0x3 NOT ADD SLT PUSH2 0x1C7 JUMPI PUSH2 0x1445 PUSH2 0x16BB JUMP JUMPDEST PUSH1 0x24 CALLDATALOAD PUSH2 0x1451 DUP2 PUSH2 0x1A5E JUMP JUMPDEST CALLER ISZERO ISZERO DUP1 PUSH2 0x14FA JUMPI JUMPDEST DUP1 PUSH2 0x14D1 JUMPI JUMPDEST PUSH2 0x14B9 JUMPI PUSH1 0x1 PUSH1 0x1 PUSH1 0xA0 SHL SUB SWAP3 DUP4 AND SWAP3 DUP3 SWAP2 DUP5 SWAP2 AND PUSH32 0x8C5BE1E5EBEC7D5BD14F71427D1E84F3DD0314C0F7B2291E5B200AC8C7C3B925 PUSH0 DUP1 LOG4 PUSH0 SWAP1 DUP2 MSTORE PUSH1 0x4 PUSH1 0x20 MSTORE PUSH1 0x40 SWAP1 KECCAK256 DUP1 SLOAD PUSH1 0x1 PUSH1 0x1 PUSH1 0xA0 SHL SUB NOT AND SWAP1 SWAP2 OR SWAP1 SSTORE STOP JUMPDEST PUSH1 0x40 MLOAD PUSH4 0xA9FBF51F PUSH1 0xE0 SHL DUP2 MSTORE CALLER PUSH1 0x4 DUP3 ADD MSTORE PUSH1 0x24 SWAP1 REVERT JUMPDEST POP PUSH1 0x1 DUP1 PUSH1 0xA0 SHL SUB DUP2 AND PUSH0 MSTORE PUSH1 0x5 PUSH1 0x20 MSTORE PUSH1 0x40 PUSH0 KECCAK256 CALLER PUSH0 MSTORE PUSH1 0x20 MSTORE PUSH1 0xFF PUSH1 0x40 PUSH0 KECCAK256 SLOAD AND ISZERO PUSH2 0x1460 JUMP JUMPDEST POP PUSH1 0x1 PUSH1 0x1 PUSH1 0xA0 SHL SUB DUP2 AND CALLER EQ ISZERO PUSH2 0x145A JUMP JUMPDEST CALLVALUE PUSH2 0x1C7 JUMPI PUSH1 0x20 CALLDATASIZE PUSH1 0x3 NOT ADD SLT PUSH2 0x1C7 JUMPI PUSH1 0x4 CALLDATALOAD PUSH2 0x152A DUP2 PUSH2 0x1A5E JUMP JUMPDEST POP PUSH0 MSTORE PUSH1 0x4 PUSH1 0x20 MSTORE PUSH1 0x20 PUSH1 0x1 DUP1 PUSH1 0xA0 SHL SUB PUSH1 0x40 PUSH0 KECCAK256 SLOAD AND PUSH1 0x40 MLOAD SWAP1 DUP2 MSTORE RETURN JUMPDEST CALLVALUE PUSH2 0x1C7 JUMPI PUSH0 CALLDATASIZE PUSH1 0x3 NOT ADD SLT PUSH2 0x1C7 JUMPI PUSH1 0x40 MLOAD PUSH0 DUP1 SLOAD SWAP1 DUP3 PUSH2 0x156A DUP4 PUSH2 0x17E3 JUMP JUMPDEST SWAP2 DUP3 DUP3 MSTORE PUSH1 0x20 SWAP4 PUSH1 0x1 SWAP1 DUP6 PUSH1 0x1 DUP3 AND SWAP2 DUP3 PUSH0 EQ PUSH2 0x617 JUMPI POP POP PUSH1 0x1 EQ PUSH2 0x1597 JUMPI POP PUSH2 0x5A8 SWAP3 POP SUB DUP4 PUSH2 0x1753 JUMP JUMPDEST PUSH0 DUP1 DUP1 MSTORE DUP6 SWAP3 POP SWAP1 PUSH32 0x290DECD9548B62A8D60345A988386FC84BA6BC95484008F6362F93160EF3E563 JUMPDEST DUP6 DUP4 LT PUSH2 0x15D8 JUMPI POP POP PUSH2 0x5A8 SWAP4 POP DUP3 ADD ADD DUP6 PUSH2 0x59B JUMP JUMPDEST DUP1 SLOAD DUP4 DUP10 ADD DUP6 ADD MSTORE DUP8 SWAP5 POP DUP7 SWAP4 SWAP1 SWAP3 ADD SWAP2 DUP2 ADD PUSH2 0x15C1 JUMP JUMPDEST CALLVALUE PUSH2 0x1C7 JUMPI PUSH1 0x20 CALLDATASIZE PUSH1 0x3 NOT ADD SLT PUSH2 0x1C7 JUMPI PUSH1 0x4 CALLDATALOAD SWAP1 PUSH4 0xFFFFFFFF PUSH1 0xE0 SHL DUP3 AND DUP1 SWAP3 SUB PUSH2 0x1C7 JUMPI PUSH1 0x20 SWAP2 PUSH4 0x5A2D1E07 PUSH1 0xE1 SHL DUP2 EQ SWAP1 DUP2 ISZERO PUSH2 0x1632 JUMPI JUMPDEST POP ISZERO ISZERO DUP2 MSTORE RETURN JUMPDEST PUSH4 0x80AC58CD PUSH1 0xE0 SHL DUP2 EQ SWAP2 POP DUP2 ISZERO PUSH2 0x1664 JUMPI JUMPDEST DUP2 ISZERO PUSH2 0x1653 JUMPI JUMPDEST POP DUP4 PUSH2 0x162B JUMP JUMPDEST PUSH4 0x1FFC9A7 PUSH1 0xE0 SHL EQ SWAP1 POP DUP4 PUSH2 0x164C JUMP JUMPDEST PUSH4 0x5B5E139F PUSH1 0xE0 SHL DUP2 EQ SWAP2 POP PUSH2 0x1645 JUMP JUMPDEST PUSH0 JUMPDEST DUP4 DUP2 LT PUSH2 0x1686 JUMPI POP POP PUSH0 SWAP2 ADD MSTORE JUMP JUMPDEST DUP2 DUP2 ADD MLOAD DUP4 DUP3 ADD MSTORE PUSH1 0x20 ADD PUSH2 0x1677 JUMP JUMPDEST SWAP1 PUSH1 0x20 SWAP2 PUSH2 0x16AF DUP2 MLOAD DUP1 SWAP3 DUP2 DUP6 MSTORE DUP6 DUP1 DUP7 ADD SWAP2 ADD PUSH2 0x1675 JUMP JUMPDEST PUSH1 0x1F ADD PUSH1 0x1F NOT AND ADD ADD SWAP1 JUMP JUMPDEST PUSH1 0x4 CALLDATALOAD SWAP1 PUSH1 0x1 PUSH1 0x1 PUSH1 0xA0 SHL SUB DUP3 AND DUP3 SUB PUSH2 0x1C7 JUMPI JUMP JUMPDEST PUSH1 0x24 CALLDATALOAD SWAP1 PUSH1 0x1 PUSH1 0x1 PUSH1 0xA0 SHL SUB DUP3 AND DUP3 SUB PUSH2 0x1C7 JUMPI JUMP JUMPDEST PUSH1 0x60 SWAP1 PUSH1 0x3 NOT ADD SLT PUSH2 0x1C7 JUMPI PUSH1 0x1 PUSH1 0x1 PUSH1 0xA0 SHL SUB SWAP1 PUSH1 0x4 CALLDATALOAD DUP3 DUP2 AND DUP2 SUB PUSH2 0x1C7 JUMPI SWAP2 PUSH1 0x24 CALLDATALOAD SWAP1 DUP2 AND DUP2 SUB PUSH2 0x1C7 JUMPI SWAP1 PUSH1 0x44 CALLDATALOAD SWAP1 JUMP JUMPDEST PUSH2 0x160 DUP2 ADD SWAP1 DUP2 LT PUSH1 0x1 PUSH1 0x1 PUSH1 0x40 SHL SUB DUP3 GT OR PUSH2 0xD44 JUMPI PUSH1 0x40 MSTORE JUMP JUMPDEST PUSH1 0x20 DUP2 ADD SWAP1 DUP2 LT PUSH1 0x1 PUSH1 0x1 PUSH1 0x40 SHL SUB DUP3 GT OR PUSH2 0xD44 JUMPI PUSH1 0x40 MSTORE JUMP JUMPDEST SWAP1 PUSH1 0x1F DUP1 NOT SWAP2 ADD AND DUP2 ADD SWAP1 DUP2 LT PUSH1 0x1 PUSH1 0x1 PUSH1 0x40 SHL SUB DUP3 GT OR PUSH2 0xD44 JUMPI PUSH1 0x40 MSTORE JUMP JUMPDEST PUSH1 0x1 PUSH1 0x1 PUSH1 0x40 SHL SUB DUP2 GT PUSH2 0xD44 JUMPI PUSH1 0x1F ADD PUSH1 0x1F NOT AND PUSH1 0x20 ADD SWAP1 JUMP JUMPDEST SWAP3 SWAP2 SWAP3 PUSH2 0x179B DUP3 PUSH2 0x1774 JUMP JUMPDEST SWAP2 PUSH2 0x17A9 PUSH1 0x40 MLOAD SWAP4 DUP5 PUSH2 0x1753 JUMP JUMPDEST DUP3 SWAP5 DUP2 DUP5 MSTORE DUP2 DUP4 ADD GT PUSH2 0x1C7 JUMPI DUP3 DUP2 PUSH1 0x20 SWAP4 DUP5 PUSH0 SWAP7 ADD CALLDATACOPY ADD ADD MSTORE JUMP JUMPDEST SWAP1 DUP1 PUSH1 0x1F DUP4 ADD SLT ISZERO PUSH2 0x1C7 JUMPI DUP2 PUSH1 0x20 PUSH2 0x17E0 SWAP4 CALLDATALOAD SWAP2 ADD PUSH2 0x178F JUMP JUMPDEST SWAP1 JUMP JUMPDEST SWAP1 PUSH1 0x1 DUP3 DUP2 SHR SWAP3 AND DUP1 ISZERO PUSH2 0x1811 JUMPI JUMPDEST PUSH1 0x20 DUP4 LT EQ PUSH2 0x17FD JUMPI JUMP JUMPDEST PUSH4 0x4E487B71 PUSH1 0xE0 SHL PUSH0 MSTORE PUSH1 0x22 PUSH1 0x4 MSTORE PUSH1 0x24 PUSH0 REVERT JUMPDEST SWAP2 PUSH1 0x7F AND SWAP2 PUSH2 0x17F2 JUMP JUMPDEST SWAP1 PUSH1 0x40 MLOAD SWAP2 DUP3 PUSH0 DUP3 SLOAD PUSH2 0x182D DUP2 PUSH2 0x17E3 JUMP JUMPDEST SWAP1 DUP2 DUP5 MSTORE PUSH1 0x20 SWAP5 PUSH1 0x1 SWAP2 PUSH1 0x1 DUP2 AND SWAP1 DUP2 PUSH0 EQ PUSH2 0x189B JUMPI POP PUSH1 0x1 EQ PUSH2 0x185D JUMPI JUMPDEST POP POP POP PUSH2 0x185B SWAP3 POP SUB DUP4 PUSH2 0x1753 JUMP JUMPDEST JUMP JUMPDEST PUSH0 SWAP1 DUP2 MSTORE DUP6 DUP2 KECCAK256 SWAP6 SWAP4 POP SWAP2 SWAP1 JUMPDEST DUP2 DUP4 LT PUSH2 0x1883 JUMPI POP POP PUSH2 0x185B SWAP4 POP DUP3 ADD ADD PUSH0 DUP1 DUP1 PUSH2 0x184C JUMP JUMPDEST DUP6 SLOAD DUP9 DUP5 ADD DUP6 ADD MSTORE SWAP5 DUP6 ADD SWAP5 DUP8 SWAP5 POP SWAP2 DUP4 ADD SWAP2 PUSH2 0x186A JUMP JUMPDEST SWAP3 POP POP POP PUSH2 0x185B SWAP5 SWAP3 POP PUSH1 0xFF NOT AND DUP3 DUP5 ADD MSTORE ISZERO ISZERO PUSH1 0x5 SHL DUP3 ADD ADD PUSH0 DUP1 DUP1 PUSH2 0x184C JUMP JUMPDEST PUSH1 0x1 PUSH1 0x1 PUSH1 0xA0 SHL SUB SWAP2 DUP3 AND SWAP3 SWAP1 SWAP2 DUP4 ISZERO PUSH2 0x1206 JUMPI DUP2 PUSH0 MSTORE PUSH1 0x20 SWAP3 PUSH1 0x2 DUP5 MSTORE PUSH1 0x40 SWAP5 DUP3 DUP7 PUSH0 KECCAK256 SLOAD AND PUSH2 0x1A4D JUMPI DUP4 SWAP1 DUP2 PUSH0 MSTORE PUSH1 0x2 DUP7 MSTORE DUP4 DUP8 PUSH0 KECCAK256 SLOAD AND SWAP6 CALLER ISZERO ISZERO DUP1 PUSH2 0x19BB JUMPI JUMPDEST POP PUSH1 0x2 SWAP1 DUP8 PUSH2 0x198A JUMPI JUMPDEST DUP3 PUSH0 MSTORE PUSH1 0x3 DUP2 MSTORE DUP9 PUSH0 KECCAK256 PUSH1 0x1 DUP2 SLOAD ADD SWAP1 SSTORE DUP4 PUSH0 MSTORE MSTORE DUP7 PUSH0 KECCAK256 DUP2 PUSH1 0x1 PUSH1 0x1 PUSH1 0x60 SHL SUB PUSH1 0xA0 SHL DUP3 SLOAD AND OR SWAP1 SSTORE DUP6 PUSH32 0xDDF252AD1BE2C89B69C2B068FC378DAA952BA7F163C4A11628F55A4DF523B3EF PUSH0 DUP1 LOG4 AND SWAP3 DUP4 DUP4 SUB PUSH2 0x1969 JUMPI POP POP POP POP JUMP JUMPDEST PUSH1 0x64 SWAP5 POP MLOAD SWAP3 PUSH4 0x64283D7B PUSH1 0xE0 SHL DUP5 MSTORE PUSH1 0x4 DUP5 ADD MSTORE PUSH1 0x24 DUP4 ADD MSTORE PUSH1 0x44 DUP3 ADD MSTORE REVERT JUMPDEST PUSH0 DUP5 DUP2 MSTORE PUSH1 0x4 PUSH1 0x20 MSTORE PUSH1 0x40 DUP2 KECCAK256 DUP1 SLOAD PUSH1 0x1 PUSH1 0x1 PUSH1 0xA0 SHL SUB NOT AND SWAP1 SSTORE DUP9 DUP2 MSTORE PUSH1 0x3 DUP3 MSTORE DUP10 SWAP1 KECCAK256 DUP1 SLOAD PUSH0 NOT ADD SWAP1 SSTORE PUSH2 0x190B JUMP JUMPDEST SWAP2 SWAP3 POP SWAP1 DUP1 PUSH2 0x1A0C JUMPI JUMPDEST ISZERO PUSH2 0x19D3 JUMPI SWAP1 DUP5 SWAP2 PUSH0 PUSH2 0x1901 JUMP JUMPDEST DUP7 DUP6 DUP8 PUSH2 0x19F0 JUMPI PUSH1 0x24 SWAP2 MLOAD SWAP1 PUSH4 0x7E273289 PUSH1 0xE0 SHL DUP3 MSTORE PUSH1 0x4 DUP3 ADD MSTORE REVERT JUMPDEST PUSH1 0x44 SWAP2 MLOAD SWAP1 PUSH4 0x177E802F PUSH1 0xE0 SHL DUP3 MSTORE CALLER PUSH1 0x4 DUP4 ADD MSTORE PUSH1 0x24 DUP3 ADD MSTORE REVERT JUMPDEST POP CALLER DUP7 EQ DUP1 ISZERO PUSH2 0x1A31 JUMPI JUMPDEST DUP1 PUSH2 0x19C5 JUMPI POP DUP5 PUSH0 MSTORE PUSH1 0x4 DUP2 MSTORE CALLER DUP5 DUP9 PUSH0 KECCAK256 SLOAD AND EQ PUSH2 0x19C5 JUMP JUMPDEST POP DUP6 PUSH0 MSTORE PUSH1 0x5 DUP2 MSTORE DUP7 PUSH0 KECCAK256 CALLER PUSH0 MSTORE DUP2 MSTORE PUSH1 0xFF DUP8 PUSH0 KECCAK256 SLOAD AND PUSH2 0x1A17 JUMP JUMPDEST DUP6 MLOAD PUSH4 0xB863D7A5 PUSH1 0xE0 SHL DUP2 MSTORE PUSH1 0x4 SWAP1 REVERT JUMPDEST PUSH0 DUP2 DUP2 MSTORE PUSH1 0x2 PUSH1 0x20 MSTORE PUSH1 0x40 SWAP1 KECCAK256 SLOAD PUSH1 0x1 PUSH1 0x1 PUSH1 0xA0 SHL SUB AND SWAP1 DUP2 ISZERO PUSH2 0x1A80 JUMPI POP SWAP1 JUMP JUMPDEST PUSH1 0x24 SWAP1 PUSH1 0x40 MLOAD SWAP1 PUSH4 0x7E273289 PUSH1 0xE0 SHL DUP3 MSTORE PUSH1 0x4 DUP3 ADD MSTORE REVERT JUMPDEST PUSH1 0x6 SLOAD PUSH1 0x1 PUSH1 0x1 PUSH1 0xA0 SHL SUB AND CALLER SUB PUSH2 0x1AAC JUMPI JUMP JUMPDEST PUSH1 0x40 MLOAD PUSH4 0x118CDAA7 PUSH1 0xE0 SHL DUP2 MSTORE CALLER PUSH1 0x4 DUP3 ADD MSTORE PUSH1 0x24 SWAP1 REVERT JUMPDEST SWAP3 SWAP4 SWAP1 SWAP2 SWAP4 DUP5 EXTCODESIZE PUSH2 0x1AD7 JUMPI JUMPDEST POP POP POP POP POP JUMP JUMPDEST PUSH1 0x40 MLOAD PUSH4 0xA85BD01 PUSH1 0xE1 SHL DUP1 DUP3 MSTORE PUSH1 0x1 PUSH1 0x1 PUSH1 0xA0 SHL SUB SWAP6 DUP7 AND PUSH1 0x4 DUP4 ADD MSTORE SWAP4 DUP6 AND PUSH1 0x24 DUP3 ADD MSTORE PUSH1 0x44 DUP2 ADD SWAP2 SWAP1 SWAP2 MSTORE PUSH1 0x80 PUSH1 0x64 DUP3 ADD MSTORE PUSH1 0x20 SWAP6 SWAP5 SWAP1 SWAP4 AND SWAP4 SWAP3 SWAP1 DUP6 SWAP1 DUP3 SWAP1 DUP2 SWAP1 PUSH2 0x1B2A SWAP1 PUSH1 0x84 DUP4 ADD SWAP1 PUSH2 0x1696 JUMP JUMPDEST SUB DUP2 PUSH0 DUP9 GAS CALL PUSH0 SWAP2 DUP2 PUSH2 0x1BCE JUMPI JUMPDEST POP PUSH2 0x1B97 JUMPI POP POP POP RETURNDATASIZE PUSH0 EQ PUSH2 0x1B8F JUMPI RETURNDATASIZE SWAP2 PUSH2 0x1B52 DUP4 PUSH2 0x1774 JUMP JUMPDEST SWAP3 PUSH2 0x1B60 PUSH1 0x40 MLOAD SWAP5 DUP6 PUSH2 0x1753 JUMP JUMPDEST DUP4 MSTORE RETURNDATASIZE PUSH0 DUP3 DUP6 ADD RETURNDATACOPY JUMPDEST DUP3 MLOAD SWAP3 DUP4 PUSH2 0x1B8A JUMPI PUSH1 0x40 MLOAD PUSH4 0x32505749 PUSH1 0xE1 SHL DUP2 MSTORE PUSH1 0x4 DUP2 ADD DUP5 SWAP1 MSTORE PUSH1 0x24 SWAP1 REVERT JUMPDEST ADD SWAP1 POP REVERT JUMPDEST PUSH1 0x60 SWAP2 PUSH2 0x1B69 JUMP JUMPDEST SWAP2 SWAP4 POP PUSH1 0x1 PUSH1 0x1 PUSH1 0xE0 SHL SUB NOT SWAP1 SWAP2 AND SUB PUSH2 0x1BB6 JUMPI POP PUSH0 DUP1 DUP1 DUP1 DUP1 PUSH2 0x1AD0 JUMP JUMPDEST PUSH1 0x24 SWAP1 PUSH1 0x40 MLOAD SWAP1 PUSH4 0x32505749 PUSH1 0xE1 SHL DUP3 MSTORE PUSH1 0x4 DUP3 ADD MSTORE REVERT JUMPDEST SWAP1 SWAP2 POP DUP6 DUP2 DUP2 RETURNDATASIZE DUP4 GT PUSH2 0x1C07 JUMPI JUMPDEST PUSH2 0x1BE6 DUP2 DUP4 PUSH2 0x1753 JUMP JUMPDEST DUP2 ADD SUB SLT PUSH2 0x1C7 JUMPI MLOAD PUSH1 0x1 PUSH1 0x1 PUSH1 0xE0 SHL SUB NOT DUP2 AND DUP2 SUB PUSH2 0x1C7 JUMPI SWAP1 PUSH0 PUSH2 0x1B38 JUMP JUMPDEST POP RETURNDATASIZE PUSH2 0x1BDC JUMP INVALID LOG2 PUSH5 0x6970667358 0x22 SLT KECCAK256 0xF6 PUSH2 0xA24D MSIZE 0xC6 0xDF 0x21 DUP14 0xAD 0xCC 0xB8 0xC7 PUSH27 0xD48293F669D10855D6E7D8EAD1631268611664736F6C6343000818 STOP CALLER "},"methodIdentifiers":{"approve(address,uint256)":"095ea7b3","balanceOf(address)":"70a08231","credentials(uint256)":"e0574e3f","getApproved(uint256)":"081812fc","getCredential(uint256)":"8dd18d2d","getTokenByFileHash(string)":"477aeb1b","getWalletTokens(address)":"fabc38be","isApprovedForAll(address,address)":"e985e9c5","locked(uint256)":"b45a3c0e","mintCredential(address,string,uint256,uint256,uint256,uint256,uint256,string,string,string)":"75db66da","name()":"06fdde03","owner()":"8da5cb5b","ownerOf(uint256)":"6352211e","renounceOwnership()":"715018a6","safeTransferFrom(address,address,uint256)":"42842e0e","safeTransferFrom(address,address,uint256,bytes)":"b88d4fde","setApprovalForAll(address,bool)":"a22cb465","supportsInterface(bytes4)":"01ffc9a7","symbol()":"95d89b41","tokenURI(uint256)":"c87b56dd","totalSupply()":"18160ddd","transferFrom(address,address,uint256)":"23b872dd","transferOwnership(address)":"f2fde38b"}}}}}