{
  "_format": "hh-sol-artifact-1",
  "contractName": "TimeLock",
  "sourceName": "contracts/TimeLock.sol",
  "abi": [
    {
      "inputs": [
        {
          "internalType": "address[]",
          "name": "proposers",
          "type": "address[]"
        },
        {
          "internalType": "address[]",
          "name": "executors",
          "type": "address[]"
        },
        {
          "internalType": "address",
          "name": "admin",
          "type": "address"
        }
      ],
      "stateMutability": "nonpayable",
      "type": "constructor"
    },
    {
      "inputs": [],
      "name": "AccessControlBadConfirmation",
      "type": "error"
    },
    {
      "inputs": [
        {
          "internalType": "address",
          "name": "account",
          "type": "address"
        },
        {
          "internalType": "bytes32",
          "name": "neededRole",
          "type": "bytes32"
        }
      ],
      "name": "AccessControlUnauthorizedAccount",
      "type": "error"
    },
    {
      "inputs": [],
      "name": "FailedCall",
      "type": "error"
    },
    {
      "inputs": [
        {
          "internalType": "uint256",
          "name": "delay",
          "type": "uint256"
        },
        {
          "internalType": "uint256",
          "name": "minDelay",
          "type": "uint256"
        }
      ],
      "name": "TimelockInsufficientDelay",
      "type": "error"
    },
    {
      "inputs": [
        {
          "internalType": "uint256",
          "name": "targets",
          "type": "uint256"
        },
        {
          "internalType": "uint256",
          "name": "payloads",
          "type": "uint256"
        },
        {
          "internalType": "uint256",
          "name": "values",
          "type": "uint256"
        }
      ],
      "name": "TimelockInvalidOperationLength",
      "type": "error"
    },
    {
      "inputs": [
        {
          "internalType": "address",
          "name": "caller",
          "type": "address"
        }
      ],
      "name": "TimelockUnauthorizedCaller",
      "type": "error"
    },
    {
      "inputs": [
        {
          "internalType": "bytes32",
          "name": "predecessorId",
          "type": "bytes32"
        }
      ],
      "name": "TimelockUnexecutedPredecessor",
      "type": "error"
    },
    {
      "inputs": [
        {
          "internalType": "bytes32",
          "name": "operationId",
          "type": "bytes32"
        },
        {
          "internalType": "bytes32",
          "name": "expectedStates",
          "type": "bytes32"
        }
      ],
      "name": "TimelockUnexpectedOperationState",
      "type": "error"
    },
    {
      "anonymous": false,
      "inputs": [
        {
          "indexed": true,
          "internalType": "bytes32",
          "name": "id",
          "type": "bytes32"
        },
        {
          "indexed": true,
          "internalType": "uint256",
          "name": "index",
          "type": "uint256"
        },
        {
          "indexed": false,
          "internalType": "address",
          "name": "target",
          "type": "address"
        },
        {
          "indexed": false,
          "internalType": "uint256",
          "name": "value",
          "type": "uint256"
        },
        {
          "indexed": false,
          "internalType": "bytes",
          "name": "data",
          "type": "bytes"
        }
      ],
      "name": "CallExecuted",
      "type": "event"
    },
    {
      "anonymous": false,
      "inputs": [
        {
          "indexed": true,
          "internalType": "bytes32",
          "name": "id",
          "type": "bytes32"
        },
        {
          "indexed": false,
          "internalType": "bytes32",
          "name": "salt",
          "type": "bytes32"
        }
      ],
      "name": "CallSalt",
      "type": "event"
    },
    {
      "anonymous": false,
      "inputs": [
        {
          "indexed": true,
          "internalType": "bytes32",
          "name": "id",
          "type": "bytes32"
        },
        {
          "indexed": true,
          "internalType": "uint256",
          "name": "index",
          "type": "uint256"
        },
        {
          "indexed": false,
          "internalType": "address",
          "name": "target",
          "type": "address"
        },
        {
          "indexed": false,
          "internalType": "uint256",
          "name": "value",
          "type": "uint256"
        },
        {
          "indexed": false,
          "internalType": "bytes",
          "name": "data",
          "type": "bytes"
        },
        {
          "indexed": false,
          "internalType": "bytes32",
          "name": "predecessor",
          "type": "bytes32"
        },
        {
          "indexed": false,
          "internalType": "uint256",
          "name": "delay",
          "type": "uint256"
        }
      ],
      "name": "CallScheduled",
      "type": "event"
    },
    {
      "anonymous": false,
      "inputs": [
        {
          "indexed": true,
          "internalType": "bytes32",
          "name": "id",
          "type": "bytes32"
        }
      ],
      "name": "Cancelled",
      "type": "event"
    },
    {
      "anonymous": false,
      "inputs": [
        {
          "indexed": false,
          "internalType": "uint256",
          "name": "oldDuration",
          "type": "uint256"
        },
        {
          "indexed": false,
          "internalType": "uint256",
          "name": "newDuration",
          "type": "uint256"
        }
      ],
      "name": "MinDelayChange",
      "type": "event"
    },
    {
      "anonymous": false,
      "inputs": [
        {
          "indexed": true,
          "internalType": "bytes32",
          "name": "role",
          "type": "bytes32"
        },
        {
          "indexed": true,
          "internalType": "bytes32",
          "name": "previousAdminRole",
          "type": "bytes32"
        },
        {
          "indexed": true,
          "internalType": "bytes32",
          "name": "newAdminRole",
          "type": "bytes32"
        }
      ],
      "name": "RoleAdminChanged",
      "type": "event"
    },
    {
      "anonymous": false,
      "inputs": [
        {
          "indexed": true,
          "internalType": "bytes32",
          "name": "role",
          "type": "bytes32"
        },
        {
          "indexed": true,
          "internalType": "address",
          "name": "account",
          "type": "address"
        },
        {
          "indexed": true,
          "internalType": "address",
          "name": "sender",
          "type": "address"
        }
      ],
      "name": "RoleGranted",
      "type": "event"
    },
    {
      "anonymous": false,
      "inputs": [
        {
          "indexed": true,
          "internalType": "bytes32",
          "name": "role",
          "type": "bytes32"
        },
        {
          "indexed": true,
          "internalType": "address",
          "name": "account",
          "type": "address"
        },
        {
          "indexed": true,
          "internalType": "address",
          "name": "sender",
          "type": "address"
        }
      ],
      "name": "RoleRevoked",
      "type": "event"
    },
    {
      "inputs": [],
      "name": "CANCELLER_ROLE",
      "outputs": [
        {
          "internalType": "bytes32",
          "name": "",
          "type": "bytes32"
        }
      ],
      "stateMutability": "view",
      "type": "function"
    },
    {
      "inputs": [],
      "name": "DEFAULT_ADMIN_ROLE",
      "outputs": [
        {
          "internalType": "bytes32",
          "name": "",
          "type": "bytes32"
        }
      ],
      "stateMutability": "view",
      "type": "function"
    },
    {
      "inputs": [],
      "name": "EXECUTOR_ROLE",
      "outputs": [
        {
          "internalType": "bytes32",
          "name": "",
          "type": "bytes32"
        }
      ],
      "stateMutability": "view",
      "type": "function"
    },
    {
      "inputs": [],
      "name": "MIN_DELAY",
      "outputs": [
        {
          "internalType": "uint256",
          "name": "",
          "type": "uint256"
        }
      ],
      "stateMutability": "view",
      "type": "function"
    },
    {
      "inputs": [],
      "name": "PROPOSER_ROLE",
      "outputs": [
        {
          "internalType": "bytes32",
          "name": "",
          "type": "bytes32"
        }
      ],
      "stateMutability": "view",
      "type": "function"
    },
    {
      "inputs": [
        {
          "internalType": "bytes32",
          "name": "id",
          "type": "bytes32"
        }
      ],
      "name": "cancel",
      "outputs": [],
      "stateMutability": "nonpayable",
      "type": "function"
    },
    {
      "inputs": [
        {
          "internalType": "address",
          "name": "target",
          "type": "address"
        },
        {
          "internalType": "uint256",
          "name": "value",
          "type": "uint256"
        },
        {
          "internalType": "bytes",
          "name": "payload",
          "type": "bytes"
        },
        {
          "internalType": "bytes32",
          "name": "predecessor",
          "type": "bytes32"
        },
        {
          "internalType": "bytes32",
          "name": "salt",
          "type": "bytes32"
        }
      ],
      "name": "execute",
      "outputs": [],
      "stateMutability": "payable",
      "type": "function"
    },
    {
      "inputs": [
        {
          "internalType": "address[]",
          "name": "targets",
          "type": "address[]"
        },
        {
          "internalType": "uint256[]",
          "name": "values",
          "type": "uint256[]"
        },
        {
          "internalType": "bytes[]",
          "name": "payloads",
          "type": "bytes[]"
        },
        {
          "internalType": "bytes32",
          "name": "predecessor",
          "type": "bytes32"
        },
        {
          "internalType": "bytes32",
          "name": "salt",
          "type": "bytes32"
        }
      ],
      "name": "executeBatch",
      "outputs": [],
      "stateMutability": "payable",
      "type": "function"
    },
    {
      "inputs": [],
      "name": "getMinDelay",
      "outputs": [
        {
          "internalType": "uint256",
          "name": "",
          "type": "uint256"
        }
      ],
      "stateMutability": "view",
      "type": "function"
    },
    {
      "inputs": [
        {
          "internalType": "bytes32",
          "name": "id",
          "type": "bytes32"
        }
      ],
      "name": "getOperationState",
      "outputs": [
        {
          "internalType": "enum TimelockController.OperationState",
          "name": "",
          "type": "uint8"
        }
      ],
      "stateMutability": "view",
      "type": "function"
    },
    {
      "inputs": [
        {
          "internalType": "bytes32",
          "name": "role",
          "type": "bytes32"
        }
      ],
      "name": "getRoleAdmin",
      "outputs": [
        {
          "internalType": "bytes32",
          "name": "",
          "type": "bytes32"
        }
      ],
      "stateMutability": "view",
      "type": "function"
    },
    {
      "inputs": [
        {
          "internalType": "bytes32",
          "name": "id",
          "type": "bytes32"
        }
      ],
      "name": "getTimestamp",
      "outputs": [
        {
          "internalType": "uint256",
          "name": "",
          "type": "uint256"
        }
      ],
      "stateMutability": "view",
      "type": "function"
    },
    {
      "inputs": [
        {
          "internalType": "bytes32",
          "name": "role",
          "type": "bytes32"
        },
        {
          "internalType": "address",
          "name": "account",
          "type": "address"
        }
      ],
      "name": "grantRole",
      "outputs": [],
      "stateMutability": "nonpayable",
      "type": "function"
    },
    {
      "inputs": [
        {
          "internalType": "bytes32",
          "name": "role",
          "type": "bytes32"
        },
        {
          "internalType": "address",
          "name": "account",
          "type": "address"
        }
      ],
      "name": "hasRole",
      "outputs": [
        {
          "internalType": "bool",
          "name": "",
          "type": "bool"
        }
      ],
      "stateMutability": "view",
      "type": "function"
    },
    {
      "inputs": [
        {
          "internalType": "address",
          "name": "target",
          "type": "address"
        },
        {
          "internalType": "uint256",
          "name": "value",
          "type": "uint256"
        },
        {
          "internalType": "bytes",
          "name": "data",
          "type": "bytes"
        },
        {
          "internalType": "bytes32",
          "name": "predecessor",
          "type": "bytes32"
        },
        {
          "internalType": "bytes32",
          "name": "salt",
          "type": "bytes32"
        }
      ],
      "name": "hashOperation",
      "outputs": [
        {
          "internalType": "bytes32",
          "name": "",
          "type": "bytes32"
        }
      ],
      "stateMutability": "pure",
      "type": "function"
    },
    {
      "inputs": [
        {
          "internalType": "address[]",
          "name": "targets",
          "type": "address[]"
        },
        {
          "internalType": "uint256[]",
          "name": "values",
          "type": "uint256[]"
        },
        {
          "internalType": "bytes[]",
          "name": "payloads",
          "type": "bytes[]"
        },
        {
          "internalType": "bytes32",
          "name": "predecessor",
          "type": "bytes32"
        },
        {
          "internalType": "bytes32",
          "name": "salt",
          "type": "bytes32"
        }
      ],
      "name": "hashOperationBatch",
      "outputs": [
        {
          "internalType": "bytes32",
          "name": "",
          "type": "bytes32"
        }
      ],
      "stateMutability": "pure",
      "type": "function"
    },
    {
      "inputs": [
        {
          "internalType": "bytes32",
          "name": "id",
          "type": "bytes32"
        }
      ],
      "name": "isOperation",
      "outputs": [
        {
          "internalType": "bool",
          "name": "",
          "type": "bool"
        }
      ],
      "stateMutability": "view",
      "type": "function"
    },
    {
      "inputs": [
        {
          "internalType": "bytes32",
          "name": "id",
          "type": "bytes32"
        }
      ],
      "name": "isOperationDone",
      "outputs": [
        {
          "internalType": "bool",
          "name": "",
          "type": "bool"
        }
      ],
      "stateMutability": "view",
      "type": "function"
    },
    {
      "inputs": [
        {
          "internalType": "bytes32",
          "name": "id",
          "type": "bytes32"
        }
      ],
      "name": "isOperationPending",
      "outputs": [
        {
          "internalType": "bool",
          "name": "",
          "type": "bool"
        }
      ],
      "stateMutability": "view",
      "type": "function"
    },
    {
      "inputs": [
        {
          "internalType": "bytes32",
          "name": "id",
          "type": "bytes32"
        }
      ],
      "name": "isOperationReady",
      "outputs": [
        {
          "internalType": "bool",
          "name": "",
          "type": "bool"
        }
      ],
      "stateMutability": "view",
      "type": "function"
    },
    {
      "inputs": [
        {
          "internalType": "address",
          "name": "",
          "type": "address"
        },
        {
          "internalType": "address",
          "name": "",
          "type": "address"
        },
        {
          "internalType": "uint256[]",
          "name": "",
          "type": "uint256[]"
        },
        {
          "internalType": "uint256[]",
          "name": "",
          "type": "uint256[]"
        },
        {
          "internalType": "bytes",
          "name": "",
          "type": "bytes"
        }
      ],
      "name": "onERC1155BatchReceived",
      "outputs": [
        {
          "internalType": "bytes4",
          "name": "",
          "type": "bytes4"
        }
      ],
      "stateMutability": "nonpayable",
      "type": "function"
    },
    {
      "inputs": [
        {
          "internalType": "address",
          "name": "",
          "type": "address"
        },
        {
          "internalType": "address",
          "name": "",
          "type": "address"
        },
        {
          "internalType": "uint256",
          "name": "",
          "type": "uint256"
        },
        {
          "internalType": "uint256",
          "name": "",
          "type": "uint256"
        },
        {
          "internalType": "bytes",
          "name": "",
          "type": "bytes"
        }
      ],
      "name": "onERC1155Received",
      "outputs": [
        {
          "internalType": "bytes4",
          "name": "",
          "type": "bytes4"
        }
      ],
      "stateMutability": "nonpayable",
      "type": "function"
    },
    {
      "inputs": [
        {
          "internalType": "address",
          "name": "",
          "type": "address"
        },
        {
          "internalType": "address",
          "name": "",
          "type": "address"
        },
        {
          "internalType": "uint256",
          "name": "",
          "type": "uint256"
        },
        {
          "internalType": "bytes",
          "name": "",
          "type": "bytes"
        }
      ],
      "name": "onERC721Received",
      "outputs": [
        {
          "internalType": "bytes4",
          "name": "",
          "type": "bytes4"
        }
      ],
      "stateMutability": "nonpayable",
      "type": "function"
    },
    {
      "inputs": [
        {
          "internalType": "bytes32",
          "name": "role",
          "type": "bytes32"
        },
        {
          "internalType": "address",
          "name": "callerConfirmation",
          "type": "address"
        }
      ],
      "name": "renounceRole",
      "outputs": [],
      "stateMutability": "nonpayable",
      "type": "function"
    },
    {
      "inputs": [
        {
          "internalType": "bytes32",
          "name": "role",
          "type": "bytes32"
        },
        {
          "internalType": "address",
          "name": "account",
          "type": "address"
        }
      ],
      "name": "revokeRole",
      "outputs": [],
      "stateMutability": "nonpayable",
      "type": "function"
    },
    {
      "inputs": [
        {
          "internalType": "address",
          "name": "target",
          "type": "address"
        },
        {
          "internalType": "uint256",
          "name": "value",
          "type": "uint256"
        },
        {
          "internalType": "bytes",
          "name": "data",
          "type": "bytes"
        },
        {
          "internalType": "bytes32",
          "name": "predecessor",
          "type": "bytes32"
        },
        {
          "internalType": "bytes32",
          "name": "salt",
          "type": "bytes32"
        },
        {
          "internalType": "uint256",
          "name": "delay",
          "type": "uint256"
        }
      ],
      "name": "schedule",
      "outputs": [],
      "stateMutability": "nonpayable",
      "type": "function"
    },
    {
      "inputs": [
        {
          "internalType": "address[]",
          "name": "targets",
          "type": "address[]"
        },
        {
          "internalType": "uint256[]",
          "name": "values",
          "type": "uint256[]"
        },
        {
          "internalType": "bytes[]",
          "name": "payloads",
          "type": "bytes[]"
        },
        {
          "internalType": "bytes32",
          "name": "predecessor",
          "type": "bytes32"
        },
        {
          "internalType": "bytes32",
          "name": "salt",
          "type": "bytes32"
        },
        {
          "internalType": "uint256",
          "name": "delay",
          "type": "uint256"
        }
      ],
      "name": "scheduleBatch",
      "outputs": [],
      "stateMutability": "nonpayable",
      "type": "function"
    },
    {
      "inputs": [
        {
          "internalType": "bytes4",
          "name": "interfaceId",
          "type": "bytes4"
        }
      ],
      "name": "supportsInterface",
      "outputs": [
        {
          "internalType": "bool",
          "name": "",
          "type": "bool"
        }
      ],
      "stateMutability": "view",
      "type": "function"
    },
    {
      "inputs": [
        {
          "internalType": "uint256",
          "name": "newDelay",
          "type": "uint256"
        }
      ],
      "name": "updateDelay",
      "outputs": [],
      "stateMutability": "nonpayable",
      "type": "function"
    },
    {
      "stateMutability": "payable",
      "type": "receive"
    }
  ],
  "bytecode": "0x6080604052346200016f57620019aa803803806200001d8162000173565b9283398101906060818303126200016f5780516001600160401b03908181116200016f57836200004f918401620001c2565b9260208301519182116200016f576200007160409162000079938501620001c2565b9201620001ad565b9162000085306200025e565b506001600160a01b03928084166200015c575b505f5b8151811015620000e35780620000c185620000b96001948662000235565b5116620002ce565b50620000db85620000d3838662000235565b51166200036e565b50016200009b565b50505f5b81518110156200011557806200010d84620001056001948662000235565b511662000408565b5001620000e7565b7f11c24f4ead16507c69ac467fbd5e4eed5fb5c699626d2cc6d66421df253886d560406202a300806002558151905f82526020820152a16040516114c79081620004a38239f35b62000167906200025e565b505f62000098565b5f80fd5b6040519190601f01601f191682016001600160401b038111838210176200019957604052565b634e487b7160e01b5f52604160045260245ffd5b51906001600160a01b03821682036200016f57565b81601f820112156200016f578051916020916001600160401b03841162000199578360051b908380620001f781850162000173565b8097815201928201019283116200016f578301905b8282106200021b575050505090565b8380916200022984620001ad565b8152019101906200020c565b80518210156200024a5760209160051b010190565b634e487b7160e01b5f52603260045260245ffd5b6001600160a01b03165f8181525f805160206200198a833981519152602052604090205460ff16620002c9575f8181525f805160206200198a83398151915260205260408120805460ff191660011790553391905f805160206200196a8339815191528180a4600190565b505f90565b6001600160a01b03165f8181527f3412d5605ac6cd444957cedb533e5dacad6378b4bc819ebe3652188a665066d560205260409020547fb09aa5aeb3702cfd50b6b62bc4532604938f21248a27a1d5ca736082b6819cc1919060ff166200036857815f525f60205260405f20815f5260205260405f20600160ff1982541617905533915f805160206200196a8339815191525f80a4600190565b50505f90565b6001600160a01b03165f8181527fc3ad33e20b0c56a223ad5104fff154aa010f8715b9c981fd38fdc60a4d1a52fb60205260409020547ffd643c72710c63c0180259aba6b2d05451e3591a24e58b62239378085726f783919060ff166200036857815f525f60205260405f20815f5260205260405f20600160ff1982541617905533915f805160206200196a8339815191525f80a4600190565b6001600160a01b03165f8181527fdae2aa361dfd1ca020a396615627d436107c35eff9fe7738a3512819782d706960205260409020547fd8aa0f3194971a2a116679f7c2090f6939c8d4e01a2a8d7e41d55e5351469e63919060ff166200036857815f525f60205260405f20815f5260205260405f20600160ff1982541617905533915f805160206200196a8339815191525f80a460019056fe60406080815260048036101561001e575b5050361561001c575f80fd5b005b5f3560e01c90816301d5062a14610add57816301ffc9a714610a6c57816307bd026514610a45578163134008d31461099c57816313bc9f201461097e578163150b7a021461092c578163248a9ca3146109035781632ab0f529146108e55781632f2ff15d146108bd57816331d507501461089f57816336568abe1461085b578163584b153e1461083457816364d62353146107cb5781637958004c146107895781638065657f146107685781638f2a0bb0146105df5781638f61f4f5146105a557816391d14854146105625781639f81aed714610545578163a217fddf1461052b578163b08e51c0146104f1578163b1c5f427146104c6578163bc197c8114610443578163c4d252f514610377578163d45c443514610350578163d547741f14610315578163e38335e5146101dc578163f23a6e611461018a575063f27a0c92146101695780610010565b34610186575f366003190112610186576020906002549051908152f35b5f80fd5b82346101865760a0366003190112610186576101a4610b88565b506101ad610b9e565b506084356001600160401b038111610186576020926101ce91369101610c7f565b505163f23a6e6160e01b8152f35b90506101e736610cf5565b9098949591939296975f805160206114728339815191525f525f602052855f205f805260205260ff865f20541615610307575b8383148015906102fd575b6102cf575061023d610244918a868a878b888f610fc5565b9889611283565b5f5b8181106102565761001c8961133c565b80808a7fc2617efa69bab66782fa219543714338489c4e9e178271560a91b82c3f612b588a8a6102c66102ae8f988c6102a7828e6102a18f60019f61029c918591610f4c565b610f70565b97610f4c565b3595610f84565b906102bb828287876112e9565b8d5194859485610e14565b0390a301610246565b85516001624fcdef60e01b031981529081019283526020830185905260408301849052918291506060010390fd5b5084831415610225565b61031033611206565b61021a565b823461018657806003193601126101865761001c913561034b6001610338610b9e565b93835f525f6020525f2001543390611257565b6113d6565b823461018657602036600319011261018657602091355f5260018252805f20549051908152f35b8234610186576020366003190112610186578135917ffd643c72710c63c0180259aba6b2d05451e3591a24e58b62239378085726f783805f525f602052825f20335f5260205260ff835f2054161561042857506103d383610e96565b1561040c57505f9082825260016020528120557fbaa1eb22f2a492ba1a5fea61b8df4d27c6c8b5f3971e63bb58fa14ff72eedb705f80a2005b826044925191635ead8eb560e01b835282015260066024820152fd5b604492519163e2517d3f60e01b835233908301526024820152fd5b82346101865760a03660031901126101865761045d610b88565b50610466610b9e565b506001600160401b03604435818111610186576104869036908501610d56565b506064358181116101865761049e9036908501610d56565b50608435908111610186576020926104b891369101610c7f565b505163bc197c8160e01b8152f35b8234610186576020906104ea6104db36610cf5565b96959095949194939293610fc5565b9051908152f35b8234610186575f36600319011261018657602090517ffd643c72710c63c0180259aba6b2d05451e3591a24e58b62239378085726f7838152f35b8234610186575f36600319011261018657602090515f8152f35b8234610186575f36600319011261018657602090516202a3008152f35b823461018657806003193601126101865760209161057e610b9e565b90355f525f8352815f209060018060a01b03165f52825260ff815f20541690519015158152f35b8234610186575f36600319011261018657602090517fb09aa5aeb3702cfd50b6b62bc4532604938f21248a27a1d5ca736082b6819cc18152f35b82346101865760c0366003190112610186576001600160401b03908235828111610186576106109036908501610cc5565b93602435848111610186576106289036908301610cc5565b94604435908111610186576106409036908401610cc5565b60649391933590608435978960a4359461065933611184565b82821480159061075e575b610731575089848489858a610679968e610fc5565b99610684858c611101565b8a5f5b8a8382106106c5578c80925061069957005b7f20fda5fd27a1ea7bf5b9567f143ac5470bb059374a27e8f67cb44f946f6d03879160209151908152a2005b6001927f4cf4410cc57040e44862ef0f45f3dd5a5e02db8eb8add648d4b0e236f1d07dca8b8b6107268f8c88978f92898f8f8f6107149161070e61029c86809461071b99610f4c565b9a610f4c565b3598610f84565b915196879687610ddc565b0390a3018b90610687565b89516001624fcdef60e01b0319815290810191825260208201849052604082018390529081906060010390fd5b5083821415610664565b8234610186576020906104ea61077d36610be1565b94939093929192610ef7565b8234610186576020366003190112610186576107a58235610ebf565b905190828110156107b857602092508152f35b602183634e487b7160e01b5f525260245ffd5b82346101865760203660031901126101865781359130330361081e57507f11c24f4ead16507c69ac467fbd5e4eed5fb5c699626d2cc6d66421df253886d5906002548151908152836020820152a1600255005b602491519063e2850c5960e01b82523390820152fd5b82346101865760203660031901126101865761085260209235610e96565b90519015158152f35b8234610186578060031936011261018657610874610b9e565b90336001600160a01b03831603610890575061001c91356113d6565b5163334bd91960e11b81529050fd5b82346101865760203660031901126101865761085260209235610e7f565b823461018657806003193601126101865761001c91356108e06001610338610b9e565b61135a565b82346101865760203660031901126101865761085260209235610e67565b823461018657602036600319011261018657602091355f525f82526001815f2001549051908152f35b823461018657608036600319011261018657610946610b88565b5061094f610b9e565b506064356001600160401b0381116101865760209261097091369101610c7f565b5051630a85bd0160e11b8152f35b82346101865760203660031901126101865761085260209235610e3b565b61001c610a195f610a2f7fc2617efa69bab66782fa219543714338489c4e9e178271560a91b82c3f612b58610a10886109d436610be1565b5f805160206114728339815191528b9a9697939598929a528a602052828b208b805260205260ff838c20541615610a37575b8985858a8a610ef7565b998a9889611283565b610a25838388886112e9565b5194859485610e14565b0390a361133c565b610a4033611206565b610a06565b8234610186575f36600319011261018657602090515f805160206114728339815191528152f35b905034610186576020366003190112610186573563ffffffff60e01b811680910361018657602091630271189760e51b8214918215610aaf575b50519015158152f35b909150637965db0b60e01b8114908115610acc575b50905f610aa6565b6301ffc9a760e01b1490505f610ac4565b82346101865760c036600319011261018657610af7610b88565b9060243592604435936001600160401b03851161018657610b3d5f927f4cf4410cc57040e44862ef0f45f3dd5a5e02db8eb8add648d4b0e236f1d07dca96369101610bb4565b95909160643595610b7e6084359760a43590610b5833611184565b610b668a828d8a8989610ef7565b9a8b97610b73848a611101565b8a5196879687610ddc565b0390a38161069957005b600435906001600160a01b038216820361018657565b602435906001600160a01b038216820361018657565b9181601f84011215610186578235916001600160401b038311610186576020838186019501011161018657565b60a0600319820112610186576004356001600160a01b0381168103610186579160243591604435906001600160401b03821161018657610c2391600401610bb4565b90916064359060843590565b90601f801991011681019081106001600160401b03821117610c5057604052565b634e487b7160e01b5f52604160045260245ffd5b6001600160401b038111610c5057601f01601f191660200190565b81601f8201121561018657803590610c9682610c64565b92610ca46040519485610c2f565b8284526020838301011161018657815f926020809301838601378301015290565b9181601f84011215610186578235916001600160401b038311610186576020808501948460051b01011161018657565b9060a0600319830112610186576001600160401b036004358181116101865783610d2191600401610cc5565b939093926024358381116101865782610d3c91600401610cc5565b9390939260443591821161018657610c2391600401610cc5565b81601f82011215610186578035916020916001600160401b038411610c50578360051b9060405194610d8a85840187610c2f565b85528380860192820101928311610186578301905b828210610dad575050505090565b81358152908301908301610d9f565b908060209392818452848401375f828201840152601f01601f1916010190565b929093610e0a926080959897969860018060a01b03168552602085015260a0604085015260a0840191610dbc565b9460608201520152565b610e38949260609260018060a01b0316825260208201528160408201520191610dbc565b90565b610e4490610ebf565b6004811015610e535760021490565b634e487b7160e01b5f52602160045260245ffd5b610e7090610ebf565b6004811015610e535760031490565b610e8890610ebf565b6004811015610e5357151590565b610e9f90610ebf565b6004811015610e535760018114908115610eb7575090565b600291501490565b5f52600160205260405f205480155f14610ed857505f90565b60018103610ee65750600390565b421015610ef257600190565b600290565b94610f2d610f4694959293604051968795602087019960018060a01b03168a52604087015260a0606087015260c0860191610dbc565b91608084015260a083015203601f198101835282610c2f565b51902090565b9190811015610f5c5760051b0190565b634e487b7160e01b5f52603260045260245ffd5b356001600160a01b03811681036101865790565b9190811015610f5c5760051b81013590601e19813603018212156101865701908135916001600160401b038311610186576020018236038113610186579190565b969294909695919560405196602091828901998060c08b0160a08d525260e08a0191905f5b8181106110d957505050601f19898203810160408b0152888252976001600160fb1b038111610186579089969495939897929160051b80928a830137019380888601878703606089015252604085019460408260051b82010195835f925b84841061107057505050505050610f469550608084015260a083015203908101835282610c2f565b9193969850919398999496603f198282030184528935601e19843603018112156101865783018681019190356001600160401b038111610186578036038313610186576110c288928392600195610dbc565b9b0194019401918b98969394919a9997959a611048565b90919283359060018060a01b0382168092036101865790815285019285019190600101610fea565b9061110b82610e7f565b611164576002548082106111465750420190814211611132575f52600160205260405f2055565b634e487b7160e01b5f52601160045260245ffd5b6044925060405191635433660960e01b835260048301526024820152fd5b604051635ead8eb560e01b81526004810183905260016024820152604490fd5b6001600160a01b03165f8181527f3412d5605ac6cd444957cedb533e5dacad6378b4bc819ebe3652188a665066d560205260409020547fb09aa5aeb3702cfd50b6b62bc4532604938f21248a27a1d5ca736082b6819cc19060ff16156111e8575050565b604492506040519163e2517d3f60e01b835260048301526024820152fd5b6001600160a01b03165f8181527fdae2aa361dfd1ca020a396615627d436107c35eff9fe7738a3512819782d706960205260409020545f805160206114728339815191529060ff16156111e8575050565b805f525f60205260405f209160018060a01b031691825f5260205260ff60405f205416156111e8575050565b61128c81610e3b565b156112ca5750801515806112ba575b6112a25750565b6024906040519063121534c360e31b82526004820152fd5b506112c481610e67565b1561129b565b60449060405190635ead8eb560e01b8252600482015260046024820152fd5b611331935f93928493826040519384928337810185815203925af13d15611334573d9061131582610c64565b916113236040519384610c2f565b82523d5f602084013e611448565b50565b606090611448565b61134581610e3b565b156112ca575f526001602052600160405f2055565b90815f525f60205260405f209060018060a01b031690815f5260205260ff60405f205416155f146113d057815f525f60205260405f20815f5260205260405f20600160ff1982541617905533917f2f8788117e7eff1d82e926ec794901d17c78024a50270940304540a733656f0d5f80a4600190565b50505f90565b90815f525f60205260405f209060018060a01b031690815f5260205260ff60405f2054165f146113d057815f525f60205260405f20815f5260205260405f2060ff19815416905533917ff6391f5c32d9c69d2a47ea670b442974b53935d1edc7fd64eb21e047a839171b5f80a4600190565b156114505790565b80511561145f57602081519101fd5b60405163d6bda27560e01b8152600490fdfed8aa0f3194971a2a116679f7c2090f6939c8d4e01a2a8d7e41d55e5351469e63a26469706673582212208ae7e928b0b888caccc9a414c47ecb87f7a924c68d8a06c1d110abec3a317dc064736f6c634300081800332f8788117e7eff1d82e926ec794901d17c78024a50270940304540a733656f0dad3228b676f7d3cd4284a5443f17f1962b36e491b30a40b2405849e597ba5fb5",
  "linkReferences": {},
  "deployedLinkReferences": {}
}