{
  "_format": "hh-sol-artifact-1",
  "contractName": "TrustFolioHiringEscrow",
  "sourceName": "contracts/HiringEscrow.sol",
  "abi": [
    {
      "inputs": [
        {
          "internalType": "address",
          "name": "_treasury",
          "type": "address"
        }
      ],
      "stateMutability": "nonpayable",
      "type": "constructor"
    },
    {
      "inputs": [
        {
          "internalType": "uint256",
          "name": "readyAt",
          "type": "uint256"
        }
      ],
      "name": "AutoReleaseNotReady",
      "type": "error"
    },
    {
      "inputs": [],
      "name": "DeadlineMustBeFuture",
      "type": "error"
    },
    {
      "inputs": [
        {
          "internalType": "uint256",
          "name": "requestId",
          "type": "uint256"
        },
        {
          "internalType": "enum TrustFolioHiringEscrow.Status",
          "name": "current",
          "type": "uint8"
        }
      ],
      "name": "InvalidStatus",
      "type": "error"
    },
    {
      "inputs": [],
      "name": "InvalidTalentAddress",
      "type": "error"
    },
    {
      "inputs": [],
      "name": "NotAuthorized",
      "type": "error"
    },
    {
      "inputs": [
        {
          "internalType": "address",
          "name": "owner",
          "type": "address"
        }
      ],
      "name": "OwnableInvalidOwner",
      "type": "error"
    },
    {
      "inputs": [
        {
          "internalType": "address",
          "name": "account",
          "type": "address"
        }
      ],
      "name": "OwnableUnauthorizedAccount",
      "type": "error"
    },
    {
      "inputs": [],
      "name": "PaymentRequired",
      "type": "error"
    },
    {
      "inputs": [],
      "name": "ReentrancyGuardReentrantCall",
      "type": "error"
    },
    {
      "inputs": [
        {
          "internalType": "uint256",
          "name": "requestId",
          "type": "uint256"
        }
      ],
      "name": "RequestNotFound",
      "type": "error"
    },
    {
      "inputs": [],
      "name": "TitleRequired",
      "type": "error"
    },
    {
      "inputs": [],
      "name": "TransferFailed",
      "type": "error"
    },
    {
      "anonymous": false,
      "inputs": [
        {
          "indexed": true,
          "internalType": "uint256",
          "name": "requestId",
          "type": "uint256"
        },
        {
          "indexed": false,
          "internalType": "address",
          "name": "confirmedBy",
          "type": "address"
        }
      ],
      "name": "CompletionConfirmed",
      "type": "event"
    },
    {
      "anonymous": false,
      "inputs": [
        {
          "indexed": true,
          "internalType": "uint256",
          "name": "requestId",
          "type": "uint256"
        },
        {
          "indexed": true,
          "internalType": "address",
          "name": "raisedBy",
          "type": "address"
        }
      ],
      "name": "DisputeRaised",
      "type": "event"
    },
    {
      "anonymous": false,
      "inputs": [
        {
          "indexed": true,
          "internalType": "uint256",
          "name": "requestId",
          "type": "uint256"
        },
        {
          "indexed": false,
          "internalType": "bool",
          "name": "releasedToTalent",
          "type": "bool"
        }
      ],
      "name": "DisputeResolved",
      "type": "event"
    },
    {
      "anonymous": false,
      "inputs": [
        {
          "indexed": true,
          "internalType": "address",
          "name": "previousOwner",
          "type": "address"
        },
        {
          "indexed": true,
          "internalType": "address",
          "name": "newOwner",
          "type": "address"
        }
      ],
      "name": "OwnershipTransferred",
      "type": "event"
    },
    {
      "anonymous": false,
      "inputs": [
        {
          "indexed": true,
          "internalType": "uint256",
          "name": "requestId",
          "type": "uint256"
        },
        {
          "indexed": true,
          "internalType": "address",
          "name": "talent",
          "type": "address"
        },
        {
          "indexed": false,
          "internalType": "uint256",
          "name": "amount",
          "type": "uint256"
        },
        {
          "indexed": false,
          "internalType": "uint256",
          "name": "fee",
          "type": "uint256"
        }
      ],
      "name": "PaymentReleased",
      "type": "event"
    },
    {
      "anonymous": false,
      "inputs": [
        {
          "indexed": true,
          "internalType": "uint256",
          "name": "requestId",
          "type": "uint256"
        },
        {
          "indexed": false,
          "internalType": "address",
          "name": "talent",
          "type": "address"
        }
      ],
      "name": "RequestAccepted",
      "type": "event"
    },
    {
      "anonymous": false,
      "inputs": [
        {
          "indexed": true,
          "internalType": "uint256",
          "name": "requestId",
          "type": "uint256"
        },
        {
          "indexed": true,
          "internalType": "address",
          "name": "by",
          "type": "address"
        }
      ],
      "name": "RequestCancelled",
      "type": "event"
    },
    {
      "anonymous": false,
      "inputs": [
        {
          "indexed": true,
          "internalType": "uint256",
          "name": "requestId",
          "type": "uint256"
        },
        {
          "indexed": true,
          "internalType": "address",
          "name": "employer",
          "type": "address"
        },
        {
          "indexed": true,
          "internalType": "address",
          "name": "talent",
          "type": "address"
        },
        {
          "indexed": false,
          "internalType": "uint256",
          "name": "amount",
          "type": "uint256"
        },
        {
          "indexed": false,
          "internalType": "string",
          "name": "title",
          "type": "string"
        }
      ],
      "name": "RequestCreated",
      "type": "event"
    },
    {
      "anonymous": false,
      "inputs": [
        {
          "indexed": true,
          "internalType": "uint256",
          "name": "requestId",
          "type": "uint256"
        },
        {
          "indexed": false,
          "internalType": "address",
          "name": "talent",
          "type": "address"
        }
      ],
      "name": "RequestDeclined",
      "type": "event"
    },
    {
      "anonymous": false,
      "inputs": [
        {
          "indexed": true,
          "internalType": "address",
          "name": "newTreasury",
          "type": "address"
        }
      ],
      "name": "TreasuryUpdated",
      "type": "event"
    },
    {
      "inputs": [],
      "name": "AUTO_RELEASE_DELAY",
      "outputs": [
        {
          "internalType": "uint256",
          "name": "",
          "type": "uint256"
        }
      ],
      "stateMutability": "view",
      "type": "function"
    },
    {
      "inputs": [],
      "name": "BPS",
      "outputs": [
        {
          "internalType": "uint256",
          "name": "",
          "type": "uint256"
        }
      ],
      "stateMutability": "view",
      "type": "function"
    },
    {
      "inputs": [],
      "name": "PLATFORM_FEE_BPS",
      "outputs": [
        {
          "internalType": "uint256",
          "name": "",
          "type": "uint256"
        }
      ],
      "stateMutability": "view",
      "type": "function"
    },
    {
      "inputs": [
        {
          "internalType": "uint256",
          "name": "requestId",
          "type": "uint256"
        }
      ],
      "name": "acceptRequest",
      "outputs": [],
      "stateMutability": "nonpayable",
      "type": "function"
    },
    {
      "inputs": [
        {
          "internalType": "uint256",
          "name": "requestId",
          "type": "uint256"
        }
      ],
      "name": "autoRelease",
      "outputs": [],
      "stateMutability": "nonpayable",
      "type": "function"
    },
    {
      "inputs": [
        {
          "internalType": "uint256",
          "name": "requestId",
          "type": "uint256"
        }
      ],
      "name": "autoReleaseReadyAt",
      "outputs": [
        {
          "internalType": "uint256",
          "name": "",
          "type": "uint256"
        }
      ],
      "stateMutability": "view",
      "type": "function"
    },
    {
      "inputs": [
        {
          "internalType": "uint256",
          "name": "requestId",
          "type": "uint256"
        }
      ],
      "name": "cancelRequest",
      "outputs": [],
      "stateMutability": "nonpayable",
      "type": "function"
    },
    {
      "inputs": [
        {
          "internalType": "uint256",
          "name": "requestId",
          "type": "uint256"
        }
      ],
      "name": "confirmCompletion",
      "outputs": [],
      "stateMutability": "nonpayable",
      "type": "function"
    },
    {
      "inputs": [
        {
          "internalType": "address",
          "name": "talent",
          "type": "address"
        },
        {
          "internalType": "string",
          "name": "title",
          "type": "string"
        },
        {
          "internalType": "string",
          "name": "description",
          "type": "string"
        },
        {
          "internalType": "uint256",
          "name": "deadline",
          "type": "uint256"
        }
      ],
      "name": "createRequest",
      "outputs": [
        {
          "internalType": "uint256",
          "name": "",
          "type": "uint256"
        }
      ],
      "stateMutability": "payable",
      "type": "function"
    },
    {
      "inputs": [
        {
          "internalType": "uint256",
          "name": "requestId",
          "type": "uint256"
        }
      ],
      "name": "declineRequest",
      "outputs": [],
      "stateMutability": "nonpayable",
      "type": "function"
    },
    {
      "inputs": [
        {
          "internalType": "address",
          "name": "employer",
          "type": "address"
        }
      ],
      "name": "getEmployerRequests",
      "outputs": [
        {
          "internalType": "uint256[]",
          "name": "",
          "type": "uint256[]"
        }
      ],
      "stateMutability": "view",
      "type": "function"
    },
    {
      "inputs": [
        {
          "internalType": "uint256",
          "name": "requestId",
          "type": "uint256"
        }
      ],
      "name": "getRequest",
      "outputs": [
        {
          "components": [
            {
              "internalType": "uint256",
              "name": "requestId",
              "type": "uint256"
            },
            {
              "internalType": "address",
              "name": "employer",
              "type": "address"
            },
            {
              "internalType": "address",
              "name": "talent",
              "type": "address"
            },
            {
              "internalType": "uint256",
              "name": "amount",
              "type": "uint256"
            },
            {
              "internalType": "string",
              "name": "title",
              "type": "string"
            },
            {
              "internalType": "string",
              "name": "description",
              "type": "string"
            },
            {
              "internalType": "uint256",
              "name": "deadline",
              "type": "uint256"
            },
            {
              "internalType": "uint256",
              "name": "createdAt",
              "type": "uint256"
            },
            {
              "internalType": "uint256",
              "name": "acceptedAt",
              "type": "uint256"
            },
            {
              "internalType": "uint256",
              "name": "completedAt",
              "type": "uint256"
            },
            {
              "internalType": "enum TrustFolioHiringEscrow.Status",
              "name": "status",
              "type": "uint8"
            },
            {
              "internalType": "bool",
              "name": "talentConfirmed",
              "type": "bool"
            },
            {
              "internalType": "bool",
              "name": "employerReleased",
              "type": "bool"
            }
          ],
          "internalType": "struct TrustFolioHiringEscrow.HiringRequest",
          "name": "",
          "type": "tuple"
        }
      ],
      "stateMutability": "view",
      "type": "function"
    },
    {
      "inputs": [
        {
          "internalType": "address",
          "name": "talent",
          "type": "address"
        }
      ],
      "name": "getTalentRequests",
      "outputs": [
        {
          "internalType": "uint256[]",
          "name": "",
          "type": "uint256[]"
        }
      ],
      "stateMutability": "view",
      "type": "function"
    },
    {
      "inputs": [],
      "name": "owner",
      "outputs": [
        {
          "internalType": "address",
          "name": "",
          "type": "address"
        }
      ],
      "stateMutability": "view",
      "type": "function"
    },
    {
      "inputs": [
        {
          "internalType": "uint256",
          "name": "requestId",
          "type": "uint256"
        }
      ],
      "name": "raiseDispute",
      "outputs": [],
      "stateMutability": "nonpayable",
      "type": "function"
    },
    {
      "inputs": [
        {
          "internalType": "uint256",
          "name": "requestId",
          "type": "uint256"
        }
      ],
      "name": "releasePayment",
      "outputs": [],
      "stateMutability": "nonpayable",
      "type": "function"
    },
    {
      "inputs": [],
      "name": "renounceOwnership",
      "outputs": [],
      "stateMutability": "nonpayable",
      "type": "function"
    },
    {
      "inputs": [
        {
          "internalType": "uint256",
          "name": "",
          "type": "uint256"
        }
      ],
      "name": "requests",
      "outputs": [
        {
          "internalType": "uint256",
          "name": "requestId",
          "type": "uint256"
        },
        {
          "internalType": "address",
          "name": "employer",
          "type": "address"
        },
        {
          "internalType": "address",
          "name": "talent",
          "type": "address"
        },
        {
          "internalType": "uint256",
          "name": "amount",
          "type": "uint256"
        },
        {
          "internalType": "string",
          "name": "title",
          "type": "string"
        },
        {
          "internalType": "string",
          "name": "description",
          "type": "string"
        },
        {
          "internalType": "uint256",
          "name": "deadline",
          "type": "uint256"
        },
        {
          "internalType": "uint256",
          "name": "createdAt",
          "type": "uint256"
        },
        {
          "internalType": "uint256",
          "name": "acceptedAt",
          "type": "uint256"
        },
        {
          "internalType": "uint256",
          "name": "completedAt",
          "type": "uint256"
        },
        {
          "internalType": "enum TrustFolioHiringEscrow.Status",
          "name": "status",
          "type": "uint8"
        },
        {
          "internalType": "bool",
          "name": "talentConfirmed",
          "type": "bool"
        },
        {
          "internalType": "bool",
          "name": "employerReleased",
          "type": "bool"
        }
      ],
      "stateMutability": "view",
      "type": "function"
    },
    {
      "inputs": [
        {
          "internalType": "uint256",
          "name": "requestId",
          "type": "uint256"
        },
        {
          "internalType": "bool",
          "name": "releaseToTalent",
          "type": "bool"
        }
      ],
      "name": "resolveDispute",
      "outputs": [],
      "stateMutability": "nonpayable",
      "type": "function"
    },
    {
      "inputs": [
        {
          "internalType": "address",
          "name": "newTreasury",
          "type": "address"
        }
      ],
      "name": "setTreasury",
      "outputs": [],
      "stateMutability": "nonpayable",
      "type": "function"
    },
    {
      "inputs": [],
      "name": "totalEscrowVolume",
      "outputs": [
        {
          "internalType": "uint256",
          "name": "",
          "type": "uint256"
        }
      ],
      "stateMutability": "view",
      "type": "function"
    },
    {
      "inputs": [],
      "name": "totalFeesCollected",
      "outputs": [
        {
          "internalType": "uint256",
          "name": "",
          "type": "uint256"
        }
      ],
      "stateMutability": "view",
      "type": "function"
    },
    {
      "inputs": [],
      "name": "totalRequestsCount",
      "outputs": [
        {
          "internalType": "uint256",
          "name": "",
          "type": "uint256"
        }
      ],
      "stateMutability": "view",
      "type": "function"
    },
    {
      "inputs": [
        {
          "internalType": "address",
          "name": "newOwner",
          "type": "address"
        }
      ],
      "name": "transferOwnership",
      "outputs": [],
      "stateMutability": "nonpayable",
      "type": "function"
    },
    {
      "inputs": [],
      "name": "treasury",
      "outputs": [
        {
          "internalType": "address",
          "name": "",
          "type": "address"
        }
      ],
      "stateMutability": "view",
      "type": "function"
    }
  ],
  "bytecode": "0x6080346100ea57601f61193c38819003918201601f19168301916001600160401b038311848410176100ee578084926020946040528339810103126100ea57516001600160a01b0390818116908190036100ea5733156100d2575f5460018060a01b03199033828216175f55604051933391167f8be0079c531659141344cd1fd0a4f28419497f9722a3daafe3b4186f6b6457e05f80a360017f9b779b17422d0df92223018b32b4d1fa46e071723d6817e2486d003becc55f005560018055600554161760055561183990816101038239f35b604051631e4fbdf760e01b81525f6004820152602490fd5b5f80fd5b634e487b7160e01b5f52604160045260245ffdfe6080806040526004361015610012575f80fd5b5f3560e01c90816309499aa61461136c575080632304e9dc1461134f578063249d39e9146113335780633015394c1461128c57806334b25ee214611180578063399b4ddc146110a6578063459b860e14610ff15780634ba1f09814610f2d578063539aa77f14610f1257806360c6d8ae14610ef557806361d027b314610ecd57806369831e0514610eb05780636ae5ebb714610e3a5780636d160cb7146108de578063715018a61461088757806381d12c581461079157806388685cd9146106da5780638da5cb5b146106b357806394aeb613146105e7578063a5c1674e146104ea578063c58343ef146102cf578063ee247ea214610249578063f0f44260146101e3578063f2fde38b146101595763f90c15be1461012f575f80fd5b3461015557602036600319011261015557602061014d600435611617565b604051908152f35b5f80fd5b3461015557602036600319011261015557610172611387565b61017a611709565b6001600160a01b039081169081156101cb575f54826bffffffffffffffffffffffff60a01b8216175f55167f8be0079c531659141344cd1fd0a4f28419497f9722a3daafe3b4186f6b6457e05f80a3005b604051631e4fbdf760e01b81525f6004820152602490fd5b34610155576020366003190112610155576101fc611387565b610204611709565b600580546001600160a01b0319166001600160a01b039290921691821790557f7dae230f18360d76a040c81f050aa14eb9d6dc7901b20fc5d855e2a20fe814d15f80a2005b3461015557602080600319360112610155576001600160a01b0361026b611387565b165f52600360205260405f20906040519081602084549182815201935f5260205f20915f905b8282106102b8576102b4856102a88189038261145b565b6040519182918261139d565b0390f35b835486529485019460019384019390910190610291565b34610155576020366003190112610155575f6101806040516102f08161143e565b82815282602082015282604082015282606082015260606080820152606060a08201528260c08201528260e0820152826101008201528261012082015282610140820152826101608201520152610348600435611680565b600a604051916103578361143e565b8054835260018101546001600160a01b0390811660208501526002820154166040840152600381015460608401526103916004820161147d565b60808401526103a26005820161147d565b60a0840152600681015460c0840152600781015460e0840152600881015461010084015260098101546101208401520154600760ff821610156104d6578060ff809216610140840152818160081c16151561016084015260101c1615156101808201526040518091602082528051602083015260018060a01b03602082015116604083015260018060a01b03604082015116606083015260608101516080830152608081015161018061047c6104666101a0938460a08801526101c087019061151f565b60a0850151868203601f190160c088015261151f565b9260c081015160e086015260e08101516101008601526101008101516101208601526101208101516101408601526104be61014082015161016087019061155d565b61016081015115158286015201511515908301520390f35b634e487b7160e01b5f52602160045260245ffd5b3461015557602036600319011261015557600435610506611651565b61050f81611680565b6001810154336001600160a01b03918216141590816105d6575b506105c457600a01805460ff811660078110156104d6576001811415806105b9575b610592575060ff1916600417905533907f84a477df8a28a4276ca6dee4458a06c3015f30c477d9c949ede4e13ff8a552b45f80a360015f805160206117e483398151915255005b6040516301f6ee9360e21b8152600481018590526044916105b790602483019061155d565bfd5b50600281141561054b565b60405163ea8e4eb560e01b8152600490fd5b905060028201541633141583610529565b3461015557602036600319011261015557600435610603611651565b61060c81611680565b60028101549091906001600160a01b031633036105c457600a8201805460ff81169360078510156104d6576001850361068f57906101029160094291015561ffff19161790557f4e49e2d3c8ae26600fd3fde8c51304185090f46a8a990173913e4067f72bfd3e6020604051338152a260015f805160206117e483398151915255005b6040516301f6ee9360e21b8152600481018590526044906105b7602482018861155d565b34610155575f366003190112610155575f546040516001600160a01b039091168152602090f35b34610155576020366003190112610155576004356106f6611651565b6106ff81611680565b60018101546001600160a01b031633036105c457600a81019182549260ff84169360078510156104d657600185141580610786575b6107625762ff000019166201000017905561074f9250611734565b60015f805160206117e483398151915255005b6040516301f6ee9360e21b8152600481018490526044906105b7602482018861155d565b506002851415610734565b34610155576020366003190112610155576004355f5260026020526040805f20805460ff60018060a01b039283600182015416936002820154169060038101546107dd6004830161147d565b946108426107ed6005850161147d565b610834600686015498600787015494600888015496600a60098a0154990154998e519e8f9e8f906101a09582526020820152015260608d01528060808d01528b019061151f565b9089820360a08b015261151f565b9560c088015260e0870152610100860152610120850152610869610140850183831661155d565b818160081c16151561016085015260101c1615156101808301520390f35b34610155575f3660031901126101555761089f611709565b5f80546001600160a01b0319811682556001600160a01b03167f8be0079c531659141344cd1fd0a4f28419497f9722a3daafe3b4186f6b6457e08280a3005b6080366003190112610155576108f2611387565b60243567ffffffffffffffff8111610155576109129036906004016113d8565b919060443567ffffffffffffffff8111610155576109349036906004016113d8565b93909261093f611651565b3415610e28576001600160a01b038116158015610e16575b610e0457426064351115610df2578115610de0576109c06001549461097b86611577565b6001556040519661098b8861143e565b8688523360208901526001600160a01b03841660408901523460608901526109b43686886115a1565b608089015236916115a1565b60a086015260643560c08601524260e08601525f6101008601525f6101208601525f6101408601525f6101608601525f610180860152835f52600260205260405f20855181556001810160018060a01b03602088015116906bffffffffffffffffffffffff60a01b9182825416179055600282019060018060a01b036040890151169082541617905560608601516003820155608086015180519067ffffffffffffffff8211610d03578190610a796004850154611406565b601f8111610d90575b50602090601f8311600114610d22575f92610d17575b50508160011b915f199060031b1c19161760048201555b60a086015180519067ffffffffffffffff8211610d0357610ad36005840154611406565b601f8111610cbf575b50602090601f8311600114610c5057600a9392915f9183610c45575b50508160011b915f199060031b1c19161760058201555b60c0870151600682015560e087015160078201556101008701516008820155610120870151600982015501946101408101519160078310156104d6578686937ffab7026c201703a6ce65999fa587d7f23b07a13c3f7f6c86456e6195e37f3c16936020995460ff62ff000061018061ff00610160860151151560081b16940151151560101b1693169062ffffff19161717179055335f5260038752610bb78360405f206115d7565b60018060a01b0381165f5260048752610bd38360405f206115d7565b610bdf3460065461156a565b600655610bed600854611577565b600855836040519534875260408988015281604088015260608701375f6060858701015260018060a01b0316936060813395601f80199101168101030190a460015f805160206117e483398151915255604051908152f35b015190508980610af8565b90600584015f5260205f20915f5b601f1985168110610ca75750918391600193600a9695601f19811610610c8f575b505050811b016005820155610b0f565b01515f1960f88460031b161c19169055898080610c7f565b91926020600181928685015181550194019201610c5e565b600584015f5260205f20601f840160051c810160208510610cfc575b601f830160051c82018110610cf1575050610adc565b5f8155600101610cdb565b5080610cdb565b634e487b7160e01b5f52604160045260245ffd5b015190508880610a98565b9250600484015f5260205f20905f935b601f1984168510610d75576001945083601f19811610610d5d575b505050811b016004820155610aaf565b01515f1960f88460031b161c19169055888080610d4d565b81810151835560209485019460019093019290910190610d32565b909150600484015f5260205f20601f840160051c810160208510610dd9575b90849392915b601f830160051c82018110610dcb575050610a82565b5f8155859450600101610db5565b5080610daf565b6040516319d546f160e31b8152600490fd5b60405163b2592c3560e01b8152600490fd5b604051632342221960e21b8152600490fd5b506001600160a01b0381163314610957565b604051638b87dfbb60e01b8152600490fd5b3461015557602080600319360112610155576001600160a01b03610e5c611387565b165f52600460205260405f20906040519081602084549182815201935f5260205f20915f905b828210610e99576102b4856102a88189038261145b565b835486529485019460019384019390910190610e82565b34610155575f366003190112610155576020600854604051908152f35b34610155575f366003190112610155576005546040516001600160a01b039091168152602090f35b34610155575f366003190112610155576020600754604051908152f35b34610155575f36600319011261015557602060405160fa8152f35b3461015557602036600319011261015557600435610f49611651565b610f5281611680565b60028101546001600160a01b031633036105c457600a8101805460ff811660078110156104d65780610fcc575060019060ff19161790556008429101557fa74a28866064b16e695ebbf53f8b0f9aa0bb93885dbbcc373004f1a052cc42486020604051338152a260015f805160206117e483398151915255005b6040516301f6ee9360e21b8152600481018690526044916105b790602483019061155d565b346101555760203660031901126101555760043561100d611651565b61101681611680565b60ff600a8201541660078110156104d65760028103611081575060098101549162093a80830180931161106d578242106110545761074f9250611734565b604051630767376d60e31b815260048101849052602490fd5b634e487b7160e01b5f52601160045260245ffd5b6040516301f6ee9360e21b8152600481018490526044916105b790602483019061155d565b34610155576020366003190112610155576004356110c2611651565b6110cb81611680565b60028101546001600160a01b03929190831633036105c457600a81019283549360ff85169460078610156104d6578561115c5760ff1916600617905560018201546003929092015461111f929091166116b0565b7f06d69eed268bf3a13da04b1db3415c4f35fb04442a029b91d325c90d3ed6adcc6020604051338152a260015f805160206117e483398151915255005b6040516301f6ee9360e21b8152600481018690526044906105b7602482018961155d565b346101555760403660031901126101555760043560243580151590818103610155576111aa611709565b6111b2611651565b6111bb83611680565b91600a83019182549160ff831660078110156104d6576004810361126757507f5a87909bff68caaaaf0b3fd9c74eeccc928832f879315e5c6fb7a73612f26c0c60208792604051908152a21561121657505061074f91611734565b60ff19166005179055600181015460039091015461123c916001600160a01b03166116b0565b30907fe0d7665e06e7db1fc500d66d4e3898d1d4a5533d7efe54b352fcdaa177c227835f80a361074f565b6040516301f6ee9360e21b8152600481018890526044916105b790602483019061155d565b34610155576020366003190112610155576004356112a8611651565b6112b181611680565b60018101549091906001600160a01b03163381036105c457600a83019283549360ff85169460078610156104d6578561115c5760ff19166005179055600301546112fa916116b0565b33907fe0d7665e06e7db1fc500d66d4e3898d1d4a5533d7efe54b352fcdaa177c227835f80a360015f805160206117e483398151915255005b34610155575f3660031901126101555760206040516127108152f35b34610155575f366003190112610155576020600654604051908152f35b34610155575f366003190112610155578062093a8060209252f35b600435906001600160a01b038216820361015557565b60209060206040818301928281528551809452019301915f5b8281106113c4575050505090565b8351855293810193928101926001016113b6565b9181601f840112156101555782359167ffffffffffffffff8311610155576020838186019501011161015557565b90600182811c92168015611434575b602083101461142057565b634e487b7160e01b5f52602260045260245ffd5b91607f1691611415565b6101a0810190811067ffffffffffffffff821117610d0357604052565b90601f8019910116810190811067ffffffffffffffff821117610d0357604052565b9060405191825f825461148f81611406565b908184526020946001916001811690815f146114fd57506001146114bf575b5050506114bd9250038361145b565b565b5f90815285812095935091905b8183106114e55750506114bd93508201015f80806114ae565b855488840185015294850194879450918301916114cc565b925050506114bd94925060ff191682840152151560051b8201015f80806114ae565b91908251928382525f5b848110611549575050825f602080949584010152601f8019910116010190565b602081830181015184830182015201611529565b9060078210156104d65752565b9190820180921161106d57565b5f19811461106d5760010190565b67ffffffffffffffff8111610d0357601f01601f191660200190565b9291926115ad82611585565b916115bb604051938461145b565b829481845281830111610155578281602093845f960137010152565b80549068010000000000000000821015610d035760018201808255821015611603575f5260205f200155565b634e487b7160e01b5f52603260045260245ffd5b61162090611680565b60ff600a8201541660078110156104d65760020361164c576009015462093a80810180911161106d5790565b505f90565b5f805160206117e4833981519152600281541461166e5760029055565b604051633ee5aeb560e01b8152600490fd5b805f52600260205260405f2090815415611698575090565b60249060405190634ec726c760e01b82526004820152fd5b5f918291829182916001600160a01b03165af13d15611704573d6116d381611585565b906116e1604051928361145b565b81525f60203d92013e5b156116f257565b6040516312171d8360e31b8152600490fd5b6116eb565b5f546001600160a01b0316330361171c57565b60405163118cdaa760e01b8152336004820152602490fd5b600a8201600360ff19825416179055600382015460fa810281810460fa148215171561106d5761271090049283820391821161106d577f8cdc8dc08e54a4e57f52077ecf1b4c508758513439cae2aa325dcc85b922fca891600260409261179d8760075461156a565b6007550180546001600160a01b0391906117ba90849084166116b0565b866117d0575b54169482519182526020820152a3565b6117de8783600554166116b0565b6117c056fe9b779b17422d0df92223018b32b4d1fa46e071723d6817e2486d003becc55f00a264697066735822122017d0aac42a8421a8da4f8da6c1db1df010209b9cb5a0e0f591fb358c8b73573f64736f6c63430008180033",
  "linkReferences": {},
  "deployedLinkReferences": {}
}