{
  "_format": "hh-sol-artifact-1",
  "contractName": "TrustFolioINFT",
  "sourceName": "contracts/TrustFolioINFT.sol",
  "abi": [
    {
      "inputs": [
        {
          "internalType": "address",
          "name": "_treasury",
          "type": "address"
        }
      ],
      "stateMutability": "nonpayable",
      "type": "constructor"
    },
    {
      "inputs": [
        {
          "internalType": "string",
          "name": "fileRootHash",
          "type": "string"
        },
        {
          "internalType": "uint256",
          "name": "existingTokenId",
          "type": "uint256"
        }
      ],
      "name": "AlreadyMinted",
      "type": "error"
    },
    {
      "inputs": [
        {
          "internalType": "address",
          "name": "sender",
          "type": "address"
        },
        {
          "internalType": "uint256",
          "name": "tokenId",
          "type": "uint256"
        },
        {
          "internalType": "address",
          "name": "owner",
          "type": "address"
        }
      ],
      "name": "ERC721IncorrectOwner",
      "type": "error"
    },
    {
      "inputs": [
        {
          "internalType": "address",
          "name": "operator",
          "type": "address"
        },
        {
          "internalType": "uint256",
          "name": "tokenId",
          "type": "uint256"
        }
      ],
      "name": "ERC721InsufficientApproval",
      "type": "error"
    },
    {
      "inputs": [
        {
          "internalType": "address",
          "name": "approver",
          "type": "address"
        }
      ],
      "name": "ERC721InvalidApprover",
      "type": "error"
    },
    {
      "inputs": [
        {
          "internalType": "address",
          "name": "operator",
          "type": "address"
        }
      ],
      "name": "ERC721InvalidOperator",
      "type": "error"
    },
    {
      "inputs": [
        {
          "internalType": "address",
          "name": "owner",
          "type": "address"
        }
      ],
      "name": "ERC721InvalidOwner",
      "type": "error"
    },
    {
      "inputs": [
        {
          "internalType": "address",
          "name": "receiver",
          "type": "address"
        }
      ],
      "name": "ERC721InvalidReceiver",
      "type": "error"
    },
    {
      "inputs": [
        {
          "internalType": "address",
          "name": "sender",
          "type": "address"
        }
      ],
      "name": "ERC721InvalidSender",
      "type": "error"
    },
    {
      "inputs": [
        {
          "internalType": "uint256",
          "name": "tokenId",
          "type": "uint256"
        }
      ],
      "name": "ERC721NonexistentToken",
      "type": "error"
    },
    {
      "inputs": [
        {
          "internalType": "uint256",
          "name": "provided",
          "type": "uint256"
        },
        {
          "internalType": "uint256",
          "name": "required",
          "type": "uint256"
        }
      ],
      "name": "InsufficientFee",
      "type": "error"
    },
    {
      "inputs": [
        {
          "internalType": "address",
          "name": "owner",
          "type": "address"
        }
      ],
      "name": "OwnableInvalidOwner",
      "type": "error"
    },
    {
      "inputs": [
        {
          "internalType": "address",
          "name": "account",
          "type": "address"
        }
      ],
      "name": "OwnableUnauthorizedAccount",
      "type": "error"
    },
    {
      "inputs": [],
      "name": "ReentrancyGuardReentrantCall",
      "type": "error"
    },
    {
      "inputs": [
        {
          "internalType": "uint256",
          "name": "score",
          "type": "uint256"
        },
        {
          "internalType": "uint256",
          "name": "minimum",
          "type": "uint256"
        }
      ],
      "name": "ScoreTooLow",
      "type": "error"
    },
    {
      "inputs": [
        {
          "internalType": "uint256",
          "name": "tokenId",
          "type": "uint256"
        }
      ],
      "name": "TokenDoesNotExist",
      "type": "error"
    },
    {
      "inputs": [],
      "name": "TransferFailed",
      "type": "error"
    },
    {
      "anonymous": false,
      "inputs": [
        {
          "indexed": true,
          "internalType": "address",
          "name": "owner",
          "type": "address"
        },
        {
          "indexed": true,
          "internalType": "address",
          "name": "approved",
          "type": "address"
        },
        {
          "indexed": true,
          "internalType": "uint256",
          "name": "tokenId",
          "type": "uint256"
        }
      ],
      "name": "Approval",
      "type": "event"
    },
    {
      "anonymous": false,
      "inputs": [
        {
          "indexed": true,
          "internalType": "address",
          "name": "owner",
          "type": "address"
        },
        {
          "indexed": true,
          "internalType": "address",
          "name": "operator",
          "type": "address"
        },
        {
          "indexed": false,
          "internalType": "bool",
          "name": "approved",
          "type": "bool"
        }
      ],
      "name": "ApprovalForAll",
      "type": "event"
    },
    {
      "anonymous": false,
      "inputs": [
        {
          "indexed": true,
          "internalType": "uint256",
          "name": "tokenId",
          "type": "uint256"
        },
        {
          "indexed": true,
          "internalType": "address",
          "name": "owner",
          "type": "address"
        },
        {
          "indexed": false,
          "internalType": "string",
          "name": "skillCategory",
          "type": "string"
        },
        {
          "indexed": false,
          "internalType": "uint256",
          "name": "score",
          "type": "uint256"
        },
        {
          "indexed": false,
          "internalType": "string",
          "name": "tier",
          "type": "string"
        }
      ],
      "name": "INFTMinted",
      "type": "event"
    },
    {
      "anonymous": false,
      "inputs": [
        {
          "indexed": false,
          "internalType": "uint256",
          "name": "oldFee",
          "type": "uint256"
        },
        {
          "indexed": false,
          "internalType": "uint256",
          "name": "newFee",
          "type": "uint256"
        }
      ],
      "name": "MintingFeeUpdated",
      "type": "event"
    },
    {
      "anonymous": false,
      "inputs": [
        {
          "indexed": true,
          "internalType": "address",
          "name": "previousOwner",
          "type": "address"
        },
        {
          "indexed": true,
          "internalType": "address",
          "name": "newOwner",
          "type": "address"
        }
      ],
      "name": "OwnershipTransferred",
      "type": "event"
    },
    {
      "anonymous": false,
      "inputs": [
        {
          "indexed": true,
          "internalType": "address",
          "name": "from",
          "type": "address"
        },
        {
          "indexed": true,
          "internalType": "address",
          "name": "to",
          "type": "address"
        },
        {
          "indexed": true,
          "internalType": "uint256",
          "name": "tokenId",
          "type": "uint256"
        }
      ],
      "name": "Transfer",
      "type": "event"
    },
    {
      "anonymous": false,
      "inputs": [
        {
          "indexed": false,
          "internalType": "address",
          "name": "oldTreasury",
          "type": "address"
        },
        {
          "indexed": false,
          "internalType": "address",
          "name": "newTreasury",
          "type": "address"
        }
      ],
      "name": "TreasuryUpdated",
      "type": "event"
    },
    {
      "inputs": [],
      "name": "MIN_SCORE",
      "outputs": [
        {
          "internalType": "uint256",
          "name": "",
          "type": "uint256"
        }
      ],
      "stateMutability": "view",
      "type": "function"
    },
    {
      "inputs": [
        {
          "internalType": "address",
          "name": "to",
          "type": "address"
        },
        {
          "internalType": "uint256",
          "name": "tokenId",
          "type": "uint256"
        }
      ],
      "name": "approve",
      "outputs": [],
      "stateMutability": "nonpayable",
      "type": "function"
    },
    {
      "inputs": [
        {
          "internalType": "address",
          "name": "owner",
          "type": "address"
        }
      ],
      "name": "balanceOf",
      "outputs": [
        {
          "internalType": "uint256",
          "name": "",
          "type": "uint256"
        }
      ],
      "stateMutability": "view",
      "type": "function"
    },
    {
      "inputs": [
        {
          "internalType": "uint256",
          "name": "tokenId",
          "type": "uint256"
        }
      ],
      "name": "getApproved",
      "outputs": [
        {
          "internalType": "address",
          "name": "",
          "type": "address"
        }
      ],
      "stateMutability": "view",
      "type": "function"
    },
    {
      "inputs": [
        {
          "internalType": "uint256",
          "name": "tokenId",
          "type": "uint256"
        }
      ],
      "name": "getINFT",
      "outputs": [
        {
          "components": [
            {
              "internalType": "address",
              "name": "originalOwner",
              "type": "address"
            },
            {
              "internalType": "string",
              "name": "skillCategory",
              "type": "string"
            },
            {
              "internalType": "uint256",
              "name": "score",
              "type": "uint256"
            },
            {
              "internalType": "uint256",
              "name": "originalityScore",
              "type": "uint256"
            },
            {
              "internalType": "uint256",
              "name": "qualityScore",
              "type": "uint256"
            },
            {
              "internalType": "uint256",
              "name": "complexityScore",
              "type": "uint256"
            },
            {
              "internalType": "uint256",
              "name": "authenticityScore",
              "type": "uint256"
            },
            {
              "internalType": "string",
              "name": "encryptedMetadataHash",
              "type": "string"
            },
            {
              "internalType": "string",
              "name": "proofRootHash",
              "type": "string"
            },
            {
              "internalType": "string",
              "name": "fileRootHash",
              "type": "string"
            },
            {
              "internalType": "string[]",
              "name": "badges",
              "type": "string[]"
            },
            {
              "internalType": "uint256",
              "name": "mintedAt",
              "type": "uint256"
            },
            {
              "internalType": "string",
              "name": "tier",
              "type": "string"
            },
            {
              "internalType": "string",
              "name": "metadataURI",
              "type": "string"
            }
          ],
          "internalType": "struct TrustFolioINFT.INFT",
          "name": "",
          "type": "tuple"
        }
      ],
      "stateMutability": "view",
      "type": "function"
    },
    {
      "inputs": [
        {
          "internalType": "string",
          "name": "fileRootHash",
          "type": "string"
        }
      ],
      "name": "getTokenByFileHash",
      "outputs": [
        {
          "internalType": "uint256",
          "name": "",
          "type": "uint256"
        }
      ],
      "stateMutability": "view",
      "type": "function"
    },
    {
      "inputs": [
        {
          "internalType": "address",
          "name": "wallet",
          "type": "address"
        }
      ],
      "name": "getWalletTokens",
      "outputs": [
        {
          "internalType": "uint256[]",
          "name": "",
          "type": "uint256[]"
        }
      ],
      "stateMutability": "view",
      "type": "function"
    },
    {
      "inputs": [
        {
          "internalType": "address",
          "name": "owner",
          "type": "address"
        },
        {
          "internalType": "address",
          "name": "operator",
          "type": "address"
        }
      ],
      "name": "isApprovedForAll",
      "outputs": [
        {
          "internalType": "bool",
          "name": "",
          "type": "bool"
        }
      ],
      "stateMutability": "view",
      "type": "function"
    },
    {
      "inputs": [
        {
          "internalType": "address",
          "name": "to",
          "type": "address"
        },
        {
          "internalType": "string",
          "name": "skillCategory",
          "type": "string"
        },
        {
          "internalType": "uint256",
          "name": "score",
          "type": "uint256"
        },
        {
          "internalType": "uint256",
          "name": "originalityScore",
          "type": "uint256"
        },
        {
          "internalType": "uint256",
          "name": "qualityScore",
          "type": "uint256"
        },
        {
          "internalType": "uint256",
          "name": "complexityScore",
          "type": "uint256"
        },
        {
          "internalType": "uint256",
          "name": "authenticityScore",
          "type": "uint256"
        },
        {
          "internalType": "string",
          "name": "encryptedMetadataHash",
          "type": "string"
        },
        {
          "internalType": "string",
          "name": "proofRootHash",
          "type": "string"
        },
        {
          "internalType": "string",
          "name": "fileRootHash",
          "type": "string"
        },
        {
          "internalType": "string[]",
          "name": "badges",
          "type": "string[]"
        },
        {
          "internalType": "string",
          "name": "metadataURI",
          "type": "string"
        }
      ],
      "name": "mintINFT",
      "outputs": [
        {
          "internalType": "uint256",
          "name": "",
          "type": "uint256"
        }
      ],
      "stateMutability": "payable",
      "type": "function"
    },
    {
      "inputs": [],
      "name": "mintingFee",
      "outputs": [
        {
          "internalType": "uint256",
          "name": "",
          "type": "uint256"
        }
      ],
      "stateMutability": "view",
      "type": "function"
    },
    {
      "inputs": [],
      "name": "name",
      "outputs": [
        {
          "internalType": "string",
          "name": "",
          "type": "string"
        }
      ],
      "stateMutability": "view",
      "type": "function"
    },
    {
      "inputs": [],
      "name": "owner",
      "outputs": [
        {
          "internalType": "address",
          "name": "",
          "type": "address"
        }
      ],
      "stateMutability": "view",
      "type": "function"
    },
    {
      "inputs": [
        {
          "internalType": "uint256",
          "name": "tokenId",
          "type": "uint256"
        }
      ],
      "name": "ownerOf",
      "outputs": [
        {
          "internalType": "address",
          "name": "",
          "type": "address"
        }
      ],
      "stateMutability": "view",
      "type": "function"
    },
    {
      "inputs": [],
      "name": "renounceOwnership",
      "outputs": [],
      "stateMutability": "nonpayable",
      "type": "function"
    },
    {
      "inputs": [
        {
          "internalType": "address",
          "name": "from",
          "type": "address"
        },
        {
          "internalType": "address",
          "name": "to",
          "type": "address"
        },
        {
          "internalType": "uint256",
          "name": "tokenId",
          "type": "uint256"
        }
      ],
      "name": "safeTransferFrom",
      "outputs": [],
      "stateMutability": "nonpayable",
      "type": "function"
    },
    {
      "inputs": [
        {
          "internalType": "address",
          "name": "from",
          "type": "address"
        },
        {
          "internalType": "address",
          "name": "to",
          "type": "address"
        },
        {
          "internalType": "uint256",
          "name": "tokenId",
          "type": "uint256"
        },
        {
          "internalType": "bytes",
          "name": "data",
          "type": "bytes"
        }
      ],
      "name": "safeTransferFrom",
      "outputs": [],
      "stateMutability": "nonpayable",
      "type": "function"
    },
    {
      "inputs": [
        {
          "internalType": "address",
          "name": "operator",
          "type": "address"
        },
        {
          "internalType": "bool",
          "name": "approved",
          "type": "bool"
        }
      ],
      "name": "setApprovalForAll",
      "outputs": [],
      "stateMutability": "nonpayable",
      "type": "function"
    },
    {
      "inputs": [
        {
          "internalType": "uint256",
          "name": "newFee",
          "type": "uint256"
        }
      ],
      "name": "setMintingFee",
      "outputs": [],
      "stateMutability": "nonpayable",
      "type": "function"
    },
    {
      "inputs": [
        {
          "internalType": "address",
          "name": "newTreasury",
          "type": "address"
        }
      ],
      "name": "setTreasury",
      "outputs": [],
      "stateMutability": "nonpayable",
      "type": "function"
    },
    {
      "inputs": [
        {
          "internalType": "bytes4",
          "name": "interfaceId",
          "type": "bytes4"
        }
      ],
      "name": "supportsInterface",
      "outputs": [
        {
          "internalType": "bool",
          "name": "",
          "type": "bool"
        }
      ],
      "stateMutability": "view",
      "type": "function"
    },
    {
      "inputs": [],
      "name": "symbol",
      "outputs": [
        {
          "internalType": "string",
          "name": "",
          "type": "string"
        }
      ],
      "stateMutability": "view",
      "type": "function"
    },
    {
      "inputs": [
        {
          "internalType": "uint256",
          "name": "tokenId",
          "type": "uint256"
        }
      ],
      "name": "tokenURI",
      "outputs": [
        {
          "internalType": "string",
          "name": "",
          "type": "string"
        }
      ],
      "stateMutability": "view",
      "type": "function"
    },
    {
      "inputs": [],
      "name": "totalSupply",
      "outputs": [
        {
          "internalType": "uint256",
          "name": "",
          "type": "uint256"
        }
      ],
      "stateMutability": "view",
      "type": "function"
    },
    {
      "inputs": [
        {
          "internalType": "address",
          "name": "from",
          "type": "address"
        },
        {
          "internalType": "address",
          "name": "to",
          "type": "address"
        },
        {
          "internalType": "uint256",
          "name": "tokenId",
          "type": "uint256"
        }
      ],
      "name": "transferFrom",
      "outputs": [],
      "stateMutability": "nonpayable",
      "type": "function"
    },
    {
      "inputs": [
        {
          "internalType": "address",
          "name": "newOwner",
          "type": "address"
        }
      ],
      "name": "transferOwnership",
      "outputs": [],
      "stateMutability": "nonpayable",
      "type": "function"
    },
    {
      "inputs": [],
      "name": "treasury",
      "outputs": [
        {
          "internalType": "address",
          "name": "",
          "type": "address"
        }
      ],
      "stateMutability": "view",
      "type": "function"
    }
  ],
  "bytecode": "0x608034620003b557601f1990601f906001600160401b039062002745388190038481018616830184811184821017620002d757839282916040528339602092839181010312620003b557516001600160a01b03938482169391849003620003b5576200006a620003b9565b92600f84526e151c9d5cdd119bdb1a5bc812539195608a1b8185015262000090620003b9565b966005885264151253919560da1b828901528451848111620002d7575f546001968782811c92168015620003aa575b85831014620002b857818684931162000357575b508490868311600114620002f7575f92620002eb575b50505f19600383901b1c191690861b175f555b8751938411620002d75784548581811c91168015620002cc575b83821014620002b85783811162000270575b50819284116001146200020c57505081929394955f9262000200575b50505f19600383901b1c191690821b1781555b3315620001e857600680546001600160a01b0319808216339081179093556040519590939291167f8be0079c531659141344cd1fd0a4f28419497f9722a3daafe3b4186f6b6457e05f80a3807f9b779b17422d0df92223018b32b4d1fa46e071723d6817e2486d003becc55f005560075566038d7ea4c68000600855600c541617600c5561236b9081620003da8239f35b604051631e4fbdf760e01b81525f6004820152602490fd5b015190505f8062000144565b5f858152828120918516989193925b898210620002585750508385969798106200023f575b505050811b01815562000157565b01515f1960f88460031b161c191690555f808062000231565b8087859682949686015181550195019301906200021b565b855f52825f208480870160051c820192858810620002ae575b0160051c019086905b828110620002a257505062000128565b5f815501869062000292565b9250819262000289565b634e487b7160e01b5f52602260045260245ffd5b90607f169062000116565b634e487b7160e01b5f52604160045260245ffd5b015190505f80620000e9565b9084899416915f8052865f20925f5b8882821062000340575050841162000327575b505050811b015f55620000fc565b01515f1960f88460031b161c191690555f808062000319565b8385015186558c9790950194938401930162000306565b9091505f8052845f208680850160051c820192878610620003a0575b918a91869594930160051c01915b82811062000391575050620000d3565b5f81558594508a910162000381565b9250819262000373565b91607f1691620000bf565b5f80fd5b60408051919082016001600160401b03811183821017620002d75760405256fe6080806040526004361015610012575f80fd5b5f3560e01c90816301ffc9a714611c765750806306fdde0314611bcf578063081812fc14611b93578063095ea7b314611ab257806318160ddd14611a89578063238a470914611a3657806323b872dd14611a1f5780634081f7321461170657806340b89270146116eb57806342842e0e146116be578063477aeb1b1461166d5780635a64ad951461165057806361d027b3146116285780636352211e146115f857806370a08231146115a2578063715018a6146115475780638da5cb5b1461151f57806395d89b4114611441578063a22cb46514611382578063a6f027811461041a578063b88d4fde146103ad578063c87b56dd14610334578063e985e9c5146102e2578063f0f4426014610273578063f2fde38b146101ec5763fabc38be1461013a575f80fd5b346101e8576020806003193601126101e8576001600160a01b0361015c611d1f565b165f52600a815260405f20604051908183825491828152019081925f52845f20905f5b868282106101d457868661019582880383611dff565b60405192839281840190828552518091526040840192915f5b8281106101bd57505050500390f35b8351855286955093810193928101926001016101ae565b83548552909301926001928301920161017f565b5f80fd5b346101e85760203660031901126101e857610205611d1f565b61020d61217f565b6001600160a01b0390811690811561025b57600654826001600160601b0360a01b821617600655167f8be0079c531659141344cd1fd0a4f28419497f9722a3daafe3b4186f6b6457e05f80a3005b604051631e4fbdf760e01b81525f6004820152602490fd5b346101e85760203660031901126101e85761028c611d1f565b61029461217f565b600c547f4ab5be82436d353e61ca18726e984e561f5c1cc7c6d38b29d2553c790434705a604060018060a01b0381519481851686521693846020820152a16001600160a01b03191617600c55005b346101e85760403660031901126101e8576102fb611d1f565b610303611d35565b9060018060a01b038091165f52600560205260405f2091165f52602052602060ff60405f2054166040519015158152f35b346101e85760203660031901126101e8576004355f818152600260205260409020546001600160a01b031615610395575f52600960205261039161037d600d60405f2001611ea9565b604051918291602083526020830190611ce1565b0390f35b6024906040519063c927e5bf60e01b82526004820152fd5b346101e85760803660031901126101e8576103c6611d1f565b6103ce611d35565b90604435606435926001600160401b0384116101e857366023850112156101e857610406610418943690602481600401359101611e3b565b92610412838383611f4b565b33612222565b005b6101803660031901126101e85761042f611d1f565b6024356001600160401b0381116101e85761044e903690600401611d80565b60e4356001600160401b0381116101e85761046d903690600401611d80565b91610104356001600160401b0381116101e85761048e903690600401611d80565b929093610124356001600160401b0381116101e8576104b1903690600401611d80565b9190926001600160401b0361014435116101e857366023610144350112156101e8576001600160401b036101443560040135116101e857366024610144356004013560051b610144350101116101e857610164356001600160401b0381116101e857610521903690600401611d80565b909160027f9b779b17422d0df92223018b32b4d1fa46e071723d6817e2486d003becc55f0054146113705760027f9b779b17422d0df92223018b32b4d1fa46e071723d6817e2486d003becc55f0055603c604435106113505760405185878237600b8682015260208187810103019020548061131f57506008548034106113015750600754985f198a146112ed578a98610625610631938e9760018e016007556105f16105cf6044356121ab565b9d6040519a6105dd8c611dad565b6001600160a01b03168b5236908e90611e3b565b60208a015260443560408a015260643560608a015260843560808a015260a43560a08a015260c43560c08a01523691611e3b565b60e08701523691611e3b565b610100840152610642368587611e3b565b61012084015261065861014435600401356120c9565b6106656040519182611dff565b6101443560048101358252602401602082015b6024610144356004013560051b61014435010182106112aa575050906106b4929161014085015242610160850152876101808501523691611e3b565b6101a0820152855f52600960205260405f209060018060a01b038151166001600160601b0360a01b83541617825560208101518051906001600160401b038211610d28576107056001850154611e71565b601f8111611277575b50602090601f83116001146112095761073e92915f9183610d3c575b50508160011b915f199060031b1c19161790565b60018301555b60408101516002830155606081015160038301556080810151600483015560a0810151600583015560c0810151600683015560e08101518051906001600160401b038211610d28576107996007850154611e71565b601f81116111d6575b50602090601f8311600114611168576107d192915f9183610d3c5750508160011b915f199060031b1c19161790565b60078301555b6101008101518051906001600160401b038211610d28576107fb6008850154611e71565b601f8111611135575b50602090601f83116001146110c75761083392915f9183610d3c5750508160011b915f199060031b1c19161790565b60088301555b6101208101518051906001600160401b038211610d285761085d6009850154611e71565b601f8111611094575b50602090601f83116001146110265761089592915f9183610d3c5750508160011b915f199060031b1c19161790565b60098301555b610140810151805190600160401b8211610d2857600a84015482600a860155808310610fb2575b5060200190600a84015f5260205f20915f905b828210610e9f5750505050610160810151600b8301556101808101518051906001600160401b038211610d285761090f600c850154611e71565b601f8111610e6c575b50602090601f8311600114610dfc57918061094c926101a095945f92610df15750508160011b915f199060031b1c19161790565b600c8401555b01518051906001600160401b038211610d2857610972600d840154611e71565b601f8111610db3575b50602090601f8311600114610d475791806109ad92600d945f92610d3c5750508160011b915f199060031b1c19161790565b9101555b6001600160a01b0387165f908152600a6020526040902080549092600160401b821015610d285760018201808555821015610d14578660209281955f52835f2001558260405193849283378101600b81520301902055604051610a1381611dc9565b5f81526001600160a01b03861615610cfc575f848152600260205260409020546001600160a01b031680151590859082610cc9575b6001600160a01b0389165f818152600360209081526040808320805460010190558583526002909152812080546001600160a01b031916831790559091907fddf252ad1be2c89b69c2b068fc378daa952ba7f163c4a11628f55a4df523b3ef9080a4610cb157853b610b9d575b509091929334151580610b89575b610b58575b6020948492610b297f0e4454bc1c2ca39b354bf20daba0b1416dfc6c383fc3b6738d3599af47298e9493610b096040519485946060865260608601916120e0565b604435848b015283810360408501526001600160a01b0390911696611ce1565b0390a360017f9b779b17422d0df92223018b32b4d1fa46e071723d6817e2486d003becc55f0055604051908152f35b5f8080803460018060a01b03600c54165af1610b72612116565b50610ac8576040516312171d8360e31b8152600490fd5b50600c546001600160a01b03161515610ac3565b60405160208180610bd6630a85bd0160e11b958683523360048401525f6024840152896044840152608060648401526084830190611ce1565b03815f6001600160a01b038c165af15f9181610c6c575b50610c2c5786610bfb612116565b8051919082610c2557604051633250574960e11b81526001600160a01b0383166004820152602490fd5b6020915001fd5b63ffffffff60e09793949596971b1603610c4a579392919085610ab5565b604051633250574960e11b81526001600160a01b039091166004820152602490fd5b9091506020813d602011610ca9575b81610c8860209383611dff565b810103126101e857516001600160e01b0319811681036101e8579088610bed565b3d9150610c7b565b6040516339e3563760e11b81525f6004820152602490fd5b5f82815260046020526040902080546001600160a01b0319169055805f52600360205260405f205f198154019055610a48565b604051633250574960e11b81525f6004820152602490fd5b634e487b7160e01b5f52603260045260245ffd5b634e487b7160e01b5f52604160045260245ffd5b015190508c8061072a565b90600d84015f5260205f20915f5b601f1985168110610d9b5750918391600193600d95601f19811610610d83575b505050811b019101556109b1565b01515f1960f88460031b161c191690558b8080610d75565b91926020600181928685015181550194019201610d55565b610de190600d85015f5260205f20601f850160051c81019160208610610de7575b601f0160051c0190612100565b8a61097b565b9091508190610dd4565b015190508d8061072a565b90600c85015f5260205f20915f5b601f1985168110610e5457509183916001936101a09695601f19811610610e3c575b505050811b01600c840155610952565b01515f1960f88460031b161c191690558c8080610e2c565b91926020600181928685015181550194019201610e0a565b610e9990600c86015f5260205f20601f850160051c81019160208610610de757601f0160051c0190612100565b8b610918565b80518051906001600160401b038211610d2857610ebc8654611e71565b601f8111610f82575b50602090601f8311600114610f165792610efc836001959460209487965f92610f0b5750508160011b915f199060031b1c19161790565b87555b019401910190926108d5565b015190505f8061072a565b90865f5260205f20915f5b601f1985168110610f6a575083602093600196938796938794601f19811610610f52575b505050811b018755610eff565b01515f1960f88460031b161c191690555f8080610f45565b91926020600181928685015181550194019201610f21565b610fac90875f5260205f20601f850160051c81019160208610610de757601f0160051c0190612100565b8f610ec5565b600a85015f5260205f20908382015b8183018110610fd15750506108c2565b80610fde60019254611e71565b80610feb575b5001610fc1565b601f8111831461100057505f81555b8f610fe4565b5f9082825261101d601f60208420920160051c8201858301612100565b81835555610ffa565b9190600985015f5260205f20905f935b601f1984168510611079576001945083601f19811610611061575b505050811b01600983015561089b565b01515f1960f88460031b161c191690558b8080611051565b81810151835560209485019460019093019290910190611036565b6110c190600986015f5260205f20601f850160051c81019160208610610de757601f0160051c0190612100565b8b610866565b9190600885015f5260205f20905f935b601f198416851061111a576001945083601f19811610611102575b505050811b016008830155610839565b01515f1960f88460031b161c191690558b80806110f2565b818101518355602094850194600190930192909101906110d7565b61116290600886015f5260205f20601f850160051c81019160208610610de757601f0160051c0190612100565b8b610804565b9190600785015f5260205f20905f935b601f19841685106111bb576001945083601f198116106111a3575b505050811b0160078301556107d7565b01515f1960f88460031b161c191690558b8080611193565b81810151835560209485019460019093019290910190611178565b61120390600786015f5260205f20601f850160051c81019160208610610de757601f0160051c0190612100565b8b6107a2565b9190600185015f5260205f20905f935b601f198416851061125c576001945083601f19811610611244575b505050811b016001830155610744565b01515f1960f88460031b161c191690558b8080611234565b81810151835560209485019460019093019290910190611219565b6112a490600186015f5260205f20601f850160051c81019160208610610de757601f0160051c0190612100565b8b61070e565b81356001600160401b0381116101e8576101443501366043820112156101e8576020916112e283923690604460248201359101611e3b565b815201910190610678565b634e487b7160e01b5f52601160045260245ffd5b6044906040519063a458261b60e01b82523460048301526024820152fd5b60408051630506e9d760e51b8152600481019190915290819061134660448301898b6120e0565b9060248301520390fd5b6040516389a822a360e01b8152604480356004830152603c602483015290fd5b604051633ee5aeb560e01b8152600490fd5b346101e85760403660031901126101e85761139b611d1f565b602435908115158092036101e8573315611429576001600160a01b031690811561141057335f52600560205260405f20825f5260205260405f2060ff1981541660ff83161790556040519081527f17307eab39ab6107e8899845ad3d59bd9653f200f220920489ca2b5937696c3160203392a3005b604051630b61174360e31b815260048101839052602490fd5b60405163a9fbf51f60e01b81525f6004820152602490fd5b346101e8575f3660031901126101e8576040515f6001826001549261146584611e71565b92838352602094856001821691825f146114ff5750506001146114a4575b5061149092500383611dff565b610391604051928284938452830190611ce1565b84915060015f527fb10e2d527612073b26eecdfd717e6a320cf44b4afac2b0732d9fcbe2b7fa0cf6905f915b8583106114e7575050611490935082010185611483565b805483890185015287945086939092019181016114d0565b60ff19168582015261149095151560051b85010192508791506114839050565b346101e8575f3660031901126101e8576006546040516001600160a01b039091168152602090f35b346101e8575f3660031901126101e85761155f61217f565b600680546001600160a01b031981169091555f906001600160a01b03167f8be0079c531659141344cd1fd0a4f28419497f9722a3daafe3b4186f6b6457e08280a3005b346101e85760203660031901126101e8576001600160a01b036115c3611d1f565b1680156115e0575f526003602052602060405f2054604051908152f35b6040516322718ad960e21b81525f6004820152602490fd5b346101e85760203660031901126101e8576020611616600435612145565b6040516001600160a01b039091168152f35b346101e8575f3660031901126101e857600c546040516001600160a01b039091168152602090f35b346101e8575f3660031901126101e8576020600854604051908152f35b346101e85760203660031901126101e8576004356001600160401b0381116101e85760206116a081923690600401611d80565b91908260405193849283378101600b81520301902054604051908152f35b346101e8576104186116cf36611d4b565b90604051926116dd84611dc9565b5f8452610412838383611f4b565b346101e8575f3660031901126101e8576020604051603c8152f35b346101e85760203660031901126101e85760043560606101a060405161172b81611dad565b5f81528260208201525f60408201525f838201525f60808201525f60a08201525f60c08201528260e08201528261010082015282610120820152826101408201525f610160820152826101808201520152805f52600260205260018060a01b0360405f20541615610395575f52600960205260405f20604051906117ae82611dad565b80546001600160a01b031682526117c760018201611ea9565b6020830152600281015460408301526003810154606083015260048101546080830152600581015460a0830152600681015460c083015261180a60078201611ea9565b60e083015261181b60088201611ea9565b61010083015261182d60098201611ea9565b610120830152600a810154611841816120c9565b9061184f6040519283611dff565b80825260208201600a84015f5260205f205f915b838310611a02578661189b600d8888610140850152600b81015461016085015261188f600c8201611ea9565b61018085015201611ea9565b6101a082015260405180916020825260018060a01b03815116602083015261195661193e6119266118dd60208501516101c060408801526101e0870190611ce1565b6040850151606087015260608501516080870152608085015160a087015260a085015160c087015260c085015160e087015260e0850151601f1987830301610100880152611ce1565b610100840151858203601f1901610120870152611ce1565b610120830151848203601f1901610140860152611ce1565b61014082015190601f1984820301610160850152815180825260208201916020808360051b8301019401925f915b8383106119cf578780610391896101a06119ba8b610160840151610180870152610180840151601f198783030184880152611ce1565b910151838203601f19016101c0850152611ce1565b919395965091936020806119ef600193601f198682030187528951611ce1565b9701930193019092879695949293611984565b600160208192611a1185611ea9565b815201920192019190611863565b346101e857610418611a3036611d4b565b91611f4b565b346101e85760203660031901126101e857600435611a5261217f565b7fc24d648b8b29d6566f302551df9152ced5a44785e31f38d1d047c8168dd3451960406008548151908152836020820152a1600855005b346101e8575f3660031901126101e8576007545f1981019081116112ed57602090604051908152f35b346101e85760403660031901126101e857611acb611d1f565b602435611ad781612145565b33151580611b80575b80611b57575b611b3f576001600160a01b039283169282918491167f8c5be1e5ebec7d5bd14f71427d1e84f3dd0314c0f7b2291e5b200ac8c7c3b9255f80a45f90815260046020526040902080546001600160a01b0319169091179055005b60405163a9fbf51f60e01b8152336004820152602490fd5b5060018060a01b0381165f52600560205260405f20335f5260205260ff60405f20541615611ae6565b506001600160a01b038116331415611ae0565b346101e85760203660031901126101e857600435611bb081612145565b505f526004602052602060018060a01b0360405f205416604051908152f35b346101e8575f3660031901126101e8576040515f80549082611bf083611e71565b91828252602093600190856001821691825f146114ff575050600114611c1d575061149092500383611dff565b5f808052859250907f290decd9548b62a8d60345a988386fc84ba6bc95484008f6362f93160ef3e5635b858310611c5e575050611490935082010185611483565b80548389018501528794508693909201918101611c47565b346101e85760203660031901126101e8576004359063ffffffff60e01b82168092036101e8576020916380ac58cd60e01b8114908115611cd0575b8115611cbf575b5015158152f35b6301ffc9a760e01b14905083611cb8565b635b5e139f60e01b81149150611cb1565b91908251928382525f5b848110611d0b575050825f602080949584010152601f8019910116010190565b602081830181015184830182015201611ceb565b600435906001600160a01b03821682036101e857565b602435906001600160a01b03821682036101e857565b60609060031901126101e8576001600160a01b039060043582811681036101e8579160243590811681036101e8579060443590565b9181601f840112156101e8578235916001600160401b0383116101e857602083818601950101116101e857565b6101c081019081106001600160401b03821117610d2857604052565b602081019081106001600160401b03821117610d2857604052565b604081019081106001600160401b03821117610d2857604052565b90601f801991011681019081106001600160401b03821117610d2857604052565b6001600160401b038111610d2857601f01601f191660200190565b929192611e4782611e20565b91611e556040519384611dff565b8294818452818301116101e8578281602093845f960137010152565b90600182811c92168015611e9f575b6020831014611e8b57565b634e487b7160e01b5f52602260045260245ffd5b91607f1691611e80565b9060405191825f8254611ebb81611e71565b908184526020946001916001811690815f14611f295750600114611eeb575b505050611ee992500383611dff565b565b5f90815285812095935091905b818310611f11575050611ee993508201015f8080611eda565b85548884018501529485019487945091830191611ef8565b92505050611ee994925060ff191682840152151560051b8201015f8080611eda565b6001600160a01b039182169290918315610cfc57815f52602092600284528260409583875f2054169533151580612037575b5060029087612006575b825f5260038152885f2060018154019055835f5252865f20816001600160601b0360a01b825416179055857fddf252ad1be2c89b69c2b068fc378daa952ba7f163c4a11628f55a4df523b3ef5f80a41692838303611fe55750505050565b6064945051926364283d7b60e01b8452600484015260248301526044820152fd5b5f84815260046020526040812080546001600160a01b03191690558881526003825289902080545f19019055611f87565b9192509080612088575b1561204f579084915f611f7d565b86858761206c576024915190637e27328960e01b82526004820152fd5b604491519063177e802f60e01b82523360048301526024820152fd5b5033861480156120ad575b806120415750845f52600481523384885f20541614612041565b50855f5260058152865f20335f52815260ff875f205416612093565b6001600160401b038111610d285760051b60200190565b908060209392818452848401375f828201840152601f01601f1916010190565b81811061210b575050565b5f8155600101612100565b3d15612140573d9061212782611e20565b916121356040519384611dff565b82523d5f602084013e565b606090565b5f818152600260205260409020546001600160a01b0316908115612167575090565b60249060405190637e27328960e01b82526004820152fd5b6006546001600160a01b0316330361219357565b60405163118cdaa760e01b8152336004820152602490fd5b605a8110156121fe57604b11156121de576040516121c881611de4565b600681526539b4b63b32b960d11b602082015290565b6040516121ea81611de4565b600481526319dbdb1960e21b602082015290565b5060405161220b81611de4565b6007815266191a585b5bdb9960ca1b602082015290565b9291803b612232575b5050505050565b604051630a85bd0160e11b8082526001600160a01b03958616600483015292851660248201526044810193909352608060648401529092169260209082908190612280906084830190611ce1565b03815f875af15f91816122f0575b506122be578261229c612116565b8051919082610c2557604051633250574960e11b815260048101839052602490fd5b6001600160e01b031916036122d857505f8080808061222b565b60249060405190633250574960e11b82526004820152fd5b9091506020813d60201161232d575b8161230c60209383611dff565b810103126101e857516001600160e01b0319811681036101e857905f61228e565b3d91506122ff56fea264697066735822122010621b05aff8cfa66be877f68a75c1842ebcee5fb5e8f61a2721850a484c5e9d64736f6c63430008180033",
  "linkReferences": {},
  "deployedLinkReferences": {}
}