{
  "_format": "hh-sol-artifact-1",
  "contractName": "TrustFolioINFT",
  "sourceName": "contracts/TrustFolioINFT.sol",
  "abi": [
    {
      "inputs": [
        {
          "internalType": "address",
          "name": "_treasury",
          "type": "address"
        }
      ],
      "stateMutability": "nonpayable",
      "type": "constructor"
    },
    {
      "inputs": [
        {
          "internalType": "string",
          "name": "fileRootHash",
          "type": "string"
        },
        {
          "internalType": "uint256",
          "name": "existingTokenId",
          "type": "uint256"
        }
      ],
      "name": "AlreadyMinted",
      "type": "error"
    },
    {
      "inputs": [
        {
          "internalType": "address",
          "name": "sender",
          "type": "address"
        },
        {
          "internalType": "uint256",
          "name": "tokenId",
          "type": "uint256"
        },
        {
          "internalType": "address",
          "name": "owner",
          "type": "address"
        }
      ],
      "name": "ERC721IncorrectOwner",
      "type": "error"
    },
    {
      "inputs": [
        {
          "internalType": "address",
          "name": "operator",
          "type": "address"
        },
        {
          "internalType": "uint256",
          "name": "tokenId",
          "type": "uint256"
        }
      ],
      "name": "ERC721InsufficientApproval",
      "type": "error"
    },
    {
      "inputs": [
        {
          "internalType": "address",
          "name": "approver",
          "type": "address"
        }
      ],
      "name": "ERC721InvalidApprover",
      "type": "error"
    },
    {
      "inputs": [
        {
          "internalType": "address",
          "name": "operator",
          "type": "address"
        }
      ],
      "name": "ERC721InvalidOperator",
      "type": "error"
    },
    {
      "inputs": [
        {
          "internalType": "address",
          "name": "owner",
          "type": "address"
        }
      ],
      "name": "ERC721InvalidOwner",
      "type": "error"
    },
    {
      "inputs": [
        {
          "internalType": "address",
          "name": "receiver",
          "type": "address"
        }
      ],
      "name": "ERC721InvalidReceiver",
      "type": "error"
    },
    {
      "inputs": [
        {
          "internalType": "address",
          "name": "sender",
          "type": "address"
        }
      ],
      "name": "ERC721InvalidSender",
      "type": "error"
    },
    {
      "inputs": [
        {
          "internalType": "uint256",
          "name": "tokenId",
          "type": "uint256"
        }
      ],
      "name": "ERC721NonexistentToken",
      "type": "error"
    },
    {
      "inputs": [
        {
          "internalType": "uint256",
          "name": "provided",
          "type": "uint256"
        },
        {
          "internalType": "uint256",
          "name": "required",
          "type": "uint256"
        }
      ],
      "name": "InsufficientFee",
      "type": "error"
    },
    {
      "inputs": [
        {
          "internalType": "address",
          "name": "owner",
          "type": "address"
        }
      ],
      "name": "OwnableInvalidOwner",
      "type": "error"
    },
    {
      "inputs": [
        {
          "internalType": "address",
          "name": "account",
          "type": "address"
        }
      ],
      "name": "OwnableUnauthorizedAccount",
      "type": "error"
    },
    {
      "inputs": [],
      "name": "ReentrancyGuardReentrantCall",
      "type": "error"
    },
    {
      "inputs": [
        {
          "internalType": "uint256",
          "name": "score",
          "type": "uint256"
        },
        {
          "internalType": "uint256",
          "name": "minimum",
          "type": "uint256"
        }
      ],
      "name": "ScoreTooLow",
      "type": "error"
    },
    {
      "inputs": [
        {
          "internalType": "uint256",
          "name": "tokenId",
          "type": "uint256"
        }
      ],
      "name": "TokenDoesNotExist",
      "type": "error"
    },
    {
      "inputs": [],
      "name": "TransferFailed",
      "type": "error"
    },
    {
      "anonymous": false,
      "inputs": [
        {
          "indexed": true,
          "internalType": "address",
          "name": "owner",
          "type": "address"
        },
        {
          "indexed": true,
          "internalType": "address",
          "name": "approved",
          "type": "address"
        },
        {
          "indexed": true,
          "internalType": "uint256",
          "name": "tokenId",
          "type": "uint256"
        }
      ],
      "name": "Approval",
      "type": "event"
    },
    {
      "anonymous": false,
      "inputs": [
        {
          "indexed": true,
          "internalType": "address",
          "name": "owner",
          "type": "address"
        },
        {
          "indexed": true,
          "internalType": "address",
          "name": "operator",
          "type": "address"
        },
        {
          "indexed": false,
          "internalType": "bool",
          "name": "approved",
          "type": "bool"
        }
      ],
      "name": "ApprovalForAll",
      "type": "event"
    },
    {
      "anonymous": false,
      "inputs": [
        {
          "indexed": true,
          "internalType": "uint256",
          "name": "tokenId",
          "type": "uint256"
        },
        {
          "indexed": true,
          "internalType": "address",
          "name": "owner",
          "type": "address"
        },
        {
          "indexed": false,
          "internalType": "string",
          "name": "skillCategory",
          "type": "string"
        },
        {
          "indexed": false,
          "internalType": "uint256",
          "name": "score",
          "type": "uint256"
        },
        {
          "indexed": false,
          "internalType": "string",
          "name": "tier",
          "type": "string"
        }
      ],
      "name": "INFTMinted",
      "type": "event"
    },
    {
      "anonymous": false,
      "inputs": [
        {
          "indexed": false,
          "internalType": "uint256",
          "name": "oldFee",
          "type": "uint256"
        },
        {
          "indexed": false,
          "internalType": "uint256",
          "name": "newFee",
          "type": "uint256"
        }
      ],
      "name": "MintingFeeUpdated",
      "type": "event"
    },
    {
      "anonymous": false,
      "inputs": [
        {
          "indexed": true,
          "internalType": "address",
          "name": "previousOwner",
          "type": "address"
        },
        {
          "indexed": true,
          "internalType": "address",
          "name": "newOwner",
          "type": "address"
        }
      ],
      "name": "OwnershipTransferred",
      "type": "event"
    },
    {
      "anonymous": false,
      "inputs": [
        {
          "indexed": true,
          "internalType": "address",
          "name": "from",
          "type": "address"
        },
        {
          "indexed": true,
          "internalType": "address",
          "name": "to",
          "type": "address"
        },
        {
          "indexed": true,
          "internalType": "uint256",
          "name": "tokenId",
          "type": "uint256"
        }
      ],
      "name": "Transfer",
      "type": "event"
    },
    {
      "anonymous": false,
      "inputs": [
        {
          "indexed": false,
          "internalType": "address",
          "name": "oldTreasury",
          "type": "address"
        },
        {
          "indexed": false,
          "internalType": "address",
          "name": "newTreasury",
          "type": "address"
        }
      ],
      "name": "TreasuryUpdated",
      "type": "event"
    },
    {
      "inputs": [],
      "name": "MIN_SCORE",
      "outputs": [
        {
          "internalType": "uint256",
          "name": "",
          "type": "uint256"
        }
      ],
      "stateMutability": "view",
      "type": "function"
    },
    {
      "inputs": [
        {
          "internalType": "address",
          "name": "to",
          "type": "address"
        },
        {
          "internalType": "uint256",
          "name": "tokenId",
          "type": "uint256"
        }
      ],
      "name": "approve",
      "outputs": [],
      "stateMutability": "nonpayable",
      "type": "function"
    },
    {
      "inputs": [
        {
          "internalType": "address",
          "name": "owner",
          "type": "address"
        }
      ],
      "name": "balanceOf",
      "outputs": [
        {
          "internalType": "uint256",
          "name": "",
          "type": "uint256"
        }
      ],
      "stateMutability": "view",
      "type": "function"
    },
    {
      "inputs": [
        {
          "internalType": "uint256",
          "name": "tokenId",
          "type": "uint256"
        }
      ],
      "name": "getApproved",
      "outputs": [
        {
          "internalType": "address",
          "name": "",
          "type": "address"
        }
      ],
      "stateMutability": "view",
      "type": "function"
    },
    {
      "inputs": [
        {
          "internalType": "uint256",
          "name": "tokenId",
          "type": "uint256"
        }
      ],
      "name": "getINFT",
      "outputs": [
        {
          "components": [
            {
              "internalType": "address",
              "name": "originalOwner",
              "type": "address"
            },
            {
              "internalType": "string",
              "name": "skillCategory",
              "type": "string"
            },
            {
              "internalType": "uint256",
              "name": "score",
              "type": "uint256"
            },
            {
              "internalType": "uint256",
              "name": "originalityScore",
              "type": "uint256"
            },
            {
              "internalType": "uint256",
              "name": "qualityScore",
              "type": "uint256"
            },
            {
              "internalType": "uint256",
              "name": "complexityScore",
              "type": "uint256"
            },
            {
              "internalType": "uint256",
              "name": "authenticityScore",
              "type": "uint256"
            },
            {
              "internalType": "string",
              "name": "encryptedMetadataHash",
              "type": "string"
            },
            {
              "internalType": "string",
              "name": "proofRootHash",
              "type": "string"
            },
            {
              "internalType": "string",
              "name": "fileRootHash",
              "type": "string"
            },
            {
              "internalType": "string[]",
              "name": "badges",
              "type": "string[]"
            },
            {
              "internalType": "uint256",
              "name": "mintedAt",
              "type": "uint256"
            },
            {
              "internalType": "string",
              "name": "tier",
              "type": "string"
            },
            {
              "internalType": "string",
              "name": "metadataURI",
              "type": "string"
            }
          ],
          "internalType": "struct TrustFolioINFT.INFT",
          "name": "",
          "type": "tuple"
        }
      ],
      "stateMutability": "view",
      "type": "function"
    },
    {
      "inputs": [
        {
          "internalType": "string",
          "name": "fileRootHash",
          "type": "string"
        }
      ],
      "name": "getTokenByFileHash",
      "outputs": [
        {
          "internalType": "uint256",
          "name": "",
          "type": "uint256"
        }
      ],
      "stateMutability": "view",
      "type": "function"
    },
    {
      "inputs": [
        {
          "internalType": "address",
          "name": "wallet",
          "type": "address"
        }
      ],
      "name": "getWalletTokens",
      "outputs": [
        {
          "internalType": "uint256[]",
          "name": "",
          "type": "uint256[]"
        }
      ],
      "stateMutability": "view",
      "type": "function"
    },
    {
      "inputs": [
        {
          "internalType": "address",
          "name": "owner",
          "type": "address"
        },
        {
          "internalType": "address",
          "name": "operator",
          "type": "address"
        }
      ],
      "name": "isApprovedForAll",
      "outputs": [
        {
          "internalType": "bool",
          "name": "",
          "type": "bool"
        }
      ],
      "stateMutability": "view",
      "type": "function"
    },
    {
      "inputs": [
        {
          "internalType": "address",
          "name": "to",
          "type": "address"
        },
        {
          "internalType": "string",
          "name": "skillCategory",
          "type": "string"
        },
        {
          "internalType": "uint256",
          "name": "score",
          "type": "uint256"
        },
        {
          "internalType": "uint256",
          "name": "originalityScore",
          "type": "uint256"
        },
        {
          "internalType": "uint256",
          "name": "qualityScore",
          "type": "uint256"
        },
        {
          "internalType": "uint256",
          "name": "complexityScore",
          "type": "uint256"
        },
        {
          "internalType": "uint256",
          "name": "authenticityScore",
          "type": "uint256"
        },
        {
          "internalType": "string",
          "name": "encryptedMetadataHash",
          "type": "string"
        },
        {
          "internalType": "string",
          "name": "proofRootHash",
          "type": "string"
        },
        {
          "internalType": "string",
          "name": "fileRootHash",
          "type": "string"
        },
        {
          "internalType": "string[]",
          "name": "badges",
          "type": "string[]"
        },
        {
          "internalType": "string",
          "name": "metadataURI",
          "type": "string"
        }
      ],
      "name": "mintINFT",
      "outputs": [
        {
          "internalType": "uint256",
          "name": "",
          "type": "uint256"
        }
      ],
      "stateMutability": "payable",
      "type": "function"
    },
    {
      "inputs": [],
      "name": "mintingFee",
      "outputs": [
        {
          "internalType": "uint256",
          "name": "",
          "type": "uint256"
        }
      ],
      "stateMutability": "view",
      "type": "function"
    },
    {
      "inputs": [],
      "name": "name",
      "outputs": [
        {
          "internalType": "string",
          "name": "",
          "type": "string"
        }
      ],
      "stateMutability": "view",
      "type": "function"
    },
    {
      "inputs": [],
      "name": "owner",
      "outputs": [
        {
          "internalType": "address",
          "name": "",
          "type": "address"
        }
      ],
      "stateMutability": "view",
      "type": "function"
    },
    {
      "inputs": [
        {
          "internalType": "uint256",
          "name": "tokenId",
          "type": "uint256"
        }
      ],
      "name": "ownerOf",
      "outputs": [
        {
          "internalType": "address",
          "name": "",
          "type": "address"
        }
      ],
      "stateMutability": "view",
      "type": "function"
    },
    {
      "inputs": [],
      "name": "renounceOwnership",
      "outputs": [],
      "stateMutability": "nonpayable",
      "type": "function"
    },
    {
      "inputs": [
        {
          "internalType": "address",
          "name": "from",
          "type": "address"
        },
        {
          "internalType": "address",
          "name": "to",
          "type": "address"
        },
        {
          "internalType": "uint256",
          "name": "tokenId",
          "type": "uint256"
        }
      ],
      "name": "safeTransferFrom",
      "outputs": [],
      "stateMutability": "nonpayable",
      "type": "function"
    },
    {
      "inputs": [
        {
          "internalType": "address",
          "name": "from",
          "type": "address"
        },
        {
          "internalType": "address",
          "name": "to",
          "type": "address"
        },
        {
          "internalType": "uint256",
          "name": "tokenId",
          "type": "uint256"
        },
        {
          "internalType": "bytes",
          "name": "data",
          "type": "bytes"
        }
      ],
      "name": "safeTransferFrom",
      "outputs": [],
      "stateMutability": "nonpayable",
      "type": "function"
    },
    {
      "inputs": [
        {
          "internalType": "address",
          "name": "operator",
          "type": "address"
        },
        {
          "internalType": "bool",
          "name": "approved",
          "type": "bool"
        }
      ],
      "name": "setApprovalForAll",
      "outputs": [],
      "stateMutability": "nonpayable",
      "type": "function"
    },
    {
      "inputs": [
        {
          "internalType": "uint256",
          "name": "newFee",
          "type": "uint256"
        }
      ],
      "name": "setMintingFee",
      "outputs": [],
      "stateMutability": "nonpayable",
      "type": "function"
    },
    {
      "inputs": [
        {
          "internalType": "address",
          "name": "newTreasury",
          "type": "address"
        }
      ],
      "name": "setTreasury",
      "outputs": [],
      "stateMutability": "nonpayable",
      "type": "function"
    },
    {
      "inputs": [
        {
          "internalType": "bytes4",
          "name": "interfaceId",
          "type": "bytes4"
        }
      ],
      "name": "supportsInterface",
      "outputs": [
        {
          "internalType": "bool",
          "name": "",
          "type": "bool"
        }
      ],
      "stateMutability": "view",
      "type": "function"
    },
    {
      "inputs": [],
      "name": "symbol",
      "outputs": [
        {
          "internalType": "string",
          "name": "",
          "type": "string"
        }
      ],
      "stateMutability": "view",
      "type": "function"
    },
    {
      "inputs": [
        {
          "internalType": "uint256",
          "name": "tokenId",
          "type": "uint256"
        }
      ],
      "name": "tokenURI",
      "outputs": [
        {
          "internalType": "string",
          "name": "",
          "type": "string"
        }
      ],
      "stateMutability": "view",
      "type": "function"
    },
    {
      "inputs": [],
      "name": "totalSupply",
      "outputs": [
        {
          "internalType": "uint256",
          "name": "",
          "type": "uint256"
        }
      ],
      "stateMutability": "view",
      "type": "function"
    },
    {
      "inputs": [
        {
          "internalType": "address",
          "name": "from",
          "type": "address"
        },
        {
          "internalType": "address",
          "name": "to",
          "type": "address"
        },
        {
          "internalType": "uint256",
          "name": "tokenId",
          "type": "uint256"
        }
      ],
      "name": "transferFrom",
      "outputs": [],
      "stateMutability": "nonpayable",
      "type": "function"
    },
    {
      "inputs": [
        {
          "internalType": "address",
          "name": "newOwner",
          "type": "address"
        }
      ],
      "name": "transferOwnership",
      "outputs": [],
      "stateMutability": "nonpayable",
      "type": "function"
    },
    {
      "inputs": [],
      "name": "treasury",
      "outputs": [
        {
          "internalType": "address",
          "name": "",
          "type": "address"
        }
      ],
      "stateMutability": "view",
      "type": "function"
    }
  ],
  "bytecode": "0x608034620003b557601f1990601f906001600160401b039062002731388190038481018616830184811184821017620002d757839282916040528339602092839181010312620003b557516001600160a01b03938482169391849003620003b5576200006a620003b9565b92600f84526e151c9d5cdd119bdb1a5bc812539195608a1b8185015262000090620003b9565b966005885264151253919560da1b828901528451848111620002d7575f546001968782811c92168015620003aa575b85831014620002b857818684931162000357575b508490868311600114620002f7575f92620002eb575b50505f19600383901b1c191690861b175f555b8751938411620002d75784548581811c91168015620002cc575b83821014620002b85783811162000270575b50819284116001146200020c57505081929394955f9262000200575b50505f19600383901b1c191690821b1781555b3315620001e857600680546001600160a01b0319808216339081179093556040519590939291167f8be0079c531659141344cd1fd0a4f28419497f9722a3daafe3b4186f6b6457e05f80a3807f9b779b17422d0df92223018b32b4d1fa46e071723d6817e2486d003becc55f005560075566038d7ea4c68000600855600c541617600c556123579081620003da8239f35b604051631e4fbdf760e01b81525f6004820152602490fd5b015190505f8062000144565b5f858152828120918516989193925b898210620002585750508385969798106200023f575b505050811b01815562000157565b01515f1960f88460031b161c191690555f808062000231565b8087859682949686015181550195019301906200021b565b855f52825f208480870160051c820192858810620002ae575b0160051c019086905b828110620002a257505062000128565b5f815501869062000292565b9250819262000289565b634e487b7160e01b5f52602260045260245ffd5b90607f169062000116565b634e487b7160e01b5f52604160045260245ffd5b015190505f80620000e9565b9084899416915f8052865f20925f5b8882821062000340575050841162000327575b505050811b015f55620000fc565b01515f1960f88460031b161c191690555f808062000319565b8385015186558c9790950194938401930162000306565b9091505f8052845f208680850160051c820192878610620003a0575b918a91869594930160051c01915b82811062000391575050620000d3565b5f81558594508a910162000381565b9250819262000373565b91607f1691620000bf565b5f80fd5b60408051919082016001600160401b03811183821017620002d75760405256fe6080806040526004361015610012575f80fd5b5f3560e01c90816301ffc9a714611c625750806306fdde0314611bbb578063081812fc14611b7f578063095ea7b314611a9e57806318160ddd14611a75578063238a470914611a2257806323b872dd14611a0b5780634081f732146116f257806340b89270146116d757806342842e0e146116aa578063477aeb1b146116595780635a64ad951461163c57806361d027b3146116145780636352211e146115e457806370a082311461158e578063715018a6146115335780638da5cb5b1461150b57806395d89b411461142d578063a22cb4651461136e578063a6f027811461041a578063b88d4fde146103ad578063c87b56dd14610334578063e985e9c5146102e2578063f0f4426014610273578063f2fde38b146101ec5763fabc38be1461013a575f80fd5b346101e8576020806003193601126101e8576001600160a01b0361015c611d0b565b165f52600a815260405f20604051908183825491828152019081925f52845f20905f5b868282106101d457868661019582880383611deb565b60405192839281840190828552518091526040840192915f5b8281106101bd57505050500390f35b8351855286955093810193928101926001016101ae565b83548552909301926001928301920161017f565b5f80fd5b346101e85760203660031901126101e857610205611d0b565b61020d61216b565b6001600160a01b0390811690811561025b57600654826001600160601b0360a01b821617600655167f8be0079c531659141344cd1fd0a4f28419497f9722a3daafe3b4186f6b6457e05f80a3005b604051631e4fbdf760e01b81525f6004820152602490fd5b346101e85760203660031901126101e85761028c611d0b565b61029461216b565b600c547f4ab5be82436d353e61ca18726e984e561f5c1cc7c6d38b29d2553c790434705a604060018060a01b0381519481851686521693846020820152a16001600160a01b03191617600c55005b346101e85760403660031901126101e8576102fb611d0b565b610303611d21565b9060018060a01b038091165f52600560205260405f2091165f52602052602060ff60405f2054166040519015158152f35b346101e85760203660031901126101e8576004355f818152600260205260409020546001600160a01b031615610395575f52600960205261039161037d600d60405f2001611e95565b604051918291602083526020830190611ccd565b0390f35b6024906040519063c927e5bf60e01b82526004820152fd5b346101e85760803660031901126101e8576103c6611d0b565b6103ce611d21565b90604435606435926001600160401b0384116101e857366023850112156101e857610406610418943690602481600401359101611e27565b92610412838383611f37565b3361220e565b005b6101803660031901126101e85761042f611d0b565b6024356001600160401b0381116101e85761044e903690600401611d6c565b60e4356001600160401b0381116101e85761046d903690600401611d6c565b91610104356001600160401b0381116101e85761048e903690600401611d6c565b929093610124356001600160401b0381116101e8576104b1903690600401611d6c565b9190926001600160401b0361014435116101e857366023610144350112156101e8576001600160401b036101443560040135116101e857366024610144356004013560051b610144350101116101e857610164356001600160401b0381116101e857610521903690600401611d6c565b909161052b61216b565b60027f9b779b17422d0df92223018b32b4d1fa46e071723d6817e2486d003becc55f00541461135c5760027f9b779b17422d0df92223018b32b4d1fa46e071723d6817e2486d003becc55f0055603c6044351061133c5760405185878237600b8682015260208187810103019020548061130b57506008548034106112ed5750600754985f198a146112d9578a9861062d610639938e9760018e016007556105f96105d7604435612197565b9d6040519a6105e58c611d99565b6001600160a01b03168b5236908e90611e27565b60208a015260443560408a015260643560608a015260843560808a015260a43560a08a015260c43560c08a01523691611e27565b60e08701523691611e27565b61010084015261064a368587611e27565b61012084015261066061014435600401356120b5565b61066d6040519182611deb565b6101443560048101358252602401602082015b6024610144356004013560051b6101443501018210611296575050906106bc929161014085015242610160850152876101808501523691611e27565b6101a0820152855f52600960205260405f209060018060a01b038151166001600160601b0360a01b83541617825560208101518051906001600160401b038211610d145761070d6001850154611e5d565b601f8111611263575b50602090601f83116001146111f55761074692915f9183610d28575b50508160011b915f199060031b1c19161790565b60018301555b60408101516002830155606081015160038301556080810151600483015560a0810151600583015560c0810151600683015560e08101518051906001600160401b038211610d14576107a16007850154611e5d565b601f81116111c2575b50602090601f8311600114611154576107d992915f9183610d285750508160011b915f199060031b1c19161790565b60078301555b6101008101518051906001600160401b038211610d14576108036008850154611e5d565b601f8111611121575b50602090601f83116001146110b35761083b92915f9183610d285750508160011b915f199060031b1c19161790565b60088301555b6101208101518051906001600160401b038211610d14576108656009850154611e5d565b601f8111611080575b50602090601f83116001146110125761089d92915f9183610d285750508160011b915f199060031b1c19161790565b60098301555b610140810151805190600160401b8211610d1457600a84015482600a860155808310610f9e575b5060200190600a84015f5260205f20915f905b828210610e8b5750505050610160810151600b8301556101808101518051906001600160401b038211610d1457610917600c850154611e5d565b601f8111610e58575b50602090601f8311600114610de8579180610954926101a095945f92610ddd5750508160011b915f199060031b1c19161790565b600c8401555b01518051906001600160401b038211610d145761097a600d840154611e5d565b601f8111610d9f575b50602090601f8311600114610d335791806109b592600d945f92610d285750508160011b915f199060031b1c19161790565b9101555b6001600160a01b0387165f908152600a6020526040902080549092600160401b821015610d145760018201808555821015610d00578660209281955f52835f2001558260405193849283378101600b81520301902055604051610a1b81611db5565b5f81526001600160a01b03861615610ce8575f848152600260205260409020546001600160a01b031680151590859082610cb5575b6001600160a01b0389165f818152600360209081526040808320805460010190558583526002909152812080546001600160a01b031916831790559091907fddf252ad1be2c89b69c2b068fc378daa952ba7f163c4a11628f55a4df523b3ef9080a4610c9d57853b610b89575b509091929334610b58575b6020948492610b297f0e4454bc1c2ca39b354bf20daba0b1416dfc6c383fc3b6738d3599af47298e9493610b096040519485946060865260608601916120cc565b604435848b015283810360408501526001600160a01b0390911696611ccd565b0390a360017f9b779b17422d0df92223018b32b4d1fa46e071723d6817e2486d003becc55f0055604051908152f35b5f8080803460018060a01b03600c54165af1610b72612102565b50610ac8576040516312171d8360e31b8152600490fd5b60405160208180610bc2630a85bd0160e11b958683523360048401525f6024840152896044840152608060648401526084830190611ccd565b03815f6001600160a01b038c165af15f9181610c58575b50610c185786610be7612102565b8051919082610c1157604051633250574960e11b81526001600160a01b0383166004820152602490fd5b6020915001fd5b63ffffffff60e09793949596971b1603610c36579392919085610abd565b604051633250574960e11b81526001600160a01b039091166004820152602490fd5b9091506020813d602011610c95575b81610c7460209383611deb565b810103126101e857516001600160e01b0319811681036101e8579088610bd9565b3d9150610c67565b6040516339e3563760e11b81525f6004820152602490fd5b5f82815260046020526040902080546001600160a01b0319169055805f52600360205260405f205f198154019055610a50565b604051633250574960e11b81525f6004820152602490fd5b634e487b7160e01b5f52603260045260245ffd5b634e487b7160e01b5f52604160045260245ffd5b015190508c80610732565b90600d84015f5260205f20915f5b601f1985168110610d875750918391600193600d95601f19811610610d6f575b505050811b019101556109b9565b01515f1960f88460031b161c191690558b8080610d61565b91926020600181928685015181550194019201610d41565b610dcd90600d85015f5260205f20601f850160051c81019160208610610dd3575b601f0160051c01906120ec565b8a610983565b9091508190610dc0565b015190508d80610732565b90600c85015f5260205f20915f5b601f1985168110610e4057509183916001936101a09695601f19811610610e28575b505050811b01600c84015561095a565b01515f1960f88460031b161c191690558c8080610e18565b91926020600181928685015181550194019201610df6565b610e8590600c86015f5260205f20601f850160051c81019160208610610dd357601f0160051c01906120ec565b8b610920565b80518051906001600160401b038211610d1457610ea88654611e5d565b601f8111610f6e575b50602090601f8311600114610f025792610ee8836001959460209487965f92610ef75750508160011b915f199060031b1c19161790565b87555b019401910190926108dd565b015190505f80610732565b90865f5260205f20915f5b601f1985168110610f56575083602093600196938796938794601f19811610610f3e575b505050811b018755610eeb565b01515f1960f88460031b161c191690555f8080610f31565b91926020600181928685015181550194019201610f0d565b610f9890875f5260205f20601f850160051c81019160208610610dd357601f0160051c01906120ec565b8f610eb1565b600a85015f5260205f20908382015b8183018110610fbd5750506108ca565b80610fca60019254611e5d565b80610fd7575b5001610fad565b601f81118314610fec57505f81555b8f610fd0565b5f90828252611009601f60208420920160051c82018583016120ec565b81835555610fe6565b9190600985015f5260205f20905f935b601f1984168510611065576001945083601f1981161061104d575b505050811b0160098301556108a3565b01515f1960f88460031b161c191690558b808061103d565b81810151835560209485019460019093019290910190611022565b6110ad90600986015f5260205f20601f850160051c81019160208610610dd357601f0160051c01906120ec565b8b61086e565b9190600885015f5260205f20905f935b601f1984168510611106576001945083601f198116106110ee575b505050811b016008830155610841565b01515f1960f88460031b161c191690558b80806110de565b818101518355602094850194600190930192909101906110c3565b61114e90600886015f5260205f20601f850160051c81019160208610610dd357601f0160051c01906120ec565b8b61080c565b9190600785015f5260205f20905f935b601f19841685106111a7576001945083601f1981161061118f575b505050811b0160078301556107df565b01515f1960f88460031b161c191690558b808061117f565b81810151835560209485019460019093019290910190611164565b6111ef90600786015f5260205f20601f850160051c81019160208610610dd357601f0160051c01906120ec565b8b6107aa565b9190600185015f5260205f20905f935b601f1984168510611248576001945083601f19811610611230575b505050811b01600183015561074c565b01515f1960f88460031b161c191690558b8080611220565b81810151835560209485019460019093019290910190611205565b61129090600186015f5260205f20601f850160051c81019160208610610dd357601f0160051c01906120ec565b8b610716565b81356001600160401b0381116101e8576101443501366043820112156101e8576020916112ce83923690604460248201359101611e27565b815201910190610680565b634e487b7160e01b5f52601160045260245ffd5b6044906040519063a458261b60e01b82523460048301526024820152fd5b60408051630506e9d760e51b8152600481019190915290819061133260448301898b6120cc565b9060248301520390fd5b6040516389a822a360e01b8152604480356004830152603c602483015290fd5b604051633ee5aeb560e01b8152600490fd5b346101e85760403660031901126101e857611387611d0b565b602435908115158092036101e8573315611415576001600160a01b03169081156113fc57335f52600560205260405f20825f5260205260405f2060ff1981541660ff83161790556040519081527f17307eab39ab6107e8899845ad3d59bd9653f200f220920489ca2b5937696c3160203392a3005b604051630b61174360e31b815260048101839052602490fd5b60405163a9fbf51f60e01b81525f6004820152602490fd5b346101e8575f3660031901126101e8576040515f6001826001549261145184611e5d565b92838352602094856001821691825f146114eb575050600114611490575b5061147c92500383611deb565b610391604051928284938452830190611ccd565b84915060015f527fb10e2d527612073b26eecdfd717e6a320cf44b4afac2b0732d9fcbe2b7fa0cf6905f915b8583106114d357505061147c93508201018561146f565b805483890185015287945086939092019181016114bc565b60ff19168582015261147c95151560051b850101925087915061146f9050565b346101e8575f3660031901126101e8576006546040516001600160a01b039091168152602090f35b346101e8575f3660031901126101e85761154b61216b565b600680546001600160a01b031981169091555f906001600160a01b03167f8be0079c531659141344cd1fd0a4f28419497f9722a3daafe3b4186f6b6457e08280a3005b346101e85760203660031901126101e8576001600160a01b036115af611d0b565b1680156115cc575f526003602052602060405f2054604051908152f35b6040516322718ad960e21b81525f6004820152602490fd5b346101e85760203660031901126101e8576020611602600435612131565b6040516001600160a01b039091168152f35b346101e8575f3660031901126101e857600c546040516001600160a01b039091168152602090f35b346101e8575f3660031901126101e8576020600854604051908152f35b346101e85760203660031901126101e8576004356001600160401b0381116101e857602061168c81923690600401611d6c565b91908260405193849283378101600b81520301902054604051908152f35b346101e8576104186116bb36611d37565b90604051926116c984611db5565b5f8452610412838383611f37565b346101e8575f3660031901126101e8576020604051603c8152f35b346101e85760203660031901126101e85760043560606101a060405161171781611d99565b5f81528260208201525f60408201525f838201525f60808201525f60a08201525f60c08201528260e08201528261010082015282610120820152826101408201525f610160820152826101808201520152805f52600260205260018060a01b0360405f20541615610395575f52600960205260405f206040519061179a82611d99565b80546001600160a01b031682526117b360018201611e95565b6020830152600281015460408301526003810154606083015260048101546080830152600581015460a0830152600681015460c08301526117f660078201611e95565b60e083015261180760088201611e95565b61010083015261181960098201611e95565b610120830152600a81015461182d816120b5565b9061183b6040519283611deb565b80825260208201600a84015f5260205f205f915b8383106119ee5786611887600d8888610140850152600b81015461016085015261187b600c8201611e95565b61018085015201611e95565b6101a082015260405180916020825260018060a01b03815116602083015261194261192a6119126118c960208501516101c060408801526101e0870190611ccd565b6040850151606087015260608501516080870152608085015160a087015260a085015160c087015260c085015160e087015260e0850151601f1987830301610100880152611ccd565b610100840151858203601f1901610120870152611ccd565b610120830151848203601f1901610140860152611ccd565b61014082015190601f1984820301610160850152815180825260208201916020808360051b8301019401925f915b8383106119bb578780610391896101a06119a68b610160840151610180870152610180840151601f198783030184880152611ccd565b910151838203601f19016101c0850152611ccd565b919395965091936020806119db600193601f198682030187528951611ccd565b9701930193019092879695949293611970565b6001602081926119fd85611e95565b81520192019201919061184f565b346101e857610418611a1c36611d37565b91611f37565b346101e85760203660031901126101e857600435611a3e61216b565b7fc24d648b8b29d6566f302551df9152ced5a44785e31f38d1d047c8168dd3451960406008548151908152836020820152a1600855005b346101e8575f3660031901126101e8576007545f1981019081116112d957602090604051908152f35b346101e85760403660031901126101e857611ab7611d0b565b602435611ac381612131565b33151580611b6c575b80611b43575b611b2b576001600160a01b039283169282918491167f8c5be1e5ebec7d5bd14f71427d1e84f3dd0314c0f7b2291e5b200ac8c7c3b9255f80a45f90815260046020526040902080546001600160a01b0319169091179055005b60405163a9fbf51f60e01b8152336004820152602490fd5b5060018060a01b0381165f52600560205260405f20335f5260205260ff60405f20541615611ad2565b506001600160a01b038116331415611acc565b346101e85760203660031901126101e857600435611b9c81612131565b505f526004602052602060018060a01b0360405f205416604051908152f35b346101e8575f3660031901126101e8576040515f80549082611bdc83611e5d565b91828252602093600190856001821691825f146114eb575050600114611c09575061147c92500383611deb565b5f808052859250907f290decd9548b62a8d60345a988386fc84ba6bc95484008f6362f93160ef3e5635b858310611c4a57505061147c93508201018561146f565b80548389018501528794508693909201918101611c33565b346101e85760203660031901126101e8576004359063ffffffff60e01b82168092036101e8576020916380ac58cd60e01b8114908115611cbc575b8115611cab575b5015158152f35b6301ffc9a760e01b14905083611ca4565b635b5e139f60e01b81149150611c9d565b91908251928382525f5b848110611cf7575050825f602080949584010152601f8019910116010190565b602081830181015184830182015201611cd7565b600435906001600160a01b03821682036101e857565b602435906001600160a01b03821682036101e857565b60609060031901126101e8576001600160a01b039060043582811681036101e8579160243590811681036101e8579060443590565b9181601f840112156101e8578235916001600160401b0383116101e857602083818601950101116101e857565b6101c081019081106001600160401b03821117610d1457604052565b602081019081106001600160401b03821117610d1457604052565b604081019081106001600160401b03821117610d1457604052565b90601f801991011681019081106001600160401b03821117610d1457604052565b6001600160401b038111610d1457601f01601f191660200190565b929192611e3382611e0c565b91611e416040519384611deb565b8294818452818301116101e8578281602093845f960137010152565b90600182811c92168015611e8b575b6020831014611e7757565b634e487b7160e01b5f52602260045260245ffd5b91607f1691611e6c565b9060405191825f8254611ea781611e5d565b908184526020946001916001811690815f14611f155750600114611ed7575b505050611ed592500383611deb565b565b5f90815285812095935091905b818310611efd575050611ed593508201015f8080611ec6565b85548884018501529485019487945091830191611ee4565b92505050611ed594925060ff191682840152151560051b8201015f8080611ec6565b6001600160a01b039182169290918315610ce857815f52602092600284528260409583875f2054169533151580612023575b5060029087611ff2575b825f5260038152885f2060018154019055835f5252865f20816001600160601b0360a01b825416179055857fddf252ad1be2c89b69c2b068fc378daa952ba7f163c4a11628f55a4df523b3ef5f80a41692838303611fd15750505050565b6064945051926364283d7b60e01b8452600484015260248301526044820152fd5b5f84815260046020526040812080546001600160a01b03191690558881526003825289902080545f19019055611f73565b9192509080612074575b1561203b579084915f611f69565b868587612058576024915190637e27328960e01b82526004820152fd5b604491519063177e802f60e01b82523360048301526024820152fd5b503386148015612099575b8061202d5750845f52600481523384885f2054161461202d565b50855f5260058152865f20335f52815260ff875f20541661207f565b6001600160401b038111610d145760051b60200190565b908060209392818452848401375f828201840152601f01601f1916010190565b8181106120f7575050565b5f81556001016120ec565b3d1561212c573d9061211382611e0c565b916121216040519384611deb565b82523d5f602084013e565b606090565b5f818152600260205260409020546001600160a01b0316908115612153575090565b60249060405190637e27328960e01b82526004820152fd5b6006546001600160a01b0316330361217f57565b60405163118cdaa760e01b8152336004820152602490fd5b605a8110156121ea57604b11156121ca576040516121b481611dd0565b600681526539b4b63b32b960d11b602082015290565b6040516121d681611dd0565b600481526319dbdb1960e21b602082015290565b506040516121f781611dd0565b6007815266191a585b5bdb9960ca1b602082015290565b9291803b61221e575b5050505050565b604051630a85bd0160e11b8082526001600160a01b0395861660048301529285166024820152604481019390935260806064840152909216926020908290819061226c906084830190611ccd565b03815f875af15f91816122dc575b506122aa5782612288612102565b8051919082610c1157604051633250574960e11b815260048101839052602490fd5b6001600160e01b031916036122c457505f80808080612217565b60249060405190633250574960e11b82526004820152fd5b9091506020813d602011612319575b816122f860209383611deb565b810103126101e857516001600160e01b0319811681036101e857905f61227a565b3d91506122eb56fea264697066735822122025932bb60bc23bfefd894b8bdde1bfd7ee1b92db70111e40acd97dc248b540d864736f6c63430008180033",
  "linkReferences": {},
  "deployedLinkReferences": {}
}