{
  "_format": "hh-sol-artifact-1",
  "contractName": "RewardsDistributor",
  "sourceName": "contracts/RewardsDistributor.sol",
  "abi": [
    {
      "inputs": [
        {
          "internalType": "address",
          "name": "_trustToken",
          "type": "address"
        }
      ],
      "stateMutability": "nonpayable",
      "type": "constructor"
    },
    {
      "inputs": [
        {
          "internalType": "address",
          "name": "owner",
          "type": "address"
        }
      ],
      "name": "OwnableInvalidOwner",
      "type": "error"
    },
    {
      "inputs": [
        {
          "internalType": "address",
          "name": "account",
          "type": "address"
        }
      ],
      "name": "OwnableUnauthorizedAccount",
      "type": "error"
    },
    {
      "anonymous": false,
      "inputs": [
        {
          "indexed": true,
          "internalType": "address",
          "name": "user",
          "type": "address"
        },
        {
          "indexed": false,
          "internalType": "uint256",
          "name": "day",
          "type": "uint256"
        },
        {
          "indexed": false,
          "internalType": "uint256",
          "name": "attempted",
          "type": "uint256"
        }
      ],
      "name": "DailyCapped",
      "type": "event"
    },
    {
      "anonymous": false,
      "inputs": [
        {
          "indexed": true,
          "internalType": "address",
          "name": "previousOwner",
          "type": "address"
        },
        {
          "indexed": true,
          "internalType": "address",
          "name": "newOwner",
          "type": "address"
        }
      ],
      "name": "OwnershipTransferred",
      "type": "event"
    },
    {
      "anonymous": false,
      "inputs": [
        {
          "indexed": true,
          "internalType": "address",
          "name": "user",
          "type": "address"
        },
        {
          "indexed": false,
          "internalType": "string",
          "name": "tier",
          "type": "string"
        },
        {
          "indexed": false,
          "internalType": "uint256",
          "name": "amount",
          "type": "uint256"
        },
        {
          "indexed": false,
          "internalType": "uint256",
          "name": "day",
          "type": "uint256"
        }
      ],
      "name": "RewardDistributed",
      "type": "event"
    },
    {
      "anonymous": false,
      "inputs": [
        {
          "indexed": true,
          "internalType": "address",
          "name": "verifier",
          "type": "address"
        }
      ],
      "name": "VerifierRegistered",
      "type": "event"
    },
    {
      "anonymous": false,
      "inputs": [
        {
          "indexed": true,
          "internalType": "address",
          "name": "verifier",
          "type": "address"
        }
      ],
      "name": "VerifierRemoved",
      "type": "event"
    },
    {
      "inputs": [],
      "name": "BRONZE_REWARD",
      "outputs": [
        {
          "internalType": "uint256",
          "name": "",
          "type": "uint256"
        }
      ],
      "stateMutability": "view",
      "type": "function"
    },
    {
      "inputs": [],
      "name": "DAILY_CAP",
      "outputs": [
        {
          "internalType": "uint256",
          "name": "",
          "type": "uint256"
        }
      ],
      "stateMutability": "view",
      "type": "function"
    },
    {
      "inputs": [],
      "name": "DIAMOND_REWARD",
      "outputs": [
        {
          "internalType": "uint256",
          "name": "",
          "type": "uint256"
        }
      ],
      "stateMutability": "view",
      "type": "function"
    },
    {
      "inputs": [],
      "name": "GOLD_REWARD",
      "outputs": [
        {
          "internalType": "uint256",
          "name": "",
          "type": "uint256"
        }
      ],
      "stateMutability": "view",
      "type": "function"
    },
    {
      "inputs": [],
      "name": "SECONDS_PER_DAY",
      "outputs": [
        {
          "internalType": "uint256",
          "name": "",
          "type": "uint256"
        }
      ],
      "stateMutability": "view",
      "type": "function"
    },
    {
      "inputs": [],
      "name": "SILVER_REWARD",
      "outputs": [
        {
          "internalType": "uint256",
          "name": "",
          "type": "uint256"
        }
      ],
      "stateMutability": "view",
      "type": "function"
    },
    {
      "inputs": [
        {
          "internalType": "address",
          "name": "user",
          "type": "address"
        },
        {
          "internalType": "string",
          "name": "tier",
          "type": "string"
        }
      ],
      "name": "distributeVerifyReward",
      "outputs": [],
      "stateMutability": "nonpayable",
      "type": "function"
    },
    {
      "inputs": [
        {
          "internalType": "address",
          "name": "user",
          "type": "address"
        }
      ],
      "name": "getDailyEarned",
      "outputs": [
        {
          "internalType": "uint256",
          "name": "",
          "type": "uint256"
        }
      ],
      "stateMutability": "view",
      "type": "function"
    },
    {
      "inputs": [
        {
          "internalType": "address",
          "name": "",
          "type": "address"
        }
      ],
      "name": "isVerifier",
      "outputs": [
        {
          "internalType": "bool",
          "name": "",
          "type": "bool"
        }
      ],
      "stateMutability": "view",
      "type": "function"
    },
    {
      "inputs": [],
      "name": "owner",
      "outputs": [
        {
          "internalType": "address",
          "name": "",
          "type": "address"
        }
      ],
      "stateMutability": "view",
      "type": "function"
    },
    {
      "inputs": [
        {
          "internalType": "address",
          "name": "verifier",
          "type": "address"
        }
      ],
      "name": "registerVerifier",
      "outputs": [],
      "stateMutability": "nonpayable",
      "type": "function"
    },
    {
      "inputs": [
        {
          "internalType": "address",
          "name": "verifier",
          "type": "address"
        }
      ],
      "name": "removeVerifier",
      "outputs": [],
      "stateMutability": "nonpayable",
      "type": "function"
    },
    {
      "inputs": [],
      "name": "renounceOwnership",
      "outputs": [],
      "stateMutability": "nonpayable",
      "type": "function"
    },
    {
      "inputs": [],
      "name": "todayIndex",
      "outputs": [
        {
          "internalType": "uint256",
          "name": "",
          "type": "uint256"
        }
      ],
      "stateMutability": "view",
      "type": "function"
    },
    {
      "inputs": [
        {
          "internalType": "address",
          "name": "newOwner",
          "type": "address"
        }
      ],
      "name": "transferOwnership",
      "outputs": [],
      "stateMutability": "nonpayable",
      "type": "function"
    },
    {
      "inputs": [],
      "name": "trustToken",
      "outputs": [
        {
          "internalType": "contract ITrustToken",
          "name": "",
          "type": "address"
        }
      ],
      "stateMutability": "view",
      "type": "function"
    }
  ],
  "bytecode": "0x60a03461011657601f610afd38819003918201601f19168301916001600160401b0383118484101761011a5780849260209460405283398101031261011657516001600160a01b03808216918290036101165733156100fe575f543360018060a01b03198216175f55604051913391167f8be0079c531659141344cd1fd0a4f28419497f9722a3daafe3b4186f6b6457e05f80a381156100bc57506080526040516109ce908161012f82396080518181816101ce01526105b30152f35b62461bcd60e51b815260206004820152601e60248201527f526577617264734469737472696275746f723a207a65726f20746f6b656e00006044820152606490fd5b604051631e4fbdf760e01b81525f6004820152602490fd5b5f80fd5b634e487b7160e01b5f52604160045260245ffdfe60806040908082526004361015610014575f80fd5b5f3560e01c90816309d69370146104d9575080632ad94b08146104b6578063331052181461047a578063341a737f1461045757806337c6842314610438578063715018a6146103e157806374f0314f146103c45780637ca592a2146103a157806383cd9e501461035d5780638da5cb5b14610336578063bff240fa14610313578063c639e8c514610263578063ca2dfd0a146101fd578063d13deb2f146101ba578063e07a7b751461015b5763f2fde38b146100ce575f80fd5b34610157576020366003190112610157576100e76104f9565b6100ef610844565b6001600160a01b0390811691821561014157505f54826bffffffffffffffffffffffff60a01b8216175f55167f8be0079c531659141344cd1fd0a4f28419497f9722a3daafe3b4186f6b6457e05f80a3005b51631e4fbdf760e01b81525f6004820152602490fd5b5f80fd5b503461015757366003190112610157576101736104f9565b6024359067ffffffffffffffff9081831161015757366023840112156101575782600401359182116101575736602483850101116101575760246101b893019061050f565b005b5034610157575f36600319011261015757517f00000000000000000000000000000000000000000000000000000000000000006001600160a01b03168152602090f35b5034610157576020366003190112610157576102176104f9565b61021f610844565b6001600160a01b03165f8181526001602052918220805460ff19169055907f44a3cd4eb5cc5748f6169df057b1cb2ae4c383e87cd94663c430e095d4cba4249080a2005b50346101575760203660031901126101575761027d6104f9565b610285610844565b6001600160a01b03169081156102d057815f5260016020525f20600160ff198254161790557f85cf819da48b7e3c138cca9531adae41f25faeff5801e9e096eb2c1fb3cbbab75f80a2005b5162461bcd60e51b815260206004820181905260248201527f526577617264734469737472696275746f723a207a65726f20616464726573736044820152606490fd5b5034610157575f3660031901126101575760209051681b1ae4d6e2ef5000008152f35b5034610157575f366003190112610157575f5490516001600160a01b039091168152602090f35b50346101575760203660031901126101575760209061037a6104f9565b6201518042045f5260028352815f209060018060a01b03165f528252805f20549051908152f35b5034610157575f366003190112610157576020905168015af1d78b58c400008152f35b5034610157575f3660031901126101575760209051620151808152f35b34610157575f366003190112610157576103f9610844565b5f80546001600160a01b0319811682556001600160a01b03167f8be0079c531659141344cd1fd0a4f28419497f9722a3daafe3b4186f6b6457e08280a3005b5034610157575f36600319011261015757602090516201518042048152f35b5034610157575f366003190112610157576020905168056bc75e2d631000008152f35b5034610157576020366003190112610157576020906001600160a01b0361049f6104f9565b165f526001825260ff815f20541690519015158152f35b5034610157575f36600319011261015757602090516802b5e3af16b18800008152f35b34610157575f3660031901126101575780678ac7230489e8000060209252f35b600435906001600160a01b038216820361015757565b905f91335f526020926001845260409260ff845f205416156107f5576001600160a01b039283169586156107b157610547818361086f565b91821561076f5762015180420494855f5260028852865f20895f528852865f205493681b1ae4d6e2ef500000948581101561073b5785039085821161071f57818111156107335750905b865f5260028952875f208a5f528952875f2080549083820180921161071f57557f000000000000000000000000000000000000000000000000000000000000000016803b15610157575f809160448c8b5194859384926340c10f1960e01b845260048401528760248401525af1801561071557908a949392916106bd575b5082917fbda5bf2b07d424c8275f65684269c7d2d67c1207f5df64582b5bd16bb966820c936080928a519485936060855281606086015285850137888483850101528b830152888a830152601f80199101168101030190a282825260028552838220865f528552835f20541015610688575b5050505050565b7f6cf124fd4726241b8a3f5c71a07f2a42ff9679b189a9cdcb08cd2988a0e45468938351928352820152a25f80808080610681565b90955092509067ffffffffffffffff8311610701579186525f93889291907fbda5bf2b07d424c8275f65684269c7d2d67c1207f5df64582b5bd16bb966820c61060f565b634e487b7160e01b5f52604160045260245ffd5b88513d5f823e3d90fd5b634e487b7160e01b5f52601160045260245ffd5b905090610591565b509450505050507f6cf124fd4726241b8a3f5c71a07f2a42ff9679b189a9cdcb08cd2988a0e45468938351928352820152a2565b60648787519062461bcd60e51b825280600483015260248201527f526577617264734469737472696275746f723a20756e6b6e6f776e20746965726044820152fd5b845162461bcd60e51b815260048101879052601d60248201527f526577617264734469737472696275746f723a207a65726f20757365720000006044820152606490fd5b835162461bcd60e51b815260048101869052602260248201527f526577617264734469737472696275746f723a206e6f7420612076657269666960448201526132b960f11b6064820152608490fd5b5f546001600160a01b0316330361085757565b60405163118cdaa760e01b8152336004820152602490fd5b9067ffffffffffffffff908181116107015760405191601f8201601f19908116603f0116830190811183821017610701576040528082526020820192368282011161015757815f926020928637830101525190207faadb29765cb3e4f21bde5ecd65db8e565d901b6c9394dcec22aa81b8ff2d6e2f811461098a577f6f0d47b12e2c2f7083eb5622541f9c3930e56fc3e46e89e132673f05a079baff811461097c577f580396b706c510b55b097eb36445183c918e5a4f9ac52a70d27fca23c3b3aab1811461096e577f20282af5990994083c606b6644005dd5bda22bef15109cb062f919af7fc337dd14610962575f90565b678ac7230489e8000090565b5068015af1d78b58c4000090565b506802b5e3af16b188000090565b5068056bc75e2d631000009056fea264697066735822122003f252b547ebf81eeaa6dccd073aaa5c953a79b990ba4151a0dfd9365448618b64736f6c63430008180033",
  "linkReferences": {},
  "deployedLinkReferences": {}
}