{
  "_format": "hh-sol-artifact-1",
  "contractName": "Treasury",
  "sourceName": "contracts/Treasury.sol",
  "abi": [
    {
      "inputs": [],
      "stateMutability": "nonpayable",
      "type": "constructor"
    },
    {
      "inputs": [
        {
          "internalType": "address",
          "name": "owner",
          "type": "address"
        }
      ],
      "name": "OwnableInvalidOwner",
      "type": "error"
    },
    {
      "inputs": [
        {
          "internalType": "address",
          "name": "account",
          "type": "address"
        }
      ],
      "name": "OwnableUnauthorizedAccount",
      "type": "error"
    },
    {
      "inputs": [],
      "name": "ReentrancyGuardReentrantCall",
      "type": "error"
    },
    {
      "anonymous": false,
      "inputs": [
        {
          "indexed": true,
          "internalType": "address",
          "name": "from",
          "type": "address"
        },
        {
          "indexed": false,
          "internalType": "uint256",
          "name": "amount",
          "type": "uint256"
        },
        {
          "indexed": false,
          "internalType": "uint256",
          "name": "newTotal",
          "type": "uint256"
        }
      ],
      "name": "FeeDeposited",
      "type": "event"
    },
    {
      "anonymous": false,
      "inputs": [
        {
          "indexed": true,
          "internalType": "address",
          "name": "previousOwner",
          "type": "address"
        },
        {
          "indexed": true,
          "internalType": "address",
          "name": "newOwner",
          "type": "address"
        }
      ],
      "name": "OwnershipTransferred",
      "type": "event"
    },
    {
      "anonymous": false,
      "inputs": [
        {
          "indexed": true,
          "internalType": "address",
          "name": "to",
          "type": "address"
        },
        {
          "indexed": false,
          "internalType": "uint256",
          "name": "amount",
          "type": "uint256"
        },
        {
          "indexed": false,
          "internalType": "string",
          "name": "reason",
          "type": "string"
        }
      ],
      "name": "Spent",
      "type": "event"
    },
    {
      "inputs": [],
      "name": "depositFees",
      "outputs": [],
      "stateMutability": "payable",
      "type": "function"
    },
    {
      "inputs": [],
      "name": "getBalance",
      "outputs": [
        {
          "internalType": "uint256",
          "name": "",
          "type": "uint256"
        }
      ],
      "stateMutability": "view",
      "type": "function"
    },
    {
      "inputs": [],
      "name": "owner",
      "outputs": [
        {
          "internalType": "address",
          "name": "",
          "type": "address"
        }
      ],
      "stateMutability": "view",
      "type": "function"
    },
    {
      "inputs": [],
      "name": "renounceOwnership",
      "outputs": [],
      "stateMutability": "nonpayable",
      "type": "function"
    },
    {
      "inputs": [
        {
          "internalType": "address payable",
          "name": "to",
          "type": "address"
        },
        {
          "internalType": "uint256",
          "name": "amount",
          "type": "uint256"
        },
        {
          "internalType": "string",
          "name": "reason",
          "type": "string"
        }
      ],
      "name": "spend",
      "outputs": [],
      "stateMutability": "nonpayable",
      "type": "function"
    },
    {
      "inputs": [],
      "name": "totalReceived",
      "outputs": [
        {
          "internalType": "uint256",
          "name": "",
          "type": "uint256"
        }
      ],
      "stateMutability": "view",
      "type": "function"
    },
    {
      "inputs": [],
      "name": "totalSpent",
      "outputs": [
        {
          "internalType": "uint256",
          "name": "",
          "type": "uint256"
        }
      ],
      "stateMutability": "view",
      "type": "function"
    },
    {
      "inputs": [
        {
          "internalType": "address",
          "name": "newOwner",
          "type": "address"
        }
      ],
      "name": "transferOwnership",
      "outputs": [],
      "stateMutability": "nonpayable",
      "type": "function"
    },
    {
      "stateMutability": "payable",
      "type": "receive"
    }
  ],
  "bytecode": "0x6080806040523461009c573315610087575f8054336001600160a01b03198216811783556040519290916001600160a01b0316907f8be0079c531659141344cd1fd0a4f28419497f9722a3daafe3b4186f6b6457e09080a360017f9b779b17422d0df92223018b32b4d1fa46e071723d6817e2486d003becc55f00556105e490816100a18239f35b631e4fbdf760e01b81525f6004820152602490fd5b5f80fdfe6080604090808252600480361015610066575b5050361561001e575f80fd5b3461002557005b61003134600154610562565b600155805134815247602082015233917f275b89eed5ec7d2f5c81a082034b08ff5a7a7ef3ad201abbb3524d0b95a3489191a2005b5f3560e01c91826312065fe01461054a5750816326741e7d146104ef5781636e3f576414610218578163715018a6146101c15781638da5cb5b1461019a578163a3c2c4621461017c578163f2fde38b146100ed575063fb346eab146100cc575f80610012565b346100e9575f3660031901126100e9576020906002549051908152f35b5f80fd5b82346100e95760203660031901126100e9576001600160a01b038235818116939192908490036100e95761011f610583565b83156101665750505f54826bffffffffffffffffffffffff60a01b8216175f55167f8be0079c531659141344cd1fd0a4f28419497f9722a3daafe3b4186f6b6457e05f80a3005b905f6024925191631e4fbdf760e01b8352820152fd5b82346100e9575f3660031901126100e9576020906001549051908152f35b82346100e9575f3660031901126100e9575f5490516001600160a01b039091168152602090f35b346100e9575f3660031901126100e9576101d9610583565b5f80546001600160a01b0319811682556001600160a01b03167f8be0079c531659141344cd1fd0a4f28419497f9722a3daafe3b4186f6b6457e08280a3005b9050346100e95760603660031901126100e95780356001600160a01b038116908190036100e9576024803590604490813567ffffffffffffffff958682116100e957366023830112156100e95781810135938785116100e957368486850101116100e957610284610583565b7f9b779b17422d0df92223018b32b4d1fa46e071723d6817e2486d003becc55f009760028954146104df5760028955871561049d578615610463578647106104215785156103e6576102d887600254610562565b6002555f8080808a8c5af1903d156103e0573d8181116103ce578b5191601f8201601f19908116603f01168301908111838210176103bc578c5281525f60203d92013e5b1561037b5750509282806060937f2e771b17af77053c695065dda6a20bd1b8c493354556ff4f4bc572ada1d355b6968a9660019b51978896875280602088015286015201848401375f828201840152601f01601f19168101030190a255005b907f54726561737572793a207472616e73666572206661696c65640000000000000060649260198660208d519562461bcd60e51b8752860152840152820152fd5b87604187634e487b7160e01b5f52525ffd5b86604186634e487b7160e01b5f52525ffd5b5061031c565b5090752a3932b0b9bab93c9d1032b6b83a3c903932b0b9b7b760511b60649260168660208d519562461bcd60e51b8752860152840152820152fd5b50907f54726561737572793a20696e73756666696369656e742062616c616e63650000606492601e8660208d519562461bcd60e51b8752860152840152820152fd5b509074151c99585cdd5c9e4e881e995c9bc8185b5bdd5b9d605a1b60649260158660208d519562461bcd60e51b8752860152840152820152fd5b50907f54726561737572793a207a65726f20726563697069656e74000000000000000060649260188660208d519562461bcd60e51b8752860152840152820152fd5b8951633ee5aeb560e01b81528390fd5b90505f3660031901126100e957341561050f575061003134600154610562565b6020606492519162461bcd60e51b83528201526016602482015275151c99585cdd5c9e4e881e995c9bc819195c1bdcda5d60521b6044820152fd5b346100e9575f3660031901126100e957602090478152f35b9190820180921161056f57565b634e487b7160e01b5f52601160045260245ffd5b5f546001600160a01b0316330361059657565b60405163118cdaa760e01b8152336004820152602490fdfea2646970667358221220a6b7424b76429cd56e5147c4709dc5bf6cb929e17a44e3675752c807a7f43c9f64736f6c63430008180033",
  "linkReferences": {},
  "deployedLinkReferences": {}
}