{
  "_format": "hh-sol-artifact-1",
  "contractName": "TrustFolioMarketplace",
  "sourceName": "contracts/Marketplace.sol",
  "abi": [
    {
      "inputs": [
        {
          "internalType": "address",
          "name": "_inftContract",
          "type": "address"
        },
        {
          "internalType": "address",
          "name": "_treasury",
          "type": "address"
        }
      ],
      "stateMutability": "nonpayable",
      "type": "constructor"
    },
    {
      "inputs": [
        {
          "internalType": "uint256",
          "name": "sent",
          "type": "uint256"
        },
        {
          "internalType": "uint256",
          "name": "required",
          "type": "uint256"
        }
      ],
      "name": "InsufficientPayment",
      "type": "error"
    },
    {
      "inputs": [],
      "name": "InvalidDuration",
      "type": "error"
    },
    {
      "inputs": [],
      "name": "InvalidPrice",
      "type": "error"
    },
    {
      "inputs": [
        {
          "internalType": "uint256",
          "name": "listingId",
          "type": "uint256"
        }
      ],
      "name": "ListingNotActive",
      "type": "error"
    },
    {
      "inputs": [
        {
          "internalType": "address",
          "name": "caller",
          "type": "address"
        },
        {
          "internalType": "address",
          "name": "buyer",
          "type": "address"
        }
      ],
      "name": "NotBuyer",
      "type": "error"
    },
    {
      "inputs": [
        {
          "internalType": "address",
          "name": "caller",
          "type": "address"
        },
        {
          "internalType": "address",
          "name": "seller",
          "type": "address"
        }
      ],
      "name": "NotSeller",
      "type": "error"
    },
    {
      "inputs": [],
      "name": "NotTokenOwner",
      "type": "error"
    },
    {
      "inputs": [
        {
          "internalType": "uint256",
          "name": "offerId",
          "type": "uint256"
        }
      ],
      "name": "OfferExpired",
      "type": "error"
    },
    {
      "inputs": [
        {
          "internalType": "uint256",
          "name": "offerId",
          "type": "uint256"
        }
      ],
      "name": "OfferNotActive",
      "type": "error"
    },
    {
      "inputs": [
        {
          "internalType": "address",
          "name": "owner",
          "type": "address"
        }
      ],
      "name": "OwnableInvalidOwner",
      "type": "error"
    },
    {
      "inputs": [
        {
          "internalType": "address",
          "name": "account",
          "type": "address"
        }
      ],
      "name": "OwnableUnauthorizedAccount",
      "type": "error"
    },
    {
      "inputs": [],
      "name": "ReentrancyGuardReentrantCall",
      "type": "error"
    },
    {
      "inputs": [
        {
          "internalType": "uint256",
          "name": "tokenId",
          "type": "uint256"
        },
        {
          "internalType": "uint256",
          "name": "existingListingId",
          "type": "uint256"
        }
      ],
      "name": "TokenAlreadyListed",
      "type": "error"
    },
    {
      "inputs": [],
      "name": "TransferFailed",
      "type": "error"
    },
    {
      "anonymous": false,
      "inputs": [
        {
          "indexed": true,
          "internalType": "uint256",
          "name": "listingId",
          "type": "uint256"
        },
        {
          "indexed": true,
          "internalType": "uint256",
          "name": "tokenId",
          "type": "uint256"
        },
        {
          "indexed": true,
          "internalType": "address",
          "name": "seller",
          "type": "address"
        },
        {
          "indexed": false,
          "internalType": "uint256",
          "name": "price",
          "type": "uint256"
        }
      ],
      "name": "Listed",
      "type": "event"
    },
    {
      "anonymous": false,
      "inputs": [
        {
          "indexed": true,
          "internalType": "uint256",
          "name": "listingId",
          "type": "uint256"
        },
        {
          "indexed": true,
          "internalType": "uint256",
          "name": "tokenId",
          "type": "uint256"
        }
      ],
      "name": "ListingCancelled",
      "type": "event"
    },
    {
      "anonymous": false,
      "inputs": [
        {
          "indexed": true,
          "internalType": "uint256",
          "name": "offerId",
          "type": "uint256"
        },
        {
          "indexed": true,
          "internalType": "uint256",
          "name": "tokenId",
          "type": "uint256"
        },
        {
          "indexed": false,
          "internalType": "address",
          "name": "seller",
          "type": "address"
        },
        {
          "indexed": true,
          "internalType": "address",
          "name": "buyer",
          "type": "address"
        },
        {
          "indexed": false,
          "internalType": "uint256",
          "name": "amount",
          "type": "uint256"
        },
        {
          "indexed": false,
          "internalType": "uint256",
          "name": "fee",
          "type": "uint256"
        }
      ],
      "name": "OfferAccepted",
      "type": "event"
    },
    {
      "anonymous": false,
      "inputs": [
        {
          "indexed": true,
          "internalType": "uint256",
          "name": "offerId",
          "type": "uint256"
        }
      ],
      "name": "OfferCancelled",
      "type": "event"
    },
    {
      "anonymous": false,
      "inputs": [
        {
          "indexed": true,
          "internalType": "uint256",
          "name": "offerId",
          "type": "uint256"
        },
        {
          "indexed": true,
          "internalType": "uint256",
          "name": "tokenId",
          "type": "uint256"
        },
        {
          "indexed": true,
          "internalType": "address",
          "name": "buyer",
          "type": "address"
        },
        {
          "indexed": false,
          "internalType": "uint256",
          "name": "amount",
          "type": "uint256"
        },
        {
          "indexed": false,
          "internalType": "uint256",
          "name": "expiresAt",
          "type": "uint256"
        }
      ],
      "name": "OfferMade",
      "type": "event"
    },
    {
      "anonymous": false,
      "inputs": [
        {
          "indexed": true,
          "internalType": "address",
          "name": "previousOwner",
          "type": "address"
        },
        {
          "indexed": true,
          "internalType": "address",
          "name": "newOwner",
          "type": "address"
        }
      ],
      "name": "OwnershipTransferred",
      "type": "event"
    },
    {
      "anonymous": false,
      "inputs": [
        {
          "indexed": true,
          "internalType": "uint256",
          "name": "listingId",
          "type": "uint256"
        },
        {
          "indexed": true,
          "internalType": "uint256",
          "name": "tokenId",
          "type": "uint256"
        },
        {
          "indexed": false,
          "internalType": "address",
          "name": "seller",
          "type": "address"
        },
        {
          "indexed": true,
          "internalType": "address",
          "name": "buyer",
          "type": "address"
        },
        {
          "indexed": false,
          "internalType": "uint256",
          "name": "price",
          "type": "uint256"
        },
        {
          "indexed": false,
          "internalType": "uint256",
          "name": "fee",
          "type": "uint256"
        }
      ],
      "name": "Sale",
      "type": "event"
    },
    {
      "anonymous": false,
      "inputs": [
        {
          "indexed": true,
          "internalType": "address",
          "name": "newTreasury",
          "type": "address"
        }
      ],
      "name": "TreasuryUpdated",
      "type": "event"
    },
    {
      "inputs": [],
      "name": "BPS",
      "outputs": [
        {
          "internalType": "uint256",
          "name": "",
          "type": "uint256"
        }
      ],
      "stateMutability": "view",
      "type": "function"
    },
    {
      "inputs": [],
      "name": "FEE_BPS",
      "outputs": [
        {
          "internalType": "uint256",
          "name": "",
          "type": "uint256"
        }
      ],
      "stateMutability": "view",
      "type": "function"
    },
    {
      "inputs": [],
      "name": "MAX_OFFER_DURATION",
      "outputs": [
        {
          "internalType": "uint256",
          "name": "",
          "type": "uint256"
        }
      ],
      "stateMutability": "view",
      "type": "function"
    },
    {
      "inputs": [
        {
          "internalType": "uint256",
          "name": "offerId",
          "type": "uint256"
        }
      ],
      "name": "acceptOffer",
      "outputs": [],
      "stateMutability": "nonpayable",
      "type": "function"
    },
    {
      "inputs": [],
      "name": "activeListingCount",
      "outputs": [
        {
          "internalType": "uint256",
          "name": "",
          "type": "uint256"
        }
      ],
      "stateMutability": "view",
      "type": "function"
    },
    {
      "inputs": [
        {
          "internalType": "uint256",
          "name": "listingId",
          "type": "uint256"
        }
      ],
      "name": "buyListing",
      "outputs": [],
      "stateMutability": "payable",
      "type": "function"
    },
    {
      "inputs": [
        {
          "internalType": "uint256",
          "name": "listingId",
          "type": "uint256"
        }
      ],
      "name": "cancelListing",
      "outputs": [],
      "stateMutability": "nonpayable",
      "type": "function"
    },
    {
      "inputs": [
        {
          "internalType": "uint256",
          "name": "offerId",
          "type": "uint256"
        }
      ],
      "name": "cancelOffer",
      "outputs": [],
      "stateMutability": "nonpayable",
      "type": "function"
    },
    {
      "inputs": [
        {
          "internalType": "uint256",
          "name": "tokenId",
          "type": "uint256"
        },
        {
          "internalType": "uint256",
          "name": "price",
          "type": "uint256"
        }
      ],
      "name": "createListing",
      "outputs": [
        {
          "internalType": "uint256",
          "name": "",
          "type": "uint256"
        }
      ],
      "stateMutability": "nonpayable",
      "type": "function"
    },
    {
      "inputs": [],
      "name": "getActiveListings",
      "outputs": [
        {
          "components": [
            {
              "internalType": "uint256",
              "name": "listingId",
              "type": "uint256"
            },
            {
              "internalType": "uint256",
              "name": "tokenId",
              "type": "uint256"
            },
            {
              "internalType": "address",
              "name": "seller",
              "type": "address"
            },
            {
              "internalType": "uint256",
              "name": "price",
              "type": "uint256"
            },
            {
              "internalType": "uint256",
              "name": "listedAt",
              "type": "uint256"
            },
            {
              "internalType": "bool",
              "name": "active",
              "type": "bool"
            }
          ],
          "internalType": "struct TrustFolioMarketplace.Listing[]",
          "name": "",
          "type": "tuple[]"
        }
      ],
      "stateMutability": "view",
      "type": "function"
    },
    {
      "inputs": [
        {
          "internalType": "uint256",
          "name": "listingId",
          "type": "uint256"
        }
      ],
      "name": "getListing",
      "outputs": [
        {
          "components": [
            {
              "internalType": "uint256",
              "name": "listingId",
              "type": "uint256"
            },
            {
              "internalType": "uint256",
              "name": "tokenId",
              "type": "uint256"
            },
            {
              "internalType": "address",
              "name": "seller",
              "type": "address"
            },
            {
              "internalType": "uint256",
              "name": "price",
              "type": "uint256"
            },
            {
              "internalType": "uint256",
              "name": "listedAt",
              "type": "uint256"
            },
            {
              "internalType": "bool",
              "name": "active",
              "type": "bool"
            }
          ],
          "internalType": "struct TrustFolioMarketplace.Listing",
          "name": "",
          "type": "tuple"
        }
      ],
      "stateMutability": "view",
      "type": "function"
    },
    {
      "inputs": [
        {
          "internalType": "uint256",
          "name": "offerId",
          "type": "uint256"
        }
      ],
      "name": "getOffer",
      "outputs": [
        {
          "components": [
            {
              "internalType": "uint256",
              "name": "offerId",
              "type": "uint256"
            },
            {
              "internalType": "uint256",
              "name": "tokenId",
              "type": "uint256"
            },
            {
              "internalType": "address",
              "name": "buyer",
              "type": "address"
            },
            {
              "internalType": "uint256",
              "name": "amount",
              "type": "uint256"
            },
            {
              "internalType": "uint256",
              "name": "expiresAt",
              "type": "uint256"
            },
            {
              "internalType": "bool",
              "name": "active",
              "type": "bool"
            }
          ],
          "internalType": "struct TrustFolioMarketplace.Offer",
          "name": "",
          "type": "tuple"
        }
      ],
      "stateMutability": "view",
      "type": "function"
    },
    {
      "inputs": [
        {
          "internalType": "uint256",
          "name": "tokenId",
          "type": "uint256"
        }
      ],
      "name": "getTokenOffers",
      "outputs": [
        {
          "components": [
            {
              "internalType": "uint256",
              "name": "offerId",
              "type": "uint256"
            },
            {
              "internalType": "uint256",
              "name": "tokenId",
              "type": "uint256"
            },
            {
              "internalType": "address",
              "name": "buyer",
              "type": "address"
            },
            {
              "internalType": "uint256",
              "name": "amount",
              "type": "uint256"
            },
            {
              "internalType": "uint256",
              "name": "expiresAt",
              "type": "uint256"
            },
            {
              "internalType": "bool",
              "name": "active",
              "type": "bool"
            }
          ],
          "internalType": "struct TrustFolioMarketplace.Offer[]",
          "name": "",
          "type": "tuple[]"
        }
      ],
      "stateMutability": "view",
      "type": "function"
    },
    {
      "inputs": [],
      "name": "inftContract",
      "outputs": [
        {
          "internalType": "contract IERC721",
          "name": "",
          "type": "address"
        }
      ],
      "stateMutability": "view",
      "type": "function"
    },
    {
      "inputs": [
        {
          "internalType": "uint256",
          "name": "",
          "type": "uint256"
        }
      ],
      "name": "listings",
      "outputs": [
        {
          "internalType": "uint256",
          "name": "listingId",
          "type": "uint256"
        },
        {
          "internalType": "uint256",
          "name": "tokenId",
          "type": "uint256"
        },
        {
          "internalType": "address",
          "name": "seller",
          "type": "address"
        },
        {
          "internalType": "uint256",
          "name": "price",
          "type": "uint256"
        },
        {
          "internalType": "uint256",
          "name": "listedAt",
          "type": "uint256"
        },
        {
          "internalType": "bool",
          "name": "active",
          "type": "bool"
        }
      ],
      "stateMutability": "view",
      "type": "function"
    },
    {
      "inputs": [
        {
          "internalType": "uint256",
          "name": "tokenId",
          "type": "uint256"
        },
        {
          "internalType": "uint256",
          "name": "durationSeconds",
          "type": "uint256"
        }
      ],
      "name": "makeOffer",
      "outputs": [
        {
          "internalType": "uint256",
          "name": "",
          "type": "uint256"
        }
      ],
      "stateMutability": "payable",
      "type": "function"
    },
    {
      "inputs": [
        {
          "internalType": "uint256",
          "name": "",
          "type": "uint256"
        }
      ],
      "name": "offers",
      "outputs": [
        {
          "internalType": "uint256",
          "name": "offerId",
          "type": "uint256"
        },
        {
          "internalType": "uint256",
          "name": "tokenId",
          "type": "uint256"
        },
        {
          "internalType": "address",
          "name": "buyer",
          "type": "address"
        },
        {
          "internalType": "uint256",
          "name": "amount",
          "type": "uint256"
        },
        {
          "internalType": "uint256",
          "name": "expiresAt",
          "type": "uint256"
        },
        {
          "internalType": "bool",
          "name": "active",
          "type": "bool"
        }
      ],
      "stateMutability": "view",
      "type": "function"
    },
    {
      "inputs": [],
      "name": "owner",
      "outputs": [
        {
          "internalType": "address",
          "name": "",
          "type": "address"
        }
      ],
      "stateMutability": "view",
      "type": "function"
    },
    {
      "inputs": [],
      "name": "renounceOwnership",
      "outputs": [],
      "stateMutability": "nonpayable",
      "type": "function"
    },
    {
      "inputs": [
        {
          "internalType": "address",
          "name": "newTreasury",
          "type": "address"
        }
      ],
      "name": "setTreasury",
      "outputs": [],
      "stateMutability": "nonpayable",
      "type": "function"
    },
    {
      "inputs": [
        {
          "internalType": "uint256",
          "name": "",
          "type": "uint256"
        },
        {
          "internalType": "uint256",
          "name": "",
          "type": "uint256"
        }
      ],
      "name": "tokenOffers",
      "outputs": [
        {
          "internalType": "uint256",
          "name": "",
          "type": "uint256"
        }
      ],
      "stateMutability": "view",
      "type": "function"
    },
    {
      "inputs": [
        {
          "internalType": "uint256",
          "name": "",
          "type": "uint256"
        }
      ],
      "name": "tokenToActiveListing",
      "outputs": [
        {
          "internalType": "uint256",
          "name": "",
          "type": "uint256"
        }
      ],
      "stateMutability": "view",
      "type": "function"
    },
    {
      "inputs": [],
      "name": "totalFees",
      "outputs": [
        {
          "internalType": "uint256",
          "name": "",
          "type": "uint256"
        }
      ],
      "stateMutability": "view",
      "type": "function"
    },
    {
      "inputs": [],
      "name": "totalSales",
      "outputs": [
        {
          "internalType": "uint256",
          "name": "",
          "type": "uint256"
        }
      ],
      "stateMutability": "view",
      "type": "function"
    },
    {
      "inputs": [],
      "name": "totalVolume",
      "outputs": [
        {
          "internalType": "uint256",
          "name": "",
          "type": "uint256"
        }
      ],
      "stateMutability": "view",
      "type": "function"
    },
    {
      "inputs": [
        {
          "internalType": "address",
          "name": "newOwner",
          "type": "address"
        }
      ],
      "name": "transferOwnership",
      "outputs": [],
      "stateMutability": "nonpayable",
      "type": "function"
    },
    {
      "inputs": [],
      "name": "treasury",
      "outputs": [
        {
          "internalType": "address",
          "name": "",
          "type": "address"
        }
      ],
      "stateMutability": "view",
      "type": "function"
    }
  ],
  "bytecode": "0x60a03461012e57601f620019c338819003918201601f19168301916001600160401b0383118484101761013257808492604094855283398101031261012e57610053602061004c83610146565b9201610146565b903315610116575f549160018060a01b03908160018060a01b03199333858716175f5560405195823391167f8be0079c531659141344cd1fd0a4f28419497f9722a3daafe3b4186f6b6457e05f80a360017f9b779b17422d0df92223018b32b4d1fa46e071723d6817e2486d003becc55f0055600180556001600255166080521690600354161760035561186890816200015b82396080518181816104c6015281816106130152818161080201528181610d7c01528181610fcf01526111050152f35b604051631e4fbdf760e01b81525f6004820152602490fd5b5f80fd5b634e487b7160e01b5f52604160045260245ffd5b51906001600160a01b038216820361012e5756fe6080604081815260049081361015610015575f80fd5b5f925f3560e01c90816301388d37146112eb5750806305b7cdd3146111c8578063107a274a1461119557806313114a9d14611177578063192b2e3014611150578063249d39e914611134578063300303e9146110f1578063305a67a814610f4d5780634579268a14610f0d5780634681a7c614610eee5780634884f45914610cb75780635f81a57c14610c9857806361d027b314610c6f5780636605ff6614610c50578063715018a614610bf757806387c35bc014610af05780638a72ea6a14610a795780638da5cb5b14610a51578063944985f514610a10578063a79123a9146107c4578063bf333f2c146107a8578063c815729d146103c0578063d6d4fcea146103a2578063de74e57b1461032c578063ef706adf1461024c578063f0f44260146101e15763f2fde38b1461014a575f80fd5b346101dd5760203660031901126101dd576001600160a01b038235818116939192908490036101d95761017b6117e7565b83156101c35750505f54826bffffffffffffffffffffffff60a01b8216175f55167f8be0079c531659141344cd1fd0a4f28419497f9722a3daafe3b4186f6b6457e05f80a380f35b51631e4fbdf760e01b8152908101849052602490fd5b8480fd5b8280fd5b50503461024857602036600319011261024857356001600160a01b038116908190036102485761020f6117e7565b600380546001600160a01b031916821790557f7dae230f18360d76a040c81f050aa14eb9d6dc7901b20fc5d855e2a20fe814d18280a280f35b5080fd5b5090346101dd5760203660031901126101dd5780359161026a6116ad565b828452600560205280842091600583019182549160ff8316156103175760028501546001600160a01b0316913383036102ec5750505060ff19169055600301546102b4903361177e565b7fc28b4aed030bfacc245c0501326e1beb8c0ef0d60e4edc21067fdeb52da2a7aa8280a260015f805160206118138339815191525580f35b51635eeea42160e01b8152339181019182526001600160a01b03909216602082015281906040010390fd5b856024925191630e3dde1b60e11b8352820152fd5b50823461039f57602036600319011261039f57823581526020838152908290208054600182015460028301546003840154968401546005909401549551928352938201526001600160a01b0390921660408301526060820193909352608081019290925260ff16151560a082015260c090f35b80fd5b8382346102485781600319360112610248576020905162278d008152f35b50346101dd576020806003193601126107a4578235906103de6116ad565b8185526005815282852092600584019081549160ff83161561078d578686015442116107765760ff198093169055600385019586549060fa820282810460fa148315171561076357906127108a92049461044461043b8786611681565b94600954611614565b60095561045386600b54611614565b600b55610461600a546115f2565b600a55600189019687549182855260068252868520549283151580610745575b156105f7575082916006916104b0948752858252600589882001908154169055895486525283868120556116dc565b600288015486546001600160a01b0391821692917f000000000000000000000000000000000000000000000000000000000000000016803b156101d95786516323b872dd60e01b8152309381019384526001600160a01b0390941660208401526040830191909152839183919082908490829060600103925af180156105ed576105d5575b50507fdaf07891f5285c11e75387020299910ed108c13f1b6a0650baeb919d53b50c45936105676105a2925b3361177e565b836105b9575b5460029096015496549151338152602081019290925260408201929092526001600160a01b0395909516949081906060820190565b0390a460015f805160206118138339815191525580f35b6003546105d09085906001600160a01b031661177e565b61056d565b6105de9061150c565b6105e957875f610535565b8780fd5b84513d84823e3d90fd5b87516331a9108f60e11b81528581018290526001600160a01b037f00000000000000000000000000000000000000000000000000000000000000008116975091945090928e925080826024818a5afa92831561073a579261070d575b505081339116036106fd57908b93929160028b01541692803b156101d95786516323b872dd60e01b8152339381019384526001600160a01b0390941660208401526040830191909152839183919082908490829060600103925af180156105ed576106e9575b50507fdaf07891f5285c11e75387020299910ed108c13f1b6a0650baeb919d53b50c45936105676105a292610561565b6106f29061150c565b6105e957875f6106b9565b85516359dc379f60e01b81528390fd5b61072c9250803d10610733575b6107248183611520565b81019061168e565b5f80610653565b503d61071a565b8951903d90823e3d90fd5b50838652848352878620600201546001600160a01b03163314610481565b634e487b7160e01b8a526011825260248afd5b81516348e57f5f60e01b8152808801869052602490fd5b8151630e3dde1b60e11b8152808801869052602490fd5b8380fd5b8382346102485781600319360112610248576020905160fa8152f35b50346101dd576107d336611468565b906107dc6116ad565b8115610a025782516331a9108f60e11b8152848101829052602094906001600160a01b037f0000000000000000000000000000000000000000000000000000000000000000811691908782602481865afa9182156109f85789926109d9575b50339116036109ca578287526006865284872054806109ae5750803b156109aa5784516323b872dd60e01b815233838201908152306020820152604081018590529091889183919082908490829060600103925af180156109a057610988575b508394956001549586916108ae836115f2565b6001556108ed82516108bf816114dc565b848152868b8201523384820152876060820152426080820152600160a0820152848352858b52838320611621565b84815260068952205560085490600160401b82101561097557508461091b826001610933940160085561147e565b90919082549060031b91821b915f19901b1916179055565b8251918252837fcf4ebbb01b0166b4c3bb06d2edd4860d56a19f40c14454fdeb07220bf1752924863394a460015f805160206118138339815191525551908152f35b604190634e487b7160e01b5f525260245ffd5b610992879161150c565b61099c575f61089b565b8580fd5b85513d89823e3d90fd5b8680fd5b9050604492855192633621852f60e11b84528301526024820152fd5b5083516359dc379f60e01b8152fd5b6109f1919250883d8a11610733576107248183611520565b905f61083b565b87513d8b823e3d90fd5b50505162bfc92160e01b8152fd5b83823461024857610a2036611468565b92908152600760205281812090815484101561039f5750602092610a43916114c7565b91905490519160031b1c8152f35b838234610248578160031936011261024857905490516001600160a01b039091168152602090f35b50823461039f57602036600319011261039f5782358152600560208181529183902080546001820154600283015460038401549784015493909401549551918252938101939093526001600160a01b0390911660408301526060820193909352608081019290925260ff16151560a082015260c090f35b508290346102485781600319360112610248576008548391610b1182611542565b91610b1e82519384611520565b808352610b2a81611542565b60209490601f1901865b818110610bd8575050855b828110610b8f575050508051928080850192818652845180945285019301945b828110610b6c5784840385f35b9091928260c082610b806001948a51611428565b01960191019492919094610b5f565b80610ba0600192989795969861147e565b90549060031b1c8752828552610bb786882061159e565b610bc1828a61158a565b52610bcc818961158a565b50019593929495610b3f565b958094959796610be661155a565b82828b010152019694939596610b34565b833461039f578060031936011261039f57610c106117e7565b5f80546001600160a01b0319811682556001600160a01b03167f8be0079c531659141344cd1fd0a4f28419497f9722a3daafe3b4186f6b6457e08280a380f35b838234610248578160031936011261024857602090600a549051908152f35b83823461024857816003193601126102485760035490516001600160a01b039091168152602090f35b8382346102485781600319360112610248576020906009549051908152f35b509060203660031901126101dd578035610ccf6116ad565b8084528160205282842092600584019384549460ff861615610ed85760038201958654803410610eba575060ff1916905560018101918254875260066020528681812055610d1c846116dc565b85549460fa860286810460fa1487151715610ea757612710900492610d4d610d448589611681565b97600954611614565b600955610d5c84600b54611614565b600b55610d6a600a546115f2565b600a5584546001600160a01b03928a917f000000000000000000000000000000000000000000000000000000000000000085169190823b156107a45786516323b872dd60e01b815230928101928352336020840152604083019190915291839183919082908490829060600103925af18015610e9d57610e81575b5050907f32e54fa7fbb8a9fb8d83e72518a738f5b67739eea06d7a2b39c229bf80e4dbf894610e1e60026105a2940198838a541661177e565b84610e6e575b8854803411610e5b575b505496541696549151928392339884604091949392606082019560018060a01b0316825260208201520152565b610561610e689134611681565b5f610e2e565b610e7c85836003541661177e565b610e24565b610e8d9093929361150c565b610e995790885f610de5565b8880fd5b85513d84823e3d90fd5b634e487b7160e01b895260118252602489fd5b845163b99e2ab760e01b815234818901526024810191909152604490fd5b50505162de2a4f60e61b81529182015260249150fd5b8382346102485781600319360112610248576020906008549051908152f35b5090346101dd5760203660031901126101dd57610f428260c094610f4b93610f3361155a565b5035815260056020522061159e565b91518092611428565bf35b503461109e57602036600319011261109e57813591610f6a6116ad565b825f5280602052815f2091600583019182549360ff8516156110dc576002810180546001600160a01b039691959190871633811415806110cf575b6110a2575060ff1916905560010180545f90815260066020528381205593610fcc866116dc565b807f00000000000000000000000000000000000000000000000000000000000000001693541692845490803b1561109e5783516323b872dd60e01b8152309381019384526001600160a01b03909516602084015260408301919091525f9184919082908490829060600103925af19081156110955750611082575b5054907fafd0a85a3f09cebbc7d9fcde08e8a7d0ebb0aa7d768a030915c3816a053d3c7a8380a360015f805160206118138339815191525580f35b61108d91935061150c565b5f915f611047565b513d5f823e3d90fd5b5f80fd5b8551637de5a52160e11b8152338187019081526001600160a01b0390921660208301529081906040010390fd5b5033885f54161415610fa5565b5084602492519162de2a4f60e61b8352820152fd5b503461109e575f36600319011261109e57517f00000000000000000000000000000000000000000000000000000000000000006001600160a01b03168152602090f35b503461109e575f36600319011261109e57602090516127108152f35b503461109e57602036600319011261109e57602091355f5260068252805f20549051908152f35b503461109e575f36600319011261109e57602090600b549051908152f35b503461109e57602036600319011261109e5760c0916111b261155a565b5080355f52602052610f4b610f42825f2061159e565b506111d236611468565b91906111dc6116ad565b34156112dc57821580156112d0575b6112c057611208600254936111ff856115f2565b60025542611614565b906112488351611217816114dc565b8581528260208201523385820152346060820152836080820152600160a0820152855f526005602052845f20611621565b805f526007602052825f20805495600160401b87101561097557508461091b8761127993600160209a0181556114c7565b82519134835285830152837f23b0047c5c1f392c454f858542ddfb8143e48945b1a00e247308d5eb97164bc4843394a460015f805160206118138339815191525551908152f35b8151637616640160e01b81528490fd5b5062278d0083116111eb565b815162bfc92160e01b81528490fd5b9190503461109e576020928360031936011261109e57355f5260078352805f2082815491828252858201905f52855f20925f5b878282106114125750505061133592500383611520565b81519261135961134485611542565b9461135184519687611520565b808652611542565b601f1901815f5b8281106113fc575050505f5b83518110156113b057806113826001928661158a565b515f5260058352611394845f2061159e565b61139e828861158a565b526113a9818761158a565b500161136c565b50929091508151918380840191818552835180935284019201935f5b8281106113d95784840385f35b9091928260c0826113ed6001948a51611428565b019601910194929190946113cc565b61140461155a565b828289010152018290611360565b855484526001958601958895509301920161131e565b60a080918051845260208101516020850152600180831b036040820151166040850152606081015160608501526080810151608085015201511515910152565b604090600319011261109e576004359060243590565b6008548110156114b35760085f527ff3f7a9fe364faab93b216da50a3214154f22a0a2b415b23a84c8169e8b636ee301905f90565b634e487b7160e01b5f52603260045260245ffd5b80548210156114b3575f5260205f2001905f90565b60c0810190811067ffffffffffffffff8211176114f857604052565b634e487b7160e01b5f52604160045260245ffd5b67ffffffffffffffff81116114f857604052565b90601f8019910116810190811067ffffffffffffffff8211176114f857604052565b67ffffffffffffffff81116114f85760051b60200190565b60405190611567826114dc565b5f60a0838281528260208201528260408201528260608201528260808201520152565b80518210156114b35760209160051b010190565b906040516115ab816114dc565b825481526001830154602082015260028301546001600160a01b03166040820152600383015460608201526004830154608082015260059092015460ff16151560a0830152565b5f1981146116005760010190565b634e487b7160e01b5f52601160045260245ffd5b9190820180921161160057565b600560a091835181556020840151600182015560028101600180851b036040860151166bffffffffffffffffffffffff851b825416179055606084015160038201556080840151600482015501910151151560ff80198354169116179055565b9190820391821161160057565b9081602091031261109e57516001600160a01b038116810361109e5790565b5f8051602061181383398151915260028154146116ca5760029055565b604051633ee5aeb560e01b8152600490fd5b600890600854915f5b8381106116f3575b50505050565b826116fd8261147e565b919054600392831b1c1461171457506001016116e5565b939192505f1991828101919082116116005761091b6117356117419361147e565b905490871b1c9161147e565b8154801561176a578101926117558461147e565b81939154921b1b19169055555f8080806116ed565b634e487b7160e01b5f52603160045260245ffd5b5f918291829182916001600160a01b03165af13d156117e2573d67ffffffffffffffff81116114f857604051906117bf601f8201601f191660200183611520565b81525f60203d92013e5b156117d057565b6040516312171d8360e31b8152600490fd5b6117c9565b5f546001600160a01b031633036117fa57565b60405163118cdaa760e01b8152336004820152602490fdfe9b779b17422d0df92223018b32b4d1fa46e071723d6817e2486d003becc55f00a26469706673582212206a10586b1310d71b01b2738522ef840f3631da925ae470af74f4b499ad22d40d64736f6c63430008180033",
  "linkReferences": {},
  "deployedLinkReferences": {}
}