{
  "_format": "hh-sol-artifact-1",
  "contractName": "Staking",
  "sourceName": "contracts/Staking.sol",
  "abi": [
    {
      "inputs": [
        {
          "internalType": "address",
          "name": "_trustToken",
          "type": "address"
        }
      ],
      "stateMutability": "nonpayable",
      "type": "constructor"
    },
    {
      "inputs": [
        {
          "internalType": "address",
          "name": "owner",
          "type": "address"
        }
      ],
      "name": "OwnableInvalidOwner",
      "type": "error"
    },
    {
      "inputs": [
        {
          "internalType": "address",
          "name": "account",
          "type": "address"
        }
      ],
      "name": "OwnableUnauthorizedAccount",
      "type": "error"
    },
    {
      "inputs": [],
      "name": "ReentrancyGuardReentrantCall",
      "type": "error"
    },
    {
      "inputs": [
        {
          "internalType": "address",
          "name": "token",
          "type": "address"
        }
      ],
      "name": "SafeERC20FailedOperation",
      "type": "error"
    },
    {
      "anonymous": false,
      "inputs": [
        {
          "indexed": true,
          "internalType": "address",
          "name": "previousOwner",
          "type": "address"
        },
        {
          "indexed": true,
          "internalType": "address",
          "name": "newOwner",
          "type": "address"
        }
      ],
      "name": "OwnershipTransferred",
      "type": "event"
    },
    {
      "anonymous": false,
      "inputs": [
        {
          "indexed": true,
          "internalType": "address",
          "name": "user",
          "type": "address"
        },
        {
          "indexed": false,
          "internalType": "uint256",
          "name": "amount",
          "type": "uint256"
        }
      ],
      "name": "RewardsClaimed",
      "type": "event"
    },
    {
      "anonymous": false,
      "inputs": [
        {
          "indexed": true,
          "internalType": "address",
          "name": "by",
          "type": "address"
        },
        {
          "indexed": false,
          "internalType": "uint256",
          "name": "amount",
          "type": "uint256"
        }
      ],
      "name": "RewardsDeposited",
      "type": "event"
    },
    {
      "anonymous": false,
      "inputs": [
        {
          "indexed": true,
          "internalType": "address",
          "name": "user",
          "type": "address"
        },
        {
          "indexed": false,
          "internalType": "uint256",
          "name": "amount",
          "type": "uint256"
        }
      ],
      "name": "Staked",
      "type": "event"
    },
    {
      "anonymous": false,
      "inputs": [
        {
          "indexed": true,
          "internalType": "address",
          "name": "user",
          "type": "address"
        },
        {
          "indexed": false,
          "internalType": "uint256",
          "name": "amount",
          "type": "uint256"
        }
      ],
      "name": "Unstaked",
      "type": "event"
    },
    {
      "inputs": [],
      "name": "APY_BPS",
      "outputs": [
        {
          "internalType": "uint256",
          "name": "",
          "type": "uint256"
        }
      ],
      "stateMutability": "view",
      "type": "function"
    },
    {
      "inputs": [],
      "name": "BPS_DENOMINATOR",
      "outputs": [
        {
          "internalType": "uint256",
          "name": "",
          "type": "uint256"
        }
      ],
      "stateMutability": "view",
      "type": "function"
    },
    {
      "inputs": [],
      "name": "BRONZE_THRESHOLD",
      "outputs": [
        {
          "internalType": "uint256",
          "name": "",
          "type": "uint256"
        }
      ],
      "stateMutability": "view",
      "type": "function"
    },
    {
      "inputs": [],
      "name": "DIAMOND_THRESHOLD",
      "outputs": [
        {
          "internalType": "uint256",
          "name": "",
          "type": "uint256"
        }
      ],
      "stateMutability": "view",
      "type": "function"
    },
    {
      "inputs": [],
      "name": "GOLD_THRESHOLD",
      "outputs": [
        {
          "internalType": "uint256",
          "name": "",
          "type": "uint256"
        }
      ],
      "stateMutability": "view",
      "type": "function"
    },
    {
      "inputs": [],
      "name": "SECONDS_PER_YEAR",
      "outputs": [
        {
          "internalType": "uint256",
          "name": "",
          "type": "uint256"
        }
      ],
      "stateMutability": "view",
      "type": "function"
    },
    {
      "inputs": [],
      "name": "SILVER_THRESHOLD",
      "outputs": [
        {
          "internalType": "uint256",
          "name": "",
          "type": "uint256"
        }
      ],
      "stateMutability": "view",
      "type": "function"
    },
    {
      "inputs": [],
      "name": "claimRewards",
      "outputs": [],
      "stateMutability": "nonpayable",
      "type": "function"
    },
    {
      "inputs": [
        {
          "internalType": "uint256",
          "name": "amount",
          "type": "uint256"
        }
      ],
      "name": "depositRewards",
      "outputs": [],
      "stateMutability": "nonpayable",
      "type": "function"
    },
    {
      "inputs": [
        {
          "internalType": "address",
          "name": "user",
          "type": "address"
        }
      ],
      "name": "getBoostTier",
      "outputs": [
        {
          "internalType": "string",
          "name": "",
          "type": "string"
        }
      ],
      "stateMutability": "view",
      "type": "function"
    },
    {
      "inputs": [
        {
          "internalType": "address",
          "name": "user",
          "type": "address"
        }
      ],
      "name": "getPendingRewards",
      "outputs": [
        {
          "internalType": "uint256",
          "name": "",
          "type": "uint256"
        }
      ],
      "stateMutability": "view",
      "type": "function"
    },
    {
      "inputs": [
        {
          "internalType": "address",
          "name": "user",
          "type": "address"
        }
      ],
      "name": "getStakeInfo",
      "outputs": [
        {
          "internalType": "uint256",
          "name": "stakedAmount",
          "type": "uint256"
        },
        {
          "internalType": "uint256",
          "name": "pending",
          "type": "uint256"
        }
      ],
      "stateMutability": "view",
      "type": "function"
    },
    {
      "inputs": [],
      "name": "getTotalStaked",
      "outputs": [
        {
          "internalType": "uint256",
          "name": "",
          "type": "uint256"
        }
      ],
      "stateMutability": "view",
      "type": "function"
    },
    {
      "inputs": [
        {
          "internalType": "address",
          "name": "",
          "type": "address"
        }
      ],
      "name": "hasBoost",
      "outputs": [
        {
          "internalType": "bool",
          "name": "",
          "type": "bool"
        }
      ],
      "stateMutability": "view",
      "type": "function"
    },
    {
      "inputs": [],
      "name": "owner",
      "outputs": [
        {
          "internalType": "address",
          "name": "",
          "type": "address"
        }
      ],
      "stateMutability": "view",
      "type": "function"
    },
    {
      "inputs": [],
      "name": "renounceOwnership",
      "outputs": [],
      "stateMutability": "nonpayable",
      "type": "function"
    },
    {
      "inputs": [
        {
          "internalType": "uint256",
          "name": "amount",
          "type": "uint256"
        }
      ],
      "name": "stake",
      "outputs": [],
      "stateMutability": "nonpayable",
      "type": "function"
    },
    {
      "inputs": [],
      "name": "totalRewardsPool",
      "outputs": [
        {
          "internalType": "uint256",
          "name": "",
          "type": "uint256"
        }
      ],
      "stateMutability": "view",
      "type": "function"
    },
    {
      "inputs": [],
      "name": "totalStaked",
      "outputs": [
        {
          "internalType": "uint256",
          "name": "",
          "type": "uint256"
        }
      ],
      "stateMutability": "view",
      "type": "function"
    },
    {
      "inputs": [
        {
          "internalType": "address",
          "name": "newOwner",
          "type": "address"
        }
      ],
      "name": "transferOwnership",
      "outputs": [],
      "stateMutability": "nonpayable",
      "type": "function"
    },
    {
      "inputs": [],
      "name": "trustToken",
      "outputs": [
        {
          "internalType": "contract IERC20",
          "name": "",
          "type": "address"
        }
      ],
      "stateMutability": "view",
      "type": "function"
    },
    {
      "inputs": [
        {
          "internalType": "uint256",
          "name": "amount",
          "type": "uint256"
        }
      ],
      "name": "unstake",
      "outputs": [],
      "stateMutability": "nonpayable",
      "type": "function"
    }
  ],
  "bytecode": "0x60a03461014f57601f610ea238819003918201601f19168301916001600160401b038311848410176101535780849260209460405283398101031261014f57516001600160a01b038082169182900361014f5760017f9b779b17422d0df92223018b32b4d1fa46e071723d6817e2486d003becc55f00553315610137575f543360018060a01b03198216175f55604051913391167f8be0079c531659141344cd1fd0a4f28419497f9722a3daafe3b4186f6b6457e05f80a381156100f55750608052604051610d3a90816101688239608051818181610284015281816103520152818161046e015281816105e001526107fa0152f35b62461bcd60e51b815260206004820152601360248201527f5374616b696e673a207a65726f20746f6b656e000000000000000000000000006044820152606490fd5b604051631e4fbdf760e01b81525f6004820152602490fd5b5f80fd5b634e487b7160e01b5f52604160045260245ffdfe608060409080825260049081361015610016575f80fd5b5f3560e01c9081630917e776146108c2575080630b8df9f11461089e5780632e17de78146107545780632ef3ff6f14610737578063333f652e146106bd578063372500ab14610586578063569739741461056357806369a2f02614610540578063715018a6146104e9578063817b1cd2146104cb5780638bdf67f21461043d5780638da5cb5b14610416578063a694fc3a1461031a578063c1a0db30146102f7578063c3453153146102b3578063d13deb2f14610270578063e1a4521814610254578063e3363d4e14610238578063e6a69ab81461021a578063f2fde38b1461018a578063f6ed2017146101545763fc2e58f214610112575f80fd5b3461015057602036600319011261015057356001600160a01b0381169190829003610150576020915f526002825260ff815f20541690519015158152f35b5f80fd5b50346101505760203660031901126101505735906001600160a01b038216820361015057610183602092610c61565b9051908152f35b509034610150576020366003190112610150576001600160a01b03823581811693919290849003610150576101bd610bcc565b83156102045750505f54826bffffffffffffffffffffffff60a01b8216175f55167f8be0079c531659141344cd1fd0a4f28419497f9722a3daafe3b4186f6b6457e05f80a3005b905f6024925191631e4fbdf760e01b8352820152fd5b8234610150575f36600319011261015057602090516301e133808152f35b8234610150575f36600319011261015057602090516103208152f35b8234610150575f36600319011261015057602090516127108152f35b8234610150575f36600319011261015057517f00000000000000000000000000000000000000000000000000000000000000006001600160a01b03168152602090f35b503461015057602036600319011261015057356001600160a01b038116808203610150575f5260016020526102eb825f205491610c61565b82519182526020820152f35b8234610150575f3660031901126101505760209051681b1ae4d6e2ef5000008152f35b5034610150576020366003190112610150573590610336610a85565b6103418215156108dc565b61034a33610ac7565b6103768230337f0000000000000000000000000000000000000000000000000000000000000000610bf7565b335f526001602052805f2061038c838254610a78565b905561039a82600354610a78565b6003556103d93360018060a01b03165f52600160205268056bc75e2d6310000060405f20541015600260205260405f209060ff80198354169116179055565b519081527f9e71bc8eea02a63969f509818f2dafb9254532904319f9dbda79b67bd34a5f3d60203392a260015f80516020610ce583398151915255005b8234610150575f366003190112610150575f5490516001600160a01b039091168152602090f35b5090346101505760203660031901126101505781359161045b610bcc565b6104668315156108dc565b6104928330337f0000000000000000000000000000000000000000000000000000000000000000610bf7565b61049d838254610a78565b9055519081527fb8b27d0db504fa5d914f1fd330347096e88d5ff94b6c612d32797e7c12a8f66f60203392a2005b8234610150575f366003190112610150576020906003549051908152f35b34610150575f36600319011261015057610501610bcc565b5f80546001600160a01b0319811682556001600160a01b03167f8be0079c531659141344cd1fd0a4f28419497f9722a3daafe3b4186f6b6457e08280a3005b8234610150575f366003190112610150576020905168056bc75e2d631000008152f35b8234610150575f3660031901126101505760209051686c6b935b8bbd4000008152f35b509034610150575f366003190112610150576105a0610a85565b6105a933610ac7565b335f5260016020526003815f20019182549283156106845783825410610641575f90556105d783825461091f565b905561060482337f0000000000000000000000000000000000000000000000000000000000000000610b4e565b519081527ffc30cddea38e2bf4d6ea7d3f9ed3b6ad7f176419f4963bd81318067a4aee73fe60203392a260015f80516020610ce583398151915255005b506020606492519162461bcd60e51b8352820152601b60248201527f5374616b696e673a207265776172647320706f6f6c20656d70747900000000006044820152fd5b506020606492519162461bcd60e51b835282015260136024820152725374616b696e673a206e6f207265776172647360681b6044820152fd5b50903461015057602091602060031936011261015057356001600160a01b0381168103610150576106ed9061099c565b918151928391602083528151918260208501525f5b8381106107215750505f83830185015250601f01601f19168101030190f35b8181018301518782018701528694508201610702565b509034610150575f36600319011261015057602091549051908152f35b50903461015057602036600319011261015057813591610772610a85565b335f526001602052815f20906107898415156108dc565b8382541061085b575061079b33610ac7565b6107a683825461091f565b90556107b48260035461091f565b6003556107f33360018060a01b03165f52600160205268056bc75e2d6310000060405f20541015600260205260405f209060ff80198354169116179055565b61081e82337f0000000000000000000000000000000000000000000000000000000000000000610b4e565b519081527f0f5bb82176feb1b5e747e28471aa92156a04d9f3ab9f45f28e2d704232b93f7560203392a260015f80516020610ce583398151915255005b606490602084519162461bcd60e51b8352820152601b60248201527f5374616b696e673a20696e73756666696369656e74207374616b6500000000006044820152fd5b8234610150575f366003190112610150576020905169021e19e0c9bab24000008152f35b34610150575f366003190112610150576020906003548152f35b156108e357565b60405162461bcd60e51b815260206004820152601460248201527314dd185ada5b99ce881e995c9bc8185b5bdd5b9d60621b6044820152606490fd5b9190820391821161092c57565b634e487b7160e01b5f52601160045260245ffd5b604051906040820182811067ffffffffffffffff8211176109645760405260048252565b634e487b7160e01b5f52604160045260245ffd5b604051906040820182811067ffffffffffffffff8211176109645760405260068252565b60018060a01b03165f5260206001815260405f205469021e19e0c9bab2400000811015610a4257686c6b935b8bbd400000811015610a3157681b1ae4d6e2ef500000811015610a1e5768056bc75e2d631000001115610a0c57634e6f6e6560e01b610a05610940565b9182015290565b6542726f6e7a6560d01b610a05610978565b506529b4b63b32b960d11b610a05610978565b506311dbdb1960e21b610a05610940565b5060405190604082019082821067ffffffffffffffff8311176109645766111a585b5bdb9960ca1b916040526007835282015290565b9190820180921161092c57565b5f80516020610ce58339815191526002815414610aa25760029055565b604051633ee5aeb560e01b8152600490fd5b8181029291811591840414171561092c57565b6001600160a01b03165f9081526001602052604090208054801590811580610b41575b610af9575b5050600242910155565b610b0760028401544261091f565b9161032080830292830414171561092c5764496cebb80091610b2891610ab4565b04610b3860038301918254610a78565b90555f80610aef565b5060028301541515610aea565b60405163a9059cbb60e01b5f9081526001600160a01b039384166004526024949094529260209060448180855af160015f5114811615610bad575b8360405215610b9757505050565b635274afe760e01b835216600482015260249150fd5b6001811516610bc357813b15153d151616610b89565b833d5f823e3d90fd5b5f546001600160a01b03163303610bdf57565b60405163118cdaa760e01b8152336004820152602490fd5b6040516323b872dd60e01b5f9081526001600160a01b03938416600452938316602452604494909452909160209060648180855af160015f5114811615610c4b575b836040525f60605215610b9757505050565b6001811516610bc357813b15153d151616610c39565b6001600160a01b03165f9081526001602052604090206003810154815491821590811580610cd7575b610c96575b5050905090565b6002610ca49101544261091f565b9061032080850294850414171561092c57610cc864496cebb80091610ccf94610ab4565b0490610a78565b805f80610c8f565b5060028101541515610c8a56fe9b779b17422d0df92223018b32b4d1fa46e071723d6817e2486d003becc55f00a2646970667358221220b0c8462d64dce2d56ba9c7bcc1455df86f1648bd11e754575da212324e00c6ff64736f6c63430008180033",
  "linkReferences": {},
  "deployedLinkReferences": {}
}