{
  "_format": "hh-sol-artifact-1",
  "contractName": "CrossChainVerifier",
  "sourceName": "contracts/CrossChainVerifier.sol",
  "abi": [
    {
      "inputs": [],
      "stateMutability": "nonpayable",
      "type": "constructor"
    },
    {
      "inputs": [
        {
          "internalType": "address",
          "name": "owner",
          "type": "address"
        }
      ],
      "name": "OwnableInvalidOwner",
      "type": "error"
    },
    {
      "inputs": [
        {
          "internalType": "address",
          "name": "account",
          "type": "address"
        }
      ],
      "name": "OwnableUnauthorizedAccount",
      "type": "error"
    },
    {
      "anonymous": false,
      "inputs": [
        {
          "indexed": true,
          "internalType": "address",
          "name": "previousOwner",
          "type": "address"
        },
        {
          "indexed": true,
          "internalType": "address",
          "name": "newOwner",
          "type": "address"
        }
      ],
      "name": "OwnershipTransferred",
      "type": "event"
    },
    {
      "anonymous": false,
      "inputs": [
        {
          "indexed": true,
          "internalType": "string",
          "name": "rootHash",
          "type": "string"
        },
        {
          "indexed": false,
          "internalType": "uint256",
          "name": "timestamp",
          "type": "uint256"
        }
      ],
      "name": "ProofInvalidated",
      "type": "event"
    },
    {
      "anonymous": false,
      "inputs": [
        {
          "indexed": true,
          "internalType": "string",
          "name": "rootHash",
          "type": "string"
        },
        {
          "indexed": true,
          "internalType": "address",
          "name": "signer",
          "type": "address"
        },
        {
          "indexed": false,
          "internalType": "uint256",
          "name": "score",
          "type": "uint256"
        },
        {
          "indexed": false,
          "internalType": "string",
          "name": "tier",
          "type": "string"
        },
        {
          "indexed": false,
          "internalType": "string",
          "name": "skillCategory",
          "type": "string"
        },
        {
          "indexed": false,
          "internalType": "uint256",
          "name": "timestamp",
          "type": "uint256"
        }
      ],
      "name": "ProofPublished",
      "type": "event"
    },
    {
      "inputs": [
        {
          "internalType": "string",
          "name": "rootHash",
          "type": "string"
        }
      ],
      "name": "exportProof",
      "outputs": [
        {
          "internalType": "bytes",
          "name": "bundle",
          "type": "bytes"
        }
      ],
      "stateMutability": "view",
      "type": "function"
    },
    {
      "inputs": [],
      "name": "getProofCount",
      "outputs": [
        {
          "internalType": "uint256",
          "name": "",
          "type": "uint256"
        }
      ],
      "stateMutability": "view",
      "type": "function"
    },
    {
      "inputs": [
        {
          "internalType": "string",
          "name": "rootHash",
          "type": "string"
        }
      ],
      "name": "invalidateProof",
      "outputs": [],
      "stateMutability": "nonpayable",
      "type": "function"
    },
    {
      "inputs": [],
      "name": "owner",
      "outputs": [
        {
          "internalType": "address",
          "name": "",
          "type": "address"
        }
      ],
      "stateMutability": "view",
      "type": "function"
    },
    {
      "inputs": [],
      "name": "proofCount",
      "outputs": [
        {
          "internalType": "uint256",
          "name": "",
          "type": "uint256"
        }
      ],
      "stateMutability": "view",
      "type": "function"
    },
    {
      "inputs": [
        {
          "internalType": "string",
          "name": "rootHash",
          "type": "string"
        },
        {
          "internalType": "address",
          "name": "signer",
          "type": "address"
        },
        {
          "internalType": "uint256",
          "name": "score",
          "type": "uint256"
        },
        {
          "internalType": "string",
          "name": "tier",
          "type": "string"
        },
        {
          "internalType": "string",
          "name": "skillCategory",
          "type": "string"
        }
      ],
      "name": "publishProof",
      "outputs": [],
      "stateMutability": "nonpayable",
      "type": "function"
    },
    {
      "inputs": [],
      "name": "renounceOwnership",
      "outputs": [],
      "stateMutability": "nonpayable",
      "type": "function"
    },
    {
      "inputs": [
        {
          "internalType": "address",
          "name": "newOwner",
          "type": "address"
        }
      ],
      "name": "transferOwnership",
      "outputs": [],
      "stateMutability": "nonpayable",
      "type": "function"
    },
    {
      "inputs": [
        {
          "internalType": "string",
          "name": "rootHash",
          "type": "string"
        }
      ],
      "name": "verifyProof",
      "outputs": [
        {
          "components": [
            {
              "internalType": "address",
              "name": "signer",
              "type": "address"
            },
            {
              "internalType": "uint256",
              "name": "score",
              "type": "uint256"
            },
            {
              "internalType": "string",
              "name": "tier",
              "type": "string"
            },
            {
              "internalType": "string",
              "name": "skillCategory",
              "type": "string"
            },
            {
              "internalType": "uint256",
              "name": "timestamp",
              "type": "uint256"
            },
            {
              "internalType": "bool",
              "name": "valid",
              "type": "bool"
            }
          ],
          "internalType": "struct CrossChainVerifier.ProofRecord",
          "name": "",
          "type": "tuple"
        }
      ],
      "stateMutability": "view",
      "type": "function"
    }
  ],
  "bytecode": "0x60808060405234610078573315610063575f8054336001600160a01b03198216811783556040519290916001600160a01b0316907f8be0079c531659141344cd1fd0a4f28419497f9722a3daafe3b4186f6b6457e09080a3610e12908161007d8239f35b631e4fbdf760e01b81525f6004820152602490fd5b5f80fdfe6080806040526004361015610012575f80fd5b5f3560e01c9081632640df77146109c75750806338418633146108d15780635be4ee1b14610836578063715018a61461087a5780638da5cb5b14610853578063addecc0614610836578063ce2bfa5414610714578063d86f40f91461010f5763f2fde38b1461007f575f80fd5b3461010b57602036600319011261010b576004356001600160a01b038181169182900361010b576100ae610db1565b81156100f3575f54826bffffffffffffffffffffffff60a01b8216175f55167f8be0079c531659141344cd1fd0a4f28419497f9722a3daafe3b4186f6b6457e05f80a3005b604051631e4fbdf760e01b81525f6004820152602490fd5b5f80fd5b3461010b5760a036600319011261010b576004356001600160401b03811161010b5761013f903690600401610b35565b6024356001600160a01b0381811693929184900361010b57604460649384356001600160401b03811161010b5761017a903690600401610b35565b9390956084356001600160401b03811161010b5761019c903690600401610b35565b9190926101a7610db1565b87156106c6578915610684578615610642578215610600576101ca368987610bdc565b6020815191012091825f52600160205260ff600560405f200154166105ac5750604051906101f782610ba0565b8a8252602082018735815261020d368a8d610bdc565b9060408401918252610220368789610bdc565b6060850152426080850152600160a0850152845f52600160205260405f20928451166bffffffffffffffffffffffff60a01b845416178355516001830155518051906001600160401b0382116104a35761028a826102816002860154610c79565b60028601610d42565b602090601f831160011461053e576102b992915f9183610533575b50508160011b915f199060031b1c19161790565b60028201555b60608201518051906001600160401b0382116104a3576102ef826102e66003860154610c79565b60038601610d42565b602090601f83116001146104c2578260059360a09593610323935f926104b75750508160011b915f199060031b1c19161790565b60038201555b6080840151600482015501910151151560ff801983541691161790555f52600260205260405f206001600160401b0387116104a3576103728761036c8354610c79565b83610d42565b5f87601f8111600114610440578061039e925f91610435575b508160011b915f199060031b1c19161790565b90555b6003545f198114610421577f736e67f813bd15617cab050c643b5586accf7cb842d958354bd5afe8946b377496610416946001610408930160035581604051928392833781015f815203902097604051968796358752608060208801526080870191610d91565b918483036040860152610d91565b4260608301520390a3005b634e487b7160e01b5f52601160045260245ffd5b90508601358c61038b565b50601f19881690825f528860205f20925f5b81811061048857501061046f575b5050600187811b0190556103a1565b8501355f1960038a901b60f8161c191690558980610460565b8884013585556001909401936020938401938c935001610452565b634e487b7160e01b5f52604160045260245ffd5b015190505f806102a5565b90600384015f5260205f20915f5b601f198516811061051b57509260a0949260019260059583601f19811610610503575b505050811b016003820155610329565b01515f1960f88460031b161c191690558f80806104f3565b919260206001819286850151815501940192016104d0565b015190508e806102a5565b9190600284015f5260205f20905f935b601f1984168510610591576001945083601f19811610610579575b505050811b0160028201556102bf565b01515f1960f88460031b161c191690558d8080610569565b8181015183556020948501946001909301929091019061054e565b8667792065786973747360c01b6084927f43726f7373436861696e56657269666965723a2070726f6f6620616c726561646040519362461bcd60e51b85526020600486015260286024860152840152820152fd5b5060405162461bcd60e51b815260206004820152601f60248201527f43726f7373436861696e56657269666965723a20656d70747920736b696c6c0081870152fd5b5060405162461bcd60e51b815260206004820152601e60248201527f43726f7373436861696e56657269666965723a20656d7074792074696572000081870152fd5b5060405162461bcd60e51b815260206004820152601f60248201527f43726f7373436861696e56657269666965723a207a65726f207369676e65720081870152fd5b60405162461bcd60e51b815260206004820152602260248201527f43726f7373436861696e56657269666965723a20656d70747920726f6f74486181880152610e6d60f31b81840152608490fd5b3461010b5760208060031936011261010b576004356001600160401b03811161010b57610745903690600401610b35565b610750929192610db1565b61075b368285610bdc565b82815191012092835f526001835261077b600460405f2001541515610c21565b835f526001835260ff600560405f20015416156107e5577f574ccbb48f65dc7f3cfdac264b64c36813148a3f50b3dd8d49342a3c0fc4d32192935f5260018452600560405f200160ff19815416905581604051928392833781015f815203902091604051428152a2005b60405162461bcd60e51b815260048101849052602360248201527f43726f7373436861696e56657269666965723a20616c726561647920696e76616044820152621b1a5960ea1b6064820152608490fd5b3461010b575f36600319011261010b576020600354604051908152f35b3461010b575f36600319011261010b575f546040516001600160a01b039091168152602090f35b3461010b575f36600319011261010b57610892610db1565b5f80546001600160a01b0319811682556001600160a01b03167f8be0079c531659141344cd1fd0a4f28419497f9722a3daafe3b4186f6b6457e08280a3005b3461010b5760208060031936011261010b576004356001600160401b03811161010b5761090561090c913690600401610b35565b3691610bdc565b818151910120805f526001825261092b600460405f2001541515610c21565b5f526001815260405f20906109af60018060a01b0383541692600181015493600482015460ff60058401541660405196879387850152604084015260c0606084015261099661098060e0850160028701610cb1565b6003601f19968787840301608088015201610cb1565b9160a0840152151560c083015203908101845283610bbb565b6109c3604051928284938452830190610b62565b0390f35b3461010b576020908160031936011261010b57600435906001600160401b03821161010b5760a05f610a00610a30943690600401610b35565b929093610a0c81610ba0565b82815282878201526060604082015260608082015282608082015201523691610bdc565b818151910120805f5260018252610a4f600460405f2001541515610c21565b5f526001815260405f2060405190610a6682610ba0565b60018060a01b0392838254168352610b226001830154828501908152610b0f604051610aa081610a998160028a01610cb1565b0382610bbb565b6040870190815260405192610ac384610abc8160038b01610cb1565b0385610bbb565b6060880193845260ff600560048901549860808b01998a520154169560a089019615158752604051998a99828b525116908901525160408801525160c0606088015260e0870190610b62565b9051858203601f19016080870152610b62565b915160a084015251151560c08301520390f35b9181601f8401121561010b578235916001600160401b03831161010b576020838186019501011161010b57565b91908251928382525f5b848110610b8c575050825f602080949584010152601f8019910116010190565b602081830181015184830182015201610b6c565b60c081019081106001600160401b038211176104a357604052565b90601f801991011681019081106001600160401b038211176104a357604052565b9291926001600160401b0382116104a35760405191610c05601f8201601f191660200184610bbb565b82948184528183011161010b578281602093845f960137010152565b15610c2857565b60405162461bcd60e51b815260206004820152602360248201527f43726f7373436861696e56657269666965723a2070726f6f66206e6f7420666f6044820152621d5b9960ea1b6064820152608490fd5b90600182811c92168015610ca7575b6020831014610c9357565b634e487b7160e01b5f52602260045260245ffd5b91607f1691610c88565b80545f9392610cbf82610c79565b918282526020936001916001811690815f14610d235750600114610ce5575b5050505050565b90939495505f92919252835f2092845f945b838610610d0f57505050500101905f80808080610cde565b805485870183015294019385908201610cf7565b60ff19168685015250505090151560051b010191505f80808080610cde565b601f8211610d4f57505050565b5f5260205f20906020601f840160051c83019310610d87575b601f0160051c01905b818110610d7c575050565b5f8155600101610d71565b9091508190610d68565b908060209392818452848401375f828201840152601f01601f1916010190565b5f546001600160a01b03163303610dc457565b60405163118cdaa760e01b8152336004820152602490fdfea2646970667358221220d3941a50616d1f8ea206821d9123703e3aa28644cf34586ba06d8e8aebf1bb1e64736f6c63430008180033",
  "linkReferences": {},
  "deployedLinkReferences": {}
}