{
  "_format": "hh-sol-artifact-1",
  "contractName": "APIKeyRegistry",
  "sourceName": "contracts/APIKeyRegistry.sol",
  "abi": [
    {
      "inputs": [],
      "stateMutability": "nonpayable",
      "type": "constructor"
    },
    {
      "inputs": [
        {
          "internalType": "address",
          "name": "owner",
          "type": "address"
        }
      ],
      "name": "OwnableInvalidOwner",
      "type": "error"
    },
    {
      "inputs": [
        {
          "internalType": "address",
          "name": "account",
          "type": "address"
        }
      ],
      "name": "OwnableUnauthorizedAccount",
      "type": "error"
    },
    {
      "inputs": [],
      "name": "ReentrancyGuardReentrantCall",
      "type": "error"
    },
    {
      "anonymous": false,
      "inputs": [
        {
          "indexed": true,
          "internalType": "address",
          "name": "owner",
          "type": "address"
        },
        {
          "indexed": true,
          "internalType": "bytes32",
          "name": "keyHash",
          "type": "bytes32"
        },
        {
          "indexed": false,
          "internalType": "uint256",
          "name": "tier",
          "type": "uint256"
        }
      ],
      "name": "KeyRegistered",
      "type": "event"
    },
    {
      "anonymous": false,
      "inputs": [
        {
          "indexed": true,
          "internalType": "address",
          "name": "owner",
          "type": "address"
        },
        {
          "indexed": true,
          "internalType": "bytes32",
          "name": "keyHash",
          "type": "bytes32"
        }
      ],
      "name": "KeyRevoked",
      "type": "event"
    },
    {
      "anonymous": false,
      "inputs": [
        {
          "indexed": true,
          "internalType": "address",
          "name": "owner",
          "type": "address"
        },
        {
          "indexed": true,
          "internalType": "bytes32",
          "name": "keyHash",
          "type": "bytes32"
        }
      ],
      "name": "KeyUpgraded",
      "type": "event"
    },
    {
      "anonymous": false,
      "inputs": [
        {
          "indexed": true,
          "internalType": "bytes32",
          "name": "keyHash",
          "type": "bytes32"
        },
        {
          "indexed": false,
          "internalType": "uint256",
          "name": "usageToday",
          "type": "uint256"
        },
        {
          "indexed": false,
          "internalType": "uint256",
          "name": "day",
          "type": "uint256"
        }
      ],
      "name": "KeyUsed",
      "type": "event"
    },
    {
      "anonymous": false,
      "inputs": [
        {
          "indexed": true,
          "internalType": "address",
          "name": "previousOwner",
          "type": "address"
        },
        {
          "indexed": true,
          "internalType": "address",
          "name": "newOwner",
          "type": "address"
        }
      ],
      "name": "OwnershipTransferred",
      "type": "event"
    },
    {
      "inputs": [],
      "name": "FREE_DAILY_LIMIT",
      "outputs": [
        {
          "internalType": "uint256",
          "name": "",
          "type": "uint256"
        }
      ],
      "stateMutability": "view",
      "type": "function"
    },
    {
      "inputs": [],
      "name": "PAID_DAILY_LIMIT",
      "outputs": [
        {
          "internalType": "uint256",
          "name": "",
          "type": "uint256"
        }
      ],
      "stateMutability": "view",
      "type": "function"
    },
    {
      "inputs": [],
      "name": "SECONDS_PER_DAY",
      "outputs": [
        {
          "internalType": "uint256",
          "name": "",
          "type": "uint256"
        }
      ],
      "stateMutability": "view",
      "type": "function"
    },
    {
      "inputs": [],
      "name": "UPGRADE_FEE",
      "outputs": [
        {
          "internalType": "uint256",
          "name": "",
          "type": "uint256"
        }
      ],
      "stateMutability": "view",
      "type": "function"
    },
    {
      "inputs": [],
      "name": "collectedFees",
      "outputs": [
        {
          "internalType": "uint256",
          "name": "",
          "type": "uint256"
        }
      ],
      "stateMutability": "view",
      "type": "function"
    },
    {
      "inputs": [
        {
          "internalType": "bytes32",
          "name": "keyHash",
          "type": "bytes32"
        }
      ],
      "name": "getKey",
      "outputs": [
        {
          "components": [
            {
              "internalType": "address",
              "name": "owner",
              "type": "address"
            },
            {
              "internalType": "bytes32",
              "name": "keyHash",
              "type": "bytes32"
            },
            {
              "internalType": "uint256",
              "name": "tier",
              "type": "uint256"
            },
            {
              "internalType": "uint256",
              "name": "dailyLimit",
              "type": "uint256"
            },
            {
              "internalType": "uint256",
              "name": "usageToday",
              "type": "uint256"
            },
            {
              "internalType": "uint256",
              "name": "lastUsedDay",
              "type": "uint256"
            },
            {
              "internalType": "bool",
              "name": "active",
              "type": "bool"
            },
            {
              "internalType": "uint256",
              "name": "registeredAt",
              "type": "uint256"
            }
          ],
          "internalType": "struct APIKeyRegistry.KeyRecord",
          "name": "",
          "type": "tuple"
        }
      ],
      "stateMutability": "view",
      "type": "function"
    },
    {
      "inputs": [
        {
          "internalType": "address",
          "name": "owner",
          "type": "address"
        }
      ],
      "name": "getOwnerKey",
      "outputs": [
        {
          "internalType": "bytes32",
          "name": "",
          "type": "bytes32"
        }
      ],
      "stateMutability": "view",
      "type": "function"
    },
    {
      "inputs": [],
      "name": "owner",
      "outputs": [
        {
          "internalType": "address",
          "name": "",
          "type": "address"
        }
      ],
      "stateMutability": "view",
      "type": "function"
    },
    {
      "inputs": [
        {
          "internalType": "bytes32",
          "name": "keyHash",
          "type": "bytes32"
        }
      ],
      "name": "registerKey",
      "outputs": [],
      "stateMutability": "nonpayable",
      "type": "function"
    },
    {
      "inputs": [],
      "name": "renounceOwnership",
      "outputs": [],
      "stateMutability": "nonpayable",
      "type": "function"
    },
    {
      "inputs": [
        {
          "internalType": "bytes32",
          "name": "keyHash",
          "type": "bytes32"
        }
      ],
      "name": "revokeKey",
      "outputs": [],
      "stateMutability": "nonpayable",
      "type": "function"
    },
    {
      "inputs": [],
      "name": "totalKeys",
      "outputs": [
        {
          "internalType": "uint256",
          "name": "",
          "type": "uint256"
        }
      ],
      "stateMutability": "view",
      "type": "function"
    },
    {
      "inputs": [
        {
          "internalType": "address",
          "name": "newOwner",
          "type": "address"
        }
      ],
      "name": "transferOwnership",
      "outputs": [],
      "stateMutability": "nonpayable",
      "type": "function"
    },
    {
      "inputs": [
        {
          "internalType": "bytes32",
          "name": "keyHash",
          "type": "bytes32"
        }
      ],
      "name": "upgradeKey",
      "outputs": [],
      "stateMutability": "payable",
      "type": "function"
    },
    {
      "inputs": [
        {
          "internalType": "bytes32",
          "name": "keyHash",
          "type": "bytes32"
        }
      ],
      "name": "validateAndCount",
      "outputs": [],
      "stateMutability": "nonpayable",
      "type": "function"
    },
    {
      "inputs": [],
      "name": "withdrawFees",
      "outputs": [],
      "stateMutability": "nonpayable",
      "type": "function"
    }
  ],
  "bytecode": "0x6080806040523461009c573315610087575f8054336001600160a01b03198216811783556040519290916001600160a01b0316907f8be0079c531659141344cd1fd0a4f28419497f9722a3daafe3b4186f6b6457e09080a360017f9b779b17422d0df92223018b32b4d1fa46e071723d6817e2486d003becc55f0055610cc390816100a18239f35b631e4fbdf760e01b81525f6004820152602490fd5b5f80fdfe60406080815260049081361015610014575f80fd5b5f3560e01c806312aaac70146109e55780633fc6b702146109ca578063476343ee146108705780634817cd7b14610706578063488bdabc146106e8578063572f221014610626578063715018a6146105cf57806374f0314f146105b25780638da5cb5b1461058b5780639003adfe1461056f578063a054808c1461047e578063a4b41c8a1461045d578063cd80557e14610200578063d17c6b8c146101e4578063f1fb31c61461015e5763f2fde38b146100cc575f80fd5b3461015a57602036600319011261015a576001600160a01b0382358181169391929084900361015a576100fd610c20565b83156101445750505f54826bffffffffffffffffffffffff60a01b8216175f55167f8be0079c531659141344cd1fd0a4f28419497f9722a3daafe3b4186f6b6457e05f80a3005b905f6024925191631e4fbdf760e01b8352820152fd5b5f80fd5b50903461015a57602036600319011261015a5780356001600160a01b0381169081900361015a575f526002602052815f20549081156101a1575060209151908152f35b606490602084519162461bcd60e51b8352820152602060248201527f4150494b657952656769737472793a206e6f206b657920666f72206f776e65726044820152fd5b503461015a575f36600319011261015a57602090516127108152f35b503461015a576020908160031936011261015a57823592831561041c57335f5260028352815f20546103db57835f526001835260ff6006835f2001541661039057835f52600183526007825f20015461033f57907f7e997814b69df835de3777c97a748d56f33a8336047deb908a770c9ff29afd51916007610280610b31565b9133835285830190878252848401905f8252606085019060648252608086015f815260a08701925f845260c08801946001865260e08901964288528d5f5260018d528a5f209960018060a01b039051166bffffffffffffffffffffffff60a01b8b5416178a555160018a01555160028901555160038801555190860155516005850155600684019051151560ff8019835416911617905551910155335f526002835283815f2055610332600354610bfe565b60035551915f83523392a3005b82608492519162461bcd60e51b8352820152602760248201527f4150494b657952656769737472793a206861736820616c7265616479207265676044820152661a5cdd195c995960ca1b6064820152fd5b82608492519162461bcd60e51b8352820152602160248201527f4150494b657952656769737472793a206861736820616c7265616479207573656044820152601960fa1b6064820152fd5b82606492519162461bcd60e51b8352820152601f60248201527f4150494b657952656769737472793a20616c726561647920686173206b6579006044820152fd5b82606492519162461bcd60e51b8352820152601a60248201527f4150494b657952656769737472793a20656d70747920686173680000000000006044820152fd5b503461015a575f36600319011261015a5760209051662386f26fc100008152f35b503461015a57602036600319011261015a57813590815f526001602052805f20926104af60ff600686015416610b66565b620151804204806005860181815410610562575b5050818501916003835496015486101561051357506105037f8372de811b9899da26d6a3c61b8fbfb536762b8f1c18661c9f8916ffe25949969495610bfe565b80925582519182526020820152a2005b608490602085519162461bcd60e51b83528201526024808201527f4150494b657952656769737472793a206461696c79206c696d697420657863656044820152631959195960e21b6064820152fd5b5f8488015555805f6104c3565b503461015a575f36600319011261015a57602091549051908152f35b503461015a575f36600319011261015a575f5490516001600160a01b039091168152602090f35b503461015a575f36600319011261015a5760209051620151808152f35b3461015a575f36600319011261015a576105e7610c20565b5f80546001600160a01b0319811682556001600160a01b03167f8be0079c531659141344cd1fd0a4f28419497f9722a3daafe3b4186f6b6457e08280a3005b503461015a57602036600319011261015a57813590815f5260016020526006815f2061065c60018060a01b038254163314610bb2565b0180549360ff8516156106a557505f929360ff191690553382526002602052812055337fa97703d8de1d538ac2ccf4453e57ec2aa4ab8b29c9a57f2a6e70a9d0e268f8025f80a3005b606490602084519162461bcd60e51b8352820152601f60248201527f4150494b657952656769737472793a20616c7265616479207265766f6b6564006044820152fd5b503461015a575f36600319011261015a576020906003549051908152f35b5090602036600319011261015a5780359161071f610c4b565b662386f26fc10000340361082d57825f526001602052805f209061074960ff600684015416610b66565b61075d60018060a01b038354163314610bb2565b600282019081546107e157506127109160016003925501558054903482018092116107ce5755337f3e26f480d81063925db88c424773b6688fba8f616eae981992d28b59c6fd23115f80a360017f9b779b17422d0df92223018b32b4d1fa46e071723d6817e2486d003becc55f0055005b601190634e487b7160e01b5f525260245ffd5b5162461bcd60e51b8152602081850152602160248201527f4150494b657952656769737472793a20616c72656164792070616964207469656044820152603960f91b6064820152608490fd5b906020606492519162461bcd60e51b8352820152601960248201527f4150494b657952656769737472793a2077726f6e6720666565000000000000006044820152fd5b50903461015a575f36600319011261015a5761088a610c20565b610892610c4b565b80548015610987575f8080809381865560018060a01b038254165af13d156109825767ffffffffffffffff3d81811161096f57845191601f8201601f19908116603f011683019081118382101761095c57855281525f60203d92013e5b1561091a5760017f9b779b17422d0df92223018b32b4d1fa46e071723d6817e2486d003becc55f0055005b6020606492519162461bcd60e51b8352820152601f60248201527f4150494b657952656769737472793a207472616e73666572206661696c6564006044820152fd5b604185634e487b7160e01b5f525260245ffd5b604184634e487b7160e01b5f525260245ffd5b6108ef565b506020606492519162461bcd60e51b8352820152601760248201527f4150494b657952656769737472793a206e6f20666565730000000000000000006044820152fd5b503461015a575f36600319011261015a576020905160648152f35b50903461015a5760208060031936011261015a578135925f60e0610a07610b31565b828152828582015282848201528260608201528260808201528260a08201528260c08201520152835f52600182526007815f20015415610af057610100935f5260018252805f2090610a57610b31565b9260018060a01b0383541694858552600184015492828601938452600285015481870190815260038601549260608801938452860154936080880194855260058701549560a0890196875260e0600760ff60068b0154169960c08c019a15158b52015499019889528351998a52519089015251908701525160608601525160808501525160a084015251151560c08301525160e0820152f35b5162461bcd60e51b815291820152601d60248201527f4150494b657952656769737472793a206b6579206e6f7420666f756e64000000604482015260649150fd5b60405190610100820182811067ffffffffffffffff821117610b5257604052565b634e487b7160e01b5f52604160045260245ffd5b15610b6d57565b60405162461bcd60e51b815260206004820152601e60248201527f4150494b657952656769737472793a206b6579206e6f742061637469766500006044820152606490fd5b15610bb957565b60405162461bcd60e51b815260206004820152601960248201527f4150494b657952656769737472793a206e6f74206f776e6572000000000000006044820152606490fd5b5f198114610c0c5760010190565b634e487b7160e01b5f52601160045260245ffd5b5f546001600160a01b03163303610c3357565b60405163118cdaa760e01b8152336004820152602490fd5b7f9b779b17422d0df92223018b32b4d1fa46e071723d6817e2486d003becc55f006002815414610c7b5760029055565b604051633ee5aeb560e01b8152600490fdfea26469706673582212204dec1b2d86291e8647e3deb468a1b70b8ef60a20fd8bdc3ad9cd3c0abf061c5164736f6c63430008180033",
  "linkReferences": {},
  "deployedLinkReferences": {}
}