{
  "_format": "hh-sol-artifact-1",
  "contractName": "TrustToken",
  "sourceName": "contracts/TrustToken.sol",
  "abi": [
    {
      "inputs": [
        {
          "internalType": "address",
          "name": "rewardsPool",
          "type": "address"
        },
        {
          "internalType": "address",
          "name": "treasury",
          "type": "address"
        },
        {
          "internalType": "address",
          "name": "team",
          "type": "address"
        },
        {
          "internalType": "address",
          "name": "ecosystem",
          "type": "address"
        },
        {
          "internalType": "address",
          "name": "liquidityPool",
          "type": "address"
        }
      ],
      "stateMutability": "nonpayable",
      "type": "constructor"
    },
    {
      "inputs": [],
      "name": "CheckpointUnorderedInsertion",
      "type": "error"
    },
    {
      "inputs": [],
      "name": "ECDSAInvalidSignature",
      "type": "error"
    },
    {
      "inputs": [
        {
          "internalType": "uint256",
          "name": "length",
          "type": "uint256"
        }
      ],
      "name": "ECDSAInvalidSignatureLength",
      "type": "error"
    },
    {
      "inputs": [
        {
          "internalType": "bytes32",
          "name": "s",
          "type": "bytes32"
        }
      ],
      "name": "ECDSAInvalidSignatureS",
      "type": "error"
    },
    {
      "inputs": [
        {
          "internalType": "uint256",
          "name": "increasedSupply",
          "type": "uint256"
        },
        {
          "internalType": "uint256",
          "name": "cap",
          "type": "uint256"
        }
      ],
      "name": "ERC20ExceededSafeSupply",
      "type": "error"
    },
    {
      "inputs": [
        {
          "internalType": "address",
          "name": "spender",
          "type": "address"
        },
        {
          "internalType": "uint256",
          "name": "allowance",
          "type": "uint256"
        },
        {
          "internalType": "uint256",
          "name": "needed",
          "type": "uint256"
        }
      ],
      "name": "ERC20InsufficientAllowance",
      "type": "error"
    },
    {
      "inputs": [
        {
          "internalType": "address",
          "name": "sender",
          "type": "address"
        },
        {
          "internalType": "uint256",
          "name": "balance",
          "type": "uint256"
        },
        {
          "internalType": "uint256",
          "name": "needed",
          "type": "uint256"
        }
      ],
      "name": "ERC20InsufficientBalance",
      "type": "error"
    },
    {
      "inputs": [
        {
          "internalType": "address",
          "name": "approver",
          "type": "address"
        }
      ],
      "name": "ERC20InvalidApprover",
      "type": "error"
    },
    {
      "inputs": [
        {
          "internalType": "address",
          "name": "receiver",
          "type": "address"
        }
      ],
      "name": "ERC20InvalidReceiver",
      "type": "error"
    },
    {
      "inputs": [
        {
          "internalType": "address",
          "name": "sender",
          "type": "address"
        }
      ],
      "name": "ERC20InvalidSender",
      "type": "error"
    },
    {
      "inputs": [
        {
          "internalType": "address",
          "name": "spender",
          "type": "address"
        }
      ],
      "name": "ERC20InvalidSpender",
      "type": "error"
    },
    {
      "inputs": [
        {
          "internalType": "uint256",
          "name": "deadline",
          "type": "uint256"
        }
      ],
      "name": "ERC2612ExpiredSignature",
      "type": "error"
    },
    {
      "inputs": [
        {
          "internalType": "address",
          "name": "signer",
          "type": "address"
        },
        {
          "internalType": "address",
          "name": "owner",
          "type": "address"
        }
      ],
      "name": "ERC2612InvalidSigner",
      "type": "error"
    },
    {
      "inputs": [
        {
          "internalType": "uint256",
          "name": "timepoint",
          "type": "uint256"
        },
        {
          "internalType": "uint48",
          "name": "clock",
          "type": "uint48"
        }
      ],
      "name": "ERC5805FutureLookup",
      "type": "error"
    },
    {
      "inputs": [],
      "name": "ERC6372InconsistentClock",
      "type": "error"
    },
    {
      "inputs": [
        {
          "internalType": "address",
          "name": "account",
          "type": "address"
        },
        {
          "internalType": "uint256",
          "name": "currentNonce",
          "type": "uint256"
        }
      ],
      "name": "InvalidAccountNonce",
      "type": "error"
    },
    {
      "inputs": [],
      "name": "InvalidShortString",
      "type": "error"
    },
    {
      "inputs": [
        {
          "internalType": "address",
          "name": "owner",
          "type": "address"
        }
      ],
      "name": "OwnableInvalidOwner",
      "type": "error"
    },
    {
      "inputs": [
        {
          "internalType": "address",
          "name": "account",
          "type": "address"
        }
      ],
      "name": "OwnableUnauthorizedAccount",
      "type": "error"
    },
    {
      "inputs": [
        {
          "internalType": "uint8",
          "name": "bits",
          "type": "uint8"
        },
        {
          "internalType": "uint256",
          "name": "value",
          "type": "uint256"
        }
      ],
      "name": "SafeCastOverflowedUintDowncast",
      "type": "error"
    },
    {
      "inputs": [
        {
          "internalType": "string",
          "name": "str",
          "type": "string"
        }
      ],
      "name": "StringTooLong",
      "type": "error"
    },
    {
      "inputs": [
        {
          "internalType": "uint256",
          "name": "expiry",
          "type": "uint256"
        }
      ],
      "name": "VotesExpiredSignature",
      "type": "error"
    },
    {
      "anonymous": false,
      "inputs": [
        {
          "indexed": true,
          "internalType": "address",
          "name": "owner",
          "type": "address"
        },
        {
          "indexed": true,
          "internalType": "address",
          "name": "spender",
          "type": "address"
        },
        {
          "indexed": false,
          "internalType": "uint256",
          "name": "value",
          "type": "uint256"
        }
      ],
      "name": "Approval",
      "type": "event"
    },
    {
      "anonymous": false,
      "inputs": [
        {
          "indexed": true,
          "internalType": "address",
          "name": "from",
          "type": "address"
        },
        {
          "indexed": false,
          "internalType": "uint256",
          "name": "amount",
          "type": "uint256"
        }
      ],
      "name": "Burn",
      "type": "event"
    },
    {
      "anonymous": false,
      "inputs": [
        {
          "indexed": true,
          "internalType": "address",
          "name": "delegator",
          "type": "address"
        },
        {
          "indexed": true,
          "internalType": "address",
          "name": "fromDelegate",
          "type": "address"
        },
        {
          "indexed": true,
          "internalType": "address",
          "name": "toDelegate",
          "type": "address"
        }
      ],
      "name": "DelegateChanged",
      "type": "event"
    },
    {
      "anonymous": false,
      "inputs": [
        {
          "indexed": true,
          "internalType": "address",
          "name": "delegate",
          "type": "address"
        },
        {
          "indexed": false,
          "internalType": "uint256",
          "name": "previousVotes",
          "type": "uint256"
        },
        {
          "indexed": false,
          "internalType": "uint256",
          "name": "newVotes",
          "type": "uint256"
        }
      ],
      "name": "DelegateVotesChanged",
      "type": "event"
    },
    {
      "anonymous": false,
      "inputs": [],
      "name": "EIP712DomainChanged",
      "type": "event"
    },
    {
      "anonymous": false,
      "inputs": [
        {
          "indexed": true,
          "internalType": "address",
          "name": "to",
          "type": "address"
        },
        {
          "indexed": false,
          "internalType": "uint256",
          "name": "amount",
          "type": "uint256"
        }
      ],
      "name": "Mint",
      "type": "event"
    },
    {
      "anonymous": false,
      "inputs": [
        {
          "indexed": true,
          "internalType": "address",
          "name": "previousOwner",
          "type": "address"
        },
        {
          "indexed": true,
          "internalType": "address",
          "name": "newOwner",
          "type": "address"
        }
      ],
      "name": "OwnershipTransferred",
      "type": "event"
    },
    {
      "anonymous": false,
      "inputs": [
        {
          "indexed": true,
          "internalType": "address",
          "name": "team",
          "type": "address"
        },
        {
          "indexed": false,
          "internalType": "uint256",
          "name": "amount",
          "type": "uint256"
        }
      ],
      "name": "TeamVestingClaimed",
      "type": "event"
    },
    {
      "anonymous": false,
      "inputs": [
        {
          "indexed": true,
          "internalType": "address",
          "name": "from",
          "type": "address"
        },
        {
          "indexed": true,
          "internalType": "address",
          "name": "to",
          "type": "address"
        },
        {
          "indexed": false,
          "internalType": "uint256",
          "name": "value",
          "type": "uint256"
        }
      ],
      "name": "Transfer",
      "type": "event"
    },
    {
      "inputs": [],
      "name": "CLOCK_MODE",
      "outputs": [
        {
          "internalType": "string",
          "name": "",
          "type": "string"
        }
      ],
      "stateMutability": "view",
      "type": "function"
    },
    {
      "inputs": [],
      "name": "DOMAIN_SEPARATOR",
      "outputs": [
        {
          "internalType": "bytes32",
          "name": "",
          "type": "bytes32"
        }
      ],
      "stateMutability": "view",
      "type": "function"
    },
    {
      "inputs": [],
      "name": "ECOSYSTEM_ALLOC",
      "outputs": [
        {
          "internalType": "uint256",
          "name": "",
          "type": "uint256"
        }
      ],
      "stateMutability": "view",
      "type": "function"
    },
    {
      "inputs": [],
      "name": "LIQUIDITY_ALLOC",
      "outputs": [
        {
          "internalType": "uint256",
          "name": "",
          "type": "uint256"
        }
      ],
      "stateMutability": "view",
      "type": "function"
    },
    {
      "inputs": [],
      "name": "REWARDS_ALLOC",
      "outputs": [
        {
          "internalType": "uint256",
          "name": "",
          "type": "uint256"
        }
      ],
      "stateMutability": "view",
      "type": "function"
    },
    {
      "inputs": [],
      "name": "TEAM_ALLOC",
      "outputs": [
        {
          "internalType": "uint256",
          "name": "",
          "type": "uint256"
        }
      ],
      "stateMutability": "view",
      "type": "function"
    },
    {
      "inputs": [],
      "name": "TOTAL_SUPPLY",
      "outputs": [
        {
          "internalType": "uint256",
          "name": "",
          "type": "uint256"
        }
      ],
      "stateMutability": "view",
      "type": "function"
    },
    {
      "inputs": [],
      "name": "TREASURY_ALLOC",
      "outputs": [
        {
          "internalType": "uint256",
          "name": "",
          "type": "uint256"
        }
      ],
      "stateMutability": "view",
      "type": "function"
    },
    {
      "inputs": [],
      "name": "VESTING_CLIFF",
      "outputs": [
        {
          "internalType": "uint256",
          "name": "",
          "type": "uint256"
        }
      ],
      "stateMutability": "view",
      "type": "function"
    },
    {
      "inputs": [],
      "name": "VESTING_DURATION",
      "outputs": [
        {
          "internalType": "uint256",
          "name": "",
          "type": "uint256"
        }
      ],
      "stateMutability": "view",
      "type": "function"
    },
    {
      "inputs": [
        {
          "internalType": "address",
          "name": "owner",
          "type": "address"
        },
        {
          "internalType": "address",
          "name": "spender",
          "type": "address"
        }
      ],
      "name": "allowance",
      "outputs": [
        {
          "internalType": "uint256",
          "name": "",
          "type": "uint256"
        }
      ],
      "stateMutability": "view",
      "type": "function"
    },
    {
      "inputs": [
        {
          "internalType": "address",
          "name": "spender",
          "type": "address"
        },
        {
          "internalType": "uint256",
          "name": "value",
          "type": "uint256"
        }
      ],
      "name": "approve",
      "outputs": [
        {
          "internalType": "bool",
          "name": "",
          "type": "bool"
        }
      ],
      "stateMutability": "nonpayable",
      "type": "function"
    },
    {
      "inputs": [
        {
          "internalType": "address",
          "name": "account",
          "type": "address"
        }
      ],
      "name": "balanceOf",
      "outputs": [
        {
          "internalType": "uint256",
          "name": "",
          "type": "uint256"
        }
      ],
      "stateMutability": "view",
      "type": "function"
    },
    {
      "inputs": [
        {
          "internalType": "address",
          "name": "from",
          "type": "address"
        },
        {
          "internalType": "uint256",
          "name": "amount",
          "type": "uint256"
        }
      ],
      "name": "burn",
      "outputs": [],
      "stateMutability": "nonpayable",
      "type": "function"
    },
    {
      "inputs": [
        {
          "internalType": "address",
          "name": "account",
          "type": "address"
        },
        {
          "internalType": "uint32",
          "name": "pos",
          "type": "uint32"
        }
      ],
      "name": "checkpoints",
      "outputs": [
        {
          "components": [
            {
              "internalType": "uint48",
              "name": "_key",
              "type": "uint48"
            },
            {
              "internalType": "uint208",
              "name": "_value",
              "type": "uint208"
            }
          ],
          "internalType": "struct Checkpoints.Checkpoint208",
          "name": "",
          "type": "tuple"
        }
      ],
      "stateMutability": "view",
      "type": "function"
    },
    {
      "inputs": [
        {
          "internalType": "address",
          "name": "team",
          "type": "address"
        }
      ],
      "name": "claimTeamVesting",
      "outputs": [],
      "stateMutability": "nonpayable",
      "type": "function"
    },
    {
      "inputs": [],
      "name": "clock",
      "outputs": [
        {
          "internalType": "uint48",
          "name": "",
          "type": "uint48"
        }
      ],
      "stateMutability": "view",
      "type": "function"
    },
    {
      "inputs": [],
      "name": "decimals",
      "outputs": [
        {
          "internalType": "uint8",
          "name": "",
          "type": "uint8"
        }
      ],
      "stateMutability": "view",
      "type": "function"
    },
    {
      "inputs": [
        {
          "internalType": "address",
          "name": "delegatee",
          "type": "address"
        }
      ],
      "name": "delegate",
      "outputs": [],
      "stateMutability": "nonpayable",
      "type": "function"
    },
    {
      "inputs": [
        {
          "internalType": "address",
          "name": "delegatee",
          "type": "address"
        },
        {
          "internalType": "uint256",
          "name": "nonce",
          "type": "uint256"
        },
        {
          "internalType": "uint256",
          "name": "expiry",
          "type": "uint256"
        },
        {
          "internalType": "uint8",
          "name": "v",
          "type": "uint8"
        },
        {
          "internalType": "bytes32",
          "name": "r",
          "type": "bytes32"
        },
        {
          "internalType": "bytes32",
          "name": "s",
          "type": "bytes32"
        }
      ],
      "name": "delegateBySig",
      "outputs": [],
      "stateMutability": "nonpayable",
      "type": "function"
    },
    {
      "inputs": [
        {
          "internalType": "address",
          "name": "account",
          "type": "address"
        }
      ],
      "name": "delegates",
      "outputs": [
        {
          "internalType": "address",
          "name": "",
          "type": "address"
        }
      ],
      "stateMutability": "view",
      "type": "function"
    },
    {
      "inputs": [],
      "name": "eip712Domain",
      "outputs": [
        {
          "internalType": "bytes1",
          "name": "fields",
          "type": "bytes1"
        },
        {
          "internalType": "string",
          "name": "name",
          "type": "string"
        },
        {
          "internalType": "string",
          "name": "version",
          "type": "string"
        },
        {
          "internalType": "uint256",
          "name": "chainId",
          "type": "uint256"
        },
        {
          "internalType": "address",
          "name": "verifyingContract",
          "type": "address"
        },
        {
          "internalType": "bytes32",
          "name": "salt",
          "type": "bytes32"
        },
        {
          "internalType": "uint256[]",
          "name": "extensions",
          "type": "uint256[]"
        }
      ],
      "stateMutability": "view",
      "type": "function"
    },
    {
      "inputs": [
        {
          "internalType": "uint256",
          "name": "timepoint",
          "type": "uint256"
        }
      ],
      "name": "getPastTotalSupply",
      "outputs": [
        {
          "internalType": "uint256",
          "name": "",
          "type": "uint256"
        }
      ],
      "stateMutability": "view",
      "type": "function"
    },
    {
      "inputs": [
        {
          "internalType": "address",
          "name": "account",
          "type": "address"
        },
        {
          "internalType": "uint256",
          "name": "timepoint",
          "type": "uint256"
        }
      ],
      "name": "getPastVotes",
      "outputs": [
        {
          "internalType": "uint256",
          "name": "",
          "type": "uint256"
        }
      ],
      "stateMutability": "view",
      "type": "function"
    },
    {
      "inputs": [
        {
          "internalType": "address",
          "name": "account",
          "type": "address"
        }
      ],
      "name": "getVotes",
      "outputs": [
        {
          "internalType": "uint256",
          "name": "",
          "type": "uint256"
        }
      ],
      "stateMutability": "view",
      "type": "function"
    },
    {
      "inputs": [
        {
          "internalType": "address",
          "name": "to",
          "type": "address"
        },
        {
          "internalType": "uint256",
          "name": "amount",
          "type": "uint256"
        }
      ],
      "name": "mint",
      "outputs": [],
      "stateMutability": "nonpayable",
      "type": "function"
    },
    {
      "inputs": [],
      "name": "name",
      "outputs": [
        {
          "internalType": "string",
          "name": "",
          "type": "string"
        }
      ],
      "stateMutability": "view",
      "type": "function"
    },
    {
      "inputs": [
        {
          "internalType": "address",
          "name": "owner",
          "type": "address"
        }
      ],
      "name": "nonces",
      "outputs": [
        {
          "internalType": "uint256",
          "name": "",
          "type": "uint256"
        }
      ],
      "stateMutability": "view",
      "type": "function"
    },
    {
      "inputs": [
        {
          "internalType": "address",
          "name": "account",
          "type": "address"
        }
      ],
      "name": "numCheckpoints",
      "outputs": [
        {
          "internalType": "uint32",
          "name": "",
          "type": "uint32"
        }
      ],
      "stateMutability": "view",
      "type": "function"
    },
    {
      "inputs": [],
      "name": "owner",
      "outputs": [
        {
          "internalType": "address",
          "name": "",
          "type": "address"
        }
      ],
      "stateMutability": "view",
      "type": "function"
    },
    {
      "inputs": [
        {
          "internalType": "address",
          "name": "owner",
          "type": "address"
        },
        {
          "internalType": "address",
          "name": "spender",
          "type": "address"
        },
        {
          "internalType": "uint256",
          "name": "value",
          "type": "uint256"
        },
        {
          "internalType": "uint256",
          "name": "deadline",
          "type": "uint256"
        },
        {
          "internalType": "uint8",
          "name": "v",
          "type": "uint8"
        },
        {
          "internalType": "bytes32",
          "name": "r",
          "type": "bytes32"
        },
        {
          "internalType": "bytes32",
          "name": "s",
          "type": "bytes32"
        }
      ],
      "name": "permit",
      "outputs": [],
      "stateMutability": "nonpayable",
      "type": "function"
    },
    {
      "inputs": [],
      "name": "renounceOwnership",
      "outputs": [],
      "stateMutability": "nonpayable",
      "type": "function"
    },
    {
      "inputs": [],
      "name": "symbol",
      "outputs": [
        {
          "internalType": "string",
          "name": "",
          "type": "string"
        }
      ],
      "stateMutability": "view",
      "type": "function"
    },
    {
      "inputs": [],
      "name": "teamClaimed",
      "outputs": [
        {
          "internalType": "uint256",
          "name": "",
          "type": "uint256"
        }
      ],
      "stateMutability": "view",
      "type": "function"
    },
    {
      "inputs": [],
      "name": "teamWallet",
      "outputs": [
        {
          "internalType": "address",
          "name": "",
          "type": "address"
        }
      ],
      "stateMutability": "view",
      "type": "function"
    },
    {
      "inputs": [],
      "name": "totalSupply",
      "outputs": [
        {
          "internalType": "uint256",
          "name": "",
          "type": "uint256"
        }
      ],
      "stateMutability": "view",
      "type": "function"
    },
    {
      "inputs": [
        {
          "internalType": "address",
          "name": "to",
          "type": "address"
        },
        {
          "internalType": "uint256",
          "name": "value",
          "type": "uint256"
        }
      ],
      "name": "transfer",
      "outputs": [
        {
          "internalType": "bool",
          "name": "",
          "type": "bool"
        }
      ],
      "stateMutability": "nonpayable",
      "type": "function"
    },
    {
      "inputs": [
        {
          "internalType": "address",
          "name": "from",
          "type": "address"
        },
        {
          "internalType": "address",
          "name": "to",
          "type": "address"
        },
        {
          "internalType": "uint256",
          "name": "value",
          "type": "uint256"
        }
      ],
      "name": "transferFrom",
      "outputs": [
        {
          "internalType": "bool",
          "name": "",
          "type": "bool"
        }
      ],
      "stateMutability": "nonpayable",
      "type": "function"
    },
    {
      "inputs": [
        {
          "internalType": "address",
          "name": "newOwner",
          "type": "address"
        }
      ],
      "name": "transferOwnership",
      "outputs": [],
      "stateMutability": "nonpayable",
      "type": "function"
    },
    {
      "inputs": [],
      "name": "vestedAmount",
      "outputs": [
        {
          "internalType": "uint256",
          "name": "",
          "type": "uint256"
        }
      ],
      "stateMutability": "view",
      "type": "function"
    },
    {
      "inputs": [],
      "name": "vestingCliff",
      "outputs": [
        {
          "internalType": "uint256",
          "name": "",
          "type": "uint256"
        }
      ],
      "stateMutability": "view",
      "type": "function"
    },
    {
      "inputs": [],
      "name": "vestingEnd",
      "outputs": [
        {
          "internalType": "uint256",
          "name": "",
          "type": "uint256"
        }
      ],
      "stateMutability": "view",
      "type": "function"
    },
    {
      "inputs": [],
      "name": "vestingStart",
      "outputs": [
        {
          "internalType": "uint256",
          "name": "",
          "type": "uint256"
        }
      ],
      "stateMutability": "view",
      "type": "function"
    }
  ],
  "bytecode": "0x6101e060405234620000b957620000236200001962000119565b93929092620003a8565b6040516127bd908162001d9e8239608051816118c6015260a05181611981015260c05181611890015260e051816119150152610100518161193b01526101205181610c3a01526101405181610c630152610160518161066b015261018051818181610484015281816114a901526116fd01526101a051818181610bff015261172501526101c05181818161044d0152610a210152f35b5f80fd5b634e487b7160e01b5f52604160045260245ffd5b604081019081106001600160401b03821117620000ed57604052565b620000bd565b604051906200010282620000d1565b565b51906001600160a01b0382168203620000b957565b60405190601f620045db38819003918201601f19168401916001600160401b03831185841017620000ed5780859260a094604052833981010312620000b957620001638262000104565b91620001726020820162000104565b92620001816040830162000104565b926200019e6080620001966060860162000104565b940162000104565b919493929190565b60405190620001b582620000d1565b60018252565b60405190620001ca82620000d1565b601082526f2a393ab9ba2337b634b7902a37b5b2b760811b6020830152565b15620001f157565b60405162461bcd60e51b815260206004820152601c60248201527f5472757374546f6b656e3a207a65726f2072657761726473506f6f6c000000006044820152606490fd5b156200023e57565b60405162461bcd60e51b815260206004820152601960248201527f5472757374546f6b656e3a207a65726f207472656173757279000000000000006044820152606490fd5b156200028b57565b60405162461bcd60e51b815260206004820152601560248201527f5472757374546f6b656e3a207a65726f207465616d00000000000000000000006044820152606490fd5b15620002d857565b60405162461bcd60e51b815260206004820152601a60248201527f5472757374546f6b656e3a207a65726f2065636f73797374656d0000000000006044820152606490fd5b156200032557565b60405162461bcd60e51b815260206004820152601e60248201527f5472757374546f6b656e3a207a65726f206c6971756964697479506f6f6c00006044820152606490fd5b634e487b7160e01b5f52601160045260245ffd5b906301e1338082018092116200039057565b6200036a565b906303c2670082018092116200039057565b620004979262000491620001029695936200048b620004979462000401620003cf620001bb565b620003d9620001bb565b60405191620003e883620000d1565b600583526415149554d560da1b6020840152336200049d565b620004536001600160a01b036200041c8382161515620001e9565b6200042b818616151562000236565b6200043a818816151562000283565b62000449818a161515620002d0565b8a1615156200031d565b846101c052426101605262000468426200037e565b61018052620004816200047b426200037e565b62000396565b6101a052620008b0565b6200098a565b62000a25565b62000ac0565b9290620004a9620001a6565b603160f81b6020808301918252855191959294926001600160401b038311620000ed57620004e483620004de60035462000638565b62000673565b602091601f8411600114620005a9575091806200051d926200052695945f926200059d575b50508160011b915f199060031b1c19161790565b600355620007c7565b620005318162000ba3565b61012052620005408262000cad565b610140526020815191012060e052519020610100524660a0526200056362000db4565b6080523060c0526001600160a01b038116156200058557620001029062000b5b565b604051631e4fbdf760e01b81525f6004820152602490fd5b015190505f8062000509565b60035f529190601f1984167fc2575a0e9e593c00f959f8c92f12db2869c3395a3b0502d05e2516446f71f85b935f905b8282106200061f575050916001939185620005269796941062000606575b505050811b01600355620007c7565b01515f1960f88460031b161c191690555f8080620005f7565b80600186978294978701518155019601940190620005d9565b90600182811c9216801562000668575b60208310146200065457565b634e487b7160e01b5f52602260045260245ffd5b91607f169162000648565b601f811162000680575050565b60035f5260205f20906020601f840160051c83019310620006bd575b601f0160051c01905b818110620006b1575050565b5f8155600101620006a5565b90915081906200069c565b601f8111620006d5575050565b60045f5260205f20906020601f840160051c8301931062000712575b601f0160051c01905b81811062000706575050565b5f8155600101620006fa565b9091508190620006f1565b601f81116200072a575050565b60055f5260205f20906020601f840160051c8301931062000767575b601f0160051c01905b8181106200075b575050565b5f81556001016200074f565b909150819062000746565b601f81116200077f575050565b60065f5260205f20906020601f840160051c83019310620007bc575b601f0160051c01905b818110620007b0575050565b5f8155600101620007a4565b90915081906200079b565b80519091906001600160401b038111620000ed57620007f381620007ed60045462000638565b620006c8565b602080601f83116001146200082b575081906200082693945f926200059d5750508160011b915f199060031b1c19161790565b600455565b60045f52601f198316949091907f8a35acfbc15ff81a39ae7d344fd709f28e8600b4aa8c65c6b64bfe7fe36bd19b925f905b878210620008975750508360019596106200087e575b505050811b01600455565b01515f1960f88460031b161c191690555f808062000873565b806001859682949686015181550195019301906200085d565b6001600160a01b038116801562000972576002546a21165458500521280000009081810180911162000390576002556001600160a01b0383165f9081526020819052604090209081540190555f5f805160206200459b833981519152604051806200092a81906a2116545850052128000000602083019252565b0390a36002546001600160d01b0381116200094b5750620001029062000ebe565b604051630e58ae9360e11b815260048101919091526001600160d01b036024820152604490fd5b60405163ec442f0560e01b81525f6004820152602490fd5b6001600160a01b038116801562000972576002546a14adf4b7320334b90000009081810180911162000390576002556001600160a01b0383165f9081526020819052604090209081540190555f5f805160206200459b8339815191526040518062000a0481906a14adf4b7320334b9000000602083019252565b0390a36002546001600160d01b0381116200094b5750620001029062000f95565b6001600160a01b038116801562000972576002546a0c685fa11e01ec6f0000009081810180911162000390576002556001600160a01b0383165f9081526020819052604090209081540190555f5f805160206200459b8339815191526040518062000a9f81906a0c685fa11e01ec6f000000602083019252565b0390a36002546001600160d01b0381116200094b5750620001029062001044565b6001600160a01b038116801562000972576002546a084595161401484a0000009081810180911162000390576002556001600160a01b0383165f9081526020819052604090209081540190555f5f805160206200459b8339815191526040518062000b3a81906a084595161401484a000000602083019252565b0390a36002546001600160d01b0381116200094b57506200010290620010f3565b600b80546001600160a01b039283166001600160a01b0319821681179092559091167f8be0079c531659141344cd1fd0a4f28419497f9722a3daafe3b4186f6b6457e05f80a3565b90815160208082105f1462000bc35750509062000bc09062000e43565b90565b6001600160401b038211620000ed5762000bea8262000be460055462000638565b6200071d565b602090601f831160011462000c255750819062000c1d93945f926200059d5750508160011b915f199060031b1c19161790565b60055560ff90565b60055f52601f198316949091907f036b6384b5eca791c62761152d0c79bb0604c104a5fb6f4eb0703f3154bb3db0925f905b87821062000c9457505083600195961062000c7b575b505050811b0160055560ff90565b01515f1960f88460031b161c191690555f808062000c6d565b8060018596829496860151815501950193019062000c57565b90815160208082105f1462000cca5750509062000bc09062000e43565b6001600160401b038211620000ed5762000cf18262000ceb60065462000638565b62000772565b602090601f831160011462000d2c5750819062000d2493945f926200059d5750508160011b915f199060031b1c19161790565b60065560ff90565b60065f52601f198316949091907ff652222313e28459528d920b65115c16c04f3efc82aaedc97be59f3f377c0d3f925f905b87821062000d9b57505083600195961062000d82575b505050811b0160065560ff90565b01515f1960f88460031b161c191690555f808062000d74565b8060018596829496860151815501950193019062000d5e565b60e051610100516040519060208201927f8b73c3c69bb8fe3d512ecc4cf759cc79239f7b179b0ffacaa9a75d522b39400f8452604083015260608201524660808201523060a082015260a0815260c0810181811060018060401b03821117620000ed5760405251902090565b60208151910151906020811062000e35575090565b5f199060200360031b1b1690565b601f81511162000e5e5762000e588162000e20565b90511790565b6040519063305a27a960e01b82528160208060048301528251908160248401525f935b82851062000ea4575050604492505f838284010152601f80199101168101030190fd5b848101820151868601604401529381019385935062000e81565b65ffffffffffff9081431162000f7657600a548062000f46575062000ef5620001029262000eec5f62001c81565b90431662001abd565b50506001600160a01b0390811690811562000f34575b60086020525f805160206200457b833981519152545f9283526040909220548116911662001526565b62000f3e620011a2565b505062000f0b565b915f19908382810111620003905762000eec62000ef5926200010295600a5f5260205f2001015460301c62001c81565b6040516306dfcc6560e41b815260306004820152436024820152604490fd5b65ffffffffffff9081431162000f7657600a548062001014575062000fc3620001029262000eec5f62001ca4565b50506001600160a01b0390811690811562001002575b60086020525f805160206200457b833981519152545f9283526040909220548116911662001679565b6200100c6200121b565b505062000fd9565b915f19908382810111620003905762000eec62000fc3926200010295600a5f5260205f2001015460301c62001ca4565b65ffffffffffff9081431162000f7657600a5480620010c3575062001072620001029262000eec5f62001cc7565b50506001600160a01b03908116908115620010b1575b60086020525f805160206200457b833981519152545f928352604090922054811691166200179d565b620010bb62001290565b505062001088565b915f19908382810111620003905762000eec62001072926200010295600a5f5260205f2001015460301c62001cc7565b65ffffffffffff9081431162000f7657600a548062001172575062001121620001029262000eec5f62001cea565b50506001600160a01b0390811690811562001160575b60086020525f805160206200457b833981519152545f92835260409092205481169116620018c1565b6200116a62001305565b505062001137565b915f19908382810111620003905762000eec62001121926200010295600a5f5260205f2001015460301c62001cea565b65ffffffffffff80431162000f7657600a5480620011ef57505f5b6001600160d01b039081166a2116545850052127ffffff19019081116200039057620011eb91431662001abd565b9091565b5f199080828101116200039057600a5f52015f805160206200455b833981519152015460301c620011bd565b65ffffffffffff80431162000f7657600a54806200126457505f5b6001600160d01b039081166a14adf4b7320334b8ffffff19019081116200039057620011eb91431662001abd565b5f199080828101116200039057600a5f52015f805160206200455b833981519152015460301c62001236565b65ffffffffffff80431162000f7657600a5480620012d957505f5b6001600160d01b039081166a0c685fa11e01ec6effffff19019081116200039057620011eb91431662001abd565b5f199080828101116200039057600a5f52015f805160206200455b833981519152015460301c620012ab565b65ffffffffffff80431162000f7657600a54806200134e57505f5b6001600160d01b039081166a0845951614014849ffffff19019081116200039057620011eb91431662001abd565b5f199080828101116200039057600a5f52015f805160206200455b833981519152015460301c62001320565b65ffffffffffff9081431162000f7657805480620013c457505f905b6001600160d01b039182166a2116545850052128000000019182116200039057620011eb9243169062001bb6565b5f199080828101116200039057825f5260205f2001015460301c9062001396565b65ffffffffffff9081431162000f76578054806200142f57505f905b6001600160d01b039182166a14adf4b7320334b9000000019182116200039057620011eb9243169062001bb6565b5f199080828101116200039057825f5260205f2001015460301c9062001401565b65ffffffffffff9081431162000f76578054806200149a57505f905b6001600160d01b039182166a0c685fa11e01ec6f000000019182116200039057620011eb9243169062001bb6565b5f199080828101116200039057825f5260205f2001015460301c906200146c565b65ffffffffffff9081431162000f76578054806200150557505f905b6001600160d01b039182166a084595161401484a000000019182116200039057620011eb9243169062001bb6565b5f199080828101116200039057825f5260205f2001015460301c90620014d7565b6001600160a01b03808316929190811690818414158062001670575b6200154e575b50505050565b81620015ba575b50508162001566575b808062001548565b6001600160a01b03165f9081526009602052604090205f80516020620045bb8339815191529062001597906200137a565b604080516001600160d01b039384168152919092166020820152a25f806200155e565b6001600160a01b03165f90815260096020526040902065ffffffffffff9081431162000f76578054806200163657505f80516020620045bb833981519152916200161391620016095f62001d0d565b9143169062001bb6565b604080516001600160d01b039384168152919092166020820152a25f8062001555565b915f1991838381011162000390576200160962001613935f80516020620045bb83398151915295835f5260205f2001015460301c62001d0d565b50600162001542565b6001600160a01b03808316929190811690818414158062001794575b620016a05750505050565b81620016e8575b505081620016b757808062001548565b6001600160a01b03165f9081526009602052604090205f80516020620045bb833981519152906200159790620013e5565b6001600160a01b03165f90815260096020526040902065ffffffffffff9081431162000f76578054806200175a57505f80516020620045bb833981519152916200173791620016095f62001d31565b604080516001600160d01b039384168152919092166020820152a25f80620016a7565b915f1991838381011162000390576200160962001737935f80516020620045bb83398151915295835f5260205f2001015460301c62001d31565b50600162001695565b6001600160a01b038083169291908116908184141580620018b8575b620017c45750505050565b816200180c575b505081620017db57808062001548565b6001600160a01b03165f9081526009602052604090205f80516020620045bb83398151915290620015979062001450565b6001600160a01b03165f90815260096020526040902065ffffffffffff9081431162000f76578054806200187e57505f80516020620045bb833981519152916200185b91620016095f62001d55565b604080516001600160d01b039384168152919092166020820152a25f80620017cb565b915f199183838101116200039057620016096200185b935f80516020620045bb83398151915295835f5260205f2001015460301c62001d55565b506001620017b9565b6001600160a01b038083169291908116908184141580620019dc575b620018e85750505050565b8162001930575b505081620018ff57808062001548565b6001600160a01b03165f9081526009602052604090205f80516020620045bb833981519152906200159790620014bb565b6001600160a01b03165f90815260096020526040902065ffffffffffff9081431162000f7657805480620019a257505f80516020620045bb833981519152916200197f91620016095f62001d79565b604080516001600160d01b039384168152919092166020820152a25f80620018ef565b915f199183838101116200039057620016096200197f935f80516020620045bb83398151915295835f5260205f2001015460301c62001d79565b506001620018dd565b5f198101919082116200039057565b600a549068010000000000000000821015620000ed576001820180600a5582101562001a5457600a5f5280516020919091015160301b65ffffffffffff191665ffffffffffff91909116175f805160206200455b83398151915290910155565b634e487b7160e01b5f52603260045260245ffd5b90815468010000000000000000811015620000ed576001810180845581101562001a54575f9283526020928390208251929093015160301b65ffffffffffff191665ffffffffffff9290921691909117910155565b600a54919291801562001b885762001ad962001af091620019e5565b600a5f525f805160206200455b8339815191520190565b9081549165ffffffffffff9081841691831680831162001b765786920362001b385762001b3192509065ffffffffffff82549181199060301b169116179055565b60301c9190565b505062001b709062001b5b62001b4d620000f3565b65ffffffffffff9092168252565b6001600160d01b0385166020820152620019f4565b62001b31565b604051632520601d60e01b8152600490fd5b5062001bb19062001b9c62001b4d620000f3565b6001600160d01b0384166020820152620019f4565b5f9190565b8054929392801562001c575762001bd162001bdc91620019e5565b825f5260205f200190565b9182549265ffffffffffff9182851692811680841162001b765787930362001c1e575062001b3192509065ffffffffffff82549181199060301b169116179055565b91505062001b709162001c4262001c34620000f3565b65ffffffffffff9093168352565b6001600160d01b038616602083015262001a68565b509062001bb19162001c6c62001c34620000f3565b6001600160d01b038516602083015262001a68565b6001600160d01b039081166a211654585005212800000001908111620003905790565b6001600160d01b039081166a14adf4b7320334b900000001908111620003905790565b6001600160d01b039081166a0c685fa11e01ec6f00000001908111620003905790565b6001600160d01b039081166a084595161401484a00000001908111620003905790565b6001600160d01b039081166a2116545850052127ffffff1901908111620003905790565b6001600160d01b039081166a14adf4b7320334b8ffffff1901908111620003905790565b6001600160d01b039081166a0c685fa11e01ec6effffff1901908111620003905790565b6001600160d01b039081166a0845951614014849ffffff190190811162000390579056fe60806040526004361015610011575f80fd5b5f3560e01c806306fdde03146102bf5780630850a4ba146102ba578063095ea7b3146102b557806318160ddd146102b057806323b872dd146102ab578063254800d4146102a6578063256dfdbc146102a15780632f3346521461029c578063313ce567146102975780633644e515146102925780633a46b1a81461028d57806340c10f191461028857806344b1231f146102835780634bf5d7e91461027e5780634cfc4d3014610279578063587cde1e14610274578063599270441461026f5780635c19a95c1461026a5780635e15b5b91461026057806363f3dbe51461026557806368036d20146102605780636fcfff451461025b57806370a0823114610256578063715018a6146102515780637ecebe001461024c57806384a1931f1461024757806384b0196e146102425780638da5cb5b1461023d5780638e539e8c14610238578063902d55a51461023357806391ddadf41461022e57806395d89b41146102295780639ab24eb0146102245780639dc29fac1461021f578063a9059cbb1461021a578063acd7849014610215578063c3cda52014610210578063d505accf1461020b578063dd62ed3e14610206578063e867878114610201578063f1127ed8146101fc578063f2fde38b146101f75763f3640e74146101f2575f80fd5b611492565b611406565b611354565b61132f565b6112d8565b6111a5565b6110dc565b611097565b611071565b610f43565b610efc565b610e57565b610e2c565b610e07565b610d40565b610d18565b610c22565b610be8565b610bb0565b610b55565b610b1d565b610ab7565b610a74565b610a99565b610a50565b610a0c565b6109d3565b6109b5565b610924565b61090a565b6107eb565b61070d565b6106eb565b6106d0565b6106b3565b61068e565b610654565b6105a9565b61058c565b61055b565b610426565b610316565b91908251928382525f5b8481106102ee575050825f602080949584010152601f8019910116010190565b6020818301810151848301820152016102ce565b9060206103139281815201906102c4565b90565b346103f6575f3660031901126103f6576040515f600354610336816114e0565b808452906020906001908181169081156103cc5750600114610373575b61036f85610363818703826115a1565b60405191829182610302565b0390f35b60035f90815293507fc2575a0e9e593c00f959f8c92f12db2869c3395a3b0502d05e2516446f71f85b5b8385106103b9575050505081016020016103638261036f610353565b805486860184015293820193810161039d565b86955061036f9693506020925061036394915060ff191682840152151560051b8201019293610353565b5f80fd5b600435906001600160a01b03821682036103f657565b602435906001600160a01b03821682036103f657565b346103f65760203660031901126103f65761043f6103fa565b6001600160a01b03908116907f0000000000000000000000000000000000000000000000000000000000000000168082036105165761047f9033146115c3565b6104ab7f000000000000000000000000000000000000000000000000000000000000000042101561160f565b7f7777192a87ba8ac9752991fc9e0057a5e5aad9d2037648249545e6147752ee986105116104d76116fb565b6105016104fc6104ea600c548094611669565b80936104f7821515611676565b6116d0565b600c55565b6040519081529081906020820190565b0390a2005b60405162461bcd60e51b815260206004820152601b60248201527f5472757374546f6b656e3a206e6f74207465616d2077616c6c657400000000006044820152606490fd5b346103f65760403660031901126103f6576105816105776103fa565b6024359033611b94565b602060405160018152f35b346103f6575f3660031901126103f6576020600254604051908152f35b346103f65760603660031901126103f6576105c26103fa565b6105ca610410565b6001600160a01b0382165f9081526001602090815260408083203384529091529020604435919054925f198410610612575b61060693506117b2565b60405160018152602090f35b82841061062e576106298361060695033383611c42565b6105fc565b604051637dc7a0d960e11b81523360048201526024810185905260448101849052606490fd5b346103f6575f3660031901126103f65760206040517f00000000000000000000000000000000000000000000000000000000000000008152f35b346103f6575f3660031901126103f65760206040516a14adf4b7320334b90000008152f35b346103f6575f3660031901126103f6576020600c54604051908152f35b346103f6575f3660031901126103f657602060405160128152f35b346103f6575f3660031901126103f657602061070561188d565b604051908152f35b346103f65760403660031901126103f6576001600160a01b0361072e6103fa565b165f52600960205260405f206107456024356119a7565b8154905f829160058411610798575b61075f935084611e31565b908161077d57505060205f5b6040516001600160d01b039091168152f35b61078860209261165b565b905f52815f20015460301c61076b565b91926107a381611cac565b81039081116107e65761075f93855f5265ffffffffffff808360205f20015416908516105f146107d4575091610754565b9291506107e0906116c2565b90610754565b6114cc565b346103f65760403660031901126103f6576108046103fa565b60243561080f6119e8565b6001600160a01b0382169182156108f25761083461082f836002546116d0565b600255565b6001600160a01b0381165f908152602081905260409020828154019055825f7fddf252ad1be2c89b69c2b068fc378daa952ba7f163c4a11628f55a4df523b3ef6040518061088787829190602083019252565b0390a36002546001600160d01b0381116108cb5750816105017f0f6798a560793a54c3bcfe86a93cde1e73087d944c0ea20544137d412139688593610511936123bd565b604051630e58ae9360e11b815260048101919091526001600160d01b036024820152604490fd5b60405163ec442f0560e01b81525f6004820152602490fd5b346103f6575f3660031901126103f65760206107056116fb565b346103f6575f3660031901126103f65761093d43611c7a565b65ffffffffffff8061094e43611c7a565b169116036109a35761036f6040516109658161152c565b601d81527f6d6f64653d626c6f636b6e756d6265722666726f6d3d64656661756c7400000060208201526040519182916020835260208301906102c4565b6040516301bfc1c560e61b8152600490fd5b346103f6575f3660031901126103f65760206040516303c267008152f35b346103f65760203660031901126103f65760206001600160a01b03806109f76103fa565b165f526008825260405f205416604051908152f35b346103f6575f3660031901126103f6576040517f00000000000000000000000000000000000000000000000000000000000000006001600160a01b03168152602090f35b346103f65760203660031901126103f657610a72610a6c6103fa565b33611a14565b005b346103f6575f3660031901126103f65760206040516a084595161401484a0000008152f35b346103f6575f3660031901126103f65760206040516301e133808152f35b346103f65760203660031901126103f6576001600160a01b03610ad86103fa565b165f52600960205260405f205463ffffffff90818111610afe5760209160405191168152f35b604490604051906306dfcc6560e41b8252602060048301526024820152fd5b346103f65760203660031901126103f6576020610705610b3b6103fa565b6001600160a01b03165f9081526020819052604090205490565b346103f6575f3660031901126103f657610b6d6119e8565b600b80546001600160a01b031981169091555f906001600160a01b03167f8be0079c531659141344cd1fd0a4f28419497f9722a3daafe3b4186f6b6457e08280a3005b346103f65760203660031901126103f6576001600160a01b03610bd16103fa565b165f526007602052602060405f2054604051908152f35b346103f6575f3660031901126103f65760206040517f00000000000000000000000000000000000000000000000000000000000000008152f35b346103f6575f3660031901126103f657610cbb610c5e7f0000000000000000000000000000000000000000000000000000000000000000611fd5565b610c877f00000000000000000000000000000000000000000000000000000000000000006120d3565b60405190610c948261154d565b5f8252610cc9602091604051958695600f60f81b875260e0602088015260e08701906102c4565b9085820360408701526102c4565b4660608501523060808501525f60a085015283810360c0850152602080845192838152019301915f5b828110610d0157505050500390f35b835185528695509381019392810192600101610cf2565b346103f6575f3660031901126103f657600b546040516001600160a01b039091168152602090f35b346103f65760203660031901126103f657610d5c6004356119a7565b600a54905f829160058411610dae575b610d769350611dd7565b80610d8757506040515f8152602090f35b610d9260209161165b565b600a5f525f80516020612768833981519152015460301c61076b565b9192610db981611cac565b81039081116107e657610d7693600a5f5265ffffffffffff80835f80516020612768833981519152015416908516105f14610df5575091610d6c565b929150610e01906116c2565b90610d6c565b346103f6575f3660031901126103f65760206040516a52b7d2dcc80cd2e40000008152f35b346103f6575f3660031901126103f6576020610e4743611c7a565b65ffffffffffff60405191168152f35b346103f6575f3660031901126103f6576040515f600454610e77816114e0565b808452906020906001908181169081156103cc5750600114610ea35761036f85610363818703826115a1565b60045f90815293507f8a35acfbc15ff81a39ae7d344fd709f28e8600b4aa8c65c6b64bfe7fe36bd19b5b838510610ee9575050505081016020016103638261036f610353565b8054868601840152938201938101610ecd565b346103f65760203660031901126103f6576001600160a01b03610f1d6103fa565b165f526009602052602060018060d01b03610f3a60405f20611ad9565b16604051908152f35b346103f65760403660031901126103f657610f5c6103fa565b602435610f676119e8565b6001600160a01b038216918215611059576001600160a01b0381165f9081526020819052604090205482811061102957916105018161051193817fcc16f5dbb4873280815c1ee09dbd06736cffcc184412cf7a71a0fdb75d397ca59603610fdd8260018060a01b03165f525f60205260405f2090565b55610feb8260025403600255565b5f877fddf252ad1be2c89b69c2b068fc378daa952ba7f163c4a11628f55a4df523b3ef6040518061102187829190602083019252565b0390a361243a565b60405163391434e360e21b81526001600160a01b0392909216600483015260248201526044810191909152606490fd5b604051634b637e8f60e11b81525f6004820152602490fd5b346103f65760403660031901126103f65761058161108d6103fa565b60243590336117b2565b346103f6575f3660031901126103f65760206040516a0c685fa11e01ec6f0000008152f35b6064359060ff821682036103f657565b6084359060ff821682036103f657565b346103f65760c03660031901126103f6576110f56103fa565b604435906024356111046110bc565b83421161118c57611180610a7294611187926040519060208201927fe48329057bfd03d55e49b547132e39cffd9c1820ad7b9d4c5307691425d15adf845260018060a01b038816604084015286606084015260808301526080825261116882611569565b61117b60a4359360843593519020611b01565b611b27565b9182611b3f565b611a14565b604051632341d78760e11b815260048101859052602490fd5b346103f65760e03660031901126103f6576111be6103fa565b6111c6610410565b604435906064356111d56110cc565b8142116112bf576001600160a01b038581165f8181526007602090815260409182902080546001810190915582517f6e71edae12b1b97f4d1f60370fef10105fa2faae0126114a169c64845d6126c99281019283529283019390935292861660608201526080810187905260a081019190915260c08082019490945292835261127892909161126560e0836115a1565b61117b60c4359360a43593519020611b01565b6001600160a01b03848116908216036112955750610a7292611b94565b6040516325c0072360e11b81526001600160a01b0391821660048201529084166024820152604490fd5b60405163313c898160e11b815260048101839052602490fd5b346103f65760403660031901126103f65760206113266112f66103fa565b6112fe610410565b6001600160a01b039182165f9081526001855260408082209290931681526020919091522090565b54604051908152f35b346103f6575f3660031901126103f65760206040516a21165458500521280000008152f35b346103f65760403660031901126103f65761136d6103fa565b6024359063ffffffff821682036103f65761036f916113bc9161138e61179a565b5061139761179a565b506001600160a01b03165f9081526009602052604090206113b661179a565b506122c8565b50604051906113ca8261152c565b5465ffffffffffff811680835260309190911c60209283019081526040805192835290516001600160d01b031692820192909252918291820190565b346103f65760203660031901126103f65761141f6103fa565b6114276119e8565b6001600160a01b0390811690811561147a57600b54826bffffffffffffffffffffffff60a01b821617600b55167f8be0079c531659141344cd1fd0a4f28419497f9722a3daafe3b4186f6b6457e05f80a3005b604051631e4fbdf760e01b81525f6004820152602490fd5b346103f6575f3660031901126103f65760206040517f00000000000000000000000000000000000000000000000000000000000000008152f35b634e487b7160e01b5f52601160045260245ffd5b90600182811c9216801561150e575b60208310146114fa57565b634e487b7160e01b5f52602260045260245ffd5b91607f16916114ef565b634e487b7160e01b5f52604160045260245ffd5b6040810190811067ffffffffffffffff82111761154857604052565b611518565b6020810190811067ffffffffffffffff82111761154857604052565b60a0810190811067ffffffffffffffff82111761154857604052565b60c0810190811067ffffffffffffffff82111761154857604052565b90601f8019910116810190811067ffffffffffffffff82111761154857604052565b156115ca57565b60405162461bcd60e51b815260206004820152601b60248201527f5472757374546f6b656e3a2063616c6c6572206e6f74207465616d00000000006044820152606490fd5b1561161657565b60405162461bcd60e51b815260206004820152601d60248201527f5472757374546f6b656e3a20636c696666206e6f7420726561636865640000006044820152606490fd5b5f198101919082116107e657565b919082039182116107e657565b1561167d57565b60405162461bcd60e51b815260206004820152601c60248201527f5472757374546f6b656e3a206e6f7468696e6720746f20636c61696d000000006044820152606490fd5b90600182018092116107e657565b919082018092116107e657565b81156116e7570490565b634e487b7160e01b5f52601260045260245ffd5b7f0000000000000000000000000000000000000000000000000000000000000000804210611786577f00000000000000000000000000000000000000000000000000000000000000004210156117765742034281116107e6576a0c685fa11e01ec6f00000090808202918204036107e6576303c26700900490565b506a0c685fa11e01ec6f00000090565b505f90565b604051906117988261152c565b565b604051906117a78261152c565b5f6020838281520152565b6001600160a01b038082169493929190851561105957821680156108f2576001600160a01b0382165f908152602081905260409020549584871061185e57846117989697036118108460018060a01b03165f525f60205260405f2090565b556001600160a01b0384165f908152602081815260409182902080548801905590518681527fddf252ad1be2c89b69c2b068fc378daa952ba7f163c4a11628f55a4df523b3ef9190a36124ae565b60405163391434e360e21b81526001600160a01b03841660048201526024810188905260448101869052606490fd5b307f00000000000000000000000000000000000000000000000000000000000000006001600160a01b0316148061197e575b156118e8577f000000000000000000000000000000000000000000000000000000000000000090565b60405160208101907f8b73c3c69bb8fe3d512ecc4cf759cc79239f7b179b0ffacaa9a75d522b39400f82527f000000000000000000000000000000000000000000000000000000000000000060408201527f000000000000000000000000000000000000000000000000000000000000000060608201524660808201523060a082015260a0815261197881611585565b51902090565b507f000000000000000000000000000000000000000000000000000000000000000046146118bf565b65ffffffffffff6119b743611c7a565b16808210156119ca575061031390611c7a565b6044925060405191637669fc0f60e11b835260048301526024820152fd5b600b546001600160a01b031633036119fc57565b60405163118cdaa760e01b8152336004820152602490fd5b6001600160a01b038181165f81815260086020526040812080548685166001600160a01b03198216811790925561179896941694611a8f9390928691907f3134e8a2e6d97e929a7e54011ea5485d7d196dd5f0ba4d4ef95803e8e3fc257f9080a46001600160a01b03165f9081526020819052604090205490565b91611e85565b600a5480611aa257505f90565b805f198101116107e657600a5f527fc65a7bb8d6351c1cf70c95a316cc6a92839c986682d98bc35f958f4883f9d2a7015460301c90565b805480611ae65750505f90565b5f199181838101116107e6575f5260205f2001015460301c90565b604290611b0c61188d565b906040519161190160f01b8352600283015260228201522090565b916103139391611b3693612190565b9092919261223b565b6001600160a01b0381165f9081526007602052604090208054600181019091559091819003611b6c575050565b6040516301d4b62360e61b81526001600160a01b039092166004830152602482015260449150fd5b6001600160a01b038082169291908315611c2a578216938415611c125780611c087f8c5be1e5ebec7d5bd14f71427d1e84f3dd0314c0f7b2291e5b200ac8c7c3b92594611bf360209560018060a01b03165f52600160205260405f2090565b9060018060a01b03165f5260205260405f2090565b55604051908152a3565b604051634a1406b160e11b81525f6004820152602490fd5b60405163e602df0560e01b81525f6004820152602490fd5b906001600160a01b0380831615611c2a57811615611c1257611bf3611c779260018060a01b03165f52600160205260405f2090565b55565b65ffffffffffff90818111611c8d571690565b604490604051906306dfcc6560e41b8252603060048301526024820152fd5b600181111561031357600181600160801b811015611dc5575b611d6d611d63611d59611d4f611d45611d3b611d7997600488600160401b611d749a1015611db8575b640100000000811015611dab575b62010000811015611d9e575b610100811015611d92575b6010811015611d86575b1015611d7e575b60030260011c611d34818b6116dd565b0160011c90565b611d34818a6116dd565b611d3481896116dd565b611d3481886116dd565b611d3481876116dd565b611d3481866116dd565b80936116dd565b821190565b900390565b60011b611d24565b811c9160021b91611d1d565b60081c91811b91611d13565b60101c9160081b91611d08565b60201c9160101b91611cfc565b60401c9160201b91611cee565b50600160401b9050608082901c611cc5565b828210611de357505090565b909180831860011c8184160190600a5f5265ffffffffffff80835f80516020612768833981519152015416908416105f14611e215750915b90611dd7565b9250611e2c906116c2565b611e1b565b905b838310611e405750505090565b90919280841860011c8185160190835f5265ffffffffffff808360205f20015416908416105f14611e755750925b9190611e33565b9350611e80906116c2565b611e6e565b6001600160a01b03808316939291908116908185141580611fcc575b611ead575b5050505050565b81611f31575b505082611ec2575b8080611ea6565b6001600160a01b03165f9081526009602052604090207fdec2bacdd2f05b59de34da9b523dff8be42e5e38e818c82fdb0bae774387a72491611f0e91611f0890916122f1565b90612324565b604080516001600160d01b039384168152919092166020820152a25f8080611ebb565b6001600160a01b03165f908152600960205260409020611f50846122f1565b611f5943611c7a565b6001600160d01b03918280611f6d86611ad9565b1691169003928284116107e6577fdec2bacdd2f05b59de34da9b523dff8be42e5e38e818c82fdb0bae774387a72493611fc292611fa9926126ad565b6040805192851683529316602082015291829190820190565b0390a25f80611eb3565b50831515611ea1565b60ff81146120135760ff811690601f82116120015760405191611ff78361152c565b8252602082015290565b604051632cd44ac360e21b8152600490fd5b50604051600554815f612025836114e0565b808352926020906001908181169081156120af5750600114612050575b5050610313925003826115a1565b91509260055f527f036b6384b5eca791c62761152d0c79bb0604c104a5fb6f4eb0703f3154bb3db0935f925b82841061209757506103139450505081016020015f80612042565b8554878501830152948501948694509281019261207c565b9150506020925061031394915060ff191682840152151560051b8201015f80612042565b60ff81146120f55760ff811690601f82116120015760405191611ff78361152c565b50604051600654815f612107836114e0565b808352926020906001908181169081156120af5750600114612131575050610313925003826115a1565b91509260065f527ff652222313e28459528d920b65115c16c04f3efc82aaedc97be59f3f377c0d3f935f925b82841061217857506103139450505081016020015f80612042565b8554878501830152948501948694509281019261215d565b91907f7fffffffffffffffffffffffffffffff5d576e7357a4501ddfe92f46681b20a08411612212579160209360809260ff5f9560405194855216868401526040830152606082015282805260015afa15612207575f516001600160a01b038116156121fd57905f905f90565b505f906001905f90565b6040513d5f823e3d90fd5b5050505f9160039190565b6004111561222757565b634e487b7160e01b5f52602160045260245ffd5b6122448161221d565b8061224d575050565b6122568161221d565b600181036122705760405163f645eedf60e01b8152600490fd5b6122798161221d565b6002810361229a5760405163fce698f760e01b815260048101839052602490fd5b806122a660039261221d565b146122ae5750565b6040516335e2f38360e21b81526004810191909152602490fd5b80548210156122dd575f5260205f2001905f90565b634e487b7160e01b5f52603260045260245ffd5b6001600160d01b0390818111612305571690565b604490604051906306dfcc6560e41b825260d060048301526024820152fd5b9061232e43611c7a565b6001600160d01b0391828061234286611ad9565b169116019182116107e657612356926126ad565b9091565b61236343611c7a565b906001600160d01b03908180612377611a95565b169116019081116107e657612356916125c7565b61239443611c7a565b906001600160d01b039081806123a8611a95565b16911690039081116107e657612356916125c7565b90611798916123d36123ce836122f1565b61235a565b50506001600160a01b03908116908115612422575b60086020527f5eff886ea0ce6ca488a3d6e336d6c0f75f46d19b42c06ce5ee98e42c96d256c7545f92835260409092205481169116611e85565b61243361242e846122f1565b61238b565b50506123e8565b61179891906001600160a01b03908116801561249b575b61245d61242e846122f1565b50505f908152600860205260408120549080527f5eff886ea0ce6ca488a3d6e336d6c0f75f46d19b42c06ce5ee98e42c96d256c75482169116611e85565b6124a76123ce846122f1565b5050612451565b61179892916001600160a01b03918216919081908315612502575b169182156124ef575b5f5260086020528060405f205416915f5260405f20541690611e85565b6124fb61242e856122f1565b50506124d2565b61250e6123ce866122f1565b50506124c9565b600a5490600160401b821015611548576001820180600a558210156122dd57600a5f52805160209091015160301b65ffffffffffff191665ffffffffffff91909116175f8051602061276883398151915290910155565b8054600160401b81101561154857612589916001820181556122c8565b6125b457815160209092015160301b65ffffffffffff191665ffffffffffff92909216919091179055565b634e487b7160e01b5f525f60045260245ffd5b600a549192918015612684576125df6125f59161165b565b600a5f525f805160206127688339815191520190565b9081549165ffffffffffff908184169183168083116126725786920361263a5761263392509065ffffffffffff82549181199060301b169116179055565b60301c9190565b505061266d9061265961264b61178b565b65ffffffffffff9092168252565b6001600160d01b0385166020820152612515565b612633565b604051632520601d60e01b8152600490fd5b506126a89061269461264b61178b565b6001600160d01b0384166020820152612515565b5f9190565b80549293928015612742576126c46126cf9161165b565b825f5260205f200190565b9182549265ffffffffffff918285169281168084116126725787930361270e575061263392509065ffffffffffff82549181199060301b169116179055565b91505061266d9161272e61272061178b565b65ffffffffffff9093168352565b6001600160d01b038616602083015261256c565b50906126a89161275361272061178b565b6001600160d01b038516602083015261256c56fec65a7bb8d6351c1cf70c95a316cc6a92839c986682d98bc35f958f4883f9d2a8a26469706673582212206f7ada5044f739b9d32c5648d1f0e4e3f32aebd90ed28ee8417b141c385ad5c964736f6c63430008180033c65a7bb8d6351c1cf70c95a316cc6a92839c986682d98bc35f958f4883f9d2a85eff886ea0ce6ca488a3d6e336d6c0f75f46d19b42c06ce5ee98e42c96d256c7ddf252ad1be2c89b69c2b068fc378daa952ba7f163c4a11628f55a4df523b3efdec2bacdd2f05b59de34da9b523dff8be42e5e38e818c82fdb0bae774387a724",
  "linkReferences": {},
  "deployedLinkReferences": {}
}